{"abi":[{"inputs":[{"internalType":"address","name":"_gestionActeurDeploye","type":"address"}],"stateMutability":"nonpayable","type":"constructor"},{"anonymous":false,"inputs":[{"indexed":true,"internalType":"address","name":"approver","type":"address"},{"indexed":true,"internalType":"string","name":"diplomaHash","type":"string"}],"name":"ApprovedDiploma","type":"event"},{"inputs":[{"internalType":"string","name":"diplomaHash","type":"string"}],"name":"approveDiploma","outputs":[],"stateMutability":"nonpayable","type":"function"},{"inputs":[{"internalType":"string","name":"_diplomaHash","type":"string"},{"internalType":"string","name":"_etablissement","type":"string"},{"internalType":"string","name":"_studentName","type":"string"},{"internalType":"string","name":"_birthDate","type":"string"},{"internalType":"string","name":"_diplomaTitle","type":"string"},{"internalType":"enum GestionActeur.DiplomaType","name":"_diplomaType","type":"uint8"},{"internalType":"string","name":"_dateOfIssue","type":"string"},{"internalType":"string","name":"_speciality","type":"string"}],"name":"createDiploma","outputs":[],"stateMutability":"nonpayable","type":"function"},{"inputs":[],"name":"gestionActeur","outputs":[{"internalType":"contract GestionActeur","name":"","type":"address"}],"stateMutability":"view","type":"function"},{"inputs":[{"internalType":"string","name":"diplomaHash","type":"string"}],"name":"getDiplome","outputs":[{"components":[{"internalType":"string","name":"diplomaHash","type":"string"},{"internalType":"string","name":"etablissement","type":"string"},{"internalType":"string","name":"studentName","type":"string"},{"internalType":"string","name":"birthDate","type":"string"},{"internalType":"string","name":"diplomaTitle","type":"string"},{"internalType":"enum GestionActeur.DiplomaType","name":"diplomaType","type":"uint8"},{"internalType":"string","name":"dateOfIssue","type":"string"},{"internalType":"string","name":"speciality","type":"string"},{"internalType":"bool","name":"complete","type":"bool"}],"internalType":"struct GestionDiplome.Diploma","name":"","type":"tuple"}],"stateMutability":"view","type":"function"}],"devdoc":{"kind":"dev","methods":{},"version":1},"evm":{"assembly":"    /* \"GestionDiplome.sol\":89:2886  contract GestionDiplome {... */\n  mstore(0x40, 0x80)\n    /* \"GestionDiplome.sol\":760:874  constructor(address _gestionActeurDeploye){... */\n  callvalue\n  dup1\n  iszero\n  tag_1\n  jumpi\n  0x00\n  dup1\n  revert\ntag_1:\n  pop\n  mload(0x40)\n  sub(codesize, bytecodeSize)\n  dup1\n  bytecodeSize\n  dup4\n  codecopy\n  dup2\n  dup2\n  add\n  0x40\n  mstore\n  dup2\n  add\n  swap1\n  tag_2\n  swap2\n  swap1\n  tag_3\n  jump\t// in\ntag_2:\n    /* \"GestionDiplome.sol\":842:863  _gestionActeurDeploye */\n  dup1\n    /* \"GestionDiplome.sol\":813:826  gestionActeur */\n  0x01\n  0x00\n    /* \"GestionDiplome.sol\":813:864  gestionActeur= GestionActeur(_gestionActeurDeploye) */\n  0x0100\n  exp\n  dup2\n  sload\n  dup2\n  0xffffffffffffffffffffffffffffffffffffffff\n  mul\n  not\n  and\n  swap1\n  dup4\n  0xffffffffffffffffffffffffffffffffffffffff\n  and\n  mul\n  or\n  swap1\n  sstore\n  pop\n    /* \"GestionDiplome.sol\":760:874  constructor(address _gestionActeurDeploye){... */\n  pop\n    /* \"GestionDiplome.sol\":89:2886  contract GestionDiplome {... */\n  jump(tag_6)\n    /* \"#utility.yul\":88:205   */\ntag_8:\n    /* \"#utility.yul\":197:198   */\n  0x00\n    /* \"#utility.yul\":194:195   */\n  dup1\n    /* \"#utility.yul\":187:199   */\n  revert\n    /* \"#utility.yul\":334:460   */\ntag_10:\n    /* \"#utility.yul\":371:378   */\n  0x00\n    /* \"#utility.yul\":411:453   */\n  0xffffffffffffffffffffffffffffffffffffffff\n    /* \"#utility.yul\":404:409   */\n  dup3\n    /* \"#utility.yul\":400:454   */\n  and\n    /* \"#utility.yul\":389:454   */\n  swap1\n  pop\n    /* \"#utility.yul\":334:460   */\n  swap2\n  swap1\n  pop\n  jump\t// out\n    /* \"#utility.yul\":466:562   */\ntag_11:\n    /* \"#utility.yul\":503:510   */\n  0x00\n    /* \"#utility.yul\":532:556   */\n  tag_20\n    /* \"#utility.yul\":550:555   */\n  dup3\n    /* \"#utility.yul\":532:556   */\n  tag_10\n  jump\t// in\ntag_20:\n    /* \"#utility.yul\":521:556   */\n  swap1\n  pop\n    /* \"#utility.yul\":466:562   */\n  swap2\n  swap1\n  pop\n  jump\t// out\n    /* \"#utility.yul\":568:690   */\ntag_12:\n    /* \"#utility.yul\":641:665   */\n  tag_22\n    /* \"#utility.yul\":659:664   */\n  dup2\n    /* \"#utility.yul\":641:665   */\n  tag_11\n  jump\t// in\ntag_22:\n    /* \"#utility.yul\":634:639   */\n  dup2\n    /* \"#utility.yul\":631:666   */\n  eq\n    /* \"#utility.yul\":621:684   */\n  tag_23\n  jumpi\n    /* \"#utility.yul\":680:681   */\n  0x00\n    /* \"#utility.yul\":677:678   */\n  dup1\n    /* \"#utility.yul\":670:682   */\n  revert\n    /* \"#utility.yul\":621:684   */\ntag_23:\n    /* \"#utility.yul\":568:690   */\n  pop\n  jump\t// out\n    /* \"#utility.yul\":696:839   */\ntag_13:\n    /* \"#utility.yul\":753:758   */\n  0x00\n    /* \"#utility.yul\":784:790   */\n  dup2\n    /* \"#utility.yul\":778:791   */\n  mload\n    /* \"#utility.yul\":769:791   */\n  swap1\n  pop\n    /* \"#utility.yul\":800:833   */\n  tag_25\n    /* \"#utility.yul\":827:832   */\n  dup2\n    /* \"#utility.yul\":800:833   */\n  tag_12\n  jump\t// in\ntag_25:\n    /* \"#utility.yul\":696:839   */\n  swap3\n  swap2\n  pop\n  pop\n  jump\t// out\n    /* \"#utility.yul\":845:1196   */\ntag_3:\n    /* \"#utility.yul\":915:921   */\n  0x00\n    /* \"#utility.yul\":964:966   */\n  0x20\n    /* \"#utility.yul\":952:961   */\n  dup3\n    /* \"#utility.yul\":943:950   */\n  dup5\n    /* \"#utility.yul\":939:962   */\n  sub\n    /* \"#utility.yul\":935:967   */\n  slt\n    /* \"#utility.yul\":932:1051   */\n  iszero\n  tag_27\n  jumpi\n    /* \"#utility.yul\":970:1049   */\n  tag_28\n  tag_8\n  jump\t// in\ntag_28:\n    /* \"#utility.yul\":932:1051   */\ntag_27:\n    /* \"#utility.yul\":1090:1091   */\n  0x00\n    /* \"#utility.yul\":1115:1179   */\n  tag_29\n    /* \"#utility.yul\":1171:1178   */\n  dup5\n    /* \"#utility.yul\":1162:1168   */\n  dup3\n    /* \"#utility.yul\":1151:1160   */\n  dup6\n    /* \"#utility.yul\":1147:1169   */\n  add\n    /* \"#utility.yul\":1115:1179   */\n  tag_13\n  jump\t// in\ntag_29:\n    /* \"#utility.yul\":1105:1179   */\n  swap2\n  pop\n    /* \"#utility.yul\":1061:1189   */\n  pop\n    /* \"#utility.yul\":845:1196   */\n  swap3\n  swap2\n  pop\n  pop\n  jump\t// out\n    /* \"GestionDiplome.sol\":89:2886  contract GestionDiplome {... */\ntag_6:\n  dataSize(sub_0)\n  dup1\n  dataOffset(sub_0)\n  0x00\n  codecopy\n  0x00\n  return\nstop\n\nsub_0: assembly {\n        /* \"GestionDiplome.sol\":89:2886  contract GestionDiplome {... */\n      mstore(0x40, 0x80)\n      callvalue\n      dup1\n      iszero\n      tag_1\n      jumpi\n      0x00\n      dup1\n      revert\n    tag_1:\n      pop\n      jumpi(tag_2, lt(calldatasize, 0x04))\n      shr(0xe0, calldataload(0x00))\n      dup1\n      0x6cb31ac0\n      eq\n      tag_3\n      jumpi\n      dup1\n      0x6f593db5\n      eq\n      tag_4\n      jumpi\n      dup1\n      0x73243e61\n      eq\n      tag_5\n      jumpi\n      dup1\n      0xdcdebe85\n      eq\n      tag_6\n      jumpi\n    tag_2:\n      0x00\n      dup1\n      revert\n        /* \"GestionDiplome.sol\":1741:2480  function approveDiploma(string memory diplomaHash) public {... */\n    tag_3:\n      tag_7\n      0x04\n      dup1\n      calldatasize\n      sub\n      dup2\n      add\n      swap1\n      tag_8\n      swap2\n      swap1\n      tag_9\n      jump\t// in\n    tag_8:\n      tag_10\n      jump\t// in\n    tag_7:\n      stop\n        /* \"GestionDiplome.sol\":2488:2883  function getDiplome(string memory diplomaHash) public view returns (Diploma memory) {... */\n    tag_4:\n      tag_11\n      0x04\n      dup1\n      calldatasize\n      sub\n      dup2\n      add\n      swap1\n      tag_12\n      swap2\n      swap1\n      tag_9\n      jump\t// in\n    tag_12:\n      tag_13\n      jump\t// in\n    tag_11:\n      mload(0x40)\n      tag_14\n      swap2\n      swap1\n      tag_15\n      jump\t// in\n    tag_14:\n      mload(0x40)\n      dup1\n      swap2\n      sub\n      swap1\n      return\n        /* \"GestionDiplome.sol\":633:667  GestionActeur public gestionActeur */\n    tag_5:\n      tag_16\n      tag_17\n      jump\t// in\n    tag_16:\n      mload(0x40)\n      tag_18\n      swap2\n      swap1\n      tag_19\n      jump\t// in\n    tag_18:\n      mload(0x40)\n      dup1\n      swap2\n      sub\n      swap1\n      return\n        /* \"GestionDiplome.sol\":888:1733  function createDiploma(... */\n    tag_6:\n      tag_20\n      0x04\n      dup1\n      calldatasize\n      sub\n      dup2\n      add\n      swap1\n      tag_21\n      swap2\n      swap1\n      tag_22\n      jump\t// in\n    tag_21:\n      tag_23\n      jump\t// in\n    tag_20:\n      stop\n        /* \"GestionDiplome.sol\":1741:2480  function approveDiploma(string memory diplomaHash) public {... */\n    tag_10:\n        /* \"GestionDiplome.sol\":1814:1827  gestionActeur */\n      0x01\n      0x00\n      swap1\n      sload\n      swap1\n      0x0100\n      exp\n      swap1\n      div\n      0xffffffffffffffffffffffffffffffffffffffff\n      and\n        /* \"GestionDiplome.sol\":1814:1843  gestionActeur.isApproverValid */\n      0xffffffffffffffffffffffffffffffffffffffff\n      and\n      0x4c5e4b\n        /* \"GestionDiplome.sol\":1844:1854  msg.sender */\n      caller\n        /* \"GestionDiplome.sol\":1814:1855  gestionActeur.isApproverValid(msg.sender) */\n      mload(0x40)\n      dup3\n      0xffffffff\n      and\n      0xe0\n      shl\n      dup2\n      mstore\n      0x04\n      add\n      tag_25\n      swap2\n      swap1\n      tag_26\n      jump\t// in\n    tag_25:\n      0x20\n      mload(0x40)\n      dup1\n      dup4\n      sub\n      dup2\n      dup7\n      dup1\n      extcodesize\n      iszero\n      dup1\n      iszero\n      tag_27\n      jumpi\n      0x00\n      dup1\n      revert\n    tag_27:\n      pop\n      gas\n      staticcall\n      iszero\n      dup1\n      iszero\n      tag_29\n      jumpi\n      returndatasize\n      0x00\n      dup1\n      returndatacopy\n      revert(0x00, returndatasize)\n    tag_29:\n      pop\n      pop\n      pop\n      pop\n      mload(0x40)\n      returndatasize\n      not(0x1f)\n      0x1f\n      dup3\n      add\n      and\n      dup3\n      add\n      dup1\n      0x40\n      mstore\n      pop\n      dup2\n      add\n      swap1\n      tag_30\n      swap2\n      swap1\n      tag_31\n      jump\t// in\n    tag_30:\n        /* \"GestionDiplome.sol\":1806:1907  require(gestionActeur.isApproverValid(msg.sender), \"Vous n'avez pas le droit d'approver ce diplome.\") */\n      tag_32\n      jumpi\n      mload(0x40)\n      0x08c379a000000000000000000000000000000000000000000000000000000000\n      dup2\n      mstore\n      0x04\n      add\n      tag_33\n      swap1\n      tag_34\n      jump\t// in\n    tag_33:\n      mload(0x40)\n      dup1\n      swap2\n      sub\n      swap1\n      revert\n    tag_32:\n        /* \"GestionDiplome.sol\":2015:2016  0 */\n      0x00\n        /* \"GestionDiplome.sol\":1970:1978  diplomas */\n      dup1\n        /* \"GestionDiplome.sol\":1979:1990  diplomaHash */\n      dup3\n        /* \"GestionDiplome.sol\":1970:1991  diplomas[diplomaHash] */\n      mload(0x40)\n      tag_35\n      swap2\n      swap1\n      tag_36\n      jump\t// in\n    tag_35:\n      swap1\n      dup2\n      mstore\n      0x20\n      add\n      mload(0x40)\n      dup1\n      swap2\n      sub\n      swap1\n      keccak256\n        /* \"GestionDiplome.sol\":1970:2003  diplomas[diplomaHash].diplomaHash */\n      0x00\n      add\n        /* \"GestionDiplome.sol\":1964:2011  bytes(diplomas[diplomaHash].diplomaHash).length */\n      dup1\n      sload\n      tag_37\n      swap1\n      tag_38\n      jump\t// in\n    tag_37:\n      swap1\n      pop\n        /* \"GestionDiplome.sol\":1964:2016  bytes(diplomas[diplomaHash].diplomaHash).length != 0 */\n      eq\n      iszero\n        /* \"GestionDiplome.sol\":1956:2045  require(bytes(diplomas[diplomaHash].diplomaHash).length != 0, \"Le diplome n'existe pas.\") */\n      tag_39\n      jumpi\n      mload(0x40)\n      0x08c379a000000000000000000000000000000000000000000000000000000000\n      dup2\n      mstore\n      0x04\n      add\n      tag_40\n      swap1\n      tag_41\n      jump\t// in\n    tag_40:\n      mload(0x40)\n      dup1\n      swap2\n      sub\n      swap1\n      revert\n    tag_39:\n        /* \"GestionDiplome.sol\":2052:2069  Diploma storage d */\n      0x00\n        /* \"GestionDiplome.sol\":2072:2080  diplomas */\n      dup1\n        /* \"GestionDiplome.sol\":2081:2092  diplomaHash */\n      dup3\n        /* \"GestionDiplome.sol\":2072:2093  diplomas[diplomaHash] */\n      mload(0x40)\n      tag_42\n      swap2\n      swap1\n      tag_36\n      jump\t// in\n    tag_42:\n      swap1\n      dup2\n      mstore\n      0x20\n      add\n      mload(0x40)\n      dup1\n      swap2\n      sub\n      swap1\n      keccak256\n        /* \"GestionDiplome.sol\":2052:2093  Diploma storage d = diplomas[diplomaHash] */\n      swap1\n      pop\n        /* \"GestionDiplome.sol\":2154:2155  d */\n      dup1\n        /* \"GestionDiplome.sol\":2154:2167  d.diplomaType */\n      0x05\n      add\n      0x00\n      swap1\n      sload\n      swap1\n      0x0100\n      exp\n      swap1\n      div\n      0xff\n      and\n        /* \"GestionDiplome.sol\":2109:2167  gestionActeur.getApproverType(msg.sender) == d.diplomaType */\n      0x02\n      dup2\n      gt\n      iszero\n      tag_43\n      jumpi\n      tag_44\n      tag_45\n      jump\t// in\n    tag_44:\n    tag_43:\n        /* \"GestionDiplome.sol\":2109:2122  gestionActeur */\n      0x01\n      0x00\n      swap1\n      sload\n      swap1\n      0x0100\n      exp\n      swap1\n      div\n      0xffffffffffffffffffffffffffffffffffffffff\n      and\n        /* \"GestionDiplome.sol\":2109:2138  gestionActeur.getApproverType */\n      0xffffffffffffffffffffffffffffffffffffffff\n      and\n      0x3b305817\n        /* \"GestionDiplome.sol\":2139:2149  msg.sender */\n      caller\n        /* \"GestionDiplome.sol\":2109:2150  gestionActeur.getApproverType(msg.sender) */\n      mload(0x40)\n      dup3\n      0xffffffff\n      and\n      0xe0\n      shl\n      dup2\n      mstore\n      0x04\n      add\n      tag_46\n      swap2\n      swap1\n      tag_26\n      jump\t// in\n    tag_46:\n      0x20\n      mload(0x40)\n      dup1\n      dup4\n      sub\n      dup2\n      dup7\n      dup1\n      extcodesize\n      iszero\n      dup1\n      iszero\n      tag_47\n      jumpi\n      0x00\n      dup1\n      revert\n    tag_47:\n      pop\n      gas\n      staticcall\n      iszero\n      dup1\n      iszero\n      tag_49\n      jumpi\n      returndatasize\n      0x00\n      dup1\n      returndatacopy\n      revert(0x00, returndatasize)\n    tag_49:\n      pop\n      pop\n      pop\n      pop\n      mload(0x40)\n      returndatasize\n      not(0x1f)\n      0x1f\n      dup3\n      add\n      and\n      dup3\n      add\n      dup1\n      0x40\n      mstore\n      pop\n      dup2\n      add\n      swap1\n      tag_50\n      swap2\n      swap1\n      tag_51\n      jump\t// in\n    tag_50:\n        /* \"GestionDiplome.sol\":2109:2167  gestionActeur.getApproverType(msg.sender) == d.diplomaType */\n      0x02\n      dup2\n      gt\n      iszero\n      tag_52\n      jumpi\n      tag_53\n      tag_45\n      jump\t// in\n    tag_53:\n    tag_52:\n      eq\n        /* \"GestionDiplome.sol\":2100:2231  require (gestionActeur.getApproverType(msg.sender) == d.diplomaType, \"Le type de l'approver ne correspond pas au type du diplome.\") */\n      tag_54\n      jumpi\n      mload(0x40)\n      0x08c379a000000000000000000000000000000000000000000000000000000000\n      dup2\n      mstore\n      0x04\n      add\n      tag_55\n      swap1\n      tag_56\n      jump\t// in\n    tag_55:\n      mload(0x40)\n      dup1\n      swap2\n      sub\n      swap1\n      revert\n    tag_54:\n        /* \"GestionDiplome.sol\":2247:2255  diplomas */\n      0x00\n        /* \"GestionDiplome.sol\":2256:2267  diplomaHash */\n      dup3\n        /* \"GestionDiplome.sol\":2247:2268  diplomas[diplomaHash] */\n      mload(0x40)\n      tag_57\n      swap2\n      swap1\n      tag_36\n      jump\t// in\n    tag_57:\n      swap1\n      dup2\n      mstore\n      0x20\n      add\n      mload(0x40)\n      dup1\n      swap2\n      sub\n      swap1\n      keccak256\n        /* \"GestionDiplome.sol\":2247:2277  diplomas[diplomaHash].complete */\n      0x08\n      add\n      0x00\n      swap1\n      sload\n      swap1\n      0x0100\n      exp\n      swap1\n      div\n      0xff\n      and\n        /* \"GestionDiplome.sol\":2246:2277  !diplomas[diplomaHash].complete */\n      iszero\n        /* \"GestionDiplome.sol\":2238:2307  require(!diplomas[diplomaHash].complete,\"Le diplome est deja valide\") */\n      tag_58\n      jumpi\n      mload(0x40)\n      0x08c379a000000000000000000000000000000000000000000000000000000000\n      dup2\n      mstore\n      0x04\n      add\n      tag_59\n      swap1\n      tag_60\n      jump\t// in\n    tag_59:\n      mload(0x40)\n      dup1\n      swap2\n      sub\n      swap1\n      revert\n    tag_58:\n        /* \"GestionDiplome.sol\":2327:2331  true */\n      0x01\n        /* \"GestionDiplome.sol\":2314:2315  d */\n      dup2\n        /* \"GestionDiplome.sol\":2314:2324  d.complete */\n      0x08\n      add\n      0x00\n        /* \"GestionDiplome.sol\":2314:2331  d.complete = true */\n      0x0100\n      exp\n      dup2\n      sload\n      dup2\n      0xff\n      mul\n      not\n      and\n      swap1\n      dup4\n      iszero\n      iszero\n      mul\n      or\n      swap1\n      sstore\n      pop\n        /* \"GestionDiplome.sol\":2464:2475  diplomaHash */\n      dup2\n        /* \"GestionDiplome.sol\":2436:2476  ApprovedDiploma(msg.sender, diplomaHash) */\n      mload(0x40)\n      tag_61\n      swap2\n      swap1\n      tag_36\n      jump\t// in\n    tag_61:\n      mload(0x40)\n      dup1\n      swap2\n      sub\n      swap1\n      keccak256\n        /* \"GestionDiplome.sol\":2452:2462  msg.sender */\n      caller\n        /* \"GestionDiplome.sol\":2436:2476  ApprovedDiploma(msg.sender, diplomaHash) */\n      0xffffffffffffffffffffffffffffffffffffffff\n      and\n      0xfc9c7ab46267854ec3cba173f5174f7b36a3f699521a485bcbaae9c0e31e8838\n      mload(0x40)\n      mload(0x40)\n      dup1\n      swap2\n      sub\n      swap1\n      log3\n        /* \"GestionDiplome.sol\":1799:2480  {... */\n      pop\n        /* \"GestionDiplome.sol\":1741:2480  function approveDiploma(string memory diplomaHash) public {... */\n      pop\n      jump\t// out\n        /* \"GestionDiplome.sol\":2488:2883  function getDiplome(string memory diplomaHash) public view returns (Diploma memory) {... */\n    tag_13:\n        /* \"GestionDiplome.sol\":2556:2570  Diploma memory */\n      tag_62\n      tag_63\n      jump\t// in\n    tag_62:\n        /* \"GestionDiplome.sol\":2685:2686  0 */\n      0x00\n        /* \"GestionDiplome.sol\":2640:2648  diplomas */\n      dup1\n        /* \"GestionDiplome.sol\":2649:2660  diplomaHash */\n      dup4\n        /* \"GestionDiplome.sol\":2640:2661  diplomas[diplomaHash] */\n      mload(0x40)\n      tag_65\n      swap2\n      swap1\n      tag_36\n      jump\t// in\n    tag_65:\n      swap1\n      dup2\n      mstore\n      0x20\n      add\n      mload(0x40)\n      dup1\n      swap2\n      sub\n      swap1\n      keccak256\n        /* \"GestionDiplome.sol\":2640:2673  diplomas[diplomaHash].diplomaHash */\n      0x00\n      add\n        /* \"GestionDiplome.sol\":2634:2681  bytes(diplomas[diplomaHash].diplomaHash).length */\n      dup1\n      sload\n      tag_66\n      swap1\n      tag_38\n      jump\t// in\n    tag_66:\n      swap1\n      pop\n        /* \"GestionDiplome.sol\":2634:2686  bytes(diplomas[diplomaHash].diplomaHash).length != 0 */\n      eq\n      iszero\n        /* \"GestionDiplome.sol\":2626:2715  require(bytes(diplomas[diplomaHash].diplomaHash).length != 0, \"Le diplome n'existe pas.\") */\n      tag_67\n      jumpi\n      mload(0x40)\n      0x08c379a000000000000000000000000000000000000000000000000000000000\n      dup2\n      mstore\n      0x04\n      add\n      tag_68\n      swap1\n      tag_41\n      jump\t// in\n    tag_68:\n      mload(0x40)\n      dup1\n      swap2\n      sub\n      swap1\n      revert\n    tag_67:\n        /* \"GestionDiplome.sol\":2726:2748  Diploma memory diploma */\n      0x00\n        /* \"GestionDiplome.sol\":2751:2759  diplomas */\n      dup1\n        /* \"GestionDiplome.sol\":2760:2771  diplomaHash */\n      dup4\n        /* \"GestionDiplome.sol\":2751:2772  diplomas[diplomaHash] */\n      mload(0x40)\n      tag_69\n      swap2\n      swap1\n      tag_36\n      jump\t// in\n    tag_69:\n      swap1\n      dup2\n      mstore\n      0x20\n      add\n      mload(0x40)\n      dup1\n      swap2\n      sub\n      swap1\n      keccak256\n        /* \"GestionDiplome.sol\":2726:2772  Diploma memory diploma = diplomas[diplomaHash] */\n      mload(0x40)\n      dup1\n      0x0120\n      add\n      0x40\n      mstore\n      swap1\n      dup2\n      0x00\n      dup3\n      add\n      dup1\n      sload\n      tag_70\n      swap1\n      tag_38\n      jump\t// in\n    tag_70:\n      dup1\n      0x1f\n      add\n      0x20\n      dup1\n      swap2\n      div\n      mul\n      0x20\n      add\n      mload(0x40)\n      swap1\n      dup2\n      add\n      0x40\n      mstore\n      dup1\n      swap3\n      swap2\n      swap1\n      dup2\n      dup2\n      mstore\n      0x20\n      add\n      dup3\n      dup1\n      sload\n      tag_71\n      swap1\n      tag_38\n      jump\t// in\n    tag_71:\n      dup1\n      iszero\n      tag_72\n      jumpi\n      dup1\n      0x1f\n      lt\n      tag_73\n      jumpi\n      0x0100\n      dup1\n      dup4\n      sload\n      div\n      mul\n      dup4\n      mstore\n      swap2\n      0x20\n      add\n      swap2\n      jump(tag_72)\n    tag_73:\n      dup3\n      add\n      swap2\n      swap1\n      0x00\n      mstore\n      keccak256(0x00, 0x20)\n      swap1\n    tag_74:\n      dup2\n      sload\n      dup2\n      mstore\n      swap1\n      0x01\n      add\n      swap1\n      0x20\n      add\n      dup1\n      dup4\n      gt\n      tag_74\n      jumpi\n      dup3\n      swap1\n      sub\n      0x1f\n      and\n      dup3\n      add\n      swap2\n    tag_72:\n      pop\n      pop\n      pop\n      pop\n      pop\n      dup2\n      mstore\n      0x20\n      add\n      0x01\n      dup3\n      add\n      dup1\n      sload\n      tag_75\n      swap1\n      tag_38\n      jump\t// in\n    tag_75:\n      dup1\n      0x1f\n      add\n      0x20\n      dup1\n      swap2\n      div\n      mul\n      0x20\n      add\n      mload(0x40)\n      swap1\n      dup2\n      add\n      0x40\n      mstore\n      dup1\n      swap3\n      swap2\n      swap1\n      dup2\n      dup2\n      mstore\n      0x20\n      add\n      dup3\n      dup1\n      sload\n      tag_76\n      swap1\n      tag_38\n      jump\t// in\n    tag_76:\n      dup1\n      iszero\n      tag_77\n      jumpi\n      dup1\n      0x1f\n      lt\n      tag_78\n      jumpi\n      0x0100\n      dup1\n      dup4\n      sload\n      div\n      mul\n      dup4\n      mstore\n      swap2\n      0x20\n      add\n      swap2\n      jump(tag_77)\n    tag_78:\n      dup3\n      add\n      swap2\n      swap1\n      0x00\n      mstore\n      keccak256(0x00, 0x20)\n      swap1\n    tag_79:\n      dup2\n      sload\n      dup2\n      mstore\n      swap1\n      0x01\n      add\n      swap1\n      0x20\n      add\n      dup1\n      dup4\n      gt\n      tag_79\n      jumpi\n      dup3\n      swap1\n      sub\n      0x1f\n      and\n      dup3\n      add\n      swap2\n    tag_77:\n      pop\n      pop\n      pop\n      pop\n      pop\n      dup2\n      mstore\n      0x20\n      add\n      0x02\n      dup3\n      add\n      dup1\n      sload\n      tag_80\n      swap1\n      tag_38\n      jump\t// in\n    tag_80:\n      dup1\n      0x1f\n      add\n      0x20\n      dup1\n      swap2\n      div\n      mul\n      0x20\n      add\n      mload(0x40)\n      swap1\n      dup2\n      add\n      0x40\n      mstore\n      dup1\n      swap3\n      swap2\n      swap1\n      dup2\n      dup2\n      mstore\n      0x20\n      add\n      dup3\n      dup1\n      sload\n      tag_81\n      swap1\n      tag_38\n      jump\t// in\n    tag_81:\n      dup1\n      iszero\n      tag_82\n      jumpi\n      dup1\n      0x1f\n      lt\n      tag_83\n      jumpi\n      0x0100\n      dup1\n      dup4\n      sload\n      div\n      mul\n      dup4\n      mstore\n      swap2\n      0x20\n      add\n      swap2\n      jump(tag_82)\n    tag_83:\n      dup3\n      add\n      swap2\n      swap1\n      0x00\n      mstore\n      keccak256(0x00, 0x20)\n      swap1\n    tag_84:\n      dup2\n      sload\n      dup2\n      mstore\n      swap1\n      0x01\n      add\n      swap1\n      0x20\n      add\n      dup1\n      dup4\n      gt\n      tag_84\n      jumpi\n      dup3\n      swap1\n      sub\n      0x1f\n      and\n      dup3\n      add\n      swap2\n    tag_82:\n      pop\n      pop\n      pop\n      pop\n      pop\n      dup2\n      mstore\n      0x20\n      add\n      0x03\n      dup3\n      add\n      dup1\n      sload\n      tag_85\n      swap1\n      tag_38\n      jump\t// in\n    tag_85:\n      dup1\n      0x1f\n      add\n      0x20\n      dup1\n      swap2\n      div\n      mul\n      0x20\n      add\n      mload(0x40)\n      swap1\n      dup2\n      add\n      0x40\n      mstore\n      dup1\n      swap3\n      swap2\n      swap1\n      dup2\n      dup2\n      mstore\n      0x20\n      add\n      dup3\n      dup1\n      sload\n      tag_86\n      swap1\n      tag_38\n      jump\t// in\n    tag_86:\n      dup1\n      iszero\n      tag_87\n      jumpi\n      dup1\n      0x1f\n      lt\n      tag_88\n      jumpi\n      0x0100\n      dup1\n      dup4\n      sload\n      div\n      mul\n      dup4\n      mstore\n      swap2\n      0x20\n      add\n      swap2\n      jump(tag_87)\n    tag_88:\n      dup3\n      add\n      swap2\n      swap1\n      0x00\n      mstore\n      keccak256(0x00, 0x20)\n      swap1\n    tag_89:\n      dup2\n      sload\n      dup2\n      mstore\n      swap1\n      0x01\n      add\n      swap1\n      0x20\n      add\n      dup1\n      dup4\n      gt\n      tag_89\n      jumpi\n      dup3\n      swap1\n      sub\n      0x1f\n      and\n      dup3\n      add\n      swap2\n    tag_87:\n      pop\n      pop\n      pop\n      pop\n      pop\n      dup2\n      mstore\n      0x20\n      add\n      0x04\n      dup3\n      add\n      dup1\n      sload\n      tag_90\n      swap1\n      tag_38\n      jump\t// in\n    tag_90:\n      dup1\n      0x1f\n      add\n      0x20\n      dup1\n      swap2\n      div\n      mul\n      0x20\n      add\n      mload(0x40)\n      swap1\n      dup2\n      add\n      0x40\n      mstore\n      dup1\n      swap3\n      swap2\n      swap1\n      dup2\n      dup2\n      mstore\n      0x20\n      add\n      dup3\n      dup1\n      sload\n      tag_91\n      swap1\n      tag_38\n      jump\t// in\n    tag_91:\n      dup1\n      iszero\n      tag_92\n      jumpi\n      dup1\n      0x1f\n      lt\n      tag_93\n      jumpi\n      0x0100\n      dup1\n      dup4\n      sload\n      div\n      mul\n      dup4\n      mstore\n      swap2\n      0x20\n      add\n      swap2\n      jump(tag_92)\n    tag_93:\n      dup3\n      add\n      swap2\n      swap1\n      0x00\n      mstore\n      keccak256(0x00, 0x20)\n      swap1\n    tag_94:\n      dup2\n      sload\n      dup2\n      mstore\n      swap1\n      0x01\n      add\n      swap1\n      0x20\n      add\n      dup1\n      dup4\n      gt\n      tag_94\n      jumpi\n      dup3\n      swap1\n      sub\n      0x1f\n      and\n      dup3\n      add\n      swap2\n    tag_92:\n      pop\n      pop\n      pop\n      pop\n      pop\n      dup2\n      mstore\n      0x20\n      add\n      0x05\n      dup3\n      add\n      0x00\n      swap1\n      sload\n      swap1\n      0x0100\n      exp\n      swap1\n      div\n      0xff\n      and\n      0x02\n      dup2\n      gt\n      iszero\n      tag_95\n      jumpi\n      tag_96\n      tag_45\n      jump\t// in\n    tag_96:\n    tag_95:\n      0x02\n      dup2\n      gt\n      iszero\n      tag_97\n      jumpi\n      tag_98\n      tag_45\n      jump\t// in\n    tag_98:\n    tag_97:\n      dup2\n      mstore\n      0x20\n      add\n      0x06\n      dup3\n      add\n      dup1\n      sload\n      tag_99\n      swap1\n      tag_38\n      jump\t// in\n    tag_99:\n      dup1\n      0x1f\n      add\n      0x20\n      dup1\n      swap2\n      div\n      mul\n      0x20\n      add\n      mload(0x40)\n      swap1\n      dup2\n      add\n      0x40\n      mstore\n      dup1\n      swap3\n      swap2\n      swap1\n      dup2\n      dup2\n      mstore\n      0x20\n      add\n      dup3\n      dup1\n      sload\n      tag_100\n      swap1\n      tag_38\n      jump\t// in\n    tag_100:\n      dup1\n      iszero\n      tag_101\n      jumpi\n      dup1\n      0x1f\n      lt\n      tag_102\n      jumpi\n      0x0100\n      dup1\n      dup4\n      sload\n      div\n      mul\n      dup4\n      mstore\n      swap2\n      0x20\n      add\n      swap2\n      jump(tag_101)\n    tag_102:\n      dup3\n      add\n      swap2\n      swap1\n      0x00\n      mstore\n      keccak256(0x00, 0x20)\n      swap1\n    tag_103:\n      dup2\n      sload\n      dup2\n      mstore\n      swap1\n      0x01\n      add\n      swap1\n      0x20\n      add\n      dup1\n      dup4\n      gt\n      tag_103\n      jumpi\n      dup3\n      swap1\n      sub\n      0x1f\n      and\n      dup3\n      add\n      swap2\n    tag_101:\n      pop\n      pop\n      pop\n      pop\n      pop\n      dup2\n      mstore\n      0x20\n      add\n      0x07\n      dup3\n      add\n      dup1\n      sload\n      tag_104\n      swap1\n      tag_38\n      jump\t// in\n    tag_104:\n      dup1\n      0x1f\n      add\n      0x20\n      dup1\n      swap2\n      div\n      mul\n      0x20\n      add\n      mload(0x40)\n      swap1\n      dup2\n      add\n      0x40\n      mstore\n      dup1\n      swap3\n      swap2\n      swap1\n      dup2\n      dup2\n      mstore\n      0x20\n      add\n      dup3\n      dup1\n      sload\n      tag_105\n      swap1\n      tag_38\n      jump\t// in\n    tag_105:\n      dup1\n      iszero\n      tag_106\n      jumpi\n      dup1\n      0x1f\n      lt\n      tag_107\n      jumpi\n      0x0100\n      dup1\n      dup4\n      sload\n      div\n      mul\n      dup4\n      mstore\n      swap2\n      0x20\n      add\n      swap2\n      jump(tag_106)\n    tag_107:\n      dup3\n      add\n      swap2\n      swap1\n      0x00\n      mstore\n      keccak256(0x00, 0x20)\n      swap1\n    tag_108:\n      dup2\n      sload\n      dup2\n      mstore\n      swap1\n      0x01\n      add\n      swap1\n      0x20\n      add\n      dup1\n      dup4\n      gt\n      tag_108\n      jumpi\n      dup3\n      swap1\n      sub\n      0x1f\n      and\n      dup3\n      add\n      swap2\n    tag_106:\n      pop\n      pop\n      pop\n      pop\n      pop\n      dup2\n      mstore\n      0x20\n      add\n      0x08\n      dup3\n      add\n      0x00\n      swap1\n      sload\n      swap1\n      0x0100\n      exp\n      swap1\n      div\n      0xff\n      and\n      iszero\n      iszero\n      iszero\n      iszero\n      dup2\n      mstore\n      pop\n      pop\n      swap1\n      pop\n        /* \"GestionDiplome.sol\":2791:2798  diploma */\n      dup1\n        /* \"GestionDiplome.sol\":2791:2807  diploma.complete */\n      0x0100\n      add\n      mload\n        /* \"GestionDiplome.sol\":2783:2850  require(diploma.complete, \"Le diplome n'est pas pas encore valide\") */\n      tag_109\n      jumpi\n      mload(0x40)\n      0x08c379a000000000000000000000000000000000000000000000000000000000\n      dup2\n      mstore\n      0x04\n      add\n      tag_110\n      swap1\n      tag_111\n      jump\t// in\n    tag_110:\n      mload(0x40)\n      dup1\n      swap2\n      sub\n      swap1\n      revert\n    tag_109:\n        /* \"GestionDiplome.sol\":2868:2875  diploma */\n      dup1\n        /* \"GestionDiplome.sol\":2861:2875  return diploma */\n      swap2\n      pop\n      pop\n        /* \"GestionDiplome.sol\":2488:2883  function getDiplome(string memory diplomaHash) public view returns (Diploma memory) {... */\n      swap2\n      swap1\n      pop\n      jump\t// out\n        /* \"GestionDiplome.sol\":633:667  GestionActeur public gestionActeur */\n    tag_17:\n      0x01\n      0x00\n      swap1\n      sload\n      swap1\n      0x0100\n      exp\n      swap1\n      div\n      0xffffffffffffffffffffffffffffffffffffffff\n      and\n      dup2\n      jump\t// out\n        /* \"GestionDiplome.sol\":888:1733  function createDiploma(... */\n    tag_23:\n        /* \"GestionDiplome.sol\":1252:1265  gestionActeur */\n      0x01\n      0x00\n      swap1\n      sload\n      swap1\n      0x0100\n      exp\n      swap1\n      div\n      0xffffffffffffffffffffffffffffffffffffffff\n      and\n        /* \"GestionDiplome.sol\":1252:1286  gestionActeur.isEtablissementValid */\n      0xffffffffffffffffffffffffffffffffffffffff\n      and\n      0x6de88b3c\n        /* \"GestionDiplome.sol\":1287:1297  msg.sender */\n      caller\n        /* \"GestionDiplome.sol\":1252:1298  gestionActeur.isEtablissementValid(msg.sender) */\n      mload(0x40)\n      dup3\n      0xffffffff\n      and\n      0xe0\n      shl\n      dup2\n      mstore\n      0x04\n      add\n      tag_113\n      swap2\n      swap1\n      tag_26\n      jump\t// in\n    tag_113:\n      0x20\n      mload(0x40)\n      dup1\n      dup4\n      sub\n      dup2\n      dup7\n      dup1\n      extcodesize\n      iszero\n      dup1\n      iszero\n      tag_114\n      jumpi\n      0x00\n      dup1\n      revert\n    tag_114:\n      pop\n      gas\n      staticcall\n      iszero\n      dup1\n      iszero\n      tag_116\n      jumpi\n      returndatasize\n      0x00\n      dup1\n      returndatacopy\n      revert(0x00, returndatasize)\n    tag_116:\n      pop\n      pop\n      pop\n      pop\n      mload(0x40)\n      returndatasize\n      not(0x1f)\n      0x1f\n      dup3\n      add\n      and\n      dup3\n      add\n      dup1\n      0x40\n      mstore\n      pop\n      dup2\n      add\n      swap1\n      tag_117\n      swap2\n      swap1\n      tag_31\n      jump\t// in\n    tag_117:\n        /* \"GestionDiplome.sol\":1244:1348  require(gestionActeur.isEtablissementValid(msg.sender),\"Vous n'etes pas autoriser a creer des diplomes\") */\n      tag_118\n      jumpi\n      mload(0x40)\n      0x08c379a000000000000000000000000000000000000000000000000000000000\n      dup2\n      mstore\n      0x04\n      add\n      tag_119\n      swap1\n      tag_120\n      jump\t// in\n    tag_119:\n      mload(0x40)\n      dup1\n      swap2\n      sub\n      swap1\n      revert\n    tag_118:\n        /* \"GestionDiplome.sol\":1420:1432  _diplomaType */\n      dup3\n        /* \"GestionDiplome.sol\":1369:1432  gestionActeur.getEtablissementType(msg.sender)  == _diplomaType */\n      0x02\n      dup2\n      gt\n      iszero\n      tag_121\n      jumpi\n      tag_122\n      tag_45\n      jump\t// in\n    tag_122:\n    tag_121:\n        /* \"GestionDiplome.sol\":1369:1382  gestionActeur */\n      0x01\n      0x00\n      swap1\n      sload\n      swap1\n      0x0100\n      exp\n      swap1\n      div\n      0xffffffffffffffffffffffffffffffffffffffff\n      and\n        /* \"GestionDiplome.sol\":1369:1403  gestionActeur.getEtablissementType */\n      0xffffffffffffffffffffffffffffffffffffffff\n      and\n      0x2b4d3466\n        /* \"GestionDiplome.sol\":1404:1414  msg.sender */\n      caller\n        /* \"GestionDiplome.sol\":1369:1415  gestionActeur.getEtablissementType(msg.sender) */\n      mload(0x40)\n      dup3\n      0xffffffff\n      and\n      0xe0\n      shl\n      dup2\n      mstore\n      0x04\n      add\n      tag_123\n      swap2\n      swap1\n      tag_26\n      jump\t// in\n    tag_123:\n      0x20\n      mload(0x40)\n      dup1\n      dup4\n      sub\n      dup2\n      dup7\n      dup1\n      extcodesize\n      iszero\n      dup1\n      iszero\n      tag_124\n      jumpi\n      0x00\n      dup1\n      revert\n    tag_124:\n      pop\n      gas\n      staticcall\n      iszero\n      dup1\n      iszero\n      tag_126\n      jumpi\n      returndatasize\n      0x00\n      dup1\n      returndatacopy\n      revert(0x00, returndatasize)\n    tag_126:\n      pop\n      pop\n      pop\n      pop\n      mload(0x40)\n      returndatasize\n      not(0x1f)\n      0x1f\n      dup3\n      add\n      and\n      dup3\n      add\n      dup1\n      0x40\n      mstore\n      pop\n      dup2\n      add\n      swap1\n      tag_127\n      swap2\n      swap1\n      tag_51\n      jump\t// in\n    tag_127:\n        /* \"GestionDiplome.sol\":1369:1432  gestionActeur.getEtablissementType(msg.sender)  == _diplomaType */\n      0x02\n      dup2\n      gt\n      iszero\n      tag_128\n      jumpi\n      tag_129\n      tag_45\n      jump\t// in\n    tag_129:\n    tag_128:\n      eq\n        /* \"GestionDiplome.sol\":1359:1515  require(  gestionActeur.getEtablissementType(msg.sender)  == _diplomaType, \"Vous n'avez pas le droit d'enregistrer ce diplome: probleme de type de diplome\") */\n      tag_130\n      jumpi\n      mload(0x40)\n      0x08c379a000000000000000000000000000000000000000000000000000000000\n      dup2\n      mstore\n      0x04\n      add\n      tag_131\n      swap1\n      tag_132\n      jump\t// in\n    tag_131:\n      mload(0x40)\n      dup1\n      swap2\n      sub\n      swap1\n      revert\n    tag_130:\n        /* \"GestionDiplome.sol\":1526:1551  Diploma memory newDiploma */\n      0x00\n        /* \"GestionDiplome.sol\":1554:1679  Diploma(_diplomaHash, _etablissement, _studentName, _birthDate, _diplomaTitle,_diplomaType, _dateOfIssue, _speciality, false) */\n      mload(0x40)\n      dup1\n      0x0120\n      add\n      0x40\n      mstore\n      dup1\n        /* \"GestionDiplome.sol\":1562:1574  _diplomaHash */\n      dup11\n        /* \"GestionDiplome.sol\":1554:1679  Diploma(_diplomaHash, _etablissement, _studentName, _birthDate, _diplomaTitle,_diplomaType, _dateOfIssue, _speciality, false) */\n      dup2\n      mstore\n      0x20\n      add\n        /* \"GestionDiplome.sol\":1576:1590  _etablissement */\n      dup10\n        /* \"GestionDiplome.sol\":1554:1679  Diploma(_diplomaHash, _etablissement, _studentName, _birthDate, _diplomaTitle,_diplomaType, _dateOfIssue, _speciality, false) */\n      dup2\n      mstore\n      0x20\n      add\n        /* \"GestionDiplome.sol\":1592:1604  _studentName */\n      dup9\n        /* \"GestionDiplome.sol\":1554:1679  Diploma(_diplomaHash, _etablissement, _studentName, _birthDate, _diplomaTitle,_diplomaType, _dateOfIssue, _speciality, false) */\n      dup2\n      mstore\n      0x20\n      add\n        /* \"GestionDiplome.sol\":1606:1616  _birthDate */\n      dup8\n        /* \"GestionDiplome.sol\":1554:1679  Diploma(_diplomaHash, _etablissement, _studentName, _birthDate, _diplomaTitle,_diplomaType, _dateOfIssue, _speciality, false) */\n      dup2\n      mstore\n      0x20\n      add\n        /* \"GestionDiplome.sol\":1618:1631  _diplomaTitle */\n      dup7\n        /* \"GestionDiplome.sol\":1554:1679  Diploma(_diplomaHash, _etablissement, _studentName, _birthDate, _diplomaTitle,_diplomaType, _dateOfIssue, _speciality, false) */\n      dup2\n      mstore\n      0x20\n      add\n        /* \"GestionDiplome.sol\":1632:1644  _diplomaType */\n      dup6\n        /* \"GestionDiplome.sol\":1554:1679  Diploma(_diplomaHash, _etablissement, _studentName, _birthDate, _diplomaTitle,_diplomaType, _dateOfIssue, _speciality, false) */\n      0x02\n      dup2\n      gt\n      iszero\n      tag_133\n      jumpi\n      tag_134\n      tag_45\n      jump\t// in\n    tag_134:\n    tag_133:\n      dup2\n      mstore\n      0x20\n      add\n        /* \"GestionDiplome.sol\":1646:1658  _dateOfIssue */\n      dup5\n        /* \"GestionDiplome.sol\":1554:1679  Diploma(_diplomaHash, _etablissement, _studentName, _birthDate, _diplomaTitle,_diplomaType, _dateOfIssue, _speciality, false) */\n      dup2\n      mstore\n      0x20\n      add\n        /* \"GestionDiplome.sol\":1660:1671  _speciality */\n      dup4\n        /* \"GestionDiplome.sol\":1554:1679  Diploma(_diplomaHash, _etablissement, _studentName, _birthDate, _diplomaTitle,_diplomaType, _dateOfIssue, _speciality, false) */\n      dup2\n      mstore\n      0x20\n      add\n        /* \"GestionDiplome.sol\":1673:1678  false */\n      0x00\n        /* \"GestionDiplome.sol\":1554:1679  Diploma(_diplomaHash, _etablissement, _studentName, _birthDate, _diplomaTitle,_diplomaType, _dateOfIssue, _speciality, false) */\n      iszero\n      iszero\n      dup2\n      mstore\n      pop\n        /* \"GestionDiplome.sol\":1526:1679  Diploma memory newDiploma = Diploma(_diplomaHash, _etablissement, _studentName, _birthDate, _diplomaTitle,_diplomaType, _dateOfIssue, _speciality, false) */\n      swap1\n      pop\n        /* \"GestionDiplome.sol\":1715:1725  newDiploma */\n      dup1\n        /* \"GestionDiplome.sol\":1690:1698  diplomas */\n      0x00\n        /* \"GestionDiplome.sol\":1699:1711  _diplomaHash */\n      dup11\n        /* \"GestionDiplome.sol\":1690:1712  diplomas[_diplomaHash] */\n      mload(0x40)\n      tag_135\n      swap2\n      swap1\n      tag_36\n      jump\t// in\n    tag_135:\n      swap1\n      dup2\n      mstore\n      0x20\n      add\n      mload(0x40)\n      dup1\n      swap2\n      sub\n      swap1\n      keccak256\n        /* \"GestionDiplome.sol\":1690:1725  diplomas[_diplomaHash] = newDiploma */\n      0x00\n      dup3\n      add\n      mload\n      dup2\n      0x00\n      add\n      swap1\n      dup1\n      mload\n      swap1\n      0x20\n      add\n      swap1\n      tag_136\n      swap3\n      swap2\n      swap1\n      tag_137\n      jump\t// in\n    tag_136:\n      pop\n      0x20\n      dup3\n      add\n      mload\n      dup2\n      0x01\n      add\n      swap1\n      dup1\n      mload\n      swap1\n      0x20\n      add\n      swap1\n      tag_138\n      swap3\n      swap2\n      swap1\n      tag_137\n      jump\t// in\n    tag_138:\n      pop\n      0x40\n      dup3\n      add\n      mload\n      dup2\n      0x02\n      add\n      swap1\n      dup1\n      mload\n      swap1\n      0x20\n      add\n      swap1\n      tag_139\n      swap3\n      swap2\n      swap1\n      tag_137\n      jump\t// in\n    tag_139:\n      pop\n      0x60\n      dup3\n      add\n      mload\n      dup2\n      0x03\n      add\n      swap1\n      dup1\n      mload\n      swap1\n      0x20\n      add\n      swap1\n      tag_140\n      swap3\n      swap2\n      swap1\n      tag_137\n      jump\t// in\n    tag_140:\n      pop\n      0x80\n      dup3\n      add\n      mload\n      dup2\n      0x04\n      add\n      swap1\n      dup1\n      mload\n      swap1\n      0x20\n      add\n      swap1\n      tag_141\n      swap3\n      swap2\n      swap1\n      tag_137\n      jump\t// in\n    tag_141:\n      pop\n      0xa0\n      dup3\n      add\n      mload\n      dup2\n      0x05\n      add\n      exp(0x0100, 0x00)\n      dup2\n      sload\n      dup2\n      0xff\n      mul\n      not\n      and\n      swap1\n      dup4\n      0x02\n      dup2\n      gt\n      iszero\n      tag_142\n      jumpi\n      tag_143\n      tag_45\n      jump\t// in\n    tag_143:\n    tag_142:\n      mul\n      or\n      swap1\n      sstore\n      pop\n      0xc0\n      dup3\n      add\n      mload\n      dup2\n      0x06\n      add\n      swap1\n      dup1\n      mload\n      swap1\n      0x20\n      add\n      swap1\n      tag_144\n      swap3\n      swap2\n      swap1\n      tag_137\n      jump\t// in\n    tag_144:\n      pop\n      0xe0\n      dup3\n      add\n      mload\n      dup2\n      0x07\n      add\n      swap1\n      dup1\n      mload\n      swap1\n      0x20\n      add\n      swap1\n      tag_145\n      swap3\n      swap2\n      swap1\n      tag_137\n      jump\t// in\n    tag_145:\n      pop\n      0x0100\n      dup3\n      add\n      mload\n      dup2\n      0x08\n      add\n      exp(0x0100, 0x00)\n      dup2\n      sload\n      dup2\n      0xff\n      mul\n      not\n      and\n      swap1\n      dup4\n      iszero\n      iszero\n      mul\n      or\n      swap1\n      sstore\n      pop\n      swap1\n      pop\n      pop\n        /* \"GestionDiplome.sol\":1233:1733  {... */\n      pop\n        /* \"GestionDiplome.sol\":888:1733  function createDiploma(... */\n      pop\n      pop\n      pop\n      pop\n      pop\n      pop\n      pop\n      pop\n      jump\t// out\n    tag_63:\n      mload(0x40)\n      dup1\n      0x0120\n      add\n      0x40\n      mstore\n      dup1\n      0x60\n      dup2\n      mstore\n      0x20\n      add\n      0x60\n      dup2\n      mstore\n      0x20\n      add\n      0x60\n      dup2\n      mstore\n      0x20\n      add\n      0x60\n      dup2\n      mstore\n      0x20\n      add\n      0x60\n      dup2\n      mstore\n      0x20\n      add\n      0x00\n      0x02\n      dup2\n      gt\n      iszero\n      tag_146\n      jumpi\n      tag_147\n      tag_45\n      jump\t// in\n    tag_147:\n    tag_146:\n      dup2\n      mstore\n      0x20\n      add\n      0x60\n      dup2\n      mstore\n      0x20\n      add\n      0x60\n      dup2\n      mstore\n      0x20\n      add\n      iszero(iszero(0x00))\n      dup2\n      mstore\n      pop\n      swap1\n      jump\t// out\n    tag_137:\n      dup3\n      dup1\n      sload\n      tag_148\n      swap1\n      tag_38\n      jump\t// in\n    tag_148:\n      swap1\n      0x00\n      mstore\n      keccak256(0x00, 0x20)\n      swap1\n      0x1f\n      add\n      0x20\n      swap1\n      div\n      dup2\n      add\n      swap3\n      dup3\n      tag_150\n      jumpi\n      0x00\n      dup6\n      sstore\n      jump(tag_149)\n    tag_150:\n      dup3\n      0x1f\n      lt\n      tag_151\n      jumpi\n      dup1\n      mload\n      not(0xff)\n      and\n      dup4\n      dup1\n      add\n      or\n      dup6\n      sstore\n      jump(tag_149)\n    tag_151:\n      dup3\n      dup1\n      add\n      0x01\n      add\n      dup6\n      sstore\n      dup3\n      iszero\n      tag_149\n      jumpi\n      swap2\n      dup3\n      add\n    tag_152:\n      dup3\n      dup2\n      gt\n      iszero\n      tag_153\n      jumpi\n      dup3\n      mload\n      dup3\n      sstore\n      swap2\n      0x20\n      add\n      swap2\n      swap1\n      0x01\n      add\n      swap1\n      jump(tag_152)\n    tag_153:\n    tag_149:\n      pop\n      swap1\n      pop\n      tag_154\n      swap2\n      swap1\n      tag_155\n      jump\t// in\n    tag_154:\n      pop\n      swap1\n      jump\t// out\n    tag_155:\n    tag_156:\n      dup1\n      dup3\n      gt\n      iszero\n      tag_157\n      jumpi\n      0x00\n      dup2\n      0x00\n      swap1\n      sstore\n      pop\n      0x01\n      add\n      jump(tag_156)\n    tag_157:\n      pop\n      swap1\n      jump\t// out\n        /* \"#utility.yul\":7:82   */\n    tag_158:\n        /* \"#utility.yul\":40:46   */\n      0x00\n        /* \"#utility.yul\":73:75   */\n      0x40\n        /* \"#utility.yul\":67:76   */\n      mload\n        /* \"#utility.yul\":57:76   */\n      swap1\n      pop\n        /* \"#utility.yul\":7:82   */\n      swap1\n      jump\t// out\n        /* \"#utility.yul\":88:205   */\n    tag_159:\n        /* \"#utility.yul\":197:198   */\n      0x00\n        /* \"#utility.yul\":194:195   */\n      dup1\n        /* \"#utility.yul\":187:199   */\n      revert\n        /* \"#utility.yul\":211:328   */\n    tag_160:\n        /* \"#utility.yul\":320:321   */\n      0x00\n        /* \"#utility.yul\":317:318   */\n      dup1\n        /* \"#utility.yul\":310:322   */\n      revert\n        /* \"#utility.yul\":334:451   */\n    tag_161:\n        /* \"#utility.yul\":443:444   */\n      0x00\n        /* \"#utility.yul\":440:441   */\n      dup1\n        /* \"#utility.yul\":433:445   */\n      revert\n        /* \"#utility.yul\":457:574   */\n    tag_162:\n        /* \"#utility.yul\":566:567   */\n      0x00\n        /* \"#utility.yul\":563:564   */\n      dup1\n        /* \"#utility.yul\":556:568   */\n      revert\n        /* \"#utility.yul\":580:682   */\n    tag_163:\n        /* \"#utility.yul\":621:627   */\n      0x00\n        /* \"#utility.yul\":672:674   */\n      0x1f\n        /* \"#utility.yul\":668:675   */\n      not\n        /* \"#utility.yul\":663:665   */\n      0x1f\n        /* \"#utility.yul\":656:661   */\n      dup4\n        /* \"#utility.yul\":652:666   */\n      add\n        /* \"#utility.yul\":648:676   */\n      and\n        /* \"#utility.yul\":638:676   */\n      swap1\n      pop\n        /* \"#utility.yul\":580:682   */\n      swap2\n      swap1\n      pop\n      jump\t// out\n        /* \"#utility.yul\":688:868   */\n    tag_164:\n        /* \"#utility.yul\":736:813   */\n      0x4e487b7100000000000000000000000000000000000000000000000000000000\n        /* \"#utility.yul\":733:734   */\n      0x00\n        /* \"#utility.yul\":726:814   */\n      mstore\n        /* \"#utility.yul\":833:837   */\n      0x41\n        /* \"#utility.yul\":830:831   */\n      0x04\n        /* \"#utility.yul\":823:838   */\n      mstore\n        /* \"#utility.yul\":857:861   */\n      0x24\n        /* \"#utility.yul\":854:855   */\n      0x00\n        /* \"#utility.yul\":847:862   */\n      revert\n        /* \"#utility.yul\":874:1155   */\n    tag_165:\n        /* \"#utility.yul\":957:984   */\n      tag_222\n        /* \"#utility.yul\":979:983   */\n      dup3\n        /* \"#utility.yul\":957:984   */\n      tag_163\n      jump\t// in\n    tag_222:\n        /* \"#utility.yul\":949:955   */\n      dup2\n        /* \"#utility.yul\":945:985   */\n      add\n        /* \"#utility.yul\":1087:1093   */\n      dup2\n        /* \"#utility.yul\":1075:1085   */\n      dup2\n        /* \"#utility.yul\":1072:1094   */\n      lt\n        /* \"#utility.yul\":1051:1069   */\n      0xffffffffffffffff\n        /* \"#utility.yul\":1039:1049   */\n      dup3\n        /* \"#utility.yul\":1036:1070   */\n      gt\n        /* \"#utility.yul\":1033:1095   */\n      or\n        /* \"#utility.yul\":1030:1118   */\n      iszero\n      tag_223\n      jumpi\n        /* \"#utility.yul\":1098:1116   */\n      tag_224\n      tag_164\n      jump\t// in\n    tag_224:\n        /* \"#utility.yul\":1030:1118   */\n    tag_223:\n        /* \"#utility.yul\":1138:1148   */\n      dup1\n        /* \"#utility.yul\":1134:1136   */\n      0x40\n        /* \"#utility.yul\":1127:1149   */\n      mstore\n        /* \"#utility.yul\":917:1155   */\n      pop\n        /* \"#utility.yul\":874:1155   */\n      pop\n      pop\n      jump\t// out\n        /* \"#utility.yul\":1161:1290   */\n    tag_166:\n        /* \"#utility.yul\":1195:1201   */\n      0x00\n        /* \"#utility.yul\":1222:1242   */\n      tag_226\n      tag_158\n      jump\t// in\n    tag_226:\n        /* \"#utility.yul\":1212:1242   */\n      swap1\n      pop\n        /* \"#utility.yul\":1251:1284   */\n      tag_227\n        /* \"#utility.yul\":1279:1283   */\n      dup3\n        /* \"#utility.yul\":1271:1277   */\n      dup3\n        /* \"#utility.yul\":1251:1284   */\n      tag_165\n      jump\t// in\n    tag_227:\n        /* \"#utility.yul\":1161:1290   */\n      swap2\n      swap1\n      pop\n      jump\t// out\n        /* \"#utility.yul\":1296:1604   */\n    tag_167:\n        /* \"#utility.yul\":1358:1362   */\n      0x00\n        /* \"#utility.yul\":1448:1466   */\n      0xffffffffffffffff\n        /* \"#utility.yul\":1440:1446   */\n      dup3\n        /* \"#utility.yul\":1437:1467   */\n      gt\n        /* \"#utility.yul\":1434:1490   */\n      iszero\n      tag_229\n      jumpi\n        /* \"#utility.yul\":1470:1488   */\n      tag_230\n      tag_164\n      jump\t// in\n    tag_230:\n        /* \"#utility.yul\":1434:1490   */\n    tag_229:\n        /* \"#utility.yul\":1508:1537   */\n      tag_231\n        /* \"#utility.yul\":1530:1536   */\n      dup3\n        /* \"#utility.yul\":1508:1537   */\n      tag_163\n      jump\t// in\n    tag_231:\n        /* \"#utility.yul\":1500:1537   */\n      swap1\n      pop\n        /* \"#utility.yul\":1592:1596   */\n      0x20\n        /* \"#utility.yul\":1586:1590   */\n      dup2\n        /* \"#utility.yul\":1582:1597   */\n      add\n        /* \"#utility.yul\":1574:1597   */\n      swap1\n      pop\n        /* \"#utility.yul\":1296:1604   */\n      swap2\n      swap1\n      pop\n      jump\t// out\n        /* \"#utility.yul\":1610:1764   */\n    tag_168:\n        /* \"#utility.yul\":1694:1700   */\n      dup3\n        /* \"#utility.yul\":1689:1692   */\n      dup2\n        /* \"#utility.yul\":1684:1687   */\n      dup4\n        /* \"#utility.yul\":1671:1701   */\n      calldatacopy\n        /* \"#utility.yul\":1756:1757   */\n      0x00\n        /* \"#utility.yul\":1747:1753   */\n      dup4\n        /* \"#utility.yul\":1742:1745   */\n      dup4\n        /* \"#utility.yul\":1738:1754   */\n      add\n        /* \"#utility.yul\":1731:1758   */\n      mstore\n        /* \"#utility.yul\":1610:1764   */\n      pop\n      pop\n      pop\n      jump\t// out\n        /* \"#utility.yul\":1770:2182   */\n    tag_169:\n        /* \"#utility.yul\":1848:1853   */\n      0x00\n        /* \"#utility.yul\":1873:1939   */\n      tag_234\n        /* \"#utility.yul\":1889:1938   */\n      tag_235\n        /* \"#utility.yul\":1931:1937   */\n      dup5\n        /* \"#utility.yul\":1889:1938   */\n      tag_167\n      jump\t// in\n    tag_235:\n        /* \"#utility.yul\":1873:1939   */\n      tag_166\n      jump\t// in\n    tag_234:\n        /* \"#utility.yul\":1864:1939   */\n      swap1\n      pop\n        /* \"#utility.yul\":1962:1968   */\n      dup3\n        /* \"#utility.yul\":1955:1960   */\n      dup2\n        /* \"#utility.yul\":1948:1969   */\n      mstore\n        /* \"#utility.yul\":2000:2004   */\n      0x20\n        /* \"#utility.yul\":1993:1998   */\n      dup2\n        /* \"#utility.yul\":1989:2005   */\n      add\n        /* \"#utility.yul\":2038:2041   */\n      dup5\n        /* \"#utility.yul\":2029:2035   */\n      dup5\n        /* \"#utility.yul\":2024:2027   */\n      dup5\n        /* \"#utility.yul\":2020:2036   */\n      add\n        /* \"#utility.yul\":2017:2042   */\n      gt\n        /* \"#utility.yul\":2014:2126   */\n      iszero\n      tag_236\n      jumpi\n        /* \"#utility.yul\":2045:2124   */\n      tag_237\n      tag_162\n      jump\t// in\n    tag_237:\n        /* \"#utility.yul\":2014:2126   */\n    tag_236:\n        /* \"#utility.yul\":2135:2176   */\n      tag_238\n        /* \"#utility.yul\":2169:2175   */\n      dup5\n        /* \"#utility.yul\":2164:2167   */\n      dup3\n        /* \"#utility.yul\":2159:2162   */\n      dup6\n        /* \"#utility.yul\":2135:2176   */\n      tag_168\n      jump\t// in\n    tag_238:\n        /* \"#utility.yul\":1854:2182   */\n      pop\n        /* \"#utility.yul\":1770:2182   */\n      swap4\n      swap3\n      pop\n      pop\n      pop\n      jump\t// out\n        /* \"#utility.yul\":2202:2542   */\n    tag_170:\n        /* \"#utility.yul\":2258:2263   */\n      0x00\n        /* \"#utility.yul\":2307:2310   */\n      dup3\n        /* \"#utility.yul\":2300:2304   */\n      0x1f\n        /* \"#utility.yul\":2292:2298   */\n      dup4\n        /* \"#utility.yul\":2288:2305   */\n      add\n        /* \"#utility.yul\":2284:2311   */\n      slt\n        /* \"#utility.yul\":2274:2396   */\n      tag_240\n      jumpi\n        /* \"#utility.yul\":2315:2394   */\n      tag_241\n      tag_161\n      jump\t// in\n    tag_241:\n        /* \"#utility.yul\":2274:2396   */\n    tag_240:\n        /* \"#utility.yul\":2432:2438   */\n      dup2\n        /* \"#utility.yul\":2419:2439   */\n      calldataload\n        /* \"#utility.yul\":2457:2536   */\n      tag_242\n        /* \"#utility.yul\":2532:2535   */\n      dup5\n        /* \"#utility.yul\":2524:2530   */\n      dup3\n        /* \"#utility.yul\":2517:2521   */\n      0x20\n        /* \"#utility.yul\":2509:2515   */\n      dup7\n        /* \"#utility.yul\":2505:2522   */\n      add\n        /* \"#utility.yul\":2457:2536   */\n      tag_169\n      jump\t// in\n    tag_242:\n        /* \"#utility.yul\":2448:2536   */\n      swap2\n      pop\n        /* \"#utility.yul\":2264:2542   */\n      pop\n        /* \"#utility.yul\":2202:2542   */\n      swap3\n      swap2\n      pop\n      pop\n      jump\t// out\n        /* \"#utility.yul\":2548:3057   */\n    tag_9:\n        /* \"#utility.yul\":2617:2623   */\n      0x00\n        /* \"#utility.yul\":2666:2668   */\n      0x20\n        /* \"#utility.yul\":2654:2663   */\n      dup3\n        /* \"#utility.yul\":2645:2652   */\n      dup5\n        /* \"#utility.yul\":2641:2664   */\n      sub\n        /* \"#utility.yul\":2637:2669   */\n      slt\n        /* \"#utility.yul\":2634:2753   */\n      iszero\n      tag_244\n      jumpi\n        /* \"#utility.yul\":2672:2751   */\n      tag_245\n      tag_159\n      jump\t// in\n    tag_245:\n        /* \"#utility.yul\":2634:2753   */\n    tag_244:\n        /* \"#utility.yul\":2820:2821   */\n      0x00\n        /* \"#utility.yul\":2809:2818   */\n      dup3\n        /* \"#utility.yul\":2805:2822   */\n      add\n        /* \"#utility.yul\":2792:2823   */\n      calldataload\n        /* \"#utility.yul\":2850:2868   */\n      0xffffffffffffffff\n        /* \"#utility.yul\":2842:2848   */\n      dup2\n        /* \"#utility.yul\":2839:2869   */\n      gt\n        /* \"#utility.yul\":2836:2953   */\n      iszero\n      tag_246\n      jumpi\n        /* \"#utility.yul\":2872:2951   */\n      tag_247\n      tag_160\n      jump\t// in\n    tag_247:\n        /* \"#utility.yul\":2836:2953   */\n    tag_246:\n        /* \"#utility.yul\":2977:3040   */\n      tag_248\n        /* \"#utility.yul\":3032:3039   */\n      dup5\n        /* \"#utility.yul\":3023:3029   */\n      dup3\n        /* \"#utility.yul\":3012:3021   */\n      dup6\n        /* \"#utility.yul\":3008:3030   */\n      add\n        /* \"#utility.yul\":2977:3040   */\n      tag_170\n      jump\t// in\n    tag_248:\n        /* \"#utility.yul\":2967:3040   */\n      swap2\n      pop\n        /* \"#utility.yul\":2763:3050   */\n      pop\n        /* \"#utility.yul\":2548:3057   */\n      swap3\n      swap2\n      pop\n      pop\n      jump\t// out\n        /* \"#utility.yul\":3063:3162   */\n    tag_171:\n        /* \"#utility.yul\":3115:3121   */\n      0x00\n        /* \"#utility.yul\":3149:3154   */\n      dup2\n        /* \"#utility.yul\":3143:3155   */\n      mload\n        /* \"#utility.yul\":3133:3155   */\n      swap1\n      pop\n        /* \"#utility.yul\":3063:3162   */\n      swap2\n      swap1\n      pop\n      jump\t// out\n        /* \"#utility.yul\":3168:3327   */\n    tag_172:\n        /* \"#utility.yul\":3242:3253   */\n      0x00\n        /* \"#utility.yul\":3276:3282   */\n      dup3\n        /* \"#utility.yul\":3271:3274   */\n      dup3\n        /* \"#utility.yul\":3264:3283   */\n      mstore\n        /* \"#utility.yul\":3316:3320   */\n      0x20\n        /* \"#utility.yul\":3311:3314   */\n      dup3\n        /* \"#utility.yul\":3307:3321   */\n      add\n        /* \"#utility.yul\":3292:3321   */\n      swap1\n      pop\n        /* \"#utility.yul\":3168:3327   */\n      swap3\n      swap2\n      pop\n      pop\n      jump\t// out\n        /* \"#utility.yul\":3333:3640   */\n    tag_173:\n        /* \"#utility.yul\":3401:3402   */\n      0x00\n        /* \"#utility.yul\":3411:3524   */\n    tag_252:\n        /* \"#utility.yul\":3425:3431   */\n      dup4\n        /* \"#utility.yul\":3422:3423   */\n      dup2\n        /* \"#utility.yul\":3419:3432   */\n      lt\n        /* \"#utility.yul\":3411:3524   */\n      iszero\n      tag_254\n      jumpi\n        /* \"#utility.yul\":3510:3511   */\n      dup1\n        /* \"#utility.yul\":3505:3508   */\n      dup3\n        /* \"#utility.yul\":3501:3512   */\n      add\n        /* \"#utility.yul\":3495:3513   */\n      mload\n        /* \"#utility.yul\":3491:3492   */\n      dup2\n        /* \"#utility.yul\":3486:3489   */\n      dup5\n        /* \"#utility.yul\":3482:3493   */\n      add\n        /* \"#utility.yul\":3475:3514   */\n      mstore\n        /* \"#utility.yul\":3447:3449   */\n      0x20\n        /* \"#utility.yul\":3444:3445   */\n      dup2\n        /* \"#utility.yul\":3440:3450   */\n      add\n        /* \"#utility.yul\":3435:3450   */\n      swap1\n      pop\n        /* \"#utility.yul\":3411:3524   */\n      jump(tag_252)\n    tag_254:\n        /* \"#utility.yul\":3542:3548   */\n      dup4\n        /* \"#utility.yul\":3539:3540   */\n      dup2\n        /* \"#utility.yul\":3536:3549   */\n      gt\n        /* \"#utility.yul\":3533:3634   */\n      iszero\n      tag_255\n      jumpi\n        /* \"#utility.yul\":3622:3623   */\n      0x00\n        /* \"#utility.yul\":3613:3619   */\n      dup5\n        /* \"#utility.yul\":3608:3611   */\n      dup5\n        /* \"#utility.yul\":3604:3620   */\n      add\n        /* \"#utility.yul\":3597:3624   */\n      mstore\n        /* \"#utility.yul\":3533:3634   */\n    tag_255:\n        /* \"#utility.yul\":3382:3640   */\n      pop\n        /* \"#utility.yul\":3333:3640   */\n      pop\n      pop\n      pop\n      jump\t// out\n        /* \"#utility.yul\":3646:3990   */\n    tag_174:\n        /* \"#utility.yul\":3724:3727   */\n      0x00\n        /* \"#utility.yul\":3752:3791   */\n      tag_257\n        /* \"#utility.yul\":3785:3790   */\n      dup3\n        /* \"#utility.yul\":3752:3791   */\n      tag_171\n      jump\t// in\n    tag_257:\n        /* \"#utility.yul\":3807:3868   */\n      tag_258\n        /* \"#utility.yul\":3861:3867   */\n      dup2\n        /* \"#utility.yul\":3856:3859   */\n      dup6\n        /* \"#utility.yul\":3807:3868   */\n      tag_172\n      jump\t// in\n    tag_258:\n        /* \"#utility.yul\":3800:3868   */\n      swap4\n      pop\n        /* \"#utility.yul\":3877:3929   */\n      tag_259\n        /* \"#utility.yul\":3922:3928   */\n      dup2\n        /* \"#utility.yul\":3917:3920   */\n      dup6\n        /* \"#utility.yul\":3910:3914   */\n      0x20\n        /* \"#utility.yul\":3903:3908   */\n      dup7\n        /* \"#utility.yul\":3899:3915   */\n      add\n        /* \"#utility.yul\":3877:3929   */\n      tag_173\n      jump\t// in\n    tag_259:\n        /* \"#utility.yul\":3954:3983   */\n      tag_260\n        /* \"#utility.yul\":3976:3982   */\n      dup2\n        /* \"#utility.yul\":3954:3983   */\n      tag_163\n      jump\t// in\n    tag_260:\n        /* \"#utility.yul\":3949:3952   */\n      dup5\n        /* \"#utility.yul\":3945:3984   */\n      add\n        /* \"#utility.yul\":3938:3984   */\n      swap2\n      pop\n        /* \"#utility.yul\":3728:3990   */\n      pop\n        /* \"#utility.yul\":3646:3990   */\n      swap3\n      swap2\n      pop\n      pop\n      jump\t// out\n        /* \"#utility.yul\":3996:4176   */\n    tag_45:\n        /* \"#utility.yul\":4044:4121   */\n      0x4e487b7100000000000000000000000000000000000000000000000000000000\n        /* \"#utility.yul\":4041:4042   */\n      0x00\n        /* \"#utility.yul\":4034:4122   */\n      mstore\n        /* \"#utility.yul\":4141:4145   */\n      0x21\n        /* \"#utility.yul\":4138:4139   */\n      0x04\n        /* \"#utility.yul\":4131:4146   */\n      mstore\n        /* \"#utility.yul\":4165:4169   */\n      0x24\n        /* \"#utility.yul\":4162:4163   */\n      0x00\n        /* \"#utility.yul\":4155:4170   */\n      revert\n        /* \"#utility.yul\":4182:4300   */\n    tag_175:\n        /* \"#utility.yul\":4268:4269   */\n      0x03\n        /* \"#utility.yul\":4261:4266   */\n      dup2\n        /* \"#utility.yul\":4258:4270   */\n      lt\n        /* \"#utility.yul\":4248:4294   */\n      tag_263\n      jumpi\n        /* \"#utility.yul\":4274:4292   */\n      tag_264\n      tag_45\n      jump\t// in\n    tag_264:\n        /* \"#utility.yul\":4248:4294   */\n    tag_263:\n        /* \"#utility.yul\":4182:4300   */\n      pop\n      jump\t// out\n        /* \"#utility.yul\":4306:4443   */\n    tag_176:\n        /* \"#utility.yul\":4356:4363   */\n      0x00\n        /* \"#utility.yul\":4385:4390   */\n      dup2\n        /* \"#utility.yul\":4374:4390   */\n      swap1\n      pop\n        /* \"#utility.yul\":4391:4437   */\n      tag_266\n        /* \"#utility.yul\":4431:4436   */\n      dup3\n        /* \"#utility.yul\":4391:4437   */\n      tag_175\n      jump\t// in\n    tag_266:\n        /* \"#utility.yul\":4306:4443   */\n      swap2\n      swap1\n      pop\n      jump\t// out\n        /* \"#utility.yul\":4449:4586   */\n    tag_177:\n        /* \"#utility.yul\":4510:4519   */\n      0x00\n        /* \"#utility.yul\":4543:4580   */\n      tag_268\n        /* \"#utility.yul\":4574:4579   */\n      dup3\n        /* \"#utility.yul\":4543:4580   */\n      tag_176\n      jump\t// in\n    tag_268:\n        /* \"#utility.yul\":4530:4580   */\n      swap1\n      pop\n        /* \"#utility.yul\":4449:4586   */\n      swap2\n      swap1\n      pop\n      jump\t// out\n        /* \"#utility.yul\":4592:4735   */\n    tag_178:\n        /* \"#utility.yul\":4680:4728   */\n      tag_270\n        /* \"#utility.yul\":4722:4727   */\n      dup2\n        /* \"#utility.yul\":4680:4728   */\n      tag_177\n      jump\t// in\n    tag_270:\n        /* \"#utility.yul\":4675:4678   */\n      dup3\n        /* \"#utility.yul\":4668:4729   */\n      mstore\n        /* \"#utility.yul\":4592:4735   */\n      pop\n      pop\n      jump\t// out\n        /* \"#utility.yul\":4741:4831   */\n    tag_179:\n        /* \"#utility.yul\":4775:4782   */\n      0x00\n        /* \"#utility.yul\":4818:4823   */\n      dup2\n        /* \"#utility.yul\":4811:4824   */\n      iszero\n        /* \"#utility.yul\":4804:4825   */\n      iszero\n        /* \"#utility.yul\":4793:4825   */\n      swap1\n      pop\n        /* \"#utility.yul\":4741:4831   */\n      swap2\n      swap1\n      pop\n      jump\t// out\n        /* \"#utility.yul\":4837:4936   */\n    tag_180:\n        /* \"#utility.yul\":4908:4929   */\n      tag_273\n        /* \"#utility.yul\":4923:4928   */\n      dup2\n        /* \"#utility.yul\":4908:4929   */\n      tag_179\n      jump\t// in\n    tag_273:\n        /* \"#utility.yul\":4903:4906   */\n      dup3\n        /* \"#utility.yul\":4896:4930   */\n      mstore\n        /* \"#utility.yul\":4837:4936   */\n      pop\n      pop\n      jump\t// out\n        /* \"#utility.yul\":5012:7331   */\n    tag_181:\n        /* \"#utility.yul\":5129:5132   */\n      0x00\n        /* \"#utility.yul\":5165:5171   */\n      0x0120\n        /* \"#utility.yul\":5160:5163   */\n      dup4\n        /* \"#utility.yul\":5156:5172   */\n      add\n        /* \"#utility.yul\":5261:5265   */\n      0x00\n        /* \"#utility.yul\":5254:5259   */\n      dup4\n        /* \"#utility.yul\":5250:5266   */\n      add\n        /* \"#utility.yul\":5244:5267   */\n      mload\n        /* \"#utility.yul\":5314:5317   */\n      dup5\n        /* \"#utility.yul\":5308:5312   */\n      dup3\n        /* \"#utility.yul\":5304:5318   */\n      sub\n        /* \"#utility.yul\":5297:5301   */\n      0x00\n        /* \"#utility.yul\":5292:5295   */\n      dup7\n        /* \"#utility.yul\":5288:5302   */\n      add\n        /* \"#utility.yul\":5281:5319   */\n      mstore\n        /* \"#utility.yul\":5340:5413   */\n      tag_275\n        /* \"#utility.yul\":5408:5412   */\n      dup3\n        /* \"#utility.yul\":5394:5406   */\n      dup3\n        /* \"#utility.yul\":5340:5413   */\n      tag_174\n      jump\t// in\n    tag_275:\n        /* \"#utility.yul\":5332:5413   */\n      swap2\n      pop\n        /* \"#utility.yul\":5182:5424   */\n      pop\n        /* \"#utility.yul\":5515:5519   */\n      0x20\n        /* \"#utility.yul\":5508:5513   */\n      dup4\n        /* \"#utility.yul\":5504:5520   */\n      add\n        /* \"#utility.yul\":5498:5521   */\n      mload\n        /* \"#utility.yul\":5568:5571   */\n      dup5\n        /* \"#utility.yul\":5562:5566   */\n      dup3\n        /* \"#utility.yul\":5558:5572   */\n      sub\n        /* \"#utility.yul\":5551:5555   */\n      0x20\n        /* \"#utility.yul\":5546:5549   */\n      dup7\n        /* \"#utility.yul\":5542:5556   */\n      add\n        /* \"#utility.yul\":5535:5573   */\n      mstore\n        /* \"#utility.yul\":5594:5667   */\n      tag_276\n        /* \"#utility.yul\":5662:5666   */\n      dup3\n        /* \"#utility.yul\":5648:5660   */\n      dup3\n        /* \"#utility.yul\":5594:5667   */\n      tag_174\n      jump\t// in\n    tag_276:\n        /* \"#utility.yul\":5586:5667   */\n      swap2\n      pop\n        /* \"#utility.yul\":5434:5678   */\n      pop\n        /* \"#utility.yul\":5767:5771   */\n      0x40\n        /* \"#utility.yul\":5760:5765   */\n      dup4\n        /* \"#utility.yul\":5756:5772   */\n      add\n        /* \"#utility.yul\":5750:5773   */\n      mload\n        /* \"#utility.yul\":5820:5823   */\n      dup5\n        /* \"#utility.yul\":5814:5818   */\n      dup3\n        /* \"#utility.yul\":5810:5824   */\n      sub\n        /* \"#utility.yul\":5803:5807   */\n      0x40\n        /* \"#utility.yul\":5798:5801   */\n      dup7\n        /* \"#utility.yul\":5794:5808   */\n      add\n        /* \"#utility.yul\":5787:5825   */\n      mstore\n        /* \"#utility.yul\":5846:5919   */\n      tag_277\n        /* \"#utility.yul\":5914:5918   */\n      dup3\n        /* \"#utility.yul\":5900:5912   */\n      dup3\n        /* \"#utility.yul\":5846:5919   */\n      tag_174\n      jump\t// in\n    tag_277:\n        /* \"#utility.yul\":5838:5919   */\n      swap2\n      pop\n        /* \"#utility.yul\":5688:5930   */\n      pop\n        /* \"#utility.yul\":6017:6021   */\n      0x60\n        /* \"#utility.yul\":6010:6015   */\n      dup4\n        /* \"#utility.yul\":6006:6022   */\n      add\n        /* \"#utility.yul\":6000:6023   */\n      mload\n        /* \"#utility.yul\":6070:6073   */\n      dup5\n        /* \"#utility.yul\":6064:6068   */\n      dup3\n        /* \"#utility.yul\":6060:6074   */\n      sub\n        /* \"#utility.yul\":6053:6057   */\n      0x60\n        /* \"#utility.yul\":6048:6051   */\n      dup7\n        /* \"#utility.yul\":6044:6058   */\n      add\n        /* \"#utility.yul\":6037:6075   */\n      mstore\n        /* \"#utility.yul\":6096:6169   */\n      tag_278\n        /* \"#utility.yul\":6164:6168   */\n      dup3\n        /* \"#utility.yul\":6150:6162   */\n      dup3\n        /* \"#utility.yul\":6096:6169   */\n      tag_174\n      jump\t// in\n    tag_278:\n        /* \"#utility.yul\":6088:6169   */\n      swap2\n      pop\n        /* \"#utility.yul\":5940:6180   */\n      pop\n        /* \"#utility.yul\":6270:6274   */\n      0x80\n        /* \"#utility.yul\":6263:6268   */\n      dup4\n        /* \"#utility.yul\":6259:6275   */\n      add\n        /* \"#utility.yul\":6253:6276   */\n      mload\n        /* \"#utility.yul\":6323:6326   */\n      dup5\n        /* \"#utility.yul\":6317:6321   */\n      dup3\n        /* \"#utility.yul\":6313:6327   */\n      sub\n        /* \"#utility.yul\":6306:6310   */\n      0x80\n        /* \"#utility.yul\":6301:6304   */\n      dup7\n        /* \"#utility.yul\":6297:6311   */\n      add\n        /* \"#utility.yul\":6290:6328   */\n      mstore\n        /* \"#utility.yul\":6349:6422   */\n      tag_279\n        /* \"#utility.yul\":6417:6421   */\n      dup3\n        /* \"#utility.yul\":6403:6415   */\n      dup3\n        /* \"#utility.yul\":6349:6422   */\n      tag_174\n      jump\t// in\n    tag_279:\n        /* \"#utility.yul\":6341:6422   */\n      swap2\n      pop\n        /* \"#utility.yul\":6190:6433   */\n      pop\n        /* \"#utility.yul\":6522:6526   */\n      0xa0\n        /* \"#utility.yul\":6515:6520   */\n      dup4\n        /* \"#utility.yul\":6511:6527   */\n      add\n        /* \"#utility.yul\":6505:6528   */\n      mload\n        /* \"#utility.yul\":6541:6615   */\n      tag_280\n        /* \"#utility.yul\":6609:6613   */\n      0xa0\n        /* \"#utility.yul\":6604:6607   */\n      dup7\n        /* \"#utility.yul\":6600:6614   */\n      add\n        /* \"#utility.yul\":6586:6598   */\n      dup3\n        /* \"#utility.yul\":6541:6615   */\n      tag_178\n      jump\t// in\n    tag_280:\n        /* \"#utility.yul\":6443:6625   */\n      pop\n        /* \"#utility.yul\":6714:6718   */\n      0xc0\n        /* \"#utility.yul\":6707:6712   */\n      dup4\n        /* \"#utility.yul\":6703:6719   */\n      add\n        /* \"#utility.yul\":6697:6720   */\n      mload\n        /* \"#utility.yul\":6767:6770   */\n      dup5\n        /* \"#utility.yul\":6761:6765   */\n      dup3\n        /* \"#utility.yul\":6757:6771   */\n      sub\n        /* \"#utility.yul\":6750:6754   */\n      0xc0\n        /* \"#utility.yul\":6745:6748   */\n      dup7\n        /* \"#utility.yul\":6741:6755   */\n      add\n        /* \"#utility.yul\":6734:6772   */\n      mstore\n        /* \"#utility.yul\":6793:6866   */\n      tag_281\n        /* \"#utility.yul\":6861:6865   */\n      dup3\n        /* \"#utility.yul\":6847:6859   */\n      dup3\n        /* \"#utility.yul\":6793:6866   */\n      tag_174\n      jump\t// in\n    tag_281:\n        /* \"#utility.yul\":6785:6866   */\n      swap2\n      pop\n        /* \"#utility.yul\":6635:6877   */\n      pop\n        /* \"#utility.yul\":6965:6969   */\n      0xe0\n        /* \"#utility.yul\":6958:6963   */\n      dup4\n        /* \"#utility.yul\":6954:6970   */\n      add\n        /* \"#utility.yul\":6948:6971   */\n      mload\n        /* \"#utility.yul\":7018:7021   */\n      dup5\n        /* \"#utility.yul\":7012:7016   */\n      dup3\n        /* \"#utility.yul\":7008:7022   */\n      sub\n        /* \"#utility.yul\":7001:7005   */\n      0xe0\n        /* \"#utility.yul\":6996:6999   */\n      dup7\n        /* \"#utility.yul\":6992:7006   */\n      add\n        /* \"#utility.yul\":6985:7023   */\n      mstore\n        /* \"#utility.yul\":7044:7117   */\n      tag_282\n        /* \"#utility.yul\":7112:7116   */\n      dup3\n        /* \"#utility.yul\":7098:7110   */\n      dup3\n        /* \"#utility.yul\":7044:7117   */\n      tag_174\n      jump\t// in\n    tag_282:\n        /* \"#utility.yul\":7036:7117   */\n      swap2\n      pop\n        /* \"#utility.yul\":6887:7128   */\n      pop\n        /* \"#utility.yul\":7214:7220   */\n      0x0100\n        /* \"#utility.yul\":7207:7212   */\n      dup4\n        /* \"#utility.yul\":7203:7221   */\n      add\n        /* \"#utility.yul\":7197:7222   */\n      mload\n        /* \"#utility.yul\":7235:7294   */\n      tag_283\n        /* \"#utility.yul\":7286:7292   */\n      0x0100\n        /* \"#utility.yul\":7281:7284   */\n      dup7\n        /* \"#utility.yul\":7277:7293   */\n      add\n        /* \"#utility.yul\":7263:7275   */\n      dup3\n        /* \"#utility.yul\":7235:7294   */\n      tag_180\n      jump\t// in\n    tag_283:\n        /* \"#utility.yul\":7138:7304   */\n      pop\n        /* \"#utility.yul\":7321:7325   */\n      dup1\n        /* \"#utility.yul\":7314:7325   */\n      swap2\n      pop\n        /* \"#utility.yul\":5134:7331   */\n      pop\n        /* \"#utility.yul\":5012:7331   */\n      swap3\n      swap2\n      pop\n      pop\n      jump\t// out\n        /* \"#utility.yul\":7337:7706   */\n    tag_15:\n        /* \"#utility.yul\":7478:7482   */\n      0x00\n        /* \"#utility.yul\":7516:7518   */\n      0x20\n        /* \"#utility.yul\":7505:7514   */\n      dup3\n        /* \"#utility.yul\":7501:7519   */\n      add\n        /* \"#utility.yul\":7493:7519   */\n      swap1\n      pop\n        /* \"#utility.yul\":7565:7574   */\n      dup2\n        /* \"#utility.yul\":7559:7563   */\n      dup2\n        /* \"#utility.yul\":7555:7575   */\n      sub\n        /* \"#utility.yul\":7551:7552   */\n      0x00\n        /* \"#utility.yul\":7540:7549   */\n      dup4\n        /* \"#utility.yul\":7536:7553   */\n      add\n        /* \"#utility.yul\":7529:7576   */\n      mstore\n        /* \"#utility.yul\":7593:7699   */\n      tag_285\n        /* \"#utility.yul\":7694:7698   */\n      dup2\n        /* \"#utility.yul\":7685:7691   */\n      dup5\n        /* \"#utility.yul\":7593:7699   */\n      tag_181\n      jump\t// in\n    tag_285:\n        /* \"#utility.yul\":7585:7699   */\n      swap1\n      pop\n        /* \"#utility.yul\":7337:7706   */\n      swap3\n      swap2\n      pop\n      pop\n      jump\t// out\n        /* \"#utility.yul\":7712:7838   */\n    tag_182:\n        /* \"#utility.yul\":7749:7756   */\n      0x00\n        /* \"#utility.yul\":7789:7831   */\n      0xffffffffffffffffffffffffffffffffffffffff\n        /* \"#utility.yul\":7782:7787   */\n      dup3\n        /* \"#utility.yul\":7778:7832   */\n      and\n        /* \"#utility.yul\":7767:7832   */\n      swap1\n      pop\n        /* \"#utility.yul\":7712:7838   */\n      swap2\n      swap1\n      pop\n      jump\t// out\n        /* \"#utility.yul\":7844:7904   */\n    tag_183:\n        /* \"#utility.yul\":7872:7875   */\n      0x00\n        /* \"#utility.yul\":7893:7898   */\n      dup2\n        /* \"#utility.yul\":7886:7898   */\n      swap1\n      pop\n        /* \"#utility.yul\":7844:7904   */\n      swap2\n      swap1\n      pop\n      jump\t// out\n        /* \"#utility.yul\":7910:8052   */\n    tag_184:\n        /* \"#utility.yul\":7960:7969   */\n      0x00\n        /* \"#utility.yul\":7993:8046   */\n      tag_289\n        /* \"#utility.yul\":8011:8045   */\n      tag_290\n        /* \"#utility.yul\":8020:8044   */\n      tag_291\n        /* \"#utility.yul\":8038:8043   */\n      dup5\n        /* \"#utility.yul\":8020:8044   */\n      tag_182\n      jump\t// in\n    tag_291:\n        /* \"#utility.yul\":8011:8045   */\n      tag_183\n      jump\t// in\n    tag_290:\n        /* \"#utility.yul\":7993:8046   */\n      tag_182\n      jump\t// in\n    tag_289:\n        /* \"#utility.yul\":7980:8046   */\n      swap1\n      pop\n        /* \"#utility.yul\":7910:8052   */\n      swap2\n      swap1\n      pop\n      jump\t// out\n        /* \"#utility.yul\":8058:8184   */\n    tag_185:\n        /* \"#utility.yul\":8108:8117   */\n      0x00\n        /* \"#utility.yul\":8141:8178   */\n      tag_293\n        /* \"#utility.yul\":8172:8177   */\n      dup3\n        /* \"#utility.yul\":8141:8178   */\n      tag_184\n      jump\t// in\n    tag_293:\n        /* \"#utility.yul\":8128:8178   */\n      swap1\n      pop\n        /* \"#utility.yul\":8058:8184   */\n      swap2\n      swap1\n      pop\n      jump\t// out\n        /* \"#utility.yul\":8190:8337   */\n    tag_186:\n        /* \"#utility.yul\":8261:8270   */\n      0x00\n        /* \"#utility.yul\":8294:8331   */\n      tag_295\n        /* \"#utility.yul\":8325:8330   */\n      dup3\n        /* \"#utility.yul\":8294:8331   */\n      tag_185\n      jump\t// in\n    tag_295:\n        /* \"#utility.yul\":8281:8331   */\n      swap1\n      pop\n        /* \"#utility.yul\":8190:8337   */\n      swap2\n      swap1\n      pop\n      jump\t// out\n        /* \"#utility.yul\":8343:8516   */\n    tag_187:\n        /* \"#utility.yul\":8451:8509   */\n      tag_297\n        /* \"#utility.yul\":8503:8508   */\n      dup2\n        /* \"#utility.yul\":8451:8509   */\n      tag_186\n      jump\t// in\n    tag_297:\n        /* \"#utility.yul\":8446:8449   */\n      dup3\n        /* \"#utility.yul\":8439:8510   */\n      mstore\n        /* \"#utility.yul\":8343:8516   */\n      pop\n      pop\n      jump\t// out\n        /* \"#utility.yul\":8522:8786   */\n    tag_19:\n        /* \"#utility.yul\":8636:8640   */\n      0x00\n        /* \"#utility.yul\":8674:8676   */\n      0x20\n        /* \"#utility.yul\":8663:8672   */\n      dup3\n        /* \"#utility.yul\":8659:8677   */\n      add\n        /* \"#utility.yul\":8651:8677   */\n      swap1\n      pop\n        /* \"#utility.yul\":8687:8779   */\n      tag_299\n        /* \"#utility.yul\":8776:8777   */\n      0x00\n        /* \"#utility.yul\":8765:8774   */\n      dup4\n        /* \"#utility.yul\":8761:8778   */\n      add\n        /* \"#utility.yul\":8752:8758   */\n      dup5\n        /* \"#utility.yul\":8687:8779   */\n      tag_187\n      jump\t// in\n    tag_299:\n        /* \"#utility.yul\":8522:8786   */\n      swap3\n      swap2\n      pop\n      pop\n      jump\t// out\n        /* \"#utility.yul\":8792:8904   */\n    tag_188:\n        /* \"#utility.yul\":8878:8879   */\n      0x03\n        /* \"#utility.yul\":8871:8876   */\n      dup2\n        /* \"#utility.yul\":8868:8880   */\n      lt\n        /* \"#utility.yul\":8858:8898   */\n      tag_301\n      jumpi\n        /* \"#utility.yul\":8894:8895   */\n      0x00\n        /* \"#utility.yul\":8891:8892   */\n      dup1\n        /* \"#utility.yul\":8884:8896   */\n      revert\n        /* \"#utility.yul\":8858:8898   */\n    tag_301:\n        /* \"#utility.yul\":8792:8904   */\n      pop\n      jump\t// out\n        /* \"#utility.yul\":8910:9075   */\n    tag_189:\n        /* \"#utility.yul\":8969:8974   */\n      0x00\n        /* \"#utility.yul\":9007:9013   */\n      dup2\n        /* \"#utility.yul\":8994:9014   */\n      calldataload\n        /* \"#utility.yul\":8985:9014   */\n      swap1\n      pop\n        /* \"#utility.yul\":9023:9069   */\n      tag_303\n        /* \"#utility.yul\":9063:9068   */\n      dup2\n        /* \"#utility.yul\":9023:9069   */\n      tag_188\n      jump\t// in\n    tag_303:\n        /* \"#utility.yul\":8910:9075   */\n      swap3\n      swap2\n      pop\n      pop\n      jump\t// out\n        /* \"#utility.yul\":9081:11716   */\n    tag_22:\n        /* \"#utility.yul\":9286:9292   */\n      0x00\n        /* \"#utility.yul\":9294:9300   */\n      dup1\n        /* \"#utility.yul\":9302:9308   */\n      0x00\n        /* \"#utility.yul\":9310:9316   */\n      dup1\n        /* \"#utility.yul\":9318:9324   */\n      0x00\n        /* \"#utility.yul\":9326:9332   */\n      dup1\n        /* \"#utility.yul\":9334:9340   */\n      0x00\n        /* \"#utility.yul\":9342:9348   */\n      dup1\n        /* \"#utility.yul\":9391:9394   */\n      0x0100\n        /* \"#utility.yul\":9379:9388   */\n      dup10\n        /* \"#utility.yul\":9370:9377   */\n      dup12\n        /* \"#utility.yul\":9366:9389   */\n      sub\n        /* \"#utility.yul\":9362:9395   */\n      slt\n        /* \"#utility.yul\":9359:9479   */\n      iszero\n      tag_305\n      jumpi\n        /* \"#utility.yul\":9398:9477   */\n      tag_306\n      tag_159\n      jump\t// in\n    tag_306:\n        /* \"#utility.yul\":9359:9479   */\n    tag_305:\n        /* \"#utility.yul\":9546:9547   */\n      0x00\n        /* \"#utility.yul\":9535:9544   */\n      dup10\n        /* \"#utility.yul\":9531:9548   */\n      add\n        /* \"#utility.yul\":9518:9549   */\n      calldataload\n        /* \"#utility.yul\":9576:9594   */\n      0xffffffffffffffff\n        /* \"#utility.yul\":9568:9574   */\n      dup2\n        /* \"#utility.yul\":9565:9595   */\n      gt\n        /* \"#utility.yul\":9562:9679   */\n      iszero\n      tag_307\n      jumpi\n        /* \"#utility.yul\":9598:9677   */\n      tag_308\n      tag_160\n      jump\t// in\n    tag_308:\n        /* \"#utility.yul\":9562:9679   */\n    tag_307:\n        /* \"#utility.yul\":9703:9766   */\n      tag_309\n        /* \"#utility.yul\":9758:9765   */\n      dup12\n        /* \"#utility.yul\":9749:9755   */\n      dup3\n        /* \"#utility.yul\":9738:9747   */\n      dup13\n        /* \"#utility.yul\":9734:9756   */\n      add\n        /* \"#utility.yul\":9703:9766   */\n      tag_170\n      jump\t// in\n    tag_309:\n        /* \"#utility.yul\":9693:9766   */\n      swap9\n      pop\n        /* \"#utility.yul\":9489:9776   */\n      pop\n        /* \"#utility.yul\":9843:9845   */\n      0x20\n        /* \"#utility.yul\":9832:9841   */\n      dup10\n        /* \"#utility.yul\":9828:9846   */\n      add\n        /* \"#utility.yul\":9815:9847   */\n      calldataload\n        /* \"#utility.yul\":9874:9892   */\n      0xffffffffffffffff\n        /* \"#utility.yul\":9866:9872   */\n      dup2\n        /* \"#utility.yul\":9863:9893   */\n      gt\n        /* \"#utility.yul\":9860:9977   */\n      iszero\n      tag_310\n      jumpi\n        /* \"#utility.yul\":9896:9975   */\n      tag_311\n      tag_160\n      jump\t// in\n    tag_311:\n        /* \"#utility.yul\":9860:9977   */\n    tag_310:\n        /* \"#utility.yul\":10001:10064   */\n      tag_312\n        /* \"#utility.yul\":10056:10063   */\n      dup12\n        /* \"#utility.yul\":10047:10053   */\n      dup3\n        /* \"#utility.yul\":10036:10045   */\n      dup13\n        /* \"#utility.yul\":10032:10054   */\n      add\n        /* \"#utility.yul\":10001:10064   */\n      tag_170\n      jump\t// in\n    tag_312:\n        /* \"#utility.yul\":9991:10064   */\n      swap8\n      pop\n        /* \"#utility.yul\":9786:10074   */\n      pop\n        /* \"#utility.yul\":10141:10143   */\n      0x40\n        /* \"#utility.yul\":10130:10139   */\n      dup10\n        /* \"#utility.yul\":10126:10144   */\n      add\n        /* \"#utility.yul\":10113:10145   */\n      calldataload\n        /* \"#utility.yul\":10172:10190   */\n      0xffffffffffffffff\n        /* \"#utility.yul\":10164:10170   */\n      dup2\n        /* \"#utility.yul\":10161:10191   */\n      gt\n        /* \"#utility.yul\":10158:10275   */\n      iszero\n      tag_313\n      jumpi\n        /* \"#utility.yul\":10194:10273   */\n      tag_314\n      tag_160\n      jump\t// in\n    tag_314:\n        /* \"#utility.yul\":10158:10275   */\n    tag_313:\n        /* \"#utility.yul\":10299:10362   */\n      tag_315\n        /* \"#utility.yul\":10354:10361   */\n      dup12\n        /* \"#utility.yul\":10345:10351   */\n      dup3\n        /* \"#utility.yul\":10334:10343   */\n      dup13\n        /* \"#utility.yul\":10330:10352   */\n      add\n        /* \"#utility.yul\":10299:10362   */\n      tag_170\n      jump\t// in\n    tag_315:\n        /* \"#utility.yul\":10289:10362   */\n      swap7\n      pop\n        /* \"#utility.yul\":10084:10372   */\n      pop\n        /* \"#utility.yul\":10439:10441   */\n      0x60\n        /* \"#utility.yul\":10428:10437   */\n      dup10\n        /* \"#utility.yul\":10424:10442   */\n      add\n        /* \"#utility.yul\":10411:10443   */\n      calldataload\n        /* \"#utility.yul\":10470:10488   */\n      0xffffffffffffffff\n        /* \"#utility.yul\":10462:10468   */\n      dup2\n        /* \"#utility.yul\":10459:10489   */\n      gt\n        /* \"#utility.yul\":10456:10573   */\n      iszero\n      tag_316\n      jumpi\n        /* \"#utility.yul\":10492:10571   */\n      tag_317\n      tag_160\n      jump\t// in\n    tag_317:\n        /* \"#utility.yul\":10456:10573   */\n    tag_316:\n        /* \"#utility.yul\":10597:10660   */\n      tag_318\n        /* \"#utility.yul\":10652:10659   */\n      dup12\n        /* \"#utility.yul\":10643:10649   */\n      dup3\n        /* \"#utility.yul\":10632:10641   */\n      dup13\n        /* \"#utility.yul\":10628:10650   */\n      add\n        /* \"#utility.yul\":10597:10660   */\n      tag_170\n      jump\t// in\n    tag_318:\n        /* \"#utility.yul\":10587:10660   */\n      swap6\n      pop\n        /* \"#utility.yul\":10382:10670   */\n      pop\n        /* \"#utility.yul\":10737:10740   */\n      0x80\n        /* \"#utility.yul\":10726:10735   */\n      dup10\n        /* \"#utility.yul\":10722:10741   */\n      add\n        /* \"#utility.yul\":10709:10742   */\n      calldataload\n        /* \"#utility.yul\":10769:10787   */\n      0xffffffffffffffff\n        /* \"#utility.yul\":10761:10767   */\n      dup2\n        /* \"#utility.yul\":10758:10788   */\n      gt\n        /* \"#utility.yul\":10755:10872   */\n      iszero\n      tag_319\n      jumpi\n        /* \"#utility.yul\":10791:10870   */\n      tag_320\n      tag_160\n      jump\t// in\n    tag_320:\n        /* \"#utility.yul\":10755:10872   */\n    tag_319:\n        /* \"#utility.yul\":10896:10959   */\n      tag_321\n        /* \"#utility.yul\":10951:10958   */\n      dup12\n        /* \"#utility.yul\":10942:10948   */\n      dup3\n        /* \"#utility.yul\":10931:10940   */\n      dup13\n        /* \"#utility.yul\":10927:10949   */\n      add\n        /* \"#utility.yul\":10896:10959   */\n      tag_170\n      jump\t// in\n    tag_321:\n        /* \"#utility.yul\":10886:10959   */\n      swap5\n      pop\n        /* \"#utility.yul\":10680:10969   */\n      pop\n        /* \"#utility.yul\":11008:11011   */\n      0xa0\n        /* \"#utility.yul\":11035:11101   */\n      tag_322\n        /* \"#utility.yul\":11093:11100   */\n      dup12\n        /* \"#utility.yul\":11084:11090   */\n      dup3\n        /* \"#utility.yul\":11073:11082   */\n      dup13\n        /* \"#utility.yul\":11069:11091   */\n      add\n        /* \"#utility.yul\":11035:11101   */\n      tag_189\n      jump\t// in\n    tag_322:\n        /* \"#utility.yul\":11025:11101   */\n      swap4\n      pop\n        /* \"#utility.yul\":10979:11111   */\n      pop\n        /* \"#utility.yul\":11178:11181   */\n      0xc0\n        /* \"#utility.yul\":11167:11176   */\n      dup10\n        /* \"#utility.yul\":11163:11182   */\n      add\n        /* \"#utility.yul\":11150:11183   */\n      calldataload\n        /* \"#utility.yul\":11210:11228   */\n      0xffffffffffffffff\n        /* \"#utility.yul\":11202:11208   */\n      dup2\n        /* \"#utility.yul\":11199:11229   */\n      gt\n        /* \"#utility.yul\":11196:11313   */\n      iszero\n      tag_323\n      jumpi\n        /* \"#utility.yul\":11232:11311   */\n      tag_324\n      tag_160\n      jump\t// in\n    tag_324:\n        /* \"#utility.yul\":11196:11313   */\n    tag_323:\n        /* \"#utility.yul\":11337:11400   */\n      tag_325\n        /* \"#utility.yul\":11392:11399   */\n      dup12\n        /* \"#utility.yul\":11383:11389   */\n      dup3\n        /* \"#utility.yul\":11372:11381   */\n      dup13\n        /* \"#utility.yul\":11368:11390   */\n      add\n        /* \"#utility.yul\":11337:11400   */\n      tag_170\n      jump\t// in\n    tag_325:\n        /* \"#utility.yul\":11327:11400   */\n      swap3\n      pop\n        /* \"#utility.yul\":11121:11410   */\n      pop\n        /* \"#utility.yul\":11477:11480   */\n      0xe0\n        /* \"#utility.yul\":11466:11475   */\n      dup10\n        /* \"#utility.yul\":11462:11481   */\n      add\n        /* \"#utility.yul\":11449:11482   */\n      calldataload\n        /* \"#utility.yul\":11509:11527   */\n      0xffffffffffffffff\n        /* \"#utility.yul\":11501:11507   */\n      dup2\n        /* \"#utility.yul\":11498:11528   */\n      gt\n        /* \"#utility.yul\":11495:11612   */\n      iszero\n      tag_326\n      jumpi\n        /* \"#utility.yul\":11531:11610   */\n      tag_327\n      tag_160\n      jump\t// in\n    tag_327:\n        /* \"#utility.yul\":11495:11612   */\n    tag_326:\n        /* \"#utility.yul\":11636:11699   */\n      tag_328\n        /* \"#utility.yul\":11691:11698   */\n      dup12\n        /* \"#utility.yul\":11682:11688   */\n      dup3\n        /* \"#utility.yul\":11671:11680   */\n      dup13\n        /* \"#utility.yul\":11667:11689   */\n      add\n        /* \"#utility.yul\":11636:11699   */\n      tag_170\n      jump\t// in\n    tag_328:\n        /* \"#utility.yul\":11626:11699   */\n      swap2\n      pop\n        /* \"#utility.yul\":11420:11709   */\n      pop\n        /* \"#utility.yul\":9081:11716   */\n      swap3\n      swap6\n      swap9\n      pop\n      swap3\n      swap6\n      swap9\n      swap1\n      swap4\n      swap7\n      pop\n      jump\t// out\n        /* \"#utility.yul\":11722:11818   */\n    tag_190:\n        /* \"#utility.yul\":11759:11766   */\n      0x00\n        /* \"#utility.yul\":11788:11812   */\n      tag_330\n        /* \"#utility.yul\":11806:11811   */\n      dup3\n        /* \"#utility.yul\":11788:11812   */\n      tag_182\n      jump\t// in\n    tag_330:\n        /* \"#utility.yul\":11777:11812   */\n      swap1\n      pop\n        /* \"#utility.yul\":11722:11818   */\n      swap2\n      swap1\n      pop\n      jump\t// out\n        /* \"#utility.yul\":11824:11942   */\n    tag_191:\n        /* \"#utility.yul\":11911:11935   */\n      tag_332\n        /* \"#utility.yul\":11929:11934   */\n      dup2\n        /* \"#utility.yul\":11911:11935   */\n      tag_190\n      jump\t// in\n    tag_332:\n        /* \"#utility.yul\":11906:11909   */\n      dup3\n        /* \"#utility.yul\":11899:11936   */\n      mstore\n        /* \"#utility.yul\":11824:11942   */\n      pop\n      pop\n      jump\t// out\n        /* \"#utility.yul\":11948:12170   */\n    tag_26:\n        /* \"#utility.yul\":12041:12045   */\n      0x00\n        /* \"#utility.yul\":12079:12081   */\n      0x20\n        /* \"#utility.yul\":12068:12077   */\n      dup3\n        /* \"#utility.yul\":12064:12082   */\n      add\n        /* \"#utility.yul\":12056:12082   */\n      swap1\n      pop\n        /* \"#utility.yul\":12092:12163   */\n      tag_334\n        /* \"#utility.yul\":12160:12161   */\n      0x00\n        /* \"#utility.yul\":12149:12158   */\n      dup4\n        /* \"#utility.yul\":12145:12162   */\n      add\n        /* \"#utility.yul\":12136:12142   */\n      dup5\n        /* \"#utility.yul\":12092:12163   */\n      tag_191\n      jump\t// in\n    tag_334:\n        /* \"#utility.yul\":11948:12170   */\n      swap3\n      swap2\n      pop\n      pop\n      jump\t// out\n        /* \"#utility.yul\":12176:12292   */\n    tag_192:\n        /* \"#utility.yul\":12246:12267   */\n      tag_336\n        /* \"#utility.yul\":12261:12266   */\n      dup2\n        /* \"#utility.yul\":12246:12267   */\n      tag_179\n      jump\t// in\n    tag_336:\n        /* \"#utility.yul\":12239:12244   */\n      dup2\n        /* \"#utility.yul\":12236:12268   */\n      eq\n        /* \"#utility.yul\":12226:12286   */\n      tag_337\n      jumpi\n        /* \"#utility.yul\":12282:12283   */\n      0x00\n        /* \"#utility.yul\":12279:12280   */\n      dup1\n        /* \"#utility.yul\":12272:12284   */\n      revert\n        /* \"#utility.yul\":12226:12286   */\n    tag_337:\n        /* \"#utility.yul\":12176:12292   */\n      pop\n      jump\t// out\n        /* \"#utility.yul\":12298:12435   */\n    tag_193:\n        /* \"#utility.yul\":12352:12357   */\n      0x00\n        /* \"#utility.yul\":12383:12389   */\n      dup2\n        /* \"#utility.yul\":12377:12390   */\n      mload\n        /* \"#utility.yul\":12368:12390   */\n      swap1\n      pop\n        /* \"#utility.yul\":12399:12429   */\n      tag_339\n        /* \"#utility.yul\":12423:12428   */\n      dup2\n        /* \"#utility.yul\":12399:12429   */\n      tag_192\n      jump\t// in\n    tag_339:\n        /* \"#utility.yul\":12298:12435   */\n      swap3\n      swap2\n      pop\n      pop\n      jump\t// out\n        /* \"#utility.yul\":12441:12786   */\n    tag_31:\n        /* \"#utility.yul\":12508:12514   */\n      0x00\n        /* \"#utility.yul\":12557:12559   */\n      0x20\n        /* \"#utility.yul\":12545:12554   */\n      dup3\n        /* \"#utility.yul\":12536:12543   */\n      dup5\n        /* \"#utility.yul\":12532:12555   */\n      sub\n        /* \"#utility.yul\":12528:12560   */\n      slt\n        /* \"#utility.yul\":12525:12644   */\n      iszero\n      tag_341\n      jumpi\n        /* \"#utility.yul\":12563:12642   */\n      tag_342\n      tag_159\n      jump\t// in\n    tag_342:\n        /* \"#utility.yul\":12525:12644   */\n    tag_341:\n        /* \"#utility.yul\":12683:12684   */\n      0x00\n        /* \"#utility.yul\":12708:12769   */\n      tag_343\n        /* \"#utility.yul\":12761:12768   */\n      dup5\n        /* \"#utility.yul\":12752:12758   */\n      dup3\n        /* \"#utility.yul\":12741:12750   */\n      dup6\n        /* \"#utility.yul\":12737:12759   */\n      add\n        /* \"#utility.yul\":12708:12769   */\n      tag_193\n      jump\t// in\n    tag_343:\n        /* \"#utility.yul\":12698:12769   */\n      swap2\n      pop\n        /* \"#utility.yul\":12654:12779   */\n      pop\n        /* \"#utility.yul\":12441:12786   */\n      swap3\n      swap2\n      pop\n      pop\n      jump\t// out\n        /* \"#utility.yul\":12792:12961   */\n    tag_194:\n        /* \"#utility.yul\":12876:12887   */\n      0x00\n        /* \"#utility.yul\":12910:12916   */\n      dup3\n        /* \"#utility.yul\":12905:12908   */\n      dup3\n        /* \"#utility.yul\":12898:12917   */\n      mstore\n        /* \"#utility.yul\":12950:12954   */\n      0x20\n        /* \"#utility.yul\":12945:12948   */\n      dup3\n        /* \"#utility.yul\":12941:12955   */\n      add\n        /* \"#utility.yul\":12926:12955   */\n      swap1\n      pop\n        /* \"#utility.yul\":12792:12961   */\n      swap3\n      swap2\n      pop\n      pop\n      jump\t// out\n        /* \"#utility.yul\":12967:13201   */\n    tag_195:\n        /* \"#utility.yul\":13107:13141   */\n      0x566f7573206e276176657a20706173206c652064726f6974206427617070726f\n        /* \"#utility.yul\":13103:13104   */\n      0x00\n        /* \"#utility.yul\":13095:13101   */\n      dup3\n        /* \"#utility.yul\":13091:13105   */\n      add\n        /* \"#utility.yul\":13084:13142   */\n      mstore\n        /* \"#utility.yul\":13176:13193   */\n      0x766572206365206469706c6f6d652e0000000000000000000000000000000000\n        /* \"#utility.yul\":13171:13173   */\n      0x20\n        /* \"#utility.yul\":13163:13169   */\n      dup3\n        /* \"#utility.yul\":13159:13174   */\n      add\n        /* \"#utility.yul\":13152:13194   */\n      mstore\n        /* \"#utility.yul\":12967:13201   */\n      pop\n      jump\t// out\n        /* \"#utility.yul\":13207:13573   */\n    tag_196:\n        /* \"#utility.yul\":13349:13352   */\n      0x00\n        /* \"#utility.yul\":13370:13437   */\n      tag_347\n        /* \"#utility.yul\":13434:13436   */\n      0x2f\n        /* \"#utility.yul\":13429:13432   */\n      dup4\n        /* \"#utility.yul\":13370:13437   */\n      tag_194\n      jump\t// in\n    tag_347:\n        /* \"#utility.yul\":13363:13437   */\n      swap2\n      pop\n        /* \"#utility.yul\":13446:13539   */\n      tag_348\n        /* \"#utility.yul\":13535:13538   */\n      dup3\n        /* \"#utility.yul\":13446:13539   */\n      tag_195\n      jump\t// in\n    tag_348:\n        /* \"#utility.yul\":13564:13566   */\n      0x40\n        /* \"#utility.yul\":13559:13562   */\n      dup3\n        /* \"#utility.yul\":13555:13567   */\n      add\n        /* \"#utility.yul\":13548:13567   */\n      swap1\n      pop\n        /* \"#utility.yul\":13207:13573   */\n      swap2\n      swap1\n      pop\n      jump\t// out\n        /* \"#utility.yul\":13579:13998   */\n    tag_34:\n        /* \"#utility.yul\":13745:13749   */\n      0x00\n        /* \"#utility.yul\":13783:13785   */\n      0x20\n        /* \"#utility.yul\":13772:13781   */\n      dup3\n        /* \"#utility.yul\":13768:13786   */\n      add\n        /* \"#utility.yul\":13760:13786   */\n      swap1\n      pop\n        /* \"#utility.yul\":13832:13841   */\n      dup2\n        /* \"#utility.yul\":13826:13830   */\n      dup2\n        /* \"#utility.yul\":13822:13842   */\n      sub\n        /* \"#utility.yul\":13818:13819   */\n      0x00\n        /* \"#utility.yul\":13807:13816   */\n      dup4\n        /* \"#utility.yul\":13803:13820   */\n      add\n        /* \"#utility.yul\":13796:13843   */\n      mstore\n        /* \"#utility.yul\":13860:13991   */\n      tag_350\n        /* \"#utility.yul\":13986:13990   */\n      dup2\n        /* \"#utility.yul\":13860:13991   */\n      tag_196\n      jump\t// in\n    tag_350:\n        /* \"#utility.yul\":13852:13991   */\n      swap1\n      pop\n        /* \"#utility.yul\":13579:13998   */\n      swap2\n      swap1\n      pop\n      jump\t// out\n        /* \"#utility.yul\":14004:14152   */\n    tag_197:\n        /* \"#utility.yul\":14106:14117   */\n      0x00\n        /* \"#utility.yul\":14143:14146   */\n      dup2\n        /* \"#utility.yul\":14128:14146   */\n      swap1\n      pop\n        /* \"#utility.yul\":14004:14152   */\n      swap3\n      swap2\n      pop\n      pop\n      jump\t// out\n        /* \"#utility.yul\":14158:14535   */\n    tag_198:\n        /* \"#utility.yul\":14264:14267   */\n      0x00\n        /* \"#utility.yul\":14292:14331   */\n      tag_353\n        /* \"#utility.yul\":14325:14330   */\n      dup3\n        /* \"#utility.yul\":14292:14331   */\n      tag_171\n      jump\t// in\n    tag_353:\n        /* \"#utility.yul\":14347:14436   */\n      tag_354\n        /* \"#utility.yul\":14429:14435   */\n      dup2\n        /* \"#utility.yul\":14424:14427   */\n      dup6\n        /* \"#utility.yul\":14347:14436   */\n      tag_197\n      jump\t// in\n    tag_354:\n        /* \"#utility.yul\":14340:14436   */\n      swap4\n      pop\n        /* \"#utility.yul\":14445:14497   */\n      tag_355\n        /* \"#utility.yul\":14490:14496   */\n      dup2\n        /* \"#utility.yul\":14485:14488   */\n      dup6\n        /* \"#utility.yul\":14478:14482   */\n      0x20\n        /* \"#utility.yul\":14471:14476   */\n      dup7\n        /* \"#utility.yul\":14467:14483   */\n      add\n        /* \"#utility.yul\":14445:14497   */\n      tag_173\n      jump\t// in\n    tag_355:\n        /* \"#utility.yul\":14522:14528   */\n      dup1\n        /* \"#utility.yul\":14517:14520   */\n      dup5\n        /* \"#utility.yul\":14513:14529   */\n      add\n        /* \"#utility.yul\":14506:14529   */\n      swap2\n      pop\n        /* \"#utility.yul\":14268:14535   */\n      pop\n        /* \"#utility.yul\":14158:14535   */\n      swap3\n      swap2\n      pop\n      pop\n      jump\t// out\n        /* \"#utility.yul\":14541:14816   */\n    tag_36:\n        /* \"#utility.yul\":14673:14676   */\n      0x00\n        /* \"#utility.yul\":14695:14790   */\n      tag_357\n        /* \"#utility.yul\":14786:14789   */\n      dup3\n        /* \"#utility.yul\":14777:14783   */\n      dup5\n        /* \"#utility.yul\":14695:14790   */\n      tag_198\n      jump\t// in\n    tag_357:\n        /* \"#utility.yul\":14688:14790   */\n      swap2\n      pop\n        /* \"#utility.yul\":14807:14810   */\n      dup2\n        /* \"#utility.yul\":14800:14810   */\n      swap1\n      pop\n        /* \"#utility.yul\":14541:14816   */\n      swap3\n      swap2\n      pop\n      pop\n      jump\t// out\n        /* \"#utility.yul\":14822:15002   */\n    tag_199:\n        /* \"#utility.yul\":14870:14947   */\n      0x4e487b7100000000000000000000000000000000000000000000000000000000\n        /* \"#utility.yul\":14867:14868   */\n      0x00\n        /* \"#utility.yul\":14860:14948   */\n      mstore\n        /* \"#utility.yul\":14967:14971   */\n      0x22\n        /* \"#utility.yul\":14964:14965   */\n      0x04\n        /* \"#utility.yul\":14957:14972   */\n      mstore\n        /* \"#utility.yul\":14991:14995   */\n      0x24\n        /* \"#utility.yul\":14988:14989   */\n      0x00\n        /* \"#utility.yul\":14981:14996   */\n      revert\n        /* \"#utility.yul\":15008:15328   */\n    tag_38:\n        /* \"#utility.yul\":15052:15058   */\n      0x00\n        /* \"#utility.yul\":15089:15090   */\n      0x02\n        /* \"#utility.yul\":15083:15087   */\n      dup3\n        /* \"#utility.yul\":15079:15091   */\n      div\n        /* \"#utility.yul\":15069:15091   */\n      swap1\n      pop\n        /* \"#utility.yul\":15136:15137   */\n      0x01\n        /* \"#utility.yul\":15130:15134   */\n      dup3\n        /* \"#utility.yul\":15126:15138   */\n      and\n        /* \"#utility.yul\":15157:15175   */\n      dup1\n        /* \"#utility.yul\":15147:15228   */\n      tag_360\n      jumpi\n        /* \"#utility.yul\":15213:15217   */\n      0x7f\n        /* \"#utility.yul\":15205:15211   */\n      dup3\n        /* \"#utility.yul\":15201:15218   */\n      and\n        /* \"#utility.yul\":15191:15218   */\n      swap2\n      pop\n        /* \"#utility.yul\":15147:15228   */\n    tag_360:\n        /* \"#utility.yul\":15275:15277   */\n      0x20\n        /* \"#utility.yul\":15267:15273   */\n      dup3\n        /* \"#utility.yul\":15264:15278   */\n      lt\n        /* \"#utility.yul\":15244:15262   */\n      dup2\n        /* \"#utility.yul\":15241:15279   */\n      eq\n        /* \"#utility.yul\":15238:15322   */\n      iszero\n      tag_361\n      jumpi\n        /* \"#utility.yul\":15294:15312   */\n      tag_362\n      tag_199\n      jump\t// in\n    tag_362:\n        /* \"#utility.yul\":15238:15322   */\n    tag_361:\n        /* \"#utility.yul\":15059:15328   */\n      pop\n        /* \"#utility.yul\":15008:15328   */\n      swap2\n      swap1\n      pop\n      jump\t// out\n        /* \"#utility.yul\":15334:15508   */\n    tag_200:\n        /* \"#utility.yul\":15474:15500   */\n      0x4c65206469706c6f6d65206e27657869737465207061732e0000000000000000\n        /* \"#utility.yul\":15470:15471   */\n      0x00\n        /* \"#utility.yul\":15462:15468   */\n      dup3\n        /* \"#utility.yul\":15458:15472   */\n      add\n        /* \"#utility.yul\":15451:15501   */\n      mstore\n        /* \"#utility.yul\":15334:15508   */\n      pop\n      jump\t// out\n        /* \"#utility.yul\":15514:15880   */\n    tag_201:\n        /* \"#utility.yul\":15656:15659   */\n      0x00\n        /* \"#utility.yul\":15677:15744   */\n      tag_365\n        /* \"#utility.yul\":15741:15743   */\n      0x18\n        /* \"#utility.yul\":15736:15739   */\n      dup4\n        /* \"#utility.yul\":15677:15744   */\n      tag_194\n      jump\t// in\n    tag_365:\n        /* \"#utility.yul\":15670:15744   */\n      swap2\n      pop\n        /* \"#utility.yul\":15753:15846   */\n      tag_366\n        /* \"#utility.yul\":15842:15845   */\n      dup3\n        /* \"#utility.yul\":15753:15846   */\n      tag_200\n      jump\t// in\n    tag_366:\n        /* \"#utility.yul\":15871:15873   */\n      0x20\n        /* \"#utility.yul\":15866:15869   */\n      dup3\n        /* \"#utility.yul\":15862:15874   */\n      add\n        /* \"#utility.yul\":15855:15874   */\n      swap1\n      pop\n        /* \"#utility.yul\":15514:15880   */\n      swap2\n      swap1\n      pop\n      jump\t// out\n        /* \"#utility.yul\":15886:16305   */\n    tag_41:\n        /* \"#utility.yul\":16052:16056   */\n      0x00\n        /* \"#utility.yul\":16090:16092   */\n      0x20\n        /* \"#utility.yul\":16079:16088   */\n      dup3\n        /* \"#utility.yul\":16075:16093   */\n      add\n        /* \"#utility.yul\":16067:16093   */\n      swap1\n      pop\n        /* \"#utility.yul\":16139:16148   */\n      dup2\n        /* \"#utility.yul\":16133:16137   */\n      dup2\n        /* \"#utility.yul\":16129:16149   */\n      sub\n        /* \"#utility.yul\":16125:16126   */\n      0x00\n        /* \"#utility.yul\":16114:16123   */\n      dup4\n        /* \"#utility.yul\":16110:16127   */\n      add\n        /* \"#utility.yul\":16103:16150   */\n      mstore\n        /* \"#utility.yul\":16167:16298   */\n      tag_368\n        /* \"#utility.yul\":16293:16297   */\n      dup2\n        /* \"#utility.yul\":16167:16298   */\n      tag_201\n      jump\t// in\n    tag_368:\n        /* \"#utility.yul\":16159:16298   */\n      swap1\n      pop\n        /* \"#utility.yul\":15886:16305   */\n      swap2\n      swap1\n      pop\n      jump\t// out\n        /* \"#utility.yul\":16311:16480   */\n    tag_202:\n        /* \"#utility.yul\":16381:16386   */\n      0x00\n        /* \"#utility.yul\":16412:16418   */\n      dup2\n        /* \"#utility.yul\":16406:16419   */\n      mload\n        /* \"#utility.yul\":16397:16419   */\n      swap1\n      pop\n        /* \"#utility.yul\":16428:16474   */\n      tag_370\n        /* \"#utility.yul\":16468:16473   */\n      dup2\n        /* \"#utility.yul\":16428:16474   */\n      tag_188\n      jump\t// in\n    tag_370:\n        /* \"#utility.yul\":16311:16480   */\n      swap3\n      swap2\n      pop\n      pop\n      jump\t// out\n        /* \"#utility.yul\":16486:16863   */\n    tag_51:\n        /* \"#utility.yul\":16569:16575   */\n      0x00\n        /* \"#utility.yul\":16618:16620   */\n      0x20\n        /* \"#utility.yul\":16606:16615   */\n      dup3\n        /* \"#utility.yul\":16597:16604   */\n      dup5\n        /* \"#utility.yul\":16593:16616   */\n      sub\n        /* \"#utility.yul\":16589:16621   */\n      slt\n        /* \"#utility.yul\":16586:16705   */\n      iszero\n      tag_372\n      jumpi\n        /* \"#utility.yul\":16624:16703   */\n      tag_373\n      tag_159\n      jump\t// in\n    tag_373:\n        /* \"#utility.yul\":16586:16705   */\n    tag_372:\n        /* \"#utility.yul\":16744:16745   */\n      0x00\n        /* \"#utility.yul\":16769:16846   */\n      tag_374\n        /* \"#utility.yul\":16838:16845   */\n      dup5\n        /* \"#utility.yul\":16829:16835   */\n      dup3\n        /* \"#utility.yul\":16818:16827   */\n      dup6\n        /* \"#utility.yul\":16814:16836   */\n      add\n        /* \"#utility.yul\":16769:16846   */\n      tag_202\n      jump\t// in\n    tag_374:\n        /* \"#utility.yul\":16759:16846   */\n      swap2\n      pop\n        /* \"#utility.yul\":16715:16856   */\n      pop\n        /* \"#utility.yul\":16486:16863   */\n      swap3\n      swap2\n      pop\n      pop\n      jump\t// out\n        /* \"#utility.yul\":16869:17115   */\n    tag_203:\n        /* \"#utility.yul\":17009:17043   */\n      0x4c652074797065206465206c27617070726f766572206e6520636f7272657370\n        /* \"#utility.yul\":17005:17006   */\n      0x00\n        /* \"#utility.yul\":16997:17003   */\n      dup3\n        /* \"#utility.yul\":16993:17007   */\n      add\n        /* \"#utility.yul\":16986:17044   */\n      mstore\n        /* \"#utility.yul\":17078:17107   */\n      0x6f6e64207061732061752074797065206475206469706c6f6d652e0000000000\n        /* \"#utility.yul\":17073:17075   */\n      0x20\n        /* \"#utility.yul\":17065:17071   */\n      dup3\n        /* \"#utility.yul\":17061:17076   */\n      add\n        /* \"#utility.yul\":17054:17108   */\n      mstore\n        /* \"#utility.yul\":16869:17115   */\n      pop\n      jump\t// out\n        /* \"#utility.yul\":17121:17487   */\n    tag_204:\n        /* \"#utility.yul\":17263:17266   */\n      0x00\n        /* \"#utility.yul\":17284:17351   */\n      tag_377\n        /* \"#utility.yul\":17348:17350   */\n      0x3b\n        /* \"#utility.yul\":17343:17346   */\n      dup4\n        /* \"#utility.yul\":17284:17351   */\n      tag_194\n      jump\t// in\n    tag_377:\n        /* \"#utility.yul\":17277:17351   */\n      swap2\n      pop\n        /* \"#utility.yul\":17360:17453   */\n      tag_378\n        /* \"#utility.yul\":17449:17452   */\n      dup3\n        /* \"#utility.yul\":17360:17453   */\n      tag_203\n      jump\t// in\n    tag_378:\n        /* \"#utility.yul\":17478:17480   */\n      0x40\n        /* \"#utility.yul\":17473:17476   */\n      dup3\n        /* \"#utility.yul\":17469:17481   */\n      add\n        /* \"#utility.yul\":17462:17481   */\n      swap1\n      pop\n        /* \"#utility.yul\":17121:17487   */\n      swap2\n      swap1\n      pop\n      jump\t// out\n        /* \"#utility.yul\":17493:17912   */\n    tag_56:\n        /* \"#utility.yul\":17659:17663   */\n      0x00\n        /* \"#utility.yul\":17697:17699   */\n      0x20\n        /* \"#utility.yul\":17686:17695   */\n      dup3\n        /* \"#utility.yul\":17682:17700   */\n      add\n        /* \"#utility.yul\":17674:17700   */\n      swap1\n      pop\n        /* \"#utility.yul\":17746:17755   */\n      dup2\n        /* \"#utility.yul\":17740:17744   */\n      dup2\n        /* \"#utility.yul\":17736:17756   */\n      sub\n        /* \"#utility.yul\":17732:17733   */\n      0x00\n        /* \"#utility.yul\":17721:17730   */\n      dup4\n        /* \"#utility.yul\":17717:17734   */\n      add\n        /* \"#utility.yul\":17710:17757   */\n      mstore\n        /* \"#utility.yul\":17774:17905   */\n      tag_380\n        /* \"#utility.yul\":17900:17904   */\n      dup2\n        /* \"#utility.yul\":17774:17905   */\n      tag_204\n      jump\t// in\n    tag_380:\n        /* \"#utility.yul\":17766:17905   */\n      swap1\n      pop\n        /* \"#utility.yul\":17493:17912   */\n      swap2\n      swap1\n      pop\n      jump\t// out\n        /* \"#utility.yul\":17918:18094   */\n    tag_205:\n        /* \"#utility.yul\":18058:18086   */\n      0x4c65206469706c6f6d65206573742064656a612076616c696465000000000000\n        /* \"#utility.yul\":18054:18055   */\n      0x00\n        /* \"#utility.yul\":18046:18052   */\n      dup3\n        /* \"#utility.yul\":18042:18056   */\n      add\n        /* \"#utility.yul\":18035:18087   */\n      mstore\n        /* \"#utility.yul\":17918:18094   */\n      pop\n      jump\t// out\n        /* \"#utility.yul\":18100:18466   */\n    tag_206:\n        /* \"#utility.yul\":18242:18245   */\n      0x00\n        /* \"#utility.yul\":18263:18330   */\n      tag_383\n        /* \"#utility.yul\":18327:18329   */\n      0x1a\n        /* \"#utility.yul\":18322:18325   */\n      dup4\n        /* \"#utility.yul\":18263:18330   */\n      tag_194\n      jump\t// in\n    tag_383:\n        /* \"#utility.yul\":18256:18330   */\n      swap2\n      pop\n        /* \"#utility.yul\":18339:18432   */\n      tag_384\n        /* \"#utility.yul\":18428:18431   */\n      dup3\n        /* \"#utility.yul\":18339:18432   */\n      tag_205\n      jump\t// in\n    tag_384:\n        /* \"#utility.yul\":18457:18459   */\n      0x20\n        /* \"#utility.yul\":18452:18455   */\n      dup3\n        /* \"#utility.yul\":18448:18460   */\n      add\n        /* \"#utility.yul\":18441:18460   */\n      swap1\n      pop\n        /* \"#utility.yul\":18100:18466   */\n      swap2\n      swap1\n      pop\n      jump\t// out\n        /* \"#utility.yul\":18472:18891   */\n    tag_60:\n        /* \"#utility.yul\":18638:18642   */\n      0x00\n        /* \"#utility.yul\":18676:18678   */\n      0x20\n        /* \"#utility.yul\":18665:18674   */\n      dup3\n        /* \"#utility.yul\":18661:18679   */\n      add\n        /* \"#utility.yul\":18653:18679   */\n      swap1\n      pop\n        /* \"#utility.yul\":18725:18734   */\n      dup2\n        /* \"#utility.yul\":18719:18723   */\n      dup2\n        /* \"#utility.yul\":18715:18735   */\n      sub\n        /* \"#utility.yul\":18711:18712   */\n      0x00\n        /* \"#utility.yul\":18700:18709   */\n      dup4\n        /* \"#utility.yul\":18696:18713   */\n      add\n        /* \"#utility.yul\":18689:18736   */\n      mstore\n        /* \"#utility.yul\":18753:18884   */\n      tag_386\n        /* \"#utility.yul\":18879:18883   */\n      dup2\n        /* \"#utility.yul\":18753:18884   */\n      tag_206\n      jump\t// in\n    tag_386:\n        /* \"#utility.yul\":18745:18884   */\n      swap1\n      pop\n        /* \"#utility.yul\":18472:18891   */\n      swap2\n      swap1\n      pop\n      jump\t// out\n        /* \"#utility.yul\":18897:19122   */\n    tag_207:\n        /* \"#utility.yul\":19037:19071   */\n      0x4c65206469706c6f6d65206e27657374207061732070617320656e636f726520\n        /* \"#utility.yul\":19033:19034   */\n      0x00\n        /* \"#utility.yul\":19025:19031   */\n      dup3\n        /* \"#utility.yul\":19021:19035   */\n      add\n        /* \"#utility.yul\":19014:19072   */\n      mstore\n        /* \"#utility.yul\":19106:19114   */\n      0x76616c6964650000000000000000000000000000000000000000000000000000\n        /* \"#utility.yul\":19101:19103   */\n      0x20\n        /* \"#utility.yul\":19093:19099   */\n      dup3\n        /* \"#utility.yul\":19089:19104   */\n      add\n        /* \"#utility.yul\":19082:19115   */\n      mstore\n        /* \"#utility.yul\":18897:19122   */\n      pop\n      jump\t// out\n        /* \"#utility.yul\":19128:19494   */\n    tag_208:\n        /* \"#utility.yul\":19270:19273   */\n      0x00\n        /* \"#utility.yul\":19291:19358   */\n      tag_389\n        /* \"#utility.yul\":19355:19357   */\n      0x26\n        /* \"#utility.yul\":19350:19353   */\n      dup4\n        /* \"#utility.yul\":19291:19358   */\n      tag_194\n      jump\t// in\n    tag_389:\n        /* \"#utility.yul\":19284:19358   */\n      swap2\n      pop\n        /* \"#utility.yul\":19367:19460   */\n      tag_390\n        /* \"#utility.yul\":19456:19459   */\n      dup3\n        /* \"#utility.yul\":19367:19460   */\n      tag_207\n      jump\t// in\n    tag_390:\n        /* \"#utility.yul\":19485:19487   */\n      0x40\n        /* \"#utility.yul\":19480:19483   */\n      dup3\n        /* \"#utility.yul\":19476:19488   */\n      add\n        /* \"#utility.yul\":19469:19488   */\n      swap1\n      pop\n        /* \"#utility.yul\":19128:19494   */\n      swap2\n      swap1\n      pop\n      jump\t// out\n        /* \"#utility.yul\":19500:19919   */\n    tag_111:\n        /* \"#utility.yul\":19666:19670   */\n      0x00\n        /* \"#utility.yul\":19704:19706   */\n      0x20\n        /* \"#utility.yul\":19693:19702   */\n      dup3\n        /* \"#utility.yul\":19689:19707   */\n      add\n        /* \"#utility.yul\":19681:19707   */\n      swap1\n      pop\n        /* \"#utility.yul\":19753:19762   */\n      dup2\n        /* \"#utility.yul\":19747:19751   */\n      dup2\n        /* \"#utility.yul\":19743:19763   */\n      sub\n        /* \"#utility.yul\":19739:19740   */\n      0x00\n        /* \"#utility.yul\":19728:19737   */\n      dup4\n        /* \"#utility.yul\":19724:19741   */\n      add\n        /* \"#utility.yul\":19717:19764   */\n      mstore\n        /* \"#utility.yul\":19781:19912   */\n      tag_392\n        /* \"#utility.yul\":19907:19911   */\n      dup2\n        /* \"#utility.yul\":19781:19912   */\n      tag_208\n      jump\t// in\n    tag_392:\n        /* \"#utility.yul\":19773:19912   */\n      swap1\n      pop\n        /* \"#utility.yul\":19500:19919   */\n      swap2\n      swap1\n      pop\n      jump\t// out\n        /* \"#utility.yul\":19925:20158   */\n    tag_209:\n        /* \"#utility.yul\":20065:20099   */\n      0x566f7573206e276574657320706173206175746f726973657220612063726565\n        /* \"#utility.yul\":20061:20062   */\n      0x00\n        /* \"#utility.yul\":20053:20059   */\n      dup3\n        /* \"#utility.yul\":20049:20063   */\n      add\n        /* \"#utility.yul\":20042:20100   */\n      mstore\n        /* \"#utility.yul\":20134:20150   */\n      0x7220646573206469706c6f6d6573000000000000000000000000000000000000\n        /* \"#utility.yul\":20129:20131   */\n      0x20\n        /* \"#utility.yul\":20121:20127   */\n      dup3\n        /* \"#utility.yul\":20117:20132   */\n      add\n        /* \"#utility.yul\":20110:20151   */\n      mstore\n        /* \"#utility.yul\":19925:20158   */\n      pop\n      jump\t// out\n        /* \"#utility.yul\":20164:20530   */\n    tag_210:\n        /* \"#utility.yul\":20306:20309   */\n      0x00\n        /* \"#utility.yul\":20327:20394   */\n      tag_395\n        /* \"#utility.yul\":20391:20393   */\n      0x2e\n        /* \"#utility.yul\":20386:20389   */\n      dup4\n        /* \"#utility.yul\":20327:20394   */\n      tag_194\n      jump\t// in\n    tag_395:\n        /* \"#utility.yul\":20320:20394   */\n      swap2\n      pop\n        /* \"#utility.yul\":20403:20496   */\n      tag_396\n        /* \"#utility.yul\":20492:20495   */\n      dup3\n        /* \"#utility.yul\":20403:20496   */\n      tag_209\n      jump\t// in\n    tag_396:\n        /* \"#utility.yul\":20521:20523   */\n      0x40\n        /* \"#utility.yul\":20516:20519   */\n      dup3\n        /* \"#utility.yul\":20512:20524   */\n      add\n        /* \"#utility.yul\":20505:20524   */\n      swap1\n      pop\n        /* \"#utility.yul\":20164:20530   */\n      swap2\n      swap1\n      pop\n      jump\t// out\n        /* \"#utility.yul\":20536:20955   */\n    tag_120:\n        /* \"#utility.yul\":20702:20706   */\n      0x00\n        /* \"#utility.yul\":20740:20742   */\n      0x20\n        /* \"#utility.yul\":20729:20738   */\n      dup3\n        /* \"#utility.yul\":20725:20743   */\n      add\n        /* \"#utility.yul\":20717:20743   */\n      swap1\n      pop\n        /* \"#utility.yul\":20789:20798   */\n      dup2\n        /* \"#utility.yul\":20783:20787   */\n      dup2\n        /* \"#utility.yul\":20779:20799   */\n      sub\n        /* \"#utility.yul\":20775:20776   */\n      0x00\n        /* \"#utility.yul\":20764:20773   */\n      dup4\n        /* \"#utility.yul\":20760:20777   */\n      add\n        /* \"#utility.yul\":20753:20800   */\n      mstore\n        /* \"#utility.yul\":20817:20948   */\n      tag_398\n        /* \"#utility.yul\":20943:20947   */\n      dup2\n        /* \"#utility.yul\":20817:20948   */\n      tag_210\n      jump\t// in\n    tag_398:\n        /* \"#utility.yul\":20809:20948   */\n      swap1\n      pop\n        /* \"#utility.yul\":20536:20955   */\n      swap2\n      swap1\n      pop\n      jump\t// out\n        /* \"#utility.yul\":20961:21263   */\n    tag_211:\n        /* \"#utility.yul\":21101:21135   */\n      0x566f7573206e276176657a20706173206c652064726f6974206427656e726567\n        /* \"#utility.yul\":21097:21098   */\n      0x00\n        /* \"#utility.yul\":21089:21095   */\n      dup3\n        /* \"#utility.yul\":21085:21099   */\n      add\n        /* \"#utility.yul\":21078:21136   */\n      mstore\n        /* \"#utility.yul\":21170:21204   */\n      0x697374726572206365206469706c6f6d653a2070726f626c656d652064652074\n        /* \"#utility.yul\":21165:21167   */\n      0x20\n        /* \"#utility.yul\":21157:21163   */\n      dup3\n        /* \"#utility.yul\":21153:21168   */\n      add\n        /* \"#utility.yul\":21146:21205   */\n      mstore\n        /* \"#utility.yul\":21239:21255   */\n      0x797065206465206469706c6f6d65000000000000000000000000000000000000\n        /* \"#utility.yul\":21234:21236   */\n      0x40\n        /* \"#utility.yul\":21226:21232   */\n      dup3\n        /* \"#utility.yul\":21222:21237   */\n      add\n        /* \"#utility.yul\":21215:21256   */\n      mstore\n        /* \"#utility.yul\":20961:21263   */\n      pop\n      jump\t// out\n        /* \"#utility.yul\":21269:21635   */\n    tag_212:\n        /* \"#utility.yul\":21411:21414   */\n      0x00\n        /* \"#utility.yul\":21432:21499   */\n      tag_401\n        /* \"#utility.yul\":21496:21498   */\n      0x4e\n        /* \"#utility.yul\":21491:21494   */\n      dup4\n        /* \"#utility.yul\":21432:21499   */\n      tag_194\n      jump\t// in\n    tag_401:\n        /* \"#utility.yul\":21425:21499   */\n      swap2\n      pop\n        /* \"#utility.yul\":21508:21601   */\n      tag_402\n        /* \"#utility.yul\":21597:21600   */\n      dup3\n        /* \"#utility.yul\":21508:21601   */\n      tag_211\n      jump\t// in\n    tag_402:\n        /* \"#utility.yul\":21626:21628   */\n      0x60\n        /* \"#utility.yul\":21621:21624   */\n      dup3\n        /* \"#utility.yul\":21617:21629   */\n      add\n        /* \"#utility.yul\":21610:21629   */\n      swap1\n      pop\n        /* \"#utility.yul\":21269:21635   */\n      swap2\n      swap1\n      pop\n      jump\t// out\n        /* \"#utility.yul\":21641:22060   */\n    tag_132:\n        /* \"#utility.yul\":21807:21811   */\n      0x00\n        /* \"#utility.yul\":21845:21847   */\n      0x20\n        /* \"#utility.yul\":21834:21843   */\n      dup3\n        /* \"#utility.yul\":21830:21848   */\n      add\n        /* \"#utility.yul\":21822:21848   */\n      swap1\n      pop\n        /* \"#utility.yul\":21894:21903   */\n      dup2\n        /* \"#utility.yul\":21888:21892   */\n      dup2\n        /* \"#utility.yul\":21884:21904   */\n      sub\n        /* \"#utility.yul\":21880:21881   */\n      0x00\n        /* \"#utility.yul\":21869:21878   */\n      dup4\n        /* \"#utility.yul\":21865:21882   */\n      add\n        /* \"#utility.yul\":21858:21905   */\n      mstore\n        /* \"#utility.yul\":21922:22053   */\n      tag_404\n        /* \"#utility.yul\":22048:22052   */\n      dup2\n        /* \"#utility.yul\":21922:22053   */\n      tag_212\n      jump\t// in\n    tag_404:\n        /* \"#utility.yul\":21914:22053   */\n      swap1\n      pop\n        /* \"#utility.yul\":21641:22060   */\n      swap2\n      swap1\n      pop\n      jump\t// out\n\n    auxdata: 0xa26469706673582212209d1df87d517e0f6f8d81cc04938648a71fe04d8dffdb3b6d51935c428b1c33a064736f6c63430008090033\n}\n","bytecode":{"linkReferences":{},"object":"60806040523480156200001157600080fd5b5060405162001b4338038062001b438339818101604052810190620000379190620000e9565b80600160006101000a81548173ffffffffffffffffffffffffffffffffffffffff021916908373ffffffffffffffffffffffffffffffffffffffff160217905550506200011b565b600080fd5b600073ffffffffffffffffffffffffffffffffffffffff82169050919050565b6000620000b18262000084565b9050919050565b620000c381620000a4565b8114620000cf57600080fd5b50565b600081519050620000e381620000b8565b92915050565b6000602082840312156200010257620001016200007f565b5b60006200011284828501620000d2565b91505092915050565b611a18806200012b6000396000f3fe608060405234801561001057600080fd5b506004361061004c5760003560e01c80636cb31ac0146100515780636f593db51461006d57806373243e611461009d578063dcdebe85146100bb575b600080fd5b61006b60048036038101906100669190610fc1565b6100d7565b005b61008760048036038101906100829190610fc1565b61045b565b6040516100949190611213565b60405180910390f35b6100a56109a2565b6040516100b291906112b4565b60405180910390f35b6100d560048036038101906100d091906112f4565b6109c8565b005b600160009054906101000a900473ffffffffffffffffffffffffffffffffffffffff1673ffffffffffffffffffffffffffffffffffffffff16624c5e4b336040518263ffffffff1660e01b8152600401610131919061148f565b60206040518083038186803b15801561014957600080fd5b505afa15801561015d573d6000803e3d6000fd5b505050506040513d601f19601f8201168201806040525081019061018191906114d6565b6101c0576040517f08c379a00000000000000000000000000000000000000000000000000000000081526004016101b790611586565b60405180910390fd5b600080826040516101d191906115e2565b908152602001604051809103902060000180546101ed90611628565b90501415610230576040517f08c379a0000000000000000000000000000000000000000000000000000000008152600401610227906116a6565b60405180910390fd5b6000808260405161024191906115e2565b908152602001604051809103902090508060050160009054906101000a900460ff16600281111561027557610274611092565b5b600160009054906101000a900473ffffffffffffffffffffffffffffffffffffffff1673ffffffffffffffffffffffffffffffffffffffff16633b305817336040518263ffffffff1660e01b81526004016102d0919061148f565b60206040518083038186803b1580156102e857600080fd5b505afa1580156102fc573d6000803e3d6000fd5b505050506040513d601f19601f8201168201806040525081019061032091906116db565b600281111561033257610331611092565b5b14610372576040517f08c379a00000000000000000000000000000000000000000000000000000000081526004016103699061177a565b60405180910390fd5b60008260405161038291906115e2565b908152602001604051809103902060080160009054906101000a900460ff16156103e1576040517f08c379a00000000000000000000000000000000000000000000000000000000081526004016103d8906117e6565b60405180910390fd5b60018160080160006101000a81548160ff0219169083151502179055508160405161040c91906115e2565b60405180910390203373ffffffffffffffffffffffffffffffffffffffff167ffc9c7ab46267854ec3cba173f5174f7b36a3f699521a485bcbaae9c0e31e883860405160405180910390a35050565b610463610d64565b6000808360405161047491906115e2565b9081526020016040518091039020600001805461049090611628565b905014156104d3576040517f08c379a00000000000000000000000000000000000000000000000000000000081526004016104ca906116a6565b60405180910390fd5b600080836040516104e491906115e2565b90815260200160405180910390206040518061012001604052908160008201805461050e90611628565b80601f016020809104026020016040519081016040528092919081815260200182805461053a90611628565b80156105875780601f1061055c57610100808354040283529160200191610587565b820191906000526020600020905b81548152906001019060200180831161056a57829003601f168201915b505050505081526020016001820180546105a090611628565b80601f01602080910402602001604051908101604052809291908181526020018280546105cc90611628565b80156106195780601f106105ee57610100808354040283529160200191610619565b820191906000526020600020905b8154815290600101906020018083116105fc57829003601f168201915b5050505050815260200160028201805461063290611628565b80601f016020809104026020016040519081016040528092919081815260200182805461065e90611628565b80156106ab5780601f10610680576101008083540402835291602001916106ab565b820191906000526020600020905b81548152906001019060200180831161068e57829003601f168201915b505050505081526020016003820180546106c490611628565b80601f01602080910402602001604051908101604052809291908181526020018280546106f090611628565b801561073d5780601f106107125761010080835404028352916020019161073d565b820191906000526020600020905b81548152906001019060200180831161072057829003601f168201915b5050505050815260200160048201805461075690611628565b80601f016020809104026020016040519081016040528092919081815260200182805461078290611628565b80156107cf5780601f106107a4576101008083540402835291602001916107cf565b820191906000526020600020905b8154815290600101906020018083116107b257829003601f168201915b505050505081526020016005820160009054906101000a900460ff1660028111156107fd576107fc611092565b5b600281111561080f5761080e611092565b5b815260200160068201805461082390611628565b80601f016020809104026020016040519081016040528092919081815260200182805461084f90611628565b801561089c5780601f106108715761010080835404028352916020019161089c565b820191906000526020600020905b81548152906001019060200180831161087f57829003601f168201915b505050505081526020016007820180546108b590611628565b80601f01602080910402602001604051908101604052809291908181526020018280546108e190611628565b801561092e5780601f106109035761010080835404028352916020019161092e565b820191906000526020600020905b81548152906001019060200180831161091157829003601f168201915b505050505081526020016008820160009054906101000a900460ff1615151515815250509050806101000151610999576040517f08c379a000000000000000000000000000000000000000000000000000000000815260040161099090611878565b60405180910390fd5b80915050919050565b600160009054906101000a900473ffffffffffffffffffffffffffffffffffffffff1681565b600160009054906101000a900473ffffffffffffffffffffffffffffffffffffffff1673ffffffffffffffffffffffffffffffffffffffff16636de88b3c336040518263ffffffff1660e01b8152600401610a23919061148f565b60206040518083038186803b158015610a3b57600080fd5b505afa158015610a4f573d6000803e3d6000fd5b505050506040513d601f19601f82011682018060405250810190610a7391906114d6565b610ab2576040517f08c379a0000000000000000000000000000000000000000000000000000000008152600401610aa99061190a565b60405180910390fd5b826002811115610ac557610ac4611092565b5b600160009054906101000a900473ffffffffffffffffffffffffffffffffffffffff1673ffffffffffffffffffffffffffffffffffffffff16632b4d3466336040518263ffffffff1660e01b8152600401610b20919061148f565b60206040518083038186803b158015610b3857600080fd5b505afa158015610b4c573d6000803e3d6000fd5b505050506040513d601f19601f82011682018060405250810190610b7091906116db565b6002811115610b8257610b81611092565b5b14610bc2576040517f08c379a0000000000000000000000000000000000000000000000000000000008152600401610bb9906119c2565b60405180910390fd5b60006040518061012001604052808a8152602001898152602001888152602001878152602001868152602001856002811115610c0157610c00611092565b5b81526020018481526020018381526020016000151581525090508060008a604051610c2c91906115e2565b90815260200160405180910390206000820151816000019080519060200190610c56929190610dc4565b506020820151816001019080519060200190610c73929190610dc4565b506040820151816002019080519060200190610c90929190610dc4565b506060820151816003019080519060200190610cad929190610dc4565b506080820151816004019080519060200190610cca929190610dc4565b5060a08201518160050160006101000a81548160ff02191690836002811115610cf657610cf5611092565b5b021790555060c0820151816006019080519060200190610d17929190610dc4565b5060e0820151816007019080519060200190610d34929190610dc4565b506101008201518160080160006101000a81548160ff021916908315150217905550905050505050505050505050565b604051806101200160405280606081526020016060815260200160608152602001606081526020016060815260200160006002811115610da757610da6611092565b5b815260200160608152602001606081526020016000151581525090565b828054610dd090611628565b90600052602060002090601f016020900481019282610df25760008555610e39565b82601f10610e0b57805160ff1916838001178555610e39565b82800160010185558215610e39579182015b82811115610e38578251825591602001919060010190610e1d565b5b509050610e469190610e4a565b5090565b5b80821115610e63576000816000905550600101610e4b565b5090565b6000604051905090565b600080fd5b600080fd5b600080fd5b600080fd5b6000601f19601f8301169050919050565b7f4e487b7100000000000000000000000000000000000000000000000000000000600052604160045260246000fd5b610ece82610e85565b810181811067ffffffffffffffff82111715610eed57610eec610e96565b5b80604052505050565b6000610f00610e67565b9050610f0c8282610ec5565b919050565b600067ffffffffffffffff821115610f2c57610f2b610e96565b5b610f3582610e85565b9050602081019050919050565b82818337600083830152505050565b6000610f64610f5f84610f11565b610ef6565b905082815260208101848484011115610f8057610f7f610e80565b5b610f8b848285610f42565b509392505050565b600082601f830112610fa857610fa7610e7b565b5b8135610fb8848260208601610f51565b91505092915050565b600060208284031215610fd757610fd6610e71565b5b600082013567ffffffffffffffff811115610ff557610ff4610e76565b5b61100184828501610f93565b91505092915050565b600081519050919050565b600082825260208201905092915050565b60005b83811015611044578082015181840152602081019050611029565b83811115611053576000848401525b50505050565b60006110648261100a565b61106e8185611015565b935061107e818560208601611026565b61108781610e85565b840191505092915050565b7f4e487b7100000000000000000000000000000000000000000000000000000000600052602160045260246000fd5b600381106110d2576110d1611092565b5b50565b60008190506110e3826110c1565b919050565b60006110f3826110d5565b9050919050565b611103816110e8565b82525050565b60008115159050919050565b61111e81611109565b82525050565b60006101208301600083015184820360008601526111428282611059565b9150506020830151848203602086015261115c8282611059565b915050604083015184820360408601526111768282611059565b915050606083015184820360608601526111908282611059565b915050608083015184820360808601526111aa8282611059565b91505060a08301516111bf60a08601826110fa565b5060c083015184820360c08601526111d78282611059565b91505060e083015184820360e08601526111f18282611059565b915050610100830151611208610100860182611115565b508091505092915050565b6000602082019050818103600083015261122d8184611124565b905092915050565b600073ffffffffffffffffffffffffffffffffffffffff82169050919050565b6000819050919050565b600061127a61127561127084611235565b611255565b611235565b9050919050565b600061128c8261125f565b9050919050565b600061129e82611281565b9050919050565b6112ae81611293565b82525050565b60006020820190506112c960008301846112a5565b92915050565b600381106112dc57600080fd5b50565b6000813590506112ee816112cf565b92915050565b600080600080600080600080610100898b03121561131557611314610e71565b5b600089013567ffffffffffffffff81111561133357611332610e76565b5b61133f8b828c01610f93565b985050602089013567ffffffffffffffff8111156113605761135f610e76565b5b61136c8b828c01610f93565b975050604089013567ffffffffffffffff81111561138d5761138c610e76565b5b6113998b828c01610f93565b965050606089013567ffffffffffffffff8111156113ba576113b9610e76565b5b6113c68b828c01610f93565b955050608089013567ffffffffffffffff8111156113e7576113e6610e76565b5b6113f38b828c01610f93565b94505060a06114048b828c016112df565b93505060c089013567ffffffffffffffff81111561142557611424610e76565b5b6114318b828c01610f93565b92505060e089013567ffffffffffffffff81111561145257611451610e76565b5b61145e8b828c01610f93565b9150509295985092959890939650565b600061147982611235565b9050919050565b6114898161146e565b82525050565b60006020820190506114a46000830184611480565b92915050565b6114b381611109565b81146114be57600080fd5b50565b6000815190506114d0816114aa565b92915050565b6000602082840312156114ec576114eb610e71565b5b60006114fa848285016114c1565b91505092915050565b600082825260208201905092915050565b7f566f7573206e276176657a20706173206c652064726f6974206427617070726f60008201527f766572206365206469706c6f6d652e0000000000000000000000000000000000602082015250565b6000611570602f83611503565b915061157b82611514565b604082019050919050565b6000602082019050818103600083015261159f81611563565b9050919050565b600081905092915050565b60006115bc8261100a565b6115c681856115a6565b93506115d6818560208601611026565b80840191505092915050565b60006115ee82846115b1565b915081905092915050565b7f4e487b7100000000000000000000000000000000000000000000000000000000600052602260045260246000fd5b6000600282049050600182168061164057607f821691505b60208210811415611654576116536115f9565b5b50919050565b7f4c65206469706c6f6d65206e27657869737465207061732e0000000000000000600082015250565b6000611690601883611503565b915061169b8261165a565b602082019050919050565b600060208201905081810360008301526116bf81611683565b9050919050565b6000815190506116d5816112cf565b92915050565b6000602082840312156116f1576116f0610e71565b5b60006116ff848285016116c6565b91505092915050565b7f4c652074797065206465206c27617070726f766572206e6520636f727265737060008201527f6f6e64207061732061752074797065206475206469706c6f6d652e0000000000602082015250565b6000611764603b83611503565b915061176f82611708565b604082019050919050565b6000602082019050818103600083015261179381611757565b9050919050565b7f4c65206469706c6f6d65206573742064656a612076616c696465000000000000600082015250565b60006117d0601a83611503565b91506117db8261179a565b602082019050919050565b600060208201905081810360008301526117ff816117c3565b9050919050565b7f4c65206469706c6f6d65206e27657374207061732070617320656e636f72652060008201527f76616c6964650000000000000000000000000000000000000000000000000000602082015250565b6000611862602683611503565b915061186d82611806565b604082019050919050565b6000602082019050818103600083015261189181611855565b9050919050565b7f566f7573206e276574657320706173206175746f72697365722061206372656560008201527f7220646573206469706c6f6d6573000000000000000000000000000000000000602082015250565b60006118f4602e83611503565b91506118ff82611898565b604082019050919050565b60006020820190508181036000830152611923816118e7565b9050919050565b7f566f7573206e276176657a20706173206c652064726f6974206427656e72656760008201527f697374726572206365206469706c6f6d653a2070726f626c656d65206465207460208201527f797065206465206469706c6f6d65000000000000000000000000000000000000604082015250565b60006119ac604e83611503565b91506119b78261192a565b606082019050919050565b600060208201905081810360008301526119db8161199f565b905091905056fea26469706673582212209d1df87d517e0f6f8d81cc04938648a71fe04d8dffdb3b6d51935c428b1c33a064736f6c63430008090033","opcodes":"PUSH1 0x80 PUSH1 0x40 MSTORE CALLVALUE DUP1 ISZERO PUSH3 0x11 JUMPI PUSH1 0x0 DUP1 REVERT JUMPDEST POP PUSH1 0x40 MLOAD PUSH3 0x1B43 CODESIZE SUB DUP1 PUSH3 0x1B43 DUP4 CODECOPY DUP2 DUP2 ADD PUSH1 0x40 MSTORE DUP2 ADD SWAP1 PUSH3 0x37 SWAP2 SWAP1 PUSH3 0xE9 JUMP JUMPDEST DUP1 PUSH1 0x1 PUSH1 0x0 PUSH2 0x100 EXP DUP2 SLOAD DUP2 PUSH20 0xFFFFFFFFFFFFFFFFFFFFFFFFFFFFFFFFFFFFFFFF MUL NOT AND SWAP1 DUP4 PUSH20 0xFFFFFFFFFFFFFFFFFFFFFFFFFFFFFFFFFFFFFFFF AND MUL OR SWAP1 SSTORE POP POP PUSH3 0x11B JUMP JUMPDEST PUSH1 0x0 DUP1 REVERT JUMPDEST PUSH1 0x0 PUSH20 0xFFFFFFFFFFFFFFFFFFFFFFFFFFFFFFFFFFFFFFFF DUP3 AND SWAP1 POP SWAP2 SWAP1 POP JUMP JUMPDEST PUSH1 0x0 PUSH3 0xB1 DUP3 PUSH3 0x84 JUMP JUMPDEST SWAP1 POP SWAP2 SWAP1 POP JUMP JUMPDEST PUSH3 0xC3 DUP2 PUSH3 0xA4 JUMP JUMPDEST DUP2 EQ PUSH3 0xCF JUMPI PUSH1 0x0 DUP1 REVERT JUMPDEST POP JUMP JUMPDEST PUSH1 0x0 DUP2 MLOAD SWAP1 POP PUSH3 0xE3 DUP2 PUSH3 0xB8 JUMP JUMPDEST SWAP3 SWAP2 POP POP JUMP JUMPDEST PUSH1 0x0 PUSH1 0x20 DUP3 DUP5 SUB SLT ISZERO PUSH3 0x102 JUMPI PUSH3 0x101 PUSH3 0x7F JUMP JUMPDEST JUMPDEST PUSH1 0x0 PUSH3 0x112 DUP5 DUP3 DUP6 ADD PUSH3 0xD2 JUMP JUMPDEST SWAP2 POP POP SWAP3 SWAP2 POP POP JUMP JUMPDEST PUSH2 0x1A18 DUP1 PUSH3 0x12B PUSH1 0x0 CODECOPY PUSH1 0x0 RETURN INVALID PUSH1 0x80 PUSH1 0x40 MSTORE CALLVALUE DUP1 ISZERO PUSH2 0x10 JUMPI PUSH1 0x0 DUP1 REVERT JUMPDEST POP PUSH1 0x4 CALLDATASIZE LT PUSH2 0x4C JUMPI PUSH1 0x0 CALLDATALOAD PUSH1 0xE0 SHR DUP1 PUSH4 0x6CB31AC0 EQ PUSH2 0x51 JUMPI DUP1 PUSH4 0x6F593DB5 EQ PUSH2 0x6D JUMPI DUP1 PUSH4 0x73243E61 EQ PUSH2 0x9D JUMPI DUP1 PUSH4 0xDCDEBE85 EQ PUSH2 0xBB JUMPI JUMPDEST PUSH1 0x0 DUP1 REVERT JUMPDEST PUSH2 0x6B PUSH1 0x4 DUP1 CALLDATASIZE SUB DUP2 ADD SWAP1 PUSH2 0x66 SWAP2 SWAP1 PUSH2 0xFC1 JUMP JUMPDEST PUSH2 0xD7 JUMP JUMPDEST STOP JUMPDEST PUSH2 0x87 PUSH1 0x4 DUP1 CALLDATASIZE SUB DUP2 ADD SWAP1 PUSH2 0x82 SWAP2 SWAP1 PUSH2 0xFC1 JUMP JUMPDEST PUSH2 0x45B JUMP JUMPDEST PUSH1 0x40 MLOAD PUSH2 0x94 SWAP2 SWAP1 PUSH2 0x1213 JUMP JUMPDEST PUSH1 0x40 MLOAD DUP1 SWAP2 SUB SWAP1 RETURN JUMPDEST PUSH2 0xA5 PUSH2 0x9A2 JUMP JUMPDEST PUSH1 0x40 MLOAD PUSH2 0xB2 SWAP2 SWAP1 PUSH2 0x12B4 JUMP JUMPDEST PUSH1 0x40 MLOAD DUP1 SWAP2 SUB SWAP1 RETURN JUMPDEST PUSH2 0xD5 PUSH1 0x4 DUP1 CALLDATASIZE SUB DUP2 ADD SWAP1 PUSH2 0xD0 SWAP2 SWAP1 PUSH2 0x12F4 JUMP JUMPDEST PUSH2 0x9C8 JUMP JUMPDEST STOP JUMPDEST PUSH1 0x1 PUSH1 0x0 SWAP1 SLOAD SWAP1 PUSH2 0x100 EXP SWAP1 DIV PUSH20 0xFFFFFFFFFFFFFFFFFFFFFFFFFFFFFFFFFFFFFFFF AND PUSH20 0xFFFFFFFFFFFFFFFFFFFFFFFFFFFFFFFFFFFFFFFF AND PUSH3 0x4C5E4B CALLER PUSH1 0x40 MLOAD DUP3 PUSH4 0xFFFFFFFF AND PUSH1 0xE0 SHL DUP2 MSTORE PUSH1 0x4 ADD PUSH2 0x131 SWAP2 SWAP1 PUSH2 0x148F JUMP JUMPDEST PUSH1 0x20 PUSH1 0x40 MLOAD DUP1 DUP4 SUB DUP2 DUP7 DUP1 EXTCODESIZE ISZERO DUP1 ISZERO PUSH2 0x149 JUMPI PUSH1 0x0 DUP1 REVERT JUMPDEST POP GAS STATICCALL ISZERO DUP1 ISZERO PUSH2 0x15D JUMPI RETURNDATASIZE PUSH1 0x0 DUP1 RETURNDATACOPY RETURNDATASIZE PUSH1 0x0 REVERT JUMPDEST POP POP POP POP PUSH1 0x40 MLOAD RETURNDATASIZE PUSH1 0x1F NOT PUSH1 0x1F DUP3 ADD AND DUP3 ADD DUP1 PUSH1 0x40 MSTORE POP DUP2 ADD SWAP1 PUSH2 0x181 SWAP2 SWAP1 PUSH2 0x14D6 JUMP JUMPDEST PUSH2 0x1C0 JUMPI PUSH1 0x40 MLOAD PUSH32 0x8C379A000000000000000000000000000000000000000000000000000000000 DUP2 MSTORE PUSH1 0x4 ADD PUSH2 0x1B7 SWAP1 PUSH2 0x1586 JUMP JUMPDEST PUSH1 0x40 MLOAD DUP1 SWAP2 SUB SWAP1 REVERT JUMPDEST PUSH1 0x0 DUP1 DUP3 PUSH1 0x40 MLOAD PUSH2 0x1D1 SWAP2 SWAP1 PUSH2 0x15E2 JUMP JUMPDEST SWAP1 DUP2 MSTORE PUSH1 0x20 ADD PUSH1 0x40 MLOAD DUP1 SWAP2 SUB SWAP1 KECCAK256 PUSH1 0x0 ADD DUP1 SLOAD PUSH2 0x1ED SWAP1 PUSH2 0x1628 JUMP JUMPDEST SWAP1 POP EQ ISZERO PUSH2 0x230 JUMPI PUSH1 0x40 MLOAD PUSH32 0x8C379A000000000000000000000000000000000000000000000000000000000 DUP2 MSTORE PUSH1 0x4 ADD PUSH2 0x227 SWAP1 PUSH2 0x16A6 JUMP JUMPDEST PUSH1 0x40 MLOAD DUP1 SWAP2 SUB SWAP1 REVERT JUMPDEST PUSH1 0x0 DUP1 DUP3 PUSH1 0x40 MLOAD PUSH2 0x241 SWAP2 SWAP1 PUSH2 0x15E2 JUMP JUMPDEST SWAP1 DUP2 MSTORE PUSH1 0x20 ADD PUSH1 0x40 MLOAD DUP1 SWAP2 SUB SWAP1 KECCAK256 SWAP1 POP DUP1 PUSH1 0x5 ADD PUSH1 0x0 SWAP1 SLOAD SWAP1 PUSH2 0x100 EXP SWAP1 DIV PUSH1 0xFF AND PUSH1 0x2 DUP2 GT ISZERO PUSH2 0x275 JUMPI PUSH2 0x274 PUSH2 0x1092 JUMP JUMPDEST JUMPDEST PUSH1 0x1 PUSH1 0x0 SWAP1 SLOAD SWAP1 PUSH2 0x100 EXP SWAP1 DIV PUSH20 0xFFFFFFFFFFFFFFFFFFFFFFFFFFFFFFFFFFFFFFFF AND PUSH20 0xFFFFFFFFFFFFFFFFFFFFFFFFFFFFFFFFFFFFFFFF AND PUSH4 0x3B305817 CALLER PUSH1 0x40 MLOAD DUP3 PUSH4 0xFFFFFFFF AND PUSH1 0xE0 SHL DUP2 MSTORE PUSH1 0x4 ADD PUSH2 0x2D0 SWAP2 SWAP1 PUSH2 0x148F JUMP JUMPDEST PUSH1 0x20 PUSH1 0x40 MLOAD DUP1 DUP4 SUB DUP2 DUP7 DUP1 EXTCODESIZE ISZERO DUP1 ISZERO PUSH2 0x2E8 JUMPI PUSH1 0x0 DUP1 REVERT JUMPDEST POP GAS STATICCALL ISZERO DUP1 ISZERO PUSH2 0x2FC JUMPI RETURNDATASIZE PUSH1 0x0 DUP1 RETURNDATACOPY RETURNDATASIZE PUSH1 0x0 REVERT JUMPDEST POP POP POP POP PUSH1 0x40 MLOAD RETURNDATASIZE PUSH1 0x1F NOT PUSH1 0x1F DUP3 ADD AND DUP3 ADD DUP1 PUSH1 0x40 MSTORE POP DUP2 ADD SWAP1 PUSH2 0x320 SWAP2 SWAP1 PUSH2 0x16DB JUMP JUMPDEST PUSH1 0x2 DUP2 GT ISZERO PUSH2 0x332 JUMPI PUSH2 0x331 PUSH2 0x1092 JUMP JUMPDEST JUMPDEST EQ PUSH2 0x372 JUMPI PUSH1 0x40 MLOAD PUSH32 0x8C379A000000000000000000000000000000000000000000000000000000000 DUP2 MSTORE PUSH1 0x4 ADD PUSH2 0x369 SWAP1 PUSH2 0x177A JUMP JUMPDEST PUSH1 0x40 MLOAD DUP1 SWAP2 SUB SWAP1 REVERT JUMPDEST PUSH1 0x0 DUP3 PUSH1 0x40 MLOAD PUSH2 0x382 SWAP2 SWAP1 PUSH2 0x15E2 JUMP JUMPDEST SWAP1 DUP2 MSTORE PUSH1 0x20 ADD PUSH1 0x40 MLOAD DUP1 SWAP2 SUB SWAP1 KECCAK256 PUSH1 0x8 ADD PUSH1 0x0 SWAP1 SLOAD SWAP1 PUSH2 0x100 EXP SWAP1 DIV PUSH1 0xFF AND ISZERO PUSH2 0x3E1 JUMPI PUSH1 0x40 MLOAD PUSH32 0x8C379A000000000000000000000000000000000000000000000000000000000 DUP2 MSTORE PUSH1 0x4 ADD PUSH2 0x3D8 SWAP1 PUSH2 0x17E6 JUMP JUMPDEST PUSH1 0x40 MLOAD DUP1 SWAP2 SUB SWAP1 REVERT JUMPDEST PUSH1 0x1 DUP2 PUSH1 0x8 ADD PUSH1 0x0 PUSH2 0x100 EXP DUP2 SLOAD DUP2 PUSH1 0xFF MUL NOT AND SWAP1 DUP4 ISZERO ISZERO MUL OR SWAP1 SSTORE POP DUP2 PUSH1 0x40 MLOAD PUSH2 0x40C SWAP2 SWAP1 PUSH2 0x15E2 JUMP JUMPDEST PUSH1 0x40 MLOAD DUP1 SWAP2 SUB SWAP1 KECCAK256 CALLER PUSH20 0xFFFFFFFFFFFFFFFFFFFFFFFFFFFFFFFFFFFFFFFF AND PUSH32 0xFC9C7AB46267854EC3CBA173F5174F7B36A3F699521A485BCBAAE9C0E31E8838 PUSH1 0x40 MLOAD PUSH1 0x40 MLOAD DUP1 SWAP2 SUB SWAP1 LOG3 POP POP JUMP JUMPDEST PUSH2 0x463 PUSH2 0xD64 JUMP JUMPDEST PUSH1 0x0 DUP1 DUP4 PUSH1 0x40 MLOAD PUSH2 0x474 SWAP2 SWAP1 PUSH2 0x15E2 JUMP JUMPDEST SWAP1 DUP2 MSTORE PUSH1 0x20 ADD PUSH1 0x40 MLOAD DUP1 SWAP2 SUB SWAP1 KECCAK256 PUSH1 0x0 ADD DUP1 SLOAD PUSH2 0x490 SWAP1 PUSH2 0x1628 JUMP JUMPDEST SWAP1 POP EQ ISZERO PUSH2 0x4D3 JUMPI PUSH1 0x40 MLOAD PUSH32 0x8C379A000000000000000000000000000000000000000000000000000000000 DUP2 MSTORE PUSH1 0x4 ADD PUSH2 0x4CA SWAP1 PUSH2 0x16A6 JUMP JUMPDEST PUSH1 0x40 MLOAD DUP1 SWAP2 SUB SWAP1 REVERT JUMPDEST PUSH1 0x0 DUP1 DUP4 PUSH1 0x40 MLOAD PUSH2 0x4E4 SWAP2 SWAP1 PUSH2 0x15E2 JUMP JUMPDEST SWAP1 DUP2 MSTORE PUSH1 0x20 ADD PUSH1 0x40 MLOAD DUP1 SWAP2 SUB SWAP1 KECCAK256 PUSH1 0x40 MLOAD DUP1 PUSH2 0x120 ADD PUSH1 0x40 MSTORE SWAP1 DUP2 PUSH1 0x0 DUP3 ADD DUP1 SLOAD PUSH2 0x50E SWAP1 PUSH2 0x1628 JUMP JUMPDEST DUP1 PUSH1 0x1F ADD PUSH1 0x20 DUP1 SWAP2 DIV MUL PUSH1 0x20 ADD PUSH1 0x40 MLOAD SWAP1 DUP2 ADD PUSH1 0x40 MSTORE DUP1 SWAP3 SWAP2 SWAP1 DUP2 DUP2 MSTORE PUSH1 0x20 ADD DUP3 DUP1 SLOAD PUSH2 0x53A SWAP1 PUSH2 0x1628 JUMP JUMPDEST DUP1 ISZERO PUSH2 0x587 JUMPI DUP1 PUSH1 0x1F LT PUSH2 0x55C JUMPI PUSH2 0x100 DUP1 DUP4 SLOAD DIV MUL DUP4 MSTORE SWAP2 PUSH1 0x20 ADD SWAP2 PUSH2 0x587 JUMP JUMPDEST DUP3 ADD SWAP2 SWAP1 PUSH1 0x0 MSTORE PUSH1 0x20 PUSH1 0x0 KECCAK256 SWAP1 JUMPDEST DUP2 SLOAD DUP2 MSTORE SWAP1 PUSH1 0x1 ADD SWAP1 PUSH1 0x20 ADD DUP1 DUP4 GT PUSH2 0x56A JUMPI DUP3 SWAP1 SUB PUSH1 0x1F AND DUP3 ADD SWAP2 JUMPDEST POP POP POP POP POP DUP2 MSTORE PUSH1 0x20 ADD PUSH1 0x1 DUP3 ADD DUP1 SLOAD PUSH2 0x5A0 SWAP1 PUSH2 0x1628 JUMP JUMPDEST DUP1 PUSH1 0x1F ADD PUSH1 0x20 DUP1 SWAP2 DIV MUL PUSH1 0x20 ADD PUSH1 0x40 MLOAD SWAP1 DUP2 ADD PUSH1 0x40 MSTORE DUP1 SWAP3 SWAP2 SWAP1 DUP2 DUP2 MSTORE PUSH1 0x20 ADD DUP3 DUP1 SLOAD PUSH2 0x5CC SWAP1 PUSH2 0x1628 JUMP JUMPDEST DUP1 ISZERO PUSH2 0x619 JUMPI DUP1 PUSH1 0x1F LT PUSH2 0x5EE JUMPI PUSH2 0x100 DUP1 DUP4 SLOAD DIV MUL DUP4 MSTORE SWAP2 PUSH1 0x20 ADD SWAP2 PUSH2 0x619 JUMP JUMPDEST DUP3 ADD SWAP2 SWAP1 PUSH1 0x0 MSTORE PUSH1 0x20 PUSH1 0x0 KECCAK256 SWAP1 JUMPDEST DUP2 SLOAD DUP2 MSTORE SWAP1 PUSH1 0x1 ADD SWAP1 PUSH1 0x20 ADD DUP1 DUP4 GT PUSH2 0x5FC JUMPI DUP3 SWAP1 SUB PUSH1 0x1F AND DUP3 ADD SWAP2 JUMPDEST POP POP POP POP POP DUP2 MSTORE PUSH1 0x20 ADD PUSH1 0x2 DUP3 ADD DUP1 SLOAD PUSH2 0x632 SWAP1 PUSH2 0x1628 JUMP JUMPDEST DUP1 PUSH1 0x1F ADD PUSH1 0x20 DUP1 SWAP2 DIV MUL PUSH1 0x20 ADD PUSH1 0x40 MLOAD SWAP1 DUP2 ADD PUSH1 0x40 MSTORE DUP1 SWAP3 SWAP2 SWAP1 DUP2 DUP2 MSTORE PUSH1 0x20 ADD DUP3 DUP1 SLOAD PUSH2 0x65E SWAP1 PUSH2 0x1628 JUMP JUMPDEST DUP1 ISZERO PUSH2 0x6AB JUMPI DUP1 PUSH1 0x1F LT PUSH2 0x680 JUMPI PUSH2 0x100 DUP1 DUP4 SLOAD DIV MUL DUP4 MSTORE SWAP2 PUSH1 0x20 ADD SWAP2 PUSH2 0x6AB JUMP JUMPDEST DUP3 ADD SWAP2 SWAP1 PUSH1 0x0 MSTORE PUSH1 0x20 PUSH1 0x0 KECCAK256 SWAP1 JUMPDEST DUP2 SLOAD DUP2 MSTORE SWAP1 PUSH1 0x1 ADD SWAP1 PUSH1 0x20 ADD DUP1 DUP4 GT PUSH2 0x68E JUMPI DUP3 SWAP1 SUB PUSH1 0x1F AND DUP3 ADD SWAP2 JUMPDEST POP POP POP POP POP DUP2 MSTORE PUSH1 0x20 ADD PUSH1 0x3 DUP3 ADD DUP1 SLOAD PUSH2 0x6C4 SWAP1 PUSH2 0x1628 JUMP JUMPDEST DUP1 PUSH1 0x1F ADD PUSH1 0x20 DUP1 SWAP2 DIV MUL PUSH1 0x20 ADD PUSH1 0x40 MLOAD SWAP1 DUP2 ADD PUSH1 0x40 MSTORE DUP1 SWAP3 SWAP2 SWAP1 DUP2 DUP2 MSTORE PUSH1 0x20 ADD DUP3 DUP1 SLOAD PUSH2 0x6F0 SWAP1 PUSH2 0x1628 JUMP JUMPDEST DUP1 ISZERO PUSH2 0x73D JUMPI DUP1 PUSH1 0x1F LT PUSH2 0x712 JUMPI PUSH2 0x100 DUP1 DUP4 SLOAD DIV MUL DUP4 MSTORE SWAP2 PUSH1 0x20 ADD SWAP2 PUSH2 0x73D JUMP JUMPDEST DUP3 ADD SWAP2 SWAP1 PUSH1 0x0 MSTORE PUSH1 0x20 PUSH1 0x0 KECCAK256 SWAP1 JUMPDEST DUP2 SLOAD DUP2 MSTORE SWAP1 PUSH1 0x1 ADD SWAP1 PUSH1 0x20 ADD DUP1 DUP4 GT PUSH2 0x720 JUMPI DUP3 SWAP1 SUB PUSH1 0x1F AND DUP3 ADD SWAP2 JUMPDEST POP POP POP POP POP DUP2 MSTORE PUSH1 0x20 ADD PUSH1 0x4 DUP3 ADD DUP1 SLOAD PUSH2 0x756 SWAP1 PUSH2 0x1628 JUMP JUMPDEST DUP1 PUSH1 0x1F ADD PUSH1 0x20 DUP1 SWAP2 DIV MUL PUSH1 0x20 ADD PUSH1 0x40 MLOAD SWAP1 DUP2 ADD PUSH1 0x40 MSTORE DUP1 SWAP3 SWAP2 SWAP1 DUP2 DUP2 MSTORE PUSH1 0x20 ADD DUP3 DUP1 SLOAD PUSH2 0x782 SWAP1 PUSH2 0x1628 JUMP JUMPDEST DUP1 ISZERO PUSH2 0x7CF JUMPI DUP1 PUSH1 0x1F LT PUSH2 0x7A4 JUMPI PUSH2 0x100 DUP1 DUP4 SLOAD DIV MUL DUP4 MSTORE SWAP2 PUSH1 0x20 ADD SWAP2 PUSH2 0x7CF JUMP JUMPDEST DUP3 ADD SWAP2 SWAP1 PUSH1 0x0 MSTORE PUSH1 0x20 PUSH1 0x0 KECCAK256 SWAP1 JUMPDEST DUP2 SLOAD DUP2 MSTORE SWAP1 PUSH1 0x1 ADD SWAP1 PUSH1 0x20 ADD DUP1 DUP4 GT PUSH2 0x7B2 JUMPI DUP3 SWAP1 SUB PUSH1 0x1F AND DUP3 ADD SWAP2 JUMPDEST POP POP POP POP POP DUP2 MSTORE PUSH1 0x20 ADD PUSH1 0x5 DUP3 ADD PUSH1 0x0 SWAP1 SLOAD SWAP1 PUSH2 0x100 EXP SWAP1 DIV PUSH1 0xFF AND PUSH1 0x2 DUP2 GT ISZERO PUSH2 0x7FD JUMPI PUSH2 0x7FC PUSH2 0x1092 JUMP JUMPDEST JUMPDEST PUSH1 0x2 DUP2 GT ISZERO PUSH2 0x80F JUMPI PUSH2 0x80E PUSH2 0x1092 JUMP JUMPDEST JUMPDEST DUP2 MSTORE PUSH1 0x20 ADD PUSH1 0x6 DUP3 ADD DUP1 SLOAD PUSH2 0x823 SWAP1 PUSH2 0x1628 JUMP JUMPDEST DUP1 PUSH1 0x1F ADD PUSH1 0x20 DUP1 SWAP2 DIV MUL PUSH1 0x20 ADD PUSH1 0x40 MLOAD SWAP1 DUP2 ADD PUSH1 0x40 MSTORE DUP1 SWAP3 SWAP2 SWAP1 DUP2 DUP2 MSTORE PUSH1 0x20 ADD DUP3 DUP1 SLOAD PUSH2 0x84F SWAP1 PUSH2 0x1628 JUMP JUMPDEST DUP1 ISZERO PUSH2 0x89C JUMPI DUP1 PUSH1 0x1F LT PUSH2 0x871 JUMPI PUSH2 0x100 DUP1 DUP4 SLOAD DIV MUL DUP4 MSTORE SWAP2 PUSH1 0x20 ADD SWAP2 PUSH2 0x89C JUMP JUMPDEST DUP3 ADD SWAP2 SWAP1 PUSH1 0x0 MSTORE PUSH1 0x20 PUSH1 0x0 KECCAK256 SWAP1 JUMPDEST DUP2 SLOAD DUP2 MSTORE SWAP1 PUSH1 0x1 ADD SWAP1 PUSH1 0x20 ADD DUP1 DUP4 GT PUSH2 0x87F JUMPI DUP3 SWAP1 SUB PUSH1 0x1F AND DUP3 ADD SWAP2 JUMPDEST POP POP POP POP POP DUP2 MSTORE PUSH1 0x20 ADD PUSH1 0x7 DUP3 ADD DUP1 SLOAD PUSH2 0x8B5 SWAP1 PUSH2 0x1628 JUMP JUMPDEST DUP1 PUSH1 0x1F ADD PUSH1 0x20 DUP1 SWAP2 DIV MUL PUSH1 0x20 ADD PUSH1 0x40 MLOAD SWAP1 DUP2 ADD PUSH1 0x40 MSTORE DUP1 SWAP3 SWAP2 SWAP1 DUP2 DUP2 MSTORE PUSH1 0x20 ADD DUP3 DUP1 SLOAD PUSH2 0x8E1 SWAP1 PUSH2 0x1628 JUMP JUMPDEST DUP1 ISZERO PUSH2 0x92E JUMPI DUP1 PUSH1 0x1F LT PUSH2 0x903 JUMPI PUSH2 0x100 DUP1 DUP4 SLOAD DIV MUL DUP4 MSTORE SWAP2 PUSH1 0x20 ADD SWAP2 PUSH2 0x92E JUMP JUMPDEST DUP3 ADD SWAP2 SWAP1 PUSH1 0x0 MSTORE PUSH1 0x20 PUSH1 0x0 KECCAK256 SWAP1 JUMPDEST DUP2 SLOAD DUP2 MSTORE SWAP1 PUSH1 0x1 ADD SWAP1 PUSH1 0x20 ADD DUP1 DUP4 GT PUSH2 0x911 JUMPI DUP3 SWAP1 SUB PUSH1 0x1F AND DUP3 ADD SWAP2 JUMPDEST POP POP POP POP POP DUP2 MSTORE PUSH1 0x20 ADD PUSH1 0x8 DUP3 ADD PUSH1 0x0 SWAP1 SLOAD SWAP1 PUSH2 0x100 EXP SWAP1 DIV PUSH1 0xFF AND ISZERO ISZERO ISZERO ISZERO DUP2 MSTORE POP POP SWAP1 POP DUP1 PUSH2 0x100 ADD MLOAD PUSH2 0x999 JUMPI PUSH1 0x40 MLOAD PUSH32 0x8C379A000000000000000000000000000000000000000000000000000000000 DUP2 MSTORE PUSH1 0x4 ADD PUSH2 0x990 SWAP1 PUSH2 0x1878 JUMP JUMPDEST PUSH1 0x40 MLOAD DUP1 SWAP2 SUB SWAP1 REVERT JUMPDEST DUP1 SWAP2 POP POP SWAP2 SWAP1 POP JUMP JUMPDEST PUSH1 0x1 PUSH1 0x0 SWAP1 SLOAD SWAP1 PUSH2 0x100 EXP SWAP1 DIV PUSH20 0xFFFFFFFFFFFFFFFFFFFFFFFFFFFFFFFFFFFFFFFF AND DUP2 JUMP JUMPDEST PUSH1 0x1 PUSH1 0x0 SWAP1 SLOAD SWAP1 PUSH2 0x100 EXP SWAP1 DIV PUSH20 0xFFFFFFFFFFFFFFFFFFFFFFFFFFFFFFFFFFFFFFFF AND PUSH20 0xFFFFFFFFFFFFFFFFFFFFFFFFFFFFFFFFFFFFFFFF AND PUSH4 0x6DE88B3C CALLER PUSH1 0x40 MLOAD DUP3 PUSH4 0xFFFFFFFF AND PUSH1 0xE0 SHL DUP2 MSTORE PUSH1 0x4 ADD PUSH2 0xA23 SWAP2 SWAP1 PUSH2 0x148F JUMP JUMPDEST PUSH1 0x20 PUSH1 0x40 MLOAD DUP1 DUP4 SUB DUP2 DUP7 DUP1 EXTCODESIZE ISZERO DUP1 ISZERO PUSH2 0xA3B JUMPI PUSH1 0x0 DUP1 REVERT JUMPDEST POP GAS STATICCALL ISZERO DUP1 ISZERO PUSH2 0xA4F JUMPI RETURNDATASIZE PUSH1 0x0 DUP1 RETURNDATACOPY RETURNDATASIZE PUSH1 0x0 REVERT JUMPDEST POP POP POP POP PUSH1 0x40 MLOAD RETURNDATASIZE PUSH1 0x1F NOT PUSH1 0x1F DUP3 ADD AND DUP3 ADD DUP1 PUSH1 0x40 MSTORE POP DUP2 ADD SWAP1 PUSH2 0xA73 SWAP2 SWAP1 PUSH2 0x14D6 JUMP JUMPDEST PUSH2 0xAB2 JUMPI PUSH1 0x40 MLOAD PUSH32 0x8C379A000000000000000000000000000000000000000000000000000000000 DUP2 MSTORE PUSH1 0x4 ADD PUSH2 0xAA9 SWAP1 PUSH2 0x190A JUMP JUMPDEST PUSH1 0x40 MLOAD DUP1 SWAP2 SUB SWAP1 REVERT JUMPDEST DUP3 PUSH1 0x2 DUP2 GT ISZERO PUSH2 0xAC5 JUMPI PUSH2 0xAC4 PUSH2 0x1092 JUMP JUMPDEST JUMPDEST PUSH1 0x1 PUSH1 0x0 SWAP1 SLOAD SWAP1 PUSH2 0x100 EXP SWAP1 DIV PUSH20 0xFFFFFFFFFFFFFFFFFFFFFFFFFFFFFFFFFFFFFFFF AND PUSH20 0xFFFFFFFFFFFFFFFFFFFFFFFFFFFFFFFFFFFFFFFF AND PUSH4 0x2B4D3466 CALLER PUSH1 0x40 MLOAD DUP3 PUSH4 0xFFFFFFFF AND PUSH1 0xE0 SHL DUP2 MSTORE PUSH1 0x4 ADD PUSH2 0xB20 SWAP2 SWAP1 PUSH2 0x148F JUMP JUMPDEST PUSH1 0x20 PUSH1 0x40 MLOAD DUP1 DUP4 SUB DUP2 DUP7 DUP1 EXTCODESIZE ISZERO DUP1 ISZERO PUSH2 0xB38 JUMPI PUSH1 0x0 DUP1 REVERT JUMPDEST POP GAS STATICCALL ISZERO DUP1 ISZERO PUSH2 0xB4C JUMPI RETURNDATASIZE PUSH1 0x0 DUP1 RETURNDATACOPY RETURNDATASIZE PUSH1 0x0 REVERT JUMPDEST POP POP POP POP PUSH1 0x40 MLOAD RETURNDATASIZE PUSH1 0x1F NOT PUSH1 0x1F DUP3 ADD AND DUP3 ADD DUP1 PUSH1 0x40 MSTORE POP DUP2 ADD SWAP1 PUSH2 0xB70 SWAP2 SWAP1 PUSH2 0x16DB JUMP JUMPDEST PUSH1 0x2 DUP2 GT ISZERO PUSH2 0xB82 JUMPI PUSH2 0xB81 PUSH2 0x1092 JUMP JUMPDEST JUMPDEST EQ PUSH2 0xBC2 JUMPI PUSH1 0x40 MLOAD PUSH32 0x8C379A000000000000000000000000000000000000000000000000000000000 DUP2 MSTORE PUSH1 0x4 ADD PUSH2 0xBB9 SWAP1 PUSH2 0x19C2 JUMP JUMPDEST PUSH1 0x40 MLOAD DUP1 SWAP2 SUB SWAP1 REVERT JUMPDEST PUSH1 0x0 PUSH1 0x40 MLOAD DUP1 PUSH2 0x120 ADD PUSH1 0x40 MSTORE DUP1 DUP11 DUP2 MSTORE PUSH1 0x20 ADD DUP10 DUP2 MSTORE PUSH1 0x20 ADD DUP9 DUP2 MSTORE PUSH1 0x20 ADD DUP8 DUP2 MSTORE PUSH1 0x20 ADD DUP7 DUP2 MSTORE PUSH1 0x20 ADD DUP6 PUSH1 0x2 DUP2 GT ISZERO PUSH2 0xC01 JUMPI PUSH2 0xC00 PUSH2 0x1092 JUMP JUMPDEST JUMPDEST DUP2 MSTORE PUSH1 0x20 ADD DUP5 DUP2 MSTORE PUSH1 0x20 ADD DUP4 DUP2 MSTORE PUSH1 0x20 ADD PUSH1 0x0 ISZERO ISZERO DUP2 MSTORE POP SWAP1 POP DUP1 PUSH1 0x0 DUP11 PUSH1 0x40 MLOAD PUSH2 0xC2C SWAP2 SWAP1 PUSH2 0x15E2 JUMP JUMPDEST SWAP1 DUP2 MSTORE PUSH1 0x20 ADD PUSH1 0x40 MLOAD DUP1 SWAP2 SUB SWAP1 KECCAK256 PUSH1 0x0 DUP3 ADD MLOAD DUP2 PUSH1 0x0 ADD SWAP1 DUP1 MLOAD SWAP1 PUSH1 0x20 ADD SWAP1 PUSH2 0xC56 SWAP3 SWAP2 SWAP1 PUSH2 0xDC4 JUMP JUMPDEST POP PUSH1 0x20 DUP3 ADD MLOAD DUP2 PUSH1 0x1 ADD SWAP1 DUP1 MLOAD SWAP1 PUSH1 0x20 ADD SWAP1 PUSH2 0xC73 SWAP3 SWAP2 SWAP1 PUSH2 0xDC4 JUMP JUMPDEST POP PUSH1 0x40 DUP3 ADD MLOAD DUP2 PUSH1 0x2 ADD SWAP1 DUP1 MLOAD SWAP1 PUSH1 0x20 ADD SWAP1 PUSH2 0xC90 SWAP3 SWAP2 SWAP1 PUSH2 0xDC4 JUMP JUMPDEST POP PUSH1 0x60 DUP3 ADD MLOAD DUP2 PUSH1 0x3 ADD SWAP1 DUP1 MLOAD SWAP1 PUSH1 0x20 ADD SWAP1 PUSH2 0xCAD SWAP3 SWAP2 SWAP1 PUSH2 0xDC4 JUMP JUMPDEST POP PUSH1 0x80 DUP3 ADD MLOAD DUP2 PUSH1 0x4 ADD SWAP1 DUP1 MLOAD SWAP1 PUSH1 0x20 ADD SWAP1 PUSH2 0xCCA SWAP3 SWAP2 SWAP1 PUSH2 0xDC4 JUMP JUMPDEST POP PUSH1 0xA0 DUP3 ADD MLOAD DUP2 PUSH1 0x5 ADD PUSH1 0x0 PUSH2 0x100 EXP DUP2 SLOAD DUP2 PUSH1 0xFF MUL NOT AND SWAP1 DUP4 PUSH1 0x2 DUP2 GT ISZERO PUSH2 0xCF6 JUMPI PUSH2 0xCF5 PUSH2 0x1092 JUMP JUMPDEST JUMPDEST MUL OR SWAP1 SSTORE POP PUSH1 0xC0 DUP3 ADD MLOAD DUP2 PUSH1 0x6 ADD SWAP1 DUP1 MLOAD SWAP1 PUSH1 0x20 ADD SWAP1 PUSH2 0xD17 SWAP3 SWAP2 SWAP1 PUSH2 0xDC4 JUMP JUMPDEST POP PUSH1 0xE0 DUP3 ADD MLOAD DUP2 PUSH1 0x7 ADD SWAP1 DUP1 MLOAD SWAP1 PUSH1 0x20 ADD SWAP1 PUSH2 0xD34 SWAP3 SWAP2 SWAP1 PUSH2 0xDC4 JUMP JUMPDEST POP PUSH2 0x100 DUP3 ADD MLOAD DUP2 PUSH1 0x8 ADD PUSH1 0x0 PUSH2 0x100 EXP DUP2 SLOAD DUP2 PUSH1 0xFF MUL NOT AND SWAP1 DUP4 ISZERO ISZERO MUL OR SWAP1 SSTORE POP SWAP1 POP POP POP POP POP POP POP POP POP POP POP JUMP JUMPDEST PUSH1 0x40 MLOAD DUP1 PUSH2 0x120 ADD PUSH1 0x40 MSTORE DUP1 PUSH1 0x60 DUP2 MSTORE PUSH1 0x20 ADD PUSH1 0x60 DUP2 MSTORE PUSH1 0x20 ADD PUSH1 0x60 DUP2 MSTORE PUSH1 0x20 ADD PUSH1 0x60 DUP2 MSTORE PUSH1 0x20 ADD PUSH1 0x60 DUP2 MSTORE PUSH1 0x20 ADD PUSH1 0x0 PUSH1 0x2 DUP2 GT ISZERO PUSH2 0xDA7 JUMPI PUSH2 0xDA6 PUSH2 0x1092 JUMP JUMPDEST JUMPDEST DUP2 MSTORE PUSH1 0x20 ADD PUSH1 0x60 DUP2 MSTORE PUSH1 0x20 ADD PUSH1 0x60 DUP2 MSTORE PUSH1 0x20 ADD PUSH1 0x0 ISZERO ISZERO DUP2 MSTORE POP SWAP1 JUMP JUMPDEST DUP3 DUP1 SLOAD PUSH2 0xDD0 SWAP1 PUSH2 0x1628 JUMP JUMPDEST SWAP1 PUSH1 0x0 MSTORE PUSH1 0x20 PUSH1 0x0 KECCAK256 SWAP1 PUSH1 0x1F ADD PUSH1 0x20 SWAP1 DIV DUP2 ADD SWAP3 DUP3 PUSH2 0xDF2 JUMPI PUSH1 0x0 DUP6 SSTORE PUSH2 0xE39 JUMP JUMPDEST DUP3 PUSH1 0x1F LT PUSH2 0xE0B JUMPI DUP1 MLOAD PUSH1 0xFF NOT AND DUP4 DUP1 ADD OR DUP6 SSTORE PUSH2 0xE39 JUMP JUMPDEST DUP3 DUP1 ADD PUSH1 0x1 ADD DUP6 SSTORE DUP3 ISZERO PUSH2 0xE39 JUMPI SWAP2 DUP3 ADD JUMPDEST DUP3 DUP2 GT ISZERO PUSH2 0xE38 JUMPI DUP3 MLOAD DUP3 SSTORE SWAP2 PUSH1 0x20 ADD SWAP2 SWAP1 PUSH1 0x1 ADD SWAP1 PUSH2 0xE1D JUMP JUMPDEST JUMPDEST POP SWAP1 POP PUSH2 0xE46 SWAP2 SWAP1 PUSH2 0xE4A JUMP JUMPDEST POP SWAP1 JUMP JUMPDEST JUMPDEST DUP1 DUP3 GT ISZERO PUSH2 0xE63 JUMPI PUSH1 0x0 DUP2 PUSH1 0x0 SWAP1 SSTORE POP PUSH1 0x1 ADD PUSH2 0xE4B JUMP JUMPDEST POP SWAP1 JUMP JUMPDEST PUSH1 0x0 PUSH1 0x40 MLOAD SWAP1 POP SWAP1 JUMP JUMPDEST PUSH1 0x0 DUP1 REVERT JUMPDEST PUSH1 0x0 DUP1 REVERT JUMPDEST PUSH1 0x0 DUP1 REVERT JUMPDEST PUSH1 0x0 DUP1 REVERT JUMPDEST PUSH1 0x0 PUSH1 0x1F NOT PUSH1 0x1F DUP4 ADD AND SWAP1 POP SWAP2 SWAP1 POP JUMP JUMPDEST PUSH32 0x4E487B7100000000000000000000000000000000000000000000000000000000 PUSH1 0x0 MSTORE PUSH1 0x41 PUSH1 0x4 MSTORE PUSH1 0x24 PUSH1 0x0 REVERT JUMPDEST PUSH2 0xECE DUP3 PUSH2 0xE85 JUMP JUMPDEST DUP2 ADD DUP2 DUP2 LT PUSH8 0xFFFFFFFFFFFFFFFF DUP3 GT OR ISZERO PUSH2 0xEED JUMPI PUSH2 0xEEC PUSH2 0xE96 JUMP JUMPDEST JUMPDEST DUP1 PUSH1 0x40 MSTORE POP POP POP JUMP JUMPDEST PUSH1 0x0 PUSH2 0xF00 PUSH2 0xE67 JUMP JUMPDEST SWAP1 POP PUSH2 0xF0C DUP3 DUP3 PUSH2 0xEC5 JUMP JUMPDEST SWAP2 SWAP1 POP JUMP JUMPDEST PUSH1 0x0 PUSH8 0xFFFFFFFFFFFFFFFF DUP3 GT ISZERO PUSH2 0xF2C JUMPI PUSH2 0xF2B PUSH2 0xE96 JUMP JUMPDEST JUMPDEST PUSH2 0xF35 DUP3 PUSH2 0xE85 JUMP JUMPDEST SWAP1 POP PUSH1 0x20 DUP2 ADD SWAP1 POP SWAP2 SWAP1 POP JUMP JUMPDEST DUP3 DUP2 DUP4 CALLDATACOPY PUSH1 0x0 DUP4 DUP4 ADD MSTORE POP POP POP JUMP JUMPDEST PUSH1 0x0 PUSH2 0xF64 PUSH2 0xF5F DUP5 PUSH2 0xF11 JUMP JUMPDEST PUSH2 0xEF6 JUMP JUMPDEST SWAP1 POP DUP3 DUP2 MSTORE PUSH1 0x20 DUP2 ADD DUP5 DUP5 DUP5 ADD GT ISZERO PUSH2 0xF80 JUMPI PUSH2 0xF7F PUSH2 0xE80 JUMP JUMPDEST JUMPDEST PUSH2 0xF8B DUP5 DUP3 DUP6 PUSH2 0xF42 JUMP JUMPDEST POP SWAP4 SWAP3 POP POP POP JUMP JUMPDEST PUSH1 0x0 DUP3 PUSH1 0x1F DUP4 ADD SLT PUSH2 0xFA8 JUMPI PUSH2 0xFA7 PUSH2 0xE7B JUMP JUMPDEST JUMPDEST DUP2 CALLDATALOAD PUSH2 0xFB8 DUP5 DUP3 PUSH1 0x20 DUP7 ADD PUSH2 0xF51 JUMP JUMPDEST SWAP2 POP POP SWAP3 SWAP2 POP POP JUMP JUMPDEST PUSH1 0x0 PUSH1 0x20 DUP3 DUP5 SUB SLT ISZERO PUSH2 0xFD7 JUMPI PUSH2 0xFD6 PUSH2 0xE71 JUMP JUMPDEST JUMPDEST PUSH1 0x0 DUP3 ADD CALLDATALOAD PUSH8 0xFFFFFFFFFFFFFFFF DUP2 GT ISZERO PUSH2 0xFF5 JUMPI PUSH2 0xFF4 PUSH2 0xE76 JUMP JUMPDEST JUMPDEST PUSH2 0x1001 DUP5 DUP3 DUP6 ADD PUSH2 0xF93 JUMP JUMPDEST SWAP2 POP POP SWAP3 SWAP2 POP POP JUMP JUMPDEST PUSH1 0x0 DUP2 MLOAD SWAP1 POP SWAP2 SWAP1 POP JUMP JUMPDEST PUSH1 0x0 DUP3 DUP3 MSTORE PUSH1 0x20 DUP3 ADD SWAP1 POP SWAP3 SWAP2 POP POP JUMP JUMPDEST PUSH1 0x0 JUMPDEST DUP4 DUP2 LT ISZERO PUSH2 0x1044 JUMPI DUP1 DUP3 ADD MLOAD DUP2 DUP5 ADD MSTORE PUSH1 0x20 DUP2 ADD SWAP1 POP PUSH2 0x1029 JUMP JUMPDEST DUP4 DUP2 GT ISZERO PUSH2 0x1053 JUMPI PUSH1 0x0 DUP5 DUP5 ADD MSTORE JUMPDEST POP POP POP POP JUMP JUMPDEST PUSH1 0x0 PUSH2 0x1064 DUP3 PUSH2 0x100A JUMP JUMPDEST PUSH2 0x106E DUP2 DUP6 PUSH2 0x1015 JUMP JUMPDEST SWAP4 POP PUSH2 0x107E DUP2 DUP6 PUSH1 0x20 DUP7 ADD PUSH2 0x1026 JUMP JUMPDEST PUSH2 0x1087 DUP2 PUSH2 0xE85 JUMP JUMPDEST DUP5 ADD SWAP2 POP POP SWAP3 SWAP2 POP POP JUMP JUMPDEST PUSH32 0x4E487B7100000000000000000000000000000000000000000000000000000000 PUSH1 0x0 MSTORE PUSH1 0x21 PUSH1 0x4 MSTORE PUSH1 0x24 PUSH1 0x0 REVERT JUMPDEST PUSH1 0x3 DUP2 LT PUSH2 0x10D2 JUMPI PUSH2 0x10D1 PUSH2 0x1092 JUMP JUMPDEST JUMPDEST POP JUMP JUMPDEST PUSH1 0x0 DUP2 SWAP1 POP PUSH2 0x10E3 DUP3 PUSH2 0x10C1 JUMP JUMPDEST SWAP2 SWAP1 POP JUMP JUMPDEST PUSH1 0x0 PUSH2 0x10F3 DUP3 PUSH2 0x10D5 JUMP JUMPDEST SWAP1 POP SWAP2 SWAP1 POP JUMP JUMPDEST PUSH2 0x1103 DUP2 PUSH2 0x10E8 JUMP JUMPDEST DUP3 MSTORE POP POP JUMP JUMPDEST PUSH1 0x0 DUP2 ISZERO ISZERO SWAP1 POP SWAP2 SWAP1 POP JUMP JUMPDEST PUSH2 0x111E DUP2 PUSH2 0x1109 JUMP JUMPDEST DUP3 MSTORE POP POP JUMP JUMPDEST PUSH1 0x0 PUSH2 0x120 DUP4 ADD PUSH1 0x0 DUP4 ADD MLOAD DUP5 DUP3 SUB PUSH1 0x0 DUP7 ADD MSTORE PUSH2 0x1142 DUP3 DUP3 PUSH2 0x1059 JUMP JUMPDEST SWAP2 POP POP PUSH1 0x20 DUP4 ADD MLOAD DUP5 DUP3 SUB PUSH1 0x20 DUP7 ADD MSTORE PUSH2 0x115C DUP3 DUP3 PUSH2 0x1059 JUMP JUMPDEST SWAP2 POP POP PUSH1 0x40 DUP4 ADD MLOAD DUP5 DUP3 SUB PUSH1 0x40 DUP7 ADD MSTORE PUSH2 0x1176 DUP3 DUP3 PUSH2 0x1059 JUMP JUMPDEST SWAP2 POP POP PUSH1 0x60 DUP4 ADD MLOAD DUP5 DUP3 SUB PUSH1 0x60 DUP7 ADD MSTORE PUSH2 0x1190 DUP3 DUP3 PUSH2 0x1059 JUMP JUMPDEST SWAP2 POP POP PUSH1 0x80 DUP4 ADD MLOAD DUP5 DUP3 SUB PUSH1 0x80 DUP7 ADD MSTORE PUSH2 0x11AA DUP3 DUP3 PUSH2 0x1059 JUMP JUMPDEST SWAP2 POP POP PUSH1 0xA0 DUP4 ADD MLOAD PUSH2 0x11BF PUSH1 0xA0 DUP7 ADD DUP3 PUSH2 0x10FA JUMP JUMPDEST POP PUSH1 0xC0 DUP4 ADD MLOAD DUP5 DUP3 SUB PUSH1 0xC0 DUP7 ADD MSTORE PUSH2 0x11D7 DUP3 DUP3 PUSH2 0x1059 JUMP JUMPDEST SWAP2 POP POP PUSH1 0xE0 DUP4 ADD MLOAD DUP5 DUP3 SUB PUSH1 0xE0 DUP7 ADD MSTORE PUSH2 0x11F1 DUP3 DUP3 PUSH2 0x1059 JUMP JUMPDEST SWAP2 POP POP PUSH2 0x100 DUP4 ADD MLOAD PUSH2 0x1208 PUSH2 0x100 DUP7 ADD DUP3 PUSH2 0x1115 JUMP JUMPDEST POP DUP1 SWAP2 POP POP SWAP3 SWAP2 POP POP JUMP JUMPDEST PUSH1 0x0 PUSH1 0x20 DUP3 ADD SWAP1 POP DUP2 DUP2 SUB PUSH1 0x0 DUP4 ADD MSTORE PUSH2 0x122D DUP2 DUP5 PUSH2 0x1124 JUMP JUMPDEST SWAP1 POP SWAP3 SWAP2 POP POP JUMP JUMPDEST PUSH1 0x0 PUSH20 0xFFFFFFFFFFFFFFFFFFFFFFFFFFFFFFFFFFFFFFFF DUP3 AND SWAP1 POP SWAP2 SWAP1 POP JUMP JUMPDEST PUSH1 0x0 DUP2 SWAP1 POP SWAP2 SWAP1 POP JUMP JUMPDEST PUSH1 0x0 PUSH2 0x127A PUSH2 0x1275 PUSH2 0x1270 DUP5 PUSH2 0x1235 JUMP JUMPDEST PUSH2 0x1255 JUMP JUMPDEST PUSH2 0x1235 JUMP JUMPDEST SWAP1 POP SWAP2 SWAP1 POP JUMP JUMPDEST PUSH1 0x0 PUSH2 0x128C DUP3 PUSH2 0x125F JUMP JUMPDEST SWAP1 POP SWAP2 SWAP1 POP JUMP JUMPDEST PUSH1 0x0 PUSH2 0x129E DUP3 PUSH2 0x1281 JUMP JUMPDEST SWAP1 POP SWAP2 SWAP1 POP JUMP JUMPDEST PUSH2 0x12AE DUP2 PUSH2 0x1293 JUMP JUMPDEST DUP3 MSTORE POP POP JUMP JUMPDEST PUSH1 0x0 PUSH1 0x20 DUP3 ADD SWAP1 POP PUSH2 0x12C9 PUSH1 0x0 DUP4 ADD DUP5 PUSH2 0x12A5 JUMP JUMPDEST SWAP3 SWAP2 POP POP JUMP JUMPDEST PUSH1 0x3 DUP2 LT PUSH2 0x12DC JUMPI PUSH1 0x0 DUP1 REVERT JUMPDEST POP JUMP JUMPDEST PUSH1 0x0 DUP2 CALLDATALOAD SWAP1 POP PUSH2 0x12EE DUP2 PUSH2 0x12CF JUMP JUMPDEST SWAP3 SWAP2 POP POP JUMP JUMPDEST PUSH1 0x0 DUP1 PUSH1 0x0 DUP1 PUSH1 0x0 DUP1 PUSH1 0x0 DUP1 PUSH2 0x100 DUP10 DUP12 SUB SLT ISZERO PUSH2 0x1315 JUMPI PUSH2 0x1314 PUSH2 0xE71 JUMP JUMPDEST JUMPDEST PUSH1 0x0 DUP10 ADD CALLDATALOAD PUSH8 0xFFFFFFFFFFFFFFFF DUP2 GT ISZERO PUSH2 0x1333 JUMPI PUSH2 0x1332 PUSH2 0xE76 JUMP JUMPDEST JUMPDEST PUSH2 0x133F DUP12 DUP3 DUP13 ADD PUSH2 0xF93 JUMP JUMPDEST SWAP9 POP POP PUSH1 0x20 DUP10 ADD CALLDATALOAD PUSH8 0xFFFFFFFFFFFFFFFF DUP2 GT ISZERO PUSH2 0x1360 JUMPI PUSH2 0x135F PUSH2 0xE76 JUMP JUMPDEST JUMPDEST PUSH2 0x136C DUP12 DUP3 DUP13 ADD PUSH2 0xF93 JUMP JUMPDEST SWAP8 POP POP PUSH1 0x40 DUP10 ADD CALLDATALOAD PUSH8 0xFFFFFFFFFFFFFFFF DUP2 GT ISZERO PUSH2 0x138D JUMPI PUSH2 0x138C PUSH2 0xE76 JUMP JUMPDEST JUMPDEST PUSH2 0x1399 DUP12 DUP3 DUP13 ADD PUSH2 0xF93 JUMP JUMPDEST SWAP7 POP POP PUSH1 0x60 DUP10 ADD CALLDATALOAD PUSH8 0xFFFFFFFFFFFFFFFF DUP2 GT ISZERO PUSH2 0x13BA JUMPI PUSH2 0x13B9 PUSH2 0xE76 JUMP JUMPDEST JUMPDEST PUSH2 0x13C6 DUP12 DUP3 DUP13 ADD PUSH2 0xF93 JUMP JUMPDEST SWAP6 POP POP PUSH1 0x80 DUP10 ADD CALLDATALOAD PUSH8 0xFFFFFFFFFFFFFFFF DUP2 GT ISZERO PUSH2 0x13E7 JUMPI PUSH2 0x13E6 PUSH2 0xE76 JUMP JUMPDEST JUMPDEST PUSH2 0x13F3 DUP12 DUP3 DUP13 ADD PUSH2 0xF93 JUMP JUMPDEST SWAP5 POP POP PUSH1 0xA0 PUSH2 0x1404 DUP12 DUP3 DUP13 ADD PUSH2 0x12DF JUMP JUMPDEST SWAP4 POP POP PUSH1 0xC0 DUP10 ADD CALLDATALOAD PUSH8 0xFFFFFFFFFFFFFFFF DUP2 GT ISZERO PUSH2 0x1425 JUMPI PUSH2 0x1424 PUSH2 0xE76 JUMP JUMPDEST JUMPDEST PUSH2 0x1431 DUP12 DUP3 DUP13 ADD PUSH2 0xF93 JUMP JUMPDEST SWAP3 POP POP PUSH1 0xE0 DUP10 ADD CALLDATALOAD PUSH8 0xFFFFFFFFFFFFFFFF DUP2 GT ISZERO PUSH2 0x1452 JUMPI PUSH2 0x1451 PUSH2 0xE76 JUMP JUMPDEST JUMPDEST PUSH2 0x145E DUP12 DUP3 DUP13 ADD PUSH2 0xF93 JUMP JUMPDEST SWAP2 POP POP SWAP3 SWAP6 SWAP9 POP SWAP3 SWAP6 SWAP9 SWAP1 SWAP4 SWAP7 POP JUMP JUMPDEST PUSH1 0x0 PUSH2 0x1479 DUP3 PUSH2 0x1235 JUMP JUMPDEST SWAP1 POP SWAP2 SWAP1 POP JUMP JUMPDEST PUSH2 0x1489 DUP2 PUSH2 0x146E JUMP JUMPDEST DUP3 MSTORE POP POP JUMP JUMPDEST PUSH1 0x0 PUSH1 0x20 DUP3 ADD SWAP1 POP PUSH2 0x14A4 PUSH1 0x0 DUP4 ADD DUP5 PUSH2 0x1480 JUMP JUMPDEST SWAP3 SWAP2 POP POP JUMP JUMPDEST PUSH2 0x14B3 DUP2 PUSH2 0x1109 JUMP JUMPDEST DUP2 EQ PUSH2 0x14BE JUMPI PUSH1 0x0 DUP1 REVERT JUMPDEST POP JUMP JUMPDEST PUSH1 0x0 DUP2 MLOAD SWAP1 POP PUSH2 0x14D0 DUP2 PUSH2 0x14AA JUMP JUMPDEST SWAP3 SWAP2 POP POP JUMP JUMPDEST PUSH1 0x0 PUSH1 0x20 DUP3 DUP5 SUB SLT ISZERO PUSH2 0x14EC JUMPI PUSH2 0x14EB PUSH2 0xE71 JUMP JUMPDEST JUMPDEST PUSH1 0x0 PUSH2 0x14FA DUP5 DUP3 DUP6 ADD PUSH2 0x14C1 JUMP JUMPDEST SWAP2 POP POP SWAP3 SWAP2 POP POP JUMP JUMPDEST PUSH1 0x0 DUP3 DUP3 MSTORE PUSH1 0x20 DUP3 ADD SWAP1 POP SWAP3 SWAP2 POP POP JUMP JUMPDEST PUSH32 0x566F7573206E276176657A20706173206C652064726F6974206427617070726F PUSH1 0x0 DUP3 ADD MSTORE PUSH32 0x766572206365206469706C6F6D652E0000000000000000000000000000000000 PUSH1 0x20 DUP3 ADD MSTORE POP JUMP JUMPDEST PUSH1 0x0 PUSH2 0x1570 PUSH1 0x2F DUP4 PUSH2 0x1503 JUMP JUMPDEST SWAP2 POP PUSH2 0x157B DUP3 PUSH2 0x1514 JUMP JUMPDEST PUSH1 0x40 DUP3 ADD SWAP1 POP SWAP2 SWAP1 POP JUMP JUMPDEST PUSH1 0x0 PUSH1 0x20 DUP3 ADD SWAP1 POP DUP2 DUP2 SUB PUSH1 0x0 DUP4 ADD MSTORE PUSH2 0x159F DUP2 PUSH2 0x1563 JUMP JUMPDEST SWAP1 POP SWAP2 SWAP1 POP JUMP JUMPDEST PUSH1 0x0 DUP2 SWAP1 POP SWAP3 SWAP2 POP POP JUMP JUMPDEST PUSH1 0x0 PUSH2 0x15BC DUP3 PUSH2 0x100A JUMP JUMPDEST PUSH2 0x15C6 DUP2 DUP6 PUSH2 0x15A6 JUMP JUMPDEST SWAP4 POP PUSH2 0x15D6 DUP2 DUP6 PUSH1 0x20 DUP7 ADD PUSH2 0x1026 JUMP JUMPDEST DUP1 DUP5 ADD SWAP2 POP POP SWAP3 SWAP2 POP POP JUMP JUMPDEST PUSH1 0x0 PUSH2 0x15EE DUP3 DUP5 PUSH2 0x15B1 JUMP JUMPDEST SWAP2 POP DUP2 SWAP1 POP SWAP3 SWAP2 POP POP JUMP JUMPDEST PUSH32 0x4E487B7100000000000000000000000000000000000000000000000000000000 PUSH1 0x0 MSTORE PUSH1 0x22 PUSH1 0x4 MSTORE PUSH1 0x24 PUSH1 0x0 REVERT JUMPDEST PUSH1 0x0 PUSH1 0x2 DUP3 DIV SWAP1 POP PUSH1 0x1 DUP3 AND DUP1 PUSH2 0x1640 JUMPI PUSH1 0x7F DUP3 AND SWAP2 POP JUMPDEST PUSH1 0x20 DUP3 LT DUP2 EQ ISZERO PUSH2 0x1654 JUMPI PUSH2 0x1653 PUSH2 0x15F9 JUMP JUMPDEST JUMPDEST POP SWAP2 SWAP1 POP JUMP JUMPDEST PUSH32 0x4C65206469706C6F6D65206E27657869737465207061732E0000000000000000 PUSH1 0x0 DUP3 ADD MSTORE POP JUMP JUMPDEST PUSH1 0x0 PUSH2 0x1690 PUSH1 0x18 DUP4 PUSH2 0x1503 JUMP JUMPDEST SWAP2 POP PUSH2 0x169B DUP3 PUSH2 0x165A JUMP JUMPDEST PUSH1 0x20 DUP3 ADD SWAP1 POP SWAP2 SWAP1 POP JUMP JUMPDEST PUSH1 0x0 PUSH1 0x20 DUP3 ADD SWAP1 POP DUP2 DUP2 SUB PUSH1 0x0 DUP4 ADD MSTORE PUSH2 0x16BF DUP2 PUSH2 0x1683 JUMP JUMPDEST SWAP1 POP SWAP2 SWAP1 POP JUMP JUMPDEST PUSH1 0x0 DUP2 MLOAD SWAP1 POP PUSH2 0x16D5 DUP2 PUSH2 0x12CF JUMP JUMPDEST SWAP3 SWAP2 POP POP JUMP JUMPDEST PUSH1 0x0 PUSH1 0x20 DUP3 DUP5 SUB SLT ISZERO PUSH2 0x16F1 JUMPI PUSH2 0x16F0 PUSH2 0xE71 JUMP JUMPDEST JUMPDEST PUSH1 0x0 PUSH2 0x16FF DUP5 DUP3 DUP6 ADD PUSH2 0x16C6 JUMP JUMPDEST SWAP2 POP POP SWAP3 SWAP2 POP POP JUMP JUMPDEST PUSH32 0x4C652074797065206465206C27617070726F766572206E6520636F7272657370 PUSH1 0x0 DUP3 ADD MSTORE PUSH32 0x6F6E64207061732061752074797065206475206469706C6F6D652E0000000000 PUSH1 0x20 DUP3 ADD MSTORE POP JUMP JUMPDEST PUSH1 0x0 PUSH2 0x1764 PUSH1 0x3B DUP4 PUSH2 0x1503 JUMP JUMPDEST SWAP2 POP PUSH2 0x176F DUP3 PUSH2 0x1708 JUMP JUMPDEST PUSH1 0x40 DUP3 ADD SWAP1 POP SWAP2 SWAP1 POP JUMP JUMPDEST PUSH1 0x0 PUSH1 0x20 DUP3 ADD SWAP1 POP DUP2 DUP2 SUB PUSH1 0x0 DUP4 ADD MSTORE PUSH2 0x1793 DUP2 PUSH2 0x1757 JUMP JUMPDEST SWAP1 POP SWAP2 SWAP1 POP JUMP JUMPDEST PUSH32 0x4C65206469706C6F6D65206573742064656A612076616C696465000000000000 PUSH1 0x0 DUP3 ADD MSTORE POP JUMP JUMPDEST PUSH1 0x0 PUSH2 0x17D0 PUSH1 0x1A DUP4 PUSH2 0x1503 JUMP JUMPDEST SWAP2 POP PUSH2 0x17DB DUP3 PUSH2 0x179A JUMP JUMPDEST PUSH1 0x20 DUP3 ADD SWAP1 POP SWAP2 SWAP1 POP JUMP JUMPDEST PUSH1 0x0 PUSH1 0x20 DUP3 ADD SWAP1 POP DUP2 DUP2 SUB PUSH1 0x0 DUP4 ADD MSTORE PUSH2 0x17FF DUP2 PUSH2 0x17C3 JUMP JUMPDEST SWAP1 POP SWAP2 SWAP1 POP JUMP JUMPDEST PUSH32 0x4C65206469706C6F6D65206E27657374207061732070617320656E636F726520 PUSH1 0x0 DUP3 ADD MSTORE PUSH32 0x76616C6964650000000000000000000000000000000000000000000000000000 PUSH1 0x20 DUP3 ADD MSTORE POP JUMP JUMPDEST PUSH1 0x0 PUSH2 0x1862 PUSH1 0x26 DUP4 PUSH2 0x1503 JUMP JUMPDEST SWAP2 POP PUSH2 0x186D DUP3 PUSH2 0x1806 JUMP JUMPDEST PUSH1 0x40 DUP3 ADD SWAP1 POP SWAP2 SWAP1 POP JUMP JUMPDEST PUSH1 0x0 PUSH1 0x20 DUP3 ADD SWAP1 POP DUP2 DUP2 SUB PUSH1 0x0 DUP4 ADD MSTORE PUSH2 0x1891 DUP2 PUSH2 0x1855 JUMP JUMPDEST SWAP1 POP SWAP2 SWAP1 POP JUMP JUMPDEST PUSH32 0x566F7573206E276574657320706173206175746F726973657220612063726565 PUSH1 0x0 DUP3 ADD MSTORE PUSH32 0x7220646573206469706C6F6D6573000000000000000000000000000000000000 PUSH1 0x20 DUP3 ADD MSTORE POP JUMP JUMPDEST PUSH1 0x0 PUSH2 0x18F4 PUSH1 0x2E DUP4 PUSH2 0x1503 JUMP JUMPDEST SWAP2 POP PUSH2 0x18FF DUP3 PUSH2 0x1898 JUMP JUMPDEST PUSH1 0x40 DUP3 ADD SWAP1 POP SWAP2 SWAP1 POP JUMP JUMPDEST PUSH1 0x0 PUSH1 0x20 DUP3 ADD SWAP1 POP DUP2 DUP2 SUB PUSH1 0x0 DUP4 ADD MSTORE PUSH2 0x1923 DUP2 PUSH2 0x18E7 JUMP JUMPDEST SWAP1 POP SWAP2 SWAP1 POP JUMP JUMPDEST PUSH32 0x566F7573206E276176657A20706173206C652064726F6974206427656E726567 PUSH1 0x0 DUP3 ADD MSTORE PUSH32 0x697374726572206365206469706C6F6D653A2070726F626C656D652064652074 PUSH1 0x20 DUP3 ADD MSTORE PUSH32 0x797065206465206469706C6F6D65000000000000000000000000000000000000 PUSH1 0x40 DUP3 ADD MSTORE POP JUMP JUMPDEST PUSH1 0x0 PUSH2 0x19AC PUSH1 0x4E DUP4 PUSH2 0x1503 JUMP JUMPDEST SWAP2 POP PUSH2 0x19B7 DUP3 PUSH2 0x192A JUMP JUMPDEST PUSH1 0x60 DUP3 ADD SWAP1 POP SWAP2 SWAP1 POP JUMP JUMPDEST PUSH1 0x0 PUSH1 0x20 DUP3 ADD SWAP1 POP DUP2 DUP2 SUB PUSH1 0x0 DUP4 ADD MSTORE PUSH2 0x19DB DUP2 PUSH2 0x199F JUMP JUMPDEST SWAP1 POP SWAP2 SWAP1 POP JUMP INVALID LOG2 PUSH5 0x6970667358 0x22 SLT KECCAK256 SWAP14 SAR 0xF8 PUSH30 0x517E0F6F8D81CC04938648A71FE04D8DFFDB3B6D51935C428B1C33A06473 PUSH16 0x6C634300080900330000000000000000 "},"gasEstimates":{"creation":{"codeDepositCost":"1336000","executionCost":"infinite","totalCost":"infinite"},"external":{"approveDiploma(string)":"infinite","createDiploma(string,string,string,string,string,uint8,string,string)":"infinite","gestionActeur()":"infinite","getDiplome(string)":"infinite"}},"methodIdentifiers":{"approveDiploma(string)":"6cb31ac0","createDiploma(string,string,string,string,string,uint8,string,string)":"dcdebe85","gestionActeur()":"73243e61","getDiplome(string)":"6f593db5"}},"storageLayout":{"storage":[{"astId":328,"contract":"GestionDiplome.sol:GestionDiplome","label":"diplomas","offset":0,"slot":"0","type":"t_mapping(t_string_memory_ptr,t_struct(Diploma)323_storage)"},{"astId":331,"contract":"GestionDiplome.sol:GestionDiplome","label":"gestionActeur","offset":0,"slot":"1","type":"t_contract(GestionActeur)300"}],"types":{"t_bool":{"encoding":"inplace","label":"bool","numberOfBytes":"1"},"t_contract(GestionActeur)300":{"encoding":"inplace","label":"contract GestionActeur","numberOfBytes":"20"},"t_enum(DiplomaType)5":{"encoding":"inplace","label":"enum GestionActeur.DiplomaType","numberOfBytes":"1"},"t_mapping(t_string_memory_ptr,t_struct(Diploma)323_storage)":{"encoding":"mapping","key":"t_string_memory_ptr","label":"mapping(string => struct GestionDiplome.Diploma)","numberOfBytes":"32","value":"t_struct(Diploma)323_storage"},"t_string_memory_ptr":{"encoding":"bytes","label":"string","numberOfBytes":"32"},"t_string_storage":{"encoding":"bytes","label":"string","numberOfBytes":"32"},"t_struct(Diploma)323_storage":{"encoding":"inplace","label":"struct GestionDiplome.Diploma","members":[{"astId":305,"contract":"GestionDiplome.sol:GestionDiplome","label":"diplomaHash","offset":0,"slot":"0","type":"t_string_storage"},{"astId":307,"contract":"GestionDiplome.sol:GestionDiplome","label":"etablissement","offset":0,"slot":"1","type":"t_string_storage"},{"astId":309,"contract":"GestionDiplome.sol:GestionDiplome","label":"studentName","offset":0,"slot":"2","type":"t_string_storage"},{"astId":311,"contract":"GestionDiplome.sol:GestionDiplome","label":"birthDate","offset":0,"slot":"3","type":"t_string_storage"},{"astId":313,"contract":"GestionDiplome.sol:GestionDiplome","label":"diplomaTitle","offset":0,"slot":"4","type":"t_string_storage"},{"astId":316,"contract":"GestionDiplome.sol:GestionDiplome","label":"diplomaType","offset":0,"slot":"5","type":"t_enum(DiplomaType)5"},{"astId":318,"contract":"GestionDiplome.sol:GestionDiplome","label":"dateOfIssue","offset":0,"slot":"6","type":"t_string_storage"},{"astId":320,"contract":"GestionDiplome.sol:GestionDiplome","label":"speciality","offset":0,"slot":"7","type":"t_string_storage"},{"astId":322,"contract":"GestionDiplome.sol:GestionDiplome","label":"complete","offset":0,"slot":"8","type":"t_bool"}],"numberOfBytes":"288"}}},"userdoc":{"kind":"user","methods":{},"version":1}}