{"abi":[{"inputs":[],"stateMutability":"nonpayable","type":"constructor"},{"anonymous":false,"inputs":[{"indexed":true,"internalType":"address","name":"etablissement","type":"address"},{"indexed":false,"internalType":"string","name":"name","type":"string"},{"indexed":false,"internalType":"enum GestionActeur.DiplomaType","name":"etabType","type":"uint8"}],"name":"EtablissementAjoute","type":"event"},{"anonymous":false,"inputs":[{"indexed":true,"internalType":"address","name":"etablissement","type":"address"}],"name":"EtablissementRevoque","type":"event"},{"inputs":[{"internalType":"string","name":"_nameApp","type":"string"},{"internalType":"address","name":"_approverAddress","type":"address"},{"internalType":"enum GestionActeur.DiplomaType","name":"_typeApp","type":"uint8"}],"name":"addApprover","outputs":[],"stateMutability":"nonpayable","type":"function"},{"inputs":[{"internalType":"string","name":"_name","type":"string"},{"internalType":"address","name":"_etablissementAddress","type":"address"},{"internalType":"enum GestionActeur.DiplomaType","name":"_etabType","type":"uint8"}],"name":"addEtablissementValid","outputs":[],"stateMutability":"nonpayable","type":"function"},{"inputs":[{"internalType":"address","name":"","type":"address"}],"name":"approvers","outputs":[{"internalType":"string","name":"nameApp","type":"string"},{"internalType":"address","name":"approverAddress","type":"address"},{"internalType":"enum GestionActeur.DiplomaType","name":"typeApp","type":"uint8"},{"internalType":"bool","name":"isApprover","type":"bool"}],"stateMutability":"view","type":"function"},{"inputs":[{"internalType":"address","name":"","type":"address"}],"name":"etablissementsValides","outputs":[{"internalType":"string","name":"name","type":"string"},{"internalType":"address","name":"ethAddress","type":"address"},{"internalType":"enum GestionActeur.DiplomaType","name":"etabType","type":"uint8"},{"internalType":"bool","name":"isValid","type":"bool"}],"stateMutability":"view","type":"function"},{"inputs":[{"internalType":"address","name":"_approverAddress","type":"address"}],"name":"getApproverType","outputs":[{"internalType":"enum GestionActeur.DiplomaType","name":"","type":"uint8"}],"stateMutability":"view","type":"function"},{"inputs":[{"internalType":"address","name":"_etablissement","type":"address"}],"name":"getEtablissementType","outputs":[{"internalType":"enum GestionActeur.DiplomaType","name":"","type":"uint8"}],"stateMutability":"view","type":"function"},{"inputs":[{"internalType":"address","name":"_approver","type":"address"}],"name":"isApproverValid","outputs":[{"internalType":"bool","name":"","type":"bool"}],"stateMutability":"view","type":"function"},{"inputs":[{"internalType":"address","name":"_etablissement","type":"address"}],"name":"isEtablissementValid","outputs":[{"internalType":"bool","name":"","type":"bool"}],"stateMutability":"view","type":"function"},{"inputs":[{"internalType":"address","name":"_approverAddress","type":"address"}],"name":"removeApprover","outputs":[],"stateMutability":"nonpayable","type":"function"},{"inputs":[{"internalType":"address","name":"etablissement","type":"address"}],"name":"revokeEtablissement","outputs":[],"stateMutability":"nonpayable","type":"function"},{"inputs":[],"name":"validator","outputs":[{"internalType":"address","name":"","type":"address"}],"stateMutability":"view","type":"function"}],"devdoc":{"kind":"dev","methods":{},"version":1},"evm":{"assembly":"    /* \"GestionActeur.sol\":60:4528  contract GestionActeur {... */\n  mstore(0x40, 0x80)\n    /* \"GestionActeur.sol\":1251:1306  constructor() {... */\n  callvalue\n  dup1\n  iszero\n  tag_1\n  jumpi\n  0x00\n  dup1\n  revert\ntag_1:\n  pop\n    /* \"GestionActeur.sol\":1288:1298  msg.sender */\n  caller\n    /* \"GestionActeur.sol\":1276:1285  validator */\n  0x01\n  0x00\n    /* \"GestionActeur.sol\":1276:1298  validator = msg.sender */\n  0x0100\n  exp\n  dup2\n  sload\n  dup2\n  0xffffffffffffffffffffffffffffffffffffffff\n  mul\n  not\n  and\n  swap1\n  dup4\n  0xffffffffffffffffffffffffffffffffffffffff\n  and\n  mul\n  or\n  swap1\n  sstore\n  pop\n    /* \"GestionActeur.sol\":60:4528  contract GestionActeur {... */\n  dataSize(sub_0)\n  dup1\n  dataOffset(sub_0)\n  0x00\n  codecopy\n  0x00\n  return\nstop\n\nsub_0: assembly {\n        /* \"GestionActeur.sol\":60:4528  contract GestionActeur {... */\n      mstore(0x40, 0x80)\n      callvalue\n      dup1\n      iszero\n      tag_1\n      jumpi\n      0x00\n      dup1\n      revert\n    tag_1:\n      pop\n      jumpi(tag_2, lt(calldatasize, 0x04))\n      shr(0xe0, calldataload(0x00))\n      dup1\n      0x3b305817\n      gt\n      tag_14\n      jumpi\n      dup1\n      0x3b305817\n      eq\n      tag_8\n      jumpi\n      dup1\n      0x6cf4c88f\n      eq\n      tag_9\n      jumpi\n      dup1\n      0x6de88b3c\n      eq\n      tag_10\n      jumpi\n      dup1\n      0x783ef0d0\n      eq\n      tag_11\n      jumpi\n      dup1\n      0xd9fa2a3e\n      eq\n      tag_12\n      jumpi\n      dup1\n      0xe3dad511\n      eq\n      tag_13\n      jumpi\n      jump(tag_2)\n    tag_14:\n      dup1\n      0x4c5e4b\n      eq\n      tag_3\n      jumpi\n      dup1\n      0x024cf6c7\n      eq\n      tag_4\n      jumpi\n      dup1\n      0x0a144391\n      eq\n      tag_5\n      jumpi\n      dup1\n      0x2b4d3466\n      eq\n      tag_6\n      jumpi\n      dup1\n      0x3a5381b5\n      eq\n      tag_7\n      jumpi\n    tag_2:\n      0x00\n      dup1\n      revert\n        /* \"GestionActeur.sol\":2671:2791  function isApproverValid(address _approver) public view returns (bool) {... */\n    tag_3:\n      tag_15\n      0x04\n      dup1\n      calldatasize\n      sub\n      dup2\n      add\n      swap1\n      tag_16\n      swap2\n      swap1\n      tag_17\n      jump\t// in\n    tag_16:\n      tag_18\n      jump\t// in\n    tag_15:\n      mload(0x40)\n      tag_19\n      swap2\n      swap1\n      tag_20\n      jump\t// in\n    tag_19:\n      mload(0x40)\n      dup1\n      swap2\n      sub\n      swap1\n      return\n        /* \"GestionActeur.sol\":3078:3690  function addEtablissementValid(string memory _name, address _etablissementAddress, DiplomaType _etabType) public onlyApprover {... */\n    tag_4:\n      tag_21\n      0x04\n      dup1\n      calldatasize\n      sub\n      dup2\n      add\n      swap1\n      tag_22\n      swap2\n      swap1\n      tag_23\n      jump\t// in\n    tag_22:\n      tag_24\n      jump\t// in\n    tag_21:\n      stop\n        /* \"GestionActeur.sol\":929:975  mapping (address => Approver) public approvers */\n    tag_5:\n      tag_25\n      0x04\n      dup1\n      calldatasize\n      sub\n      dup2\n      add\n      swap1\n      tag_26\n      swap2\n      swap1\n      tag_17\n      jump\t// in\n    tag_26:\n      tag_27\n      jump\t// in\n    tag_25:\n      mload(0x40)\n      tag_28\n      swap5\n      swap4\n      swap3\n      swap2\n      swap1\n      tag_29\n      jump\t// in\n    tag_28:\n      mload(0x40)\n      dup1\n      swap2\n      sub\n      swap1\n      return\n        /* \"GestionActeur.sol\":4371:4523  function getEtablissementType(address _etablissement) public view returns (DiplomaType) {... */\n    tag_6:\n      tag_30\n      0x04\n      dup1\n      calldatasize\n      sub\n      dup2\n      add\n      swap1\n      tag_31\n      swap2\n      swap1\n      tag_17\n      jump\t// in\n    tag_31:\n      tag_32\n      jump\t// in\n    tag_30:\n      mload(0x40)\n      tag_33\n      swap2\n      swap1\n      tag_34\n      jump\t// in\n    tag_33:\n      mload(0x40)\n      dup1\n      swap2\n      sub\n      swap1\n      return\n        /* \"GestionActeur.sol\":682:706  address public validator */\n    tag_7:\n      tag_35\n      tag_36\n      jump\t// in\n    tag_35:\n      mload(0x40)\n      tag_37\n      swap2\n      swap1\n      tag_38\n      jump\t// in\n    tag_37:\n      mload(0x40)\n      dup1\n      swap2\n      sub\n      swap1\n      return\n        /* \"GestionActeur.sol\":2836:2982  function getApproverType(address _approverAddress) public view returns (DiplomaType) {... */\n    tag_8:\n      tag_39\n      0x04\n      dup1\n      calldatasize\n      sub\n      dup2\n      add\n      swap1\n      tag_40\n      swap2\n      swap1\n      tag_17\n      jump\t// in\n    tag_40:\n      tag_41\n      jump\t// in\n    tag_39:\n      mload(0x40)\n      tag_42\n      swap2\n      swap1\n      tag_34\n      jump\t// in\n    tag_42:\n      mload(0x40)\n      dup1\n      swap2\n      sub\n      swap1\n      return\n        /* \"GestionActeur.sol\":2445:2663  function removeApprover(address _approverAddress) public onlyValidator {... */\n    tag_9:\n      tag_43\n      0x04\n      dup1\n      calldatasize\n      sub\n      dup2\n      add\n      swap1\n      tag_44\n      swap2\n      swap1\n      tag_17\n      jump\t// in\n    tag_44:\n      tag_45\n      jump\t// in\n    tag_43:\n      stop\n        /* \"GestionActeur.sol\":4223:4367  function isEtablissementValid(address _etablissement) public view returns (bool) {... */\n    tag_10:\n      tag_46\n      0x04\n      dup1\n      calldatasize\n      sub\n      dup2\n      add\n      swap1\n      tag_47\n      swap2\n      swap1\n      tag_17\n      jump\t// in\n    tag_47:\n      tag_48\n      jump\t// in\n    tag_46:\n      mload(0x40)\n      tag_49\n      swap2\n      swap1\n      tag_20\n      jump\t// in\n    tag_49:\n      mload(0x40)\n      dup1\n      swap2\n      sub\n      swap1\n      return\n        /* \"GestionActeur.sol\":569:631  mapping(address => Etablissement) public etablissementsValides */\n    tag_11:\n      tag_50\n      0x04\n      dup1\n      calldatasize\n      sub\n      dup2\n      add\n      swap1\n      tag_51\n      swap2\n      swap1\n      tag_17\n      jump\t// in\n    tag_51:\n      tag_52\n      jump\t// in\n    tag_50:\n      mload(0x40)\n      tag_53\n      swap5\n      swap4\n      swap3\n      swap2\n      swap1\n      tag_29\n      jump\t// in\n    tag_53:\n      mload(0x40)\n      dup1\n      swap2\n      sub\n      swap1\n      return\n        /* \"GestionActeur.sol\":1965:2401  function addApprover(        ... */\n    tag_12:\n      tag_54\n      0x04\n      dup1\n      calldatasize\n      sub\n      dup2\n      add\n      swap1\n      tag_55\n      swap2\n      swap1\n      tag_23\n      jump\t// in\n    tag_55:\n      tag_56\n      jump\t// in\n    tag_54:\n      stop\n        /* \"GestionActeur.sol\":3742:4219  function revokeEtablissement(address etablissement) public onlyApprover {... */\n    tag_13:\n      tag_57\n      0x04\n      dup1\n      calldatasize\n      sub\n      dup2\n      add\n      swap1\n      tag_58\n      swap2\n      swap1\n      tag_17\n      jump\t// in\n    tag_58:\n      tag_59\n      jump\t// in\n    tag_57:\n      stop\n        /* \"GestionActeur.sol\":2671:2791  function isApproverValid(address _approver) public view returns (bool) {... */\n    tag_18:\n        /* \"GestionActeur.sol\":2736:2740  bool */\n      0x00\n        /* \"GestionActeur.sol\":2756:2765  approvers */\n      0x02\n        /* \"GestionActeur.sol\":2756:2776  approvers[_approver] */\n      0x00\n        /* \"GestionActeur.sol\":2766:2775  _approver */\n      dup4\n        /* \"GestionActeur.sol\":2756:2776  approvers[_approver] */\n      0xffffffffffffffffffffffffffffffffffffffff\n      and\n      0xffffffffffffffffffffffffffffffffffffffff\n      and\n      dup2\n      mstore\n      0x20\n      add\n      swap1\n      dup2\n      mstore\n      0x20\n      add\n      0x00\n      keccak256\n        /* \"GestionActeur.sol\":2756:2787  approvers[_approver].isApprover */\n      0x01\n      add\n      0x15\n      swap1\n      sload\n      swap1\n      0x0100\n      exp\n      swap1\n      div\n      0xff\n      and\n        /* \"GestionActeur.sol\":2749:2787  return approvers[_approver].isApprover */\n      swap1\n      pop\n        /* \"GestionActeur.sol\":2671:2791  function isApproverValid(address _approver) public view returns (bool) {... */\n      swap2\n      swap1\n      pop\n      jump\t// out\n        /* \"GestionActeur.sol\":3078:3690  function addEtablissementValid(string memory _name, address _etablissementAddress, DiplomaType _etabType) public onlyApprover {... */\n    tag_24:\n        /* \"GestionActeur.sol\":1690:1699  approvers */\n      0x02\n        /* \"GestionActeur.sol\":1690:1711  approvers[msg.sender] */\n      0x00\n        /* \"GestionActeur.sol\":1700:1710  msg.sender */\n      caller\n        /* \"GestionActeur.sol\":1690:1711  approvers[msg.sender] */\n      0xffffffffffffffffffffffffffffffffffffffff\n      and\n      0xffffffffffffffffffffffffffffffffffffffff\n      and\n      dup2\n      mstore\n      0x20\n      add\n      swap1\n      dup2\n      mstore\n      0x20\n      add\n      0x00\n      keccak256\n        /* \"GestionActeur.sol\":1690:1722  approvers[msg.sender].isApprover */\n      0x01\n      add\n      0x15\n      swap1\n      sload\n      swap1\n      0x0100\n      exp\n      swap1\n      div\n      0xff\n      and\n        /* \"GestionActeur.sol\":1682:1775  require(approvers[msg.sender].isApprover, \"Seul l'approver peut enregistrer une universite.\") */\n      tag_62\n      jumpi\n      mload(0x40)\n      0x08c379a000000000000000000000000000000000000000000000000000000000\n      dup2\n      mstore\n      0x04\n      add\n      tag_63\n      swap1\n      tag_64\n      jump\t// in\n    tag_63:\n      mload(0x40)\n      dup1\n      swap2\n      sub\n      swap1\n      revert\n    tag_62:\n        /* \"GestionActeur.sol\":3256:3257  0 */\n      0x00\n        /* \"GestionActeur.sol\":3223:3258  _etablissementAddress != address(0) */\n      0xffffffffffffffffffffffffffffffffffffffff\n      and\n        /* \"GestionActeur.sol\":3223:3244  _etablissementAddress */\n      dup3\n        /* \"GestionActeur.sol\":3223:3258  _etablissementAddress != address(0) */\n      0xffffffffffffffffffffffffffffffffffffffff\n      and\n      eq\n      iszero\n        /* \"GestionActeur.sol\":3215:3280  require(_etablissementAddress != address(0), \"Adresse invalide.\") */\n      tag_66\n      jumpi\n      mload(0x40)\n      0x08c379a000000000000000000000000000000000000000000000000000000000\n      dup2\n      mstore\n      0x04\n      add\n      tag_67\n      swap1\n      tag_68\n      jump\t// in\n    tag_67:\n      mload(0x40)\n      dup1\n      swap2\n      sub\n      swap1\n      revert\n    tag_66:\n        /* \"GestionActeur.sol\":3300:3321  etablissementsValides */\n      0x00\n        /* \"GestionActeur.sol\":3300:3344  etablissementsValides[_etablissementAddress] */\n      dup1\n        /* \"GestionActeur.sol\":3322:3343  _etablissementAddress */\n      dup4\n        /* \"GestionActeur.sol\":3300:3344  etablissementsValides[_etablissementAddress] */\n      0xffffffffffffffffffffffffffffffffffffffff\n      and\n      0xffffffffffffffffffffffffffffffffffffffff\n      and\n      dup2\n      mstore\n      0x20\n      add\n      swap1\n      dup2\n      mstore\n      0x20\n      add\n      0x00\n      keccak256\n        /* \"GestionActeur.sol\":3300:3352  etablissementsValides[_etablissementAddress].isValid */\n      0x01\n      add\n      0x15\n      swap1\n      sload\n      swap1\n      0x0100\n      exp\n      swap1\n      div\n      0xff\n      and\n        /* \"GestionActeur.sol\":3299:3352  !etablissementsValides[_etablissementAddress].isValid */\n      iszero\n        /* \"GestionActeur.sol\":3291:3389  require(!etablissementsValides[_etablissementAddress].isValid, \"L'etablissement est deja valide.\") */\n      tag_69\n      jumpi\n      mload(0x40)\n      0x08c379a000000000000000000000000000000000000000000000000000000000\n      dup2\n      mstore\n      0x04\n      add\n      tag_70\n      swap1\n      tag_71\n      jump\t// in\n    tag_70:\n      mload(0x40)\n      dup1\n      swap2\n      sub\n      swap1\n      revert\n    tag_69:\n        /* \"GestionActeur.sol\":3457:3517  Etablissement(_name, _etablissementAddress, _etabType, true) */\n      mload(0x40)\n      dup1\n      0x80\n      add\n      0x40\n      mstore\n      dup1\n        /* \"GestionActeur.sol\":3471:3476  _name */\n      dup5\n        /* \"GestionActeur.sol\":3457:3517  Etablissement(_name, _etablissementAddress, _etabType, true) */\n      dup2\n      mstore\n      0x20\n      add\n        /* \"GestionActeur.sol\":3478:3499  _etablissementAddress */\n      dup4\n        /* \"GestionActeur.sol\":3457:3517  Etablissement(_name, _etablissementAddress, _etabType, true) */\n      0xffffffffffffffffffffffffffffffffffffffff\n      and\n      dup2\n      mstore\n      0x20\n      add\n        /* \"GestionActeur.sol\":3501:3510  _etabType */\n      dup3\n        /* \"GestionActeur.sol\":3457:3517  Etablissement(_name, _etablissementAddress, _etabType, true) */\n      0x02\n      dup2\n      gt\n      iszero\n      tag_72\n      jumpi\n      tag_73\n      tag_74\n      jump\t// in\n    tag_73:\n    tag_72:\n      dup2\n      mstore\n      0x20\n      add\n        /* \"GestionActeur.sol\":3512:3516  true */\n      0x01\n        /* \"GestionActeur.sol\":3457:3517  Etablissement(_name, _etablissementAddress, _etabType, true) */\n      iszero\n      iszero\n      dup2\n      mstore\n      pop\n        /* \"GestionActeur.sol\":3410:3431  etablissementsValides */\n      0x00\n        /* \"GestionActeur.sol\":3410:3454  etablissementsValides[_etablissementAddress] */\n      dup1\n        /* \"GestionActeur.sol\":3432:3453  _etablissementAddress */\n      dup5\n        /* \"GestionActeur.sol\":3410:3454  etablissementsValides[_etablissementAddress] */\n      0xffffffffffffffffffffffffffffffffffffffff\n      and\n      0xffffffffffffffffffffffffffffffffffffffff\n      and\n      dup2\n      mstore\n      0x20\n      add\n      swap1\n      dup2\n      mstore\n      0x20\n      add\n      0x00\n      keccak256\n        /* \"GestionActeur.sol\":3410:3517  etablissementsValides[_etablissementAddress] = Etablissement(_name, _etablissementAddress, _etabType, true) */\n      0x00\n      dup3\n      add\n      mload\n      dup2\n      0x00\n      add\n      swap1\n      dup1\n      mload\n      swap1\n      0x20\n      add\n      swap1\n      tag_75\n      swap3\n      swap2\n      swap1\n      tag_76\n      jump\t// in\n    tag_75:\n      pop\n      0x20\n      dup3\n      add\n      mload\n      dup2\n      0x01\n      add\n      exp(0x0100, 0x00)\n      dup2\n      sload\n      dup2\n      0xffffffffffffffffffffffffffffffffffffffff\n      mul\n      not\n      and\n      swap1\n      dup4\n      0xffffffffffffffffffffffffffffffffffffffff\n      and\n      mul\n      or\n      swap1\n      sstore\n      pop\n      0x40\n      dup3\n      add\n      mload\n      dup2\n      0x01\n      add\n      exp(0x0100, 0x14)\n      dup2\n      sload\n      dup2\n      0xff\n      mul\n      not\n      and\n      swap1\n      dup4\n      0x02\n      dup2\n      gt\n      iszero\n      tag_77\n      jumpi\n      tag_78\n      tag_74\n      jump\t// in\n    tag_78:\n    tag_77:\n      mul\n      or\n      swap1\n      sstore\n      pop\n      0x60\n      dup3\n      add\n      mload\n      dup2\n      0x01\n      add\n      exp(0x0100, 0x15)\n      dup2\n      sload\n      dup2\n      0xff\n      mul\n      not\n      and\n      swap1\n      dup4\n      iszero\n      iszero\n      mul\n      or\n      swap1\n      sstore\n      pop\n      swap1\n      pop\n      pop\n        /* \"GestionActeur.sol\":3642:3663  _etablissementAddress */\n      dup2\n        /* \"GestionActeur.sol\":3622:3682  EtablissementAjoute(_etablissementAddress, _name, _etabType) */\n      0xffffffffffffffffffffffffffffffffffffffff\n      and\n      0x590d575965892fb0b633fac46404d88e1d5a209230381ac9862a2cd0aabfa7be\n        /* \"GestionActeur.sol\":3665:3670  _name */\n      dup5\n        /* \"GestionActeur.sol\":3672:3681  _etabType */\n      dup4\n        /* \"GestionActeur.sol\":3622:3682  EtablissementAjoute(_etablissementAddress, _name, _etabType) */\n      mload(0x40)\n      tag_79\n      swap3\n      swap2\n      swap1\n      tag_80\n      jump\t// in\n    tag_79:\n      mload(0x40)\n      dup1\n      swap2\n      sub\n      swap1\n      log2\n        /* \"GestionActeur.sol\":3078:3690  function addEtablissementValid(string memory _name, address _etablissementAddress, DiplomaType _etabType) public onlyApprover {... */\n      pop\n      pop\n      pop\n      jump\t// out\n        /* \"GestionActeur.sol\":929:975  mapping (address => Approver) public approvers */\n    tag_27:\n      mstore(0x20, 0x02)\n      dup1\n      0x00\n      mstore\n      keccak256(0x00, 0x40)\n      0x00\n      swap2\n      pop\n      swap1\n      pop\n      dup1\n      0x00\n      add\n      dup1\n      sload\n      tag_81\n      swap1\n      tag_82\n      jump\t// in\n    tag_81:\n      dup1\n      0x1f\n      add\n      0x20\n      dup1\n      swap2\n      div\n      mul\n      0x20\n      add\n      mload(0x40)\n      swap1\n      dup2\n      add\n      0x40\n      mstore\n      dup1\n      swap3\n      swap2\n      swap1\n      dup2\n      dup2\n      mstore\n      0x20\n      add\n      dup3\n      dup1\n      sload\n      tag_83\n      swap1\n      tag_82\n      jump\t// in\n    tag_83:\n      dup1\n      iszero\n      tag_84\n      jumpi\n      dup1\n      0x1f\n      lt\n      tag_85\n      jumpi\n      0x0100\n      dup1\n      dup4\n      sload\n      div\n      mul\n      dup4\n      mstore\n      swap2\n      0x20\n      add\n      swap2\n      jump(tag_84)\n    tag_85:\n      dup3\n      add\n      swap2\n      swap1\n      0x00\n      mstore\n      keccak256(0x00, 0x20)\n      swap1\n    tag_86:\n      dup2\n      sload\n      dup2\n      mstore\n      swap1\n      0x01\n      add\n      swap1\n      0x20\n      add\n      dup1\n      dup4\n      gt\n      tag_86\n      jumpi\n      dup3\n      swap1\n      sub\n      0x1f\n      and\n      dup3\n      add\n      swap2\n    tag_84:\n      pop\n      pop\n      pop\n      pop\n      pop\n      swap1\n      dup1\n      0x01\n      add\n      0x00\n      swap1\n      sload\n      swap1\n      0x0100\n      exp\n      swap1\n      div\n      0xffffffffffffffffffffffffffffffffffffffff\n      and\n      swap1\n      dup1\n      0x01\n      add\n      0x14\n      swap1\n      sload\n      swap1\n      0x0100\n      exp\n      swap1\n      div\n      0xff\n      and\n      swap1\n      dup1\n      0x01\n      add\n      0x15\n      swap1\n      sload\n      swap1\n      0x0100\n      exp\n      swap1\n      div\n      0xff\n      and\n      swap1\n      pop\n      dup5\n      jump\t// out\n        /* \"GestionActeur.sol\":4371:4523  function getEtablissementType(address _etablissement) public view returns (DiplomaType) {... */\n    tag_32:\n        /* \"GestionActeur.sol\":4446:4457  DiplomaType */\n      0x00\n        /* \"GestionActeur.sol\":4473:4494  etablissementsValides */\n      dup1\n        /* \"GestionActeur.sol\":4473:4510  etablissementsValides[_etablissement] */\n      0x00\n        /* \"GestionActeur.sol\":4495:4509  _etablissement */\n      dup4\n        /* \"GestionActeur.sol\":4473:4510  etablissementsValides[_etablissement] */\n      0xffffffffffffffffffffffffffffffffffffffff\n      and\n      0xffffffffffffffffffffffffffffffffffffffff\n      and\n      dup2\n      mstore\n      0x20\n      add\n      swap1\n      dup2\n      mstore\n      0x20\n      add\n      0x00\n      keccak256\n        /* \"GestionActeur.sol\":4473:4519  etablissementsValides[_etablissement].etabType */\n      0x01\n      add\n      0x14\n      swap1\n      sload\n      swap1\n      0x0100\n      exp\n      swap1\n      div\n      0xff\n      and\n        /* \"GestionActeur.sol\":4466:4519  return etablissementsValides[_etablissement].etabType */\n      swap1\n      pop\n        /* \"GestionActeur.sol\":4371:4523  function getEtablissementType(address _etablissement) public view returns (DiplomaType) {... */\n      swap2\n      swap1\n      pop\n      jump\t// out\n        /* \"GestionActeur.sol\":682:706  address public validator */\n    tag_36:\n      0x01\n      0x00\n      swap1\n      sload\n      swap1\n      0x0100\n      exp\n      swap1\n      div\n      0xffffffffffffffffffffffffffffffffffffffff\n      and\n      dup2\n      jump\t// out\n        /* \"GestionActeur.sol\":2836:2982  function getApproverType(address _approverAddress) public view returns (DiplomaType) {... */\n    tag_41:\n        /* \"GestionActeur.sol\":2908:2919  DiplomaType */\n      0x00\n        /* \"GestionActeur.sol\":2939:2948  approvers */\n      0x02\n        /* \"GestionActeur.sol\":2939:2966  approvers[_approverAddress] */\n      0x00\n        /* \"GestionActeur.sol\":2949:2965  _approverAddress */\n      dup4\n        /* \"GestionActeur.sol\":2939:2966  approvers[_approverAddress] */\n      0xffffffffffffffffffffffffffffffffffffffff\n      and\n      0xffffffffffffffffffffffffffffffffffffffff\n      and\n      dup2\n      mstore\n      0x20\n      add\n      swap1\n      dup2\n      mstore\n      0x20\n      add\n      0x00\n      keccak256\n        /* \"GestionActeur.sol\":2939:2974  approvers[_approverAddress].typeApp */\n      0x01\n      add\n      0x14\n      swap1\n      sload\n      swap1\n      0x0100\n      exp\n      swap1\n      div\n      0xff\n      and\n        /* \"GestionActeur.sol\":2932:2974  return approvers[_approverAddress].typeApp */\n      swap1\n      pop\n        /* \"GestionActeur.sol\":2836:2982  function getApproverType(address _approverAddress) public view returns (DiplomaType) {... */\n      swap2\n      swap1\n      pop\n      jump\t// out\n        /* \"GestionActeur.sol\":2445:2663  function removeApprover(address _approverAddress) public onlyValidator {... */\n    tag_45:\n        /* \"GestionActeur.sol\":1459:1468  validator */\n      0x01\n      0x00\n      swap1\n      sload\n      swap1\n      0x0100\n      exp\n      swap1\n      div\n      0xffffffffffffffffffffffffffffffffffffffff\n      and\n        /* \"GestionActeur.sol\":1445:1468  msg.sender == validator */\n      0xffffffffffffffffffffffffffffffffffffffff\n      and\n        /* \"GestionActeur.sol\":1445:1455  msg.sender */\n      caller\n        /* \"GestionActeur.sol\":1445:1468  msg.sender == validator */\n      0xffffffffffffffffffffffffffffffffffffffff\n      and\n      eq\n        /* \"GestionActeur.sol\":1437:1521  require(msg.sender == validator, \"Seul le validateur peut enregistrer un approver.\") */\n      tag_90\n      jumpi\n      mload(0x40)\n      0x08c379a000000000000000000000000000000000000000000000000000000000\n      dup2\n      mstore\n      0x04\n      add\n      tag_91\n      swap1\n      tag_92\n      jump\t// in\n    tag_91:\n      mload(0x40)\n      dup1\n      swap2\n      sub\n      swap1\n      revert\n    tag_90:\n        /* \"GestionActeur.sol\":2535:2544  approvers */\n      0x02\n        /* \"GestionActeur.sol\":2535:2562  approvers[_approverAddress] */\n      0x00\n        /* \"GestionActeur.sol\":2545:2561  _approverAddress */\n      dup3\n        /* \"GestionActeur.sol\":2535:2562  approvers[_approverAddress] */\n      0xffffffffffffffffffffffffffffffffffffffff\n      and\n      0xffffffffffffffffffffffffffffffffffffffff\n      and\n      dup2\n      mstore\n      0x20\n      add\n      swap1\n      dup2\n      mstore\n      0x20\n      add\n      0x00\n      keccak256\n        /* \"GestionActeur.sol\":2535:2573  approvers[_approverAddress].isApprover */\n      0x01\n      add\n      0x15\n      swap1\n      sload\n      swap1\n      0x0100\n      exp\n      swap1\n      div\n      0xff\n      and\n        /* \"GestionActeur.sol\":2527:2610  require(approvers[_approverAddress].isApprover, \"L'approver demande n'existe pas.\") */\n      tag_94\n      jumpi\n      mload(0x40)\n      0x08c379a000000000000000000000000000000000000000000000000000000000\n      dup2\n      mstore\n      0x04\n      add\n      tag_95\n      swap1\n      tag_96\n      jump\t// in\n    tag_95:\n      mload(0x40)\n      dup1\n      swap2\n      sub\n      swap1\n      revert\n    tag_94:\n        /* \"GestionActeur.sol\":2628:2637  approvers */\n      0x02\n        /* \"GestionActeur.sol\":2628:2655  approvers[_approverAddress] */\n      0x00\n        /* \"GestionActeur.sol\":2638:2654  _approverAddress */\n      dup3\n        /* \"GestionActeur.sol\":2628:2655  approvers[_approverAddress] */\n      0xffffffffffffffffffffffffffffffffffffffff\n      and\n      0xffffffffffffffffffffffffffffffffffffffff\n      and\n      dup2\n      mstore\n      0x20\n      add\n      swap1\n      dup2\n      mstore\n      0x20\n      add\n      0x00\n      keccak256\n      0x00\n        /* \"GestionActeur.sol\":2621:2655  delete approvers[_approverAddress] */\n      dup1\n      dup3\n      add\n      0x00\n      tag_97\n      swap2\n      swap1\n      tag_98\n      jump\t// in\n    tag_97:\n      0x01\n      dup3\n      add\n      exp(0x0100, 0x00)\n      dup2\n      sload\n      swap1\n      0xffffffffffffffffffffffffffffffffffffffff\n      mul\n      not\n      and\n      swap1\n      sstore\n      0x01\n      dup3\n      add\n      exp(0x0100, 0x14)\n      dup2\n      sload\n      swap1\n      0xff\n      mul\n      not\n      and\n      swap1\n      sstore\n      0x01\n      dup3\n      add\n      exp(0x0100, 0x15)\n      dup2\n      sload\n      swap1\n      0xff\n      mul\n      not\n      and\n      swap1\n      sstore\n      pop\n      pop\n        /* \"GestionActeur.sol\":2445:2663  function removeApprover(address _approverAddress) public onlyValidator {... */\n      pop\n      jump\t// out\n        /* \"GestionActeur.sol\":4223:4367  function isEtablissementValid(address _etablissement) public view returns (bool) {... */\n    tag_48:\n        /* \"GestionActeur.sol\":4298:4302  bool */\n      0x00\n        /* \"GestionActeur.sol\":4318:4339  etablissementsValides */\n      dup1\n        /* \"GestionActeur.sol\":4318:4355  etablissementsValides[_etablissement] */\n      0x00\n        /* \"GestionActeur.sol\":4340:4354  _etablissement */\n      dup4\n        /* \"GestionActeur.sol\":4318:4355  etablissementsValides[_etablissement] */\n      0xffffffffffffffffffffffffffffffffffffffff\n      and\n      0xffffffffffffffffffffffffffffffffffffffff\n      and\n      dup2\n      mstore\n      0x20\n      add\n      swap1\n      dup2\n      mstore\n      0x20\n      add\n      0x00\n      keccak256\n        /* \"GestionActeur.sol\":4318:4363  etablissementsValides[_etablissement].isValid */\n      0x01\n      add\n      0x15\n      swap1\n      sload\n      swap1\n      0x0100\n      exp\n      swap1\n      div\n      0xff\n      and\n        /* \"GestionActeur.sol\":4311:4363  return etablissementsValides[_etablissement].isValid */\n      swap1\n      pop\n        /* \"GestionActeur.sol\":4223:4367  function isEtablissementValid(address _etablissement) public view returns (bool) {... */\n      swap2\n      swap1\n      pop\n      jump\t// out\n        /* \"GestionActeur.sol\":569:631  mapping(address => Etablissement) public etablissementsValides */\n    tag_52:\n      mstore(0x20, 0x00)\n      dup1\n      0x00\n      mstore\n      keccak256(0x00, 0x40)\n      0x00\n      swap2\n      pop\n      swap1\n      pop\n      dup1\n      0x00\n      add\n      dup1\n      sload\n      tag_100\n      swap1\n      tag_82\n      jump\t// in\n    tag_100:\n      dup1\n      0x1f\n      add\n      0x20\n      dup1\n      swap2\n      div\n      mul\n      0x20\n      add\n      mload(0x40)\n      swap1\n      dup2\n      add\n      0x40\n      mstore\n      dup1\n      swap3\n      swap2\n      swap1\n      dup2\n      dup2\n      mstore\n      0x20\n      add\n      dup3\n      dup1\n      sload\n      tag_101\n      swap1\n      tag_82\n      jump\t// in\n    tag_101:\n      dup1\n      iszero\n      tag_102\n      jumpi\n      dup1\n      0x1f\n      lt\n      tag_103\n      jumpi\n      0x0100\n      dup1\n      dup4\n      sload\n      div\n      mul\n      dup4\n      mstore\n      swap2\n      0x20\n      add\n      swap2\n      jump(tag_102)\n    tag_103:\n      dup3\n      add\n      swap2\n      swap1\n      0x00\n      mstore\n      keccak256(0x00, 0x20)\n      swap1\n    tag_104:\n      dup2\n      sload\n      dup2\n      mstore\n      swap1\n      0x01\n      add\n      swap1\n      0x20\n      add\n      dup1\n      dup4\n      gt\n      tag_104\n      jumpi\n      dup3\n      swap1\n      sub\n      0x1f\n      and\n      dup3\n      add\n      swap2\n    tag_102:\n      pop\n      pop\n      pop\n      pop\n      pop\n      swap1\n      dup1\n      0x01\n      add\n      0x00\n      swap1\n      sload\n      swap1\n      0x0100\n      exp\n      swap1\n      div\n      0xffffffffffffffffffffffffffffffffffffffff\n      and\n      swap1\n      dup1\n      0x01\n      add\n      0x14\n      swap1\n      sload\n      swap1\n      0x0100\n      exp\n      swap1\n      div\n      0xff\n      and\n      swap1\n      dup1\n      0x01\n      add\n      0x15\n      swap1\n      sload\n      swap1\n      0x0100\n      exp\n      swap1\n      div\n      0xff\n      and\n      swap1\n      pop\n      dup5\n      jump\t// out\n        /* \"GestionActeur.sol\":1965:2401  function addApprover(        ... */\n    tag_56:\n        /* \"GestionActeur.sol\":1459:1468  validator */\n      0x01\n      0x00\n      swap1\n      sload\n      swap1\n      0x0100\n      exp\n      swap1\n      div\n      0xffffffffffffffffffffffffffffffffffffffff\n      and\n        /* \"GestionActeur.sol\":1445:1468  msg.sender == validator */\n      0xffffffffffffffffffffffffffffffffffffffff\n      and\n        /* \"GestionActeur.sol\":1445:1455  msg.sender */\n      caller\n        /* \"GestionActeur.sol\":1445:1468  msg.sender == validator */\n      0xffffffffffffffffffffffffffffffffffffffff\n      and\n      eq\n        /* \"GestionActeur.sol\":1437:1521  require(msg.sender == validator, \"Seul le validateur peut enregistrer un approver.\") */\n      tag_106\n      jumpi\n      mload(0x40)\n      0x08c379a000000000000000000000000000000000000000000000000000000000\n      dup2\n      mstore\n      0x04\n      add\n      tag_107\n      swap1\n      tag_92\n      jump\t// in\n    tag_107:\n      mload(0x40)\n      dup1\n      swap2\n      sub\n      swap1\n      revert\n    tag_106:\n        /* \"GestionActeur.sol\":2172:2173  0 */\n      0x00\n        /* \"GestionActeur.sol\":2144:2174  _approverAddress != address(0) */\n      0xffffffffffffffffffffffffffffffffffffffff\n      and\n        /* \"GestionActeur.sol\":2144:2160  _approverAddress */\n      dup3\n        /* \"GestionActeur.sol\":2144:2174  _approverAddress != address(0) */\n      0xffffffffffffffffffffffffffffffffffffffff\n      and\n      eq\n      iszero\n        /* \"GestionActeur.sol\":2136:2196  require(_approverAddress != address(0), \"Adresse invalide.\") */\n      tag_109\n      jumpi\n      mload(0x40)\n      0x08c379a000000000000000000000000000000000000000000000000000000000\n      dup2\n      mstore\n      0x04\n      add\n      tag_110\n      swap1\n      tag_68\n      jump\t// in\n    tag_110:\n      mload(0x40)\n      dup1\n      swap2\n      sub\n      swap1\n      revert\n    tag_109:\n        /* \"GestionActeur.sol\":2207:2225  Approver storage a */\n      0x00\n        /* \"GestionActeur.sol\":2228:2237  approvers */\n      0x02\n        /* \"GestionActeur.sol\":2228:2255  approvers[_approverAddress] */\n      0x00\n        /* \"GestionActeur.sol\":2238:2254  _approverAddress */\n      dup5\n        /* \"GestionActeur.sol\":2228:2255  approvers[_approverAddress] */\n      0xffffffffffffffffffffffffffffffffffffffff\n      and\n      0xffffffffffffffffffffffffffffffffffffffff\n      and\n      dup2\n      mstore\n      0x20\n      add\n      swap1\n      dup2\n      mstore\n      0x20\n      add\n      0x00\n      keccak256\n        /* \"GestionActeur.sol\":2207:2255  Approver storage a = approvers[_approverAddress] */\n      swap1\n      pop\n        /* \"GestionActeur.sol\":2277:2285  _nameApp */\n      dup4\n        /* \"GestionActeur.sol\":2266:2267  a */\n      dup2\n        /* \"GestionActeur.sol\":2266:2275  a.nameApp */\n      0x00\n      add\n        /* \"GestionActeur.sol\":2266:2285  a.nameApp =_nameApp */\n      swap1\n      dup1\n      mload\n      swap1\n      0x20\n      add\n      swap1\n      tag_111\n      swap3\n      swap2\n      swap1\n      tag_76\n      jump\t// in\n    tag_111:\n      pop\n        /* \"GestionActeur.sol\":2316:2332  _approverAddress */\n      dup3\n        /* \"GestionActeur.sol\":2296:2297  a */\n      dup2\n        /* \"GestionActeur.sol\":2296:2313  a.approverAddress */\n      0x01\n      add\n      0x00\n        /* \"GestionActeur.sol\":2296:2332  a.approverAddress = _approverAddress */\n      0x0100\n      exp\n      dup2\n      sload\n      dup2\n      0xffffffffffffffffffffffffffffffffffffffff\n      mul\n      not\n      and\n      swap1\n      dup4\n      0xffffffffffffffffffffffffffffffffffffffff\n      and\n      mul\n      or\n      swap1\n      sstore\n      pop\n        /* \"GestionActeur.sol\":2355:2363  _typeApp */\n      dup2\n        /* \"GestionActeur.sol\":2343:2344  a */\n      dup2\n        /* \"GestionActeur.sol\":2343:2352  a.typeApp */\n      0x01\n      add\n      0x14\n        /* \"GestionActeur.sol\":2343:2363  a.typeApp = _typeApp */\n      0x0100\n      exp\n      dup2\n      sload\n      dup2\n      0xff\n      mul\n      not\n      and\n      swap1\n      dup4\n      0x02\n      dup2\n      gt\n      iszero\n      tag_112\n      jumpi\n      tag_113\n      tag_74\n      jump\t// in\n    tag_113:\n    tag_112:\n      mul\n      or\n      swap1\n      sstore\n      pop\n        /* \"GestionActeur.sol\":2389:2393  true */\n      0x01\n        /* \"GestionActeur.sol\":2374:2375  a */\n      dup2\n        /* \"GestionActeur.sol\":2374:2386  a.isApprover */\n      0x01\n      add\n      0x15\n        /* \"GestionActeur.sol\":2374:2393  a.isApprover = true */\n      0x0100\n      exp\n      dup2\n      sload\n      dup2\n      0xff\n      mul\n      not\n      and\n      swap1\n      dup4\n      iszero\n      iszero\n      mul\n      or\n      swap1\n      sstore\n      pop\n        /* \"GestionActeur.sol\":2125:2401  {... */\n      pop\n        /* \"GestionActeur.sol\":1965:2401  function addApprover(        ... */\n      pop\n      pop\n      pop\n      jump\t// out\n        /* \"GestionActeur.sol\":3742:4219  function revokeEtablissement(address etablissement) public onlyApprover {... */\n    tag_59:\n        /* \"GestionActeur.sol\":1690:1699  approvers */\n      0x02\n        /* \"GestionActeur.sol\":1690:1711  approvers[msg.sender] */\n      0x00\n        /* \"GestionActeur.sol\":1700:1710  msg.sender */\n      caller\n        /* \"GestionActeur.sol\":1690:1711  approvers[msg.sender] */\n      0xffffffffffffffffffffffffffffffffffffffff\n      and\n      0xffffffffffffffffffffffffffffffffffffffff\n      and\n      dup2\n      mstore\n      0x20\n      add\n      swap1\n      dup2\n      mstore\n      0x20\n      add\n      0x00\n      keccak256\n        /* \"GestionActeur.sol\":1690:1722  approvers[msg.sender].isApprover */\n      0x01\n      add\n      0x15\n      swap1\n      sload\n      swap1\n      0x0100\n      exp\n      swap1\n      div\n      0xff\n      and\n        /* \"GestionActeur.sol\":1682:1775  require(approvers[msg.sender].isApprover, \"Seul l'approver peut enregistrer une universite.\") */\n      tag_115\n      jumpi\n      mload(0x40)\n      0x08c379a000000000000000000000000000000000000000000000000000000000\n      dup2\n      mstore\n      0x04\n      add\n      tag_116\n      swap1\n      tag_64\n      jump\t// in\n    tag_116:\n      mload(0x40)\n      dup1\n      swap2\n      sub\n      swap1\n      revert\n    tag_115:\n        /* \"GestionActeur.sol\":3858:3859  0 */\n      0x00\n        /* \"GestionActeur.sol\":3833:3860  etablissement != address(0) */\n      0xffffffffffffffffffffffffffffffffffffffff\n      and\n        /* \"GestionActeur.sol\":3833:3846  etablissement */\n      dup2\n        /* \"GestionActeur.sol\":3833:3860  etablissement != address(0) */\n      0xffffffffffffffffffffffffffffffffffffffff\n      and\n      eq\n      iszero\n        /* \"GestionActeur.sol\":3825:3882  require(etablissement != address(0), \"Adresse invalide.\") */\n      tag_118\n      jumpi\n      mload(0x40)\n      0x08c379a000000000000000000000000000000000000000000000000000000000\n      dup2\n      mstore\n      0x04\n      add\n      tag_119\n      swap1\n      tag_68\n      jump\t// in\n    tag_119:\n      mload(0x40)\n      dup1\n      swap2\n      sub\n      swap1\n      revert\n    tag_118:\n        /* \"GestionActeur.sol\":3901:3922  etablissementsValides */\n      0x00\n        /* \"GestionActeur.sol\":3901:3937  etablissementsValides[etablissement] */\n      dup1\n        /* \"GestionActeur.sol\":3923:3936  etablissement */\n      dup3\n        /* \"GestionActeur.sol\":3901:3937  etablissementsValides[etablissement] */\n      0xffffffffffffffffffffffffffffffffffffffff\n      and\n      0xffffffffffffffffffffffffffffffffffffffff\n      and\n      dup2\n      mstore\n      0x20\n      add\n      swap1\n      dup2\n      mstore\n      0x20\n      add\n      0x00\n      keccak256\n        /* \"GestionActeur.sol\":3901:3945  etablissementsValides[etablissement].isValid */\n      0x01\n      add\n      0x15\n      swap1\n      sload\n      swap1\n      0x0100\n      exp\n      swap1\n      div\n      0xff\n      and\n        /* \"GestionActeur.sol\":3893:4004  require(etablissementsValides[etablissement].isValid, \"L'etablissement n'est pas enregistre ou deja invalide.\") */\n      tag_120\n      jumpi\n      mload(0x40)\n      0x08c379a000000000000000000000000000000000000000000000000000000000\n      dup2\n      mstore\n      0x04\n      add\n      tag_121\n      swap1\n      tag_122\n      jump\t// in\n    tag_121:\n      mload(0x40)\n      dup1\n      swap2\n      sub\n      swap1\n      revert\n    tag_120:\n        /* \"GestionActeur.sol\":4060:4065  false */\n      0x00\n        /* \"GestionActeur.sol\":4015:4036  etablissementsValides */\n      dup1\n        /* \"GestionActeur.sol\":4015:4051  etablissementsValides[etablissement] */\n      0x00\n        /* \"GestionActeur.sol\":4037:4050  etablissement */\n      dup4\n        /* \"GestionActeur.sol\":4015:4051  etablissementsValides[etablissement] */\n      0xffffffffffffffffffffffffffffffffffffffff\n      and\n      0xffffffffffffffffffffffffffffffffffffffff\n      and\n      dup2\n      mstore\n      0x20\n      add\n      swap1\n      dup2\n      mstore\n      0x20\n      add\n      0x00\n      keccak256\n        /* \"GestionActeur.sol\":4015:4059  etablissementsValides[etablissement].isValid */\n      0x01\n      add\n      0x15\n        /* \"GestionActeur.sol\":4015:4065  etablissementsValides[etablissement].isValid=false */\n      0x0100\n      exp\n      dup2\n      sload\n      dup2\n      0xff\n      mul\n      not\n      and\n      swap1\n      dup4\n      iszero\n      iszero\n      mul\n      or\n      swap1\n      sstore\n      pop\n        /* \"GestionActeur.sol\":4197:4210  etablissement */\n      dup1\n        /* \"GestionActeur.sol\":4176:4211  EtablissementRevoque(etablissement) */\n      0xffffffffffffffffffffffffffffffffffffffff\n      and\n      0x0ce6ffb7d34acdfa243a4fe4ee52fd2289d42f902f824194d6af9fda154bd4a3\n      mload(0x40)\n      mload(0x40)\n      dup1\n      swap2\n      sub\n      swap1\n      log2\n        /* \"GestionActeur.sol\":3742:4219  function revokeEtablissement(address etablissement) public onlyApprover {... */\n      pop\n      jump\t// out\n    tag_76:\n      dup3\n      dup1\n      sload\n      tag_123\n      swap1\n      tag_82\n      jump\t// in\n    tag_123:\n      swap1\n      0x00\n      mstore\n      keccak256(0x00, 0x20)\n      swap1\n      0x1f\n      add\n      0x20\n      swap1\n      div\n      dup2\n      add\n      swap3\n      dup3\n      tag_125\n      jumpi\n      0x00\n      dup6\n      sstore\n      jump(tag_124)\n    tag_125:\n      dup3\n      0x1f\n      lt\n      tag_126\n      jumpi\n      dup1\n      mload\n      not(0xff)\n      and\n      dup4\n      dup1\n      add\n      or\n      dup6\n      sstore\n      jump(tag_124)\n    tag_126:\n      dup3\n      dup1\n      add\n      0x01\n      add\n      dup6\n      sstore\n      dup3\n      iszero\n      tag_124\n      jumpi\n      swap2\n      dup3\n      add\n    tag_127:\n      dup3\n      dup2\n      gt\n      iszero\n      tag_128\n      jumpi\n      dup3\n      mload\n      dup3\n      sstore\n      swap2\n      0x20\n      add\n      swap2\n      swap1\n      0x01\n      add\n      swap1\n      jump(tag_127)\n    tag_128:\n    tag_124:\n      pop\n      swap1\n      pop\n      tag_129\n      swap2\n      swap1\n      tag_130\n      jump\t// in\n    tag_129:\n      pop\n      swap1\n      jump\t// out\n    tag_98:\n      pop\n      dup1\n      sload\n      tag_131\n      swap1\n      tag_82\n      jump\t// in\n    tag_131:\n      0x00\n      dup3\n      sstore\n      dup1\n      0x1f\n      lt\n      tag_133\n      jumpi\n      pop\n      jump(tag_132)\n    tag_133:\n      0x1f\n      add\n      0x20\n      swap1\n      div\n      swap1\n      0x00\n      mstore\n      keccak256(0x00, 0x20)\n      swap1\n      dup2\n      add\n      swap1\n      tag_134\n      swap2\n      swap1\n      tag_130\n      jump\t// in\n    tag_134:\n    tag_132:\n      pop\n      jump\t// out\n    tag_130:\n    tag_135:\n      dup1\n      dup3\n      gt\n      iszero\n      tag_136\n      jumpi\n      0x00\n      dup2\n      0x00\n      swap1\n      sstore\n      pop\n      0x01\n      add\n      jump(tag_135)\n    tag_136:\n      pop\n      swap1\n      jump\t// out\n        /* \"#utility.yul\":7:82   */\n    tag_137:\n        /* \"#utility.yul\":40:46   */\n      0x00\n        /* \"#utility.yul\":73:75   */\n      0x40\n        /* \"#utility.yul\":67:76   */\n      mload\n        /* \"#utility.yul\":57:76   */\n      swap1\n      pop\n        /* \"#utility.yul\":7:82   */\n      swap1\n      jump\t// out\n        /* \"#utility.yul\":88:205   */\n    tag_138:\n        /* \"#utility.yul\":197:198   */\n      0x00\n        /* \"#utility.yul\":194:195   */\n      dup1\n        /* \"#utility.yul\":187:199   */\n      revert\n        /* \"#utility.yul\":211:328   */\n    tag_139:\n        /* \"#utility.yul\":320:321   */\n      0x00\n        /* \"#utility.yul\":317:318   */\n      dup1\n        /* \"#utility.yul\":310:322   */\n      revert\n        /* \"#utility.yul\":334:460   */\n    tag_140:\n        /* \"#utility.yul\":371:378   */\n      0x00\n        /* \"#utility.yul\":411:453   */\n      0xffffffffffffffffffffffffffffffffffffffff\n        /* \"#utility.yul\":404:409   */\n      dup3\n        /* \"#utility.yul\":400:454   */\n      and\n        /* \"#utility.yul\":389:454   */\n      swap1\n      pop\n        /* \"#utility.yul\":334:460   */\n      swap2\n      swap1\n      pop\n      jump\t// out\n        /* \"#utility.yul\":466:562   */\n    tag_141:\n        /* \"#utility.yul\":503:510   */\n      0x00\n        /* \"#utility.yul\":532:556   */\n      tag_186\n        /* \"#utility.yul\":550:555   */\n      dup3\n        /* \"#utility.yul\":532:556   */\n      tag_140\n      jump\t// in\n    tag_186:\n        /* \"#utility.yul\":521:556   */\n      swap1\n      pop\n        /* \"#utility.yul\":466:562   */\n      swap2\n      swap1\n      pop\n      jump\t// out\n        /* \"#utility.yul\":568:690   */\n    tag_142:\n        /* \"#utility.yul\":641:665   */\n      tag_188\n        /* \"#utility.yul\":659:664   */\n      dup2\n        /* \"#utility.yul\":641:665   */\n      tag_141\n      jump\t// in\n    tag_188:\n        /* \"#utility.yul\":634:639   */\n      dup2\n        /* \"#utility.yul\":631:666   */\n      eq\n        /* \"#utility.yul\":621:684   */\n      tag_189\n      jumpi\n        /* \"#utility.yul\":680:681   */\n      0x00\n        /* \"#utility.yul\":677:678   */\n      dup1\n        /* \"#utility.yul\":670:682   */\n      revert\n        /* \"#utility.yul\":621:684   */\n    tag_189:\n        /* \"#utility.yul\":568:690   */\n      pop\n      jump\t// out\n        /* \"#utility.yul\":696:835   */\n    tag_143:\n        /* \"#utility.yul\":742:747   */\n      0x00\n        /* \"#utility.yul\":780:786   */\n      dup2\n        /* \"#utility.yul\":767:787   */\n      calldataload\n        /* \"#utility.yul\":758:787   */\n      swap1\n      pop\n        /* \"#utility.yul\":796:829   */\n      tag_191\n        /* \"#utility.yul\":823:828   */\n      dup2\n        /* \"#utility.yul\":796:829   */\n      tag_142\n      jump\t// in\n    tag_191:\n        /* \"#utility.yul\":696:835   */\n      swap3\n      swap2\n      pop\n      pop\n      jump\t// out\n        /* \"#utility.yul\":841:1170   */\n    tag_17:\n        /* \"#utility.yul\":900:906   */\n      0x00\n        /* \"#utility.yul\":949:951   */\n      0x20\n        /* \"#utility.yul\":937:946   */\n      dup3\n        /* \"#utility.yul\":928:935   */\n      dup5\n        /* \"#utility.yul\":924:947   */\n      sub\n        /* \"#utility.yul\":920:952   */\n      slt\n        /* \"#utility.yul\":917:1036   */\n      iszero\n      tag_193\n      jumpi\n        /* \"#utility.yul\":955:1034   */\n      tag_194\n      tag_138\n      jump\t// in\n    tag_194:\n        /* \"#utility.yul\":917:1036   */\n    tag_193:\n        /* \"#utility.yul\":1075:1076   */\n      0x00\n        /* \"#utility.yul\":1100:1153   */\n      tag_195\n        /* \"#utility.yul\":1145:1152   */\n      dup5\n        /* \"#utility.yul\":1136:1142   */\n      dup3\n        /* \"#utility.yul\":1125:1134   */\n      dup6\n        /* \"#utility.yul\":1121:1143   */\n      add\n        /* \"#utility.yul\":1100:1153   */\n      tag_143\n      jump\t// in\n    tag_195:\n        /* \"#utility.yul\":1090:1153   */\n      swap2\n      pop\n        /* \"#utility.yul\":1046:1163   */\n      pop\n        /* \"#utility.yul\":841:1170   */\n      swap3\n      swap2\n      pop\n      pop\n      jump\t// out\n        /* \"#utility.yul\":1176:1266   */\n    tag_144:\n        /* \"#utility.yul\":1210:1217   */\n      0x00\n        /* \"#utility.yul\":1253:1258   */\n      dup2\n        /* \"#utility.yul\":1246:1259   */\n      iszero\n        /* \"#utility.yul\":1239:1260   */\n      iszero\n        /* \"#utility.yul\":1228:1260   */\n      swap1\n      pop\n        /* \"#utility.yul\":1176:1266   */\n      swap2\n      swap1\n      pop\n      jump\t// out\n        /* \"#utility.yul\":1272:1381   */\n    tag_145:\n        /* \"#utility.yul\":1353:1374   */\n      tag_198\n        /* \"#utility.yul\":1368:1373   */\n      dup2\n        /* \"#utility.yul\":1353:1374   */\n      tag_144\n      jump\t// in\n    tag_198:\n        /* \"#utility.yul\":1348:1351   */\n      dup3\n        /* \"#utility.yul\":1341:1375   */\n      mstore\n        /* \"#utility.yul\":1272:1381   */\n      pop\n      pop\n      jump\t// out\n        /* \"#utility.yul\":1387:1597   */\n    tag_20:\n        /* \"#utility.yul\":1474:1478   */\n      0x00\n        /* \"#utility.yul\":1512:1514   */\n      0x20\n        /* \"#utility.yul\":1501:1510   */\n      dup3\n        /* \"#utility.yul\":1497:1515   */\n      add\n        /* \"#utility.yul\":1489:1515   */\n      swap1\n      pop\n        /* \"#utility.yul\":1525:1590   */\n      tag_200\n        /* \"#utility.yul\":1587:1588   */\n      0x00\n        /* \"#utility.yul\":1576:1585   */\n      dup4\n        /* \"#utility.yul\":1572:1589   */\n      add\n        /* \"#utility.yul\":1563:1569   */\n      dup5\n        /* \"#utility.yul\":1525:1590   */\n      tag_145\n      jump\t// in\n    tag_200:\n        /* \"#utility.yul\":1387:1597   */\n      swap3\n      swap2\n      pop\n      pop\n      jump\t// out\n        /* \"#utility.yul\":1603:1720   */\n    tag_146:\n        /* \"#utility.yul\":1712:1713   */\n      0x00\n        /* \"#utility.yul\":1709:1710   */\n      dup1\n        /* \"#utility.yul\":1702:1714   */\n      revert\n        /* \"#utility.yul\":1726:1843   */\n    tag_147:\n        /* \"#utility.yul\":1835:1836   */\n      0x00\n        /* \"#utility.yul\":1832:1833   */\n      dup1\n        /* \"#utility.yul\":1825:1837   */\n      revert\n        /* \"#utility.yul\":1849:1951   */\n    tag_148:\n        /* \"#utility.yul\":1890:1896   */\n      0x00\n        /* \"#utility.yul\":1941:1943   */\n      0x1f\n        /* \"#utility.yul\":1937:1944   */\n      not\n        /* \"#utility.yul\":1932:1934   */\n      0x1f\n        /* \"#utility.yul\":1925:1930   */\n      dup4\n        /* \"#utility.yul\":1921:1935   */\n      add\n        /* \"#utility.yul\":1917:1945   */\n      and\n        /* \"#utility.yul\":1907:1945   */\n      swap1\n      pop\n        /* \"#utility.yul\":1849:1951   */\n      swap2\n      swap1\n      pop\n      jump\t// out\n        /* \"#utility.yul\":1957:2137   */\n    tag_149:\n        /* \"#utility.yul\":2005:2082   */\n      0x4e487b7100000000000000000000000000000000000000000000000000000000\n        /* \"#utility.yul\":2002:2003   */\n      0x00\n        /* \"#utility.yul\":1995:2083   */\n      mstore\n        /* \"#utility.yul\":2102:2106   */\n      0x41\n        /* \"#utility.yul\":2099:2100   */\n      0x04\n        /* \"#utility.yul\":2092:2107   */\n      mstore\n        /* \"#utility.yul\":2126:2130   */\n      0x24\n        /* \"#utility.yul\":2123:2124   */\n      0x00\n        /* \"#utility.yul\":2116:2131   */\n      revert\n        /* \"#utility.yul\":2143:2424   */\n    tag_150:\n        /* \"#utility.yul\":2226:2253   */\n      tag_206\n        /* \"#utility.yul\":2248:2252   */\n      dup3\n        /* \"#utility.yul\":2226:2253   */\n      tag_148\n      jump\t// in\n    tag_206:\n        /* \"#utility.yul\":2218:2224   */\n      dup2\n        /* \"#utility.yul\":2214:2254   */\n      add\n        /* \"#utility.yul\":2356:2362   */\n      dup2\n        /* \"#utility.yul\":2344:2354   */\n      dup2\n        /* \"#utility.yul\":2341:2363   */\n      lt\n        /* \"#utility.yul\":2320:2338   */\n      0xffffffffffffffff\n        /* \"#utility.yul\":2308:2318   */\n      dup3\n        /* \"#utility.yul\":2305:2339   */\n      gt\n        /* \"#utility.yul\":2302:2364   */\n      or\n        /* \"#utility.yul\":2299:2387   */\n      iszero\n      tag_207\n      jumpi\n        /* \"#utility.yul\":2367:2385   */\n      tag_208\n      tag_149\n      jump\t// in\n    tag_208:\n        /* \"#utility.yul\":2299:2387   */\n    tag_207:\n        /* \"#utility.yul\":2407:2417   */\n      dup1\n        /* \"#utility.yul\":2403:2405   */\n      0x40\n        /* \"#utility.yul\":2396:2418   */\n      mstore\n        /* \"#utility.yul\":2186:2424   */\n      pop\n        /* \"#utility.yul\":2143:2424   */\n      pop\n      pop\n      jump\t// out\n        /* \"#utility.yul\":2430:2559   */\n    tag_151:\n        /* \"#utility.yul\":2464:2470   */\n      0x00\n        /* \"#utility.yul\":2491:2511   */\n      tag_210\n      tag_137\n      jump\t// in\n    tag_210:\n        /* \"#utility.yul\":2481:2511   */\n      swap1\n      pop\n        /* \"#utility.yul\":2520:2553   */\n      tag_211\n        /* \"#utility.yul\":2548:2552   */\n      dup3\n        /* \"#utility.yul\":2540:2546   */\n      dup3\n        /* \"#utility.yul\":2520:2553   */\n      tag_150\n      jump\t// in\n    tag_211:\n        /* \"#utility.yul\":2430:2559   */\n      swap2\n      swap1\n      pop\n      jump\t// out\n        /* \"#utility.yul\":2565:2873   */\n    tag_152:\n        /* \"#utility.yul\":2627:2631   */\n      0x00\n        /* \"#utility.yul\":2717:2735   */\n      0xffffffffffffffff\n        /* \"#utility.yul\":2709:2715   */\n      dup3\n        /* \"#utility.yul\":2706:2736   */\n      gt\n        /* \"#utility.yul\":2703:2759   */\n      iszero\n      tag_213\n      jumpi\n        /* \"#utility.yul\":2739:2757   */\n      tag_214\n      tag_149\n      jump\t// in\n    tag_214:\n        /* \"#utility.yul\":2703:2759   */\n    tag_213:\n        /* \"#utility.yul\":2777:2806   */\n      tag_215\n        /* \"#utility.yul\":2799:2805   */\n      dup3\n        /* \"#utility.yul\":2777:2806   */\n      tag_148\n      jump\t// in\n    tag_215:\n        /* \"#utility.yul\":2769:2806   */\n      swap1\n      pop\n        /* \"#utility.yul\":2861:2865   */\n      0x20\n        /* \"#utility.yul\":2855:2859   */\n      dup2\n        /* \"#utility.yul\":2851:2866   */\n      add\n        /* \"#utility.yul\":2843:2866   */\n      swap1\n      pop\n        /* \"#utility.yul\":2565:2873   */\n      swap2\n      swap1\n      pop\n      jump\t// out\n        /* \"#utility.yul\":2879:3033   */\n    tag_153:\n        /* \"#utility.yul\":2963:2969   */\n      dup3\n        /* \"#utility.yul\":2958:2961   */\n      dup2\n        /* \"#utility.yul\":2953:2956   */\n      dup4\n        /* \"#utility.yul\":2940:2970   */\n      calldatacopy\n        /* \"#utility.yul\":3025:3026   */\n      0x00\n        /* \"#utility.yul\":3016:3022   */\n      dup4\n        /* \"#utility.yul\":3011:3014   */\n      dup4\n        /* \"#utility.yul\":3007:3023   */\n      add\n        /* \"#utility.yul\":3000:3027   */\n      mstore\n        /* \"#utility.yul\":2879:3033   */\n      pop\n      pop\n      pop\n      jump\t// out\n        /* \"#utility.yul\":3039:3451   */\n    tag_154:\n        /* \"#utility.yul\":3117:3122   */\n      0x00\n        /* \"#utility.yul\":3142:3208   */\n      tag_218\n        /* \"#utility.yul\":3158:3207   */\n      tag_219\n        /* \"#utility.yul\":3200:3206   */\n      dup5\n        /* \"#utility.yul\":3158:3207   */\n      tag_152\n      jump\t// in\n    tag_219:\n        /* \"#utility.yul\":3142:3208   */\n      tag_151\n      jump\t// in\n    tag_218:\n        /* \"#utility.yul\":3133:3208   */\n      swap1\n      pop\n        /* \"#utility.yul\":3231:3237   */\n      dup3\n        /* \"#utility.yul\":3224:3229   */\n      dup2\n        /* \"#utility.yul\":3217:3238   */\n      mstore\n        /* \"#utility.yul\":3269:3273   */\n      0x20\n        /* \"#utility.yul\":3262:3267   */\n      dup2\n        /* \"#utility.yul\":3258:3274   */\n      add\n        /* \"#utility.yul\":3307:3310   */\n      dup5\n        /* \"#utility.yul\":3298:3304   */\n      dup5\n        /* \"#utility.yul\":3293:3296   */\n      dup5\n        /* \"#utility.yul\":3289:3305   */\n      add\n        /* \"#utility.yul\":3286:3311   */\n      gt\n        /* \"#utility.yul\":3283:3395   */\n      iszero\n      tag_220\n      jumpi\n        /* \"#utility.yul\":3314:3393   */\n      tag_221\n      tag_147\n      jump\t// in\n    tag_221:\n        /* \"#utility.yul\":3283:3395   */\n    tag_220:\n        /* \"#utility.yul\":3404:3445   */\n      tag_222\n        /* \"#utility.yul\":3438:3444   */\n      dup5\n        /* \"#utility.yul\":3433:3436   */\n      dup3\n        /* \"#utility.yul\":3428:3431   */\n      dup6\n        /* \"#utility.yul\":3404:3445   */\n      tag_153\n      jump\t// in\n    tag_222:\n        /* \"#utility.yul\":3123:3451   */\n      pop\n        /* \"#utility.yul\":3039:3451   */\n      swap4\n      swap3\n      pop\n      pop\n      pop\n      jump\t// out\n        /* \"#utility.yul\":3471:3811   */\n    tag_155:\n        /* \"#utility.yul\":3527:3532   */\n      0x00\n        /* \"#utility.yul\":3576:3579   */\n      dup3\n        /* \"#utility.yul\":3569:3573   */\n      0x1f\n        /* \"#utility.yul\":3561:3567   */\n      dup4\n        /* \"#utility.yul\":3557:3574   */\n      add\n        /* \"#utility.yul\":3553:3580   */\n      slt\n        /* \"#utility.yul\":3543:3665   */\n      tag_224\n      jumpi\n        /* \"#utility.yul\":3584:3663   */\n      tag_225\n      tag_146\n      jump\t// in\n    tag_225:\n        /* \"#utility.yul\":3543:3665   */\n    tag_224:\n        /* \"#utility.yul\":3701:3707   */\n      dup2\n        /* \"#utility.yul\":3688:3708   */\n      calldataload\n        /* \"#utility.yul\":3726:3805   */\n      tag_226\n        /* \"#utility.yul\":3801:3804   */\n      dup5\n        /* \"#utility.yul\":3793:3799   */\n      dup3\n        /* \"#utility.yul\":3786:3790   */\n      0x20\n        /* \"#utility.yul\":3778:3784   */\n      dup7\n        /* \"#utility.yul\":3774:3791   */\n      add\n        /* \"#utility.yul\":3726:3805   */\n      tag_154\n      jump\t// in\n    tag_226:\n        /* \"#utility.yul\":3717:3805   */\n      swap2\n      pop\n        /* \"#utility.yul\":3533:3811   */\n      pop\n        /* \"#utility.yul\":3471:3811   */\n      swap3\n      swap2\n      pop\n      pop\n      jump\t// out\n        /* \"#utility.yul\":3817:3929   */\n    tag_156:\n        /* \"#utility.yul\":3903:3904   */\n      0x03\n        /* \"#utility.yul\":3896:3901   */\n      dup2\n        /* \"#utility.yul\":3893:3905   */\n      lt\n        /* \"#utility.yul\":3883:3923   */\n      tag_228\n      jumpi\n        /* \"#utility.yul\":3919:3920   */\n      0x00\n        /* \"#utility.yul\":3916:3917   */\n      dup1\n        /* \"#utility.yul\":3909:3921   */\n      revert\n        /* \"#utility.yul\":3883:3923   */\n    tag_228:\n        /* \"#utility.yul\":3817:3929   */\n      pop\n      jump\t// out\n        /* \"#utility.yul\":3935:4100   */\n    tag_157:\n        /* \"#utility.yul\":3994:3999   */\n      0x00\n        /* \"#utility.yul\":4032:4038   */\n      dup2\n        /* \"#utility.yul\":4019:4039   */\n      calldataload\n        /* \"#utility.yul\":4010:4039   */\n      swap1\n      pop\n        /* \"#utility.yul\":4048:4094   */\n      tag_230\n        /* \"#utility.yul\":4088:4093   */\n      dup2\n        /* \"#utility.yul\":4048:4094   */\n      tag_156\n      jump\t// in\n    tag_230:\n        /* \"#utility.yul\":3935:4100   */\n      swap3\n      swap2\n      pop\n      pop\n      jump\t// out\n        /* \"#utility.yul\":4106:4931   */\n    tag_23:\n        /* \"#utility.yul\":4206:4212   */\n      0x00\n        /* \"#utility.yul\":4214:4220   */\n      dup1\n        /* \"#utility.yul\":4222:4228   */\n      0x00\n        /* \"#utility.yul\":4271:4273   */\n      0x60\n        /* \"#utility.yul\":4259:4268   */\n      dup5\n        /* \"#utility.yul\":4250:4257   */\n      dup7\n        /* \"#utility.yul\":4246:4269   */\n      sub\n        /* \"#utility.yul\":4242:4274   */\n      slt\n        /* \"#utility.yul\":4239:4358   */\n      iszero\n      tag_232\n      jumpi\n        /* \"#utility.yul\":4277:4356   */\n      tag_233\n      tag_138\n      jump\t// in\n    tag_233:\n        /* \"#utility.yul\":4239:4358   */\n    tag_232:\n        /* \"#utility.yul\":4425:4426   */\n      0x00\n        /* \"#utility.yul\":4414:4423   */\n      dup5\n        /* \"#utility.yul\":4410:4427   */\n      add\n        /* \"#utility.yul\":4397:4428   */\n      calldataload\n        /* \"#utility.yul\":4455:4473   */\n      0xffffffffffffffff\n        /* \"#utility.yul\":4447:4453   */\n      dup2\n        /* \"#utility.yul\":4444:4474   */\n      gt\n        /* \"#utility.yul\":4441:4558   */\n      iszero\n      tag_234\n      jumpi\n        /* \"#utility.yul\":4477:4556   */\n      tag_235\n      tag_139\n      jump\t// in\n    tag_235:\n        /* \"#utility.yul\":4441:4558   */\n    tag_234:\n        /* \"#utility.yul\":4582:4645   */\n      tag_236\n        /* \"#utility.yul\":4637:4644   */\n      dup7\n        /* \"#utility.yul\":4628:4634   */\n      dup3\n        /* \"#utility.yul\":4617:4626   */\n      dup8\n        /* \"#utility.yul\":4613:4635   */\n      add\n        /* \"#utility.yul\":4582:4645   */\n      tag_155\n      jump\t// in\n    tag_236:\n        /* \"#utility.yul\":4572:4645   */\n      swap4\n      pop\n        /* \"#utility.yul\":4368:4655   */\n      pop\n        /* \"#utility.yul\":4694:4696   */\n      0x20\n        /* \"#utility.yul\":4720:4773   */\n      tag_237\n        /* \"#utility.yul\":4765:4772   */\n      dup7\n        /* \"#utility.yul\":4756:4762   */\n      dup3\n        /* \"#utility.yul\":4745:4754   */\n      dup8\n        /* \"#utility.yul\":4741:4763   */\n      add\n        /* \"#utility.yul\":4720:4773   */\n      tag_143\n      jump\t// in\n    tag_237:\n        /* \"#utility.yul\":4710:4773   */\n      swap3\n      pop\n        /* \"#utility.yul\":4665:4783   */\n      pop\n        /* \"#utility.yul\":4822:4824   */\n      0x40\n        /* \"#utility.yul\":4848:4914   */\n      tag_238\n        /* \"#utility.yul\":4906:4913   */\n      dup7\n        /* \"#utility.yul\":4897:4903   */\n      dup3\n        /* \"#utility.yul\":4886:4895   */\n      dup8\n        /* \"#utility.yul\":4882:4904   */\n      add\n        /* \"#utility.yul\":4848:4914   */\n      tag_157\n      jump\t// in\n    tag_238:\n        /* \"#utility.yul\":4838:4914   */\n      swap2\n      pop\n        /* \"#utility.yul\":4793:4924   */\n      pop\n        /* \"#utility.yul\":4106:4931   */\n      swap3\n      pop\n      swap3\n      pop\n      swap3\n      jump\t// out\n        /* \"#utility.yul\":4937:5036   */\n    tag_158:\n        /* \"#utility.yul\":4989:4995   */\n      0x00\n        /* \"#utility.yul\":5023:5028   */\n      dup2\n        /* \"#utility.yul\":5017:5029   */\n      mload\n        /* \"#utility.yul\":5007:5029   */\n      swap1\n      pop\n        /* \"#utility.yul\":4937:5036   */\n      swap2\n      swap1\n      pop\n      jump\t// out\n        /* \"#utility.yul\":5042:5211   */\n    tag_159:\n        /* \"#utility.yul\":5126:5137   */\n      0x00\n        /* \"#utility.yul\":5160:5166   */\n      dup3\n        /* \"#utility.yul\":5155:5158   */\n      dup3\n        /* \"#utility.yul\":5148:5167   */\n      mstore\n        /* \"#utility.yul\":5200:5204   */\n      0x20\n        /* \"#utility.yul\":5195:5198   */\n      dup3\n        /* \"#utility.yul\":5191:5205   */\n      add\n        /* \"#utility.yul\":5176:5205   */\n      swap1\n      pop\n        /* \"#utility.yul\":5042:5211   */\n      swap3\n      swap2\n      pop\n      pop\n      jump\t// out\n        /* \"#utility.yul\":5217:5524   */\n    tag_160:\n        /* \"#utility.yul\":5285:5286   */\n      0x00\n        /* \"#utility.yul\":5295:5408   */\n    tag_242:\n        /* \"#utility.yul\":5309:5315   */\n      dup4\n        /* \"#utility.yul\":5306:5307   */\n      dup2\n        /* \"#utility.yul\":5303:5316   */\n      lt\n        /* \"#utility.yul\":5295:5408   */\n      iszero\n      tag_244\n      jumpi\n        /* \"#utility.yul\":5394:5395   */\n      dup1\n        /* \"#utility.yul\":5389:5392   */\n      dup3\n        /* \"#utility.yul\":5385:5396   */\n      add\n        /* \"#utility.yul\":5379:5397   */\n      mload\n        /* \"#utility.yul\":5375:5376   */\n      dup2\n        /* \"#utility.yul\":5370:5373   */\n      dup5\n        /* \"#utility.yul\":5366:5377   */\n      add\n        /* \"#utility.yul\":5359:5398   */\n      mstore\n        /* \"#utility.yul\":5331:5333   */\n      0x20\n        /* \"#utility.yul\":5328:5329   */\n      dup2\n        /* \"#utility.yul\":5324:5334   */\n      add\n        /* \"#utility.yul\":5319:5334   */\n      swap1\n      pop\n        /* \"#utility.yul\":5295:5408   */\n      jump(tag_242)\n    tag_244:\n        /* \"#utility.yul\":5426:5432   */\n      dup4\n        /* \"#utility.yul\":5423:5424   */\n      dup2\n        /* \"#utility.yul\":5420:5433   */\n      gt\n        /* \"#utility.yul\":5417:5518   */\n      iszero\n      tag_245\n      jumpi\n        /* \"#utility.yul\":5506:5507   */\n      0x00\n        /* \"#utility.yul\":5497:5503   */\n      dup5\n        /* \"#utility.yul\":5492:5495   */\n      dup5\n        /* \"#utility.yul\":5488:5504   */\n      add\n        /* \"#utility.yul\":5481:5508   */\n      mstore\n        /* \"#utility.yul\":5417:5518   */\n    tag_245:\n        /* \"#utility.yul\":5266:5524   */\n      pop\n        /* \"#utility.yul\":5217:5524   */\n      pop\n      pop\n      pop\n      jump\t// out\n        /* \"#utility.yul\":5530:5894   */\n    tag_161:\n        /* \"#utility.yul\":5618:5621   */\n      0x00\n        /* \"#utility.yul\":5646:5685   */\n      tag_247\n        /* \"#utility.yul\":5679:5684   */\n      dup3\n        /* \"#utility.yul\":5646:5685   */\n      tag_158\n      jump\t// in\n    tag_247:\n        /* \"#utility.yul\":5701:5772   */\n      tag_248\n        /* \"#utility.yul\":5765:5771   */\n      dup2\n        /* \"#utility.yul\":5760:5763   */\n      dup6\n        /* \"#utility.yul\":5701:5772   */\n      tag_159\n      jump\t// in\n    tag_248:\n        /* \"#utility.yul\":5694:5772   */\n      swap4\n      pop\n        /* \"#utility.yul\":5781:5833   */\n      tag_249\n        /* \"#utility.yul\":5826:5832   */\n      dup2\n        /* \"#utility.yul\":5821:5824   */\n      dup6\n        /* \"#utility.yul\":5814:5818   */\n      0x20\n        /* \"#utility.yul\":5807:5812   */\n      dup7\n        /* \"#utility.yul\":5803:5819   */\n      add\n        /* \"#utility.yul\":5781:5833   */\n      tag_160\n      jump\t// in\n    tag_249:\n        /* \"#utility.yul\":5858:5887   */\n      tag_250\n        /* \"#utility.yul\":5880:5886   */\n      dup2\n        /* \"#utility.yul\":5858:5887   */\n      tag_148\n      jump\t// in\n    tag_250:\n        /* \"#utility.yul\":5853:5856   */\n      dup5\n        /* \"#utility.yul\":5849:5888   */\n      add\n        /* \"#utility.yul\":5842:5888   */\n      swap2\n      pop\n        /* \"#utility.yul\":5622:5894   */\n      pop\n        /* \"#utility.yul\":5530:5894   */\n      swap3\n      swap2\n      pop\n      pop\n      jump\t// out\n        /* \"#utility.yul\":5900:6018   */\n    tag_162:\n        /* \"#utility.yul\":5987:6011   */\n      tag_252\n        /* \"#utility.yul\":6005:6010   */\n      dup2\n        /* \"#utility.yul\":5987:6011   */\n      tag_141\n      jump\t// in\n    tag_252:\n        /* \"#utility.yul\":5982:5985   */\n      dup3\n        /* \"#utility.yul\":5975:6012   */\n      mstore\n        /* \"#utility.yul\":5900:6018   */\n      pop\n      pop\n      jump\t// out\n        /* \"#utility.yul\":6024:6204   */\n    tag_74:\n        /* \"#utility.yul\":6072:6149   */\n      0x4e487b7100000000000000000000000000000000000000000000000000000000\n        /* \"#utility.yul\":6069:6070   */\n      0x00\n        /* \"#utility.yul\":6062:6150   */\n      mstore\n        /* \"#utility.yul\":6169:6173   */\n      0x21\n        /* \"#utility.yul\":6166:6167   */\n      0x04\n        /* \"#utility.yul\":6159:6174   */\n      mstore\n        /* \"#utility.yul\":6193:6197   */\n      0x24\n        /* \"#utility.yul\":6190:6191   */\n      0x00\n        /* \"#utility.yul\":6183:6198   */\n      revert\n        /* \"#utility.yul\":6210:6328   */\n    tag_163:\n        /* \"#utility.yul\":6296:6297   */\n      0x03\n        /* \"#utility.yul\":6289:6294   */\n      dup2\n        /* \"#utility.yul\":6286:6298   */\n      lt\n        /* \"#utility.yul\":6276:6322   */\n      tag_255\n      jumpi\n        /* \"#utility.yul\":6302:6320   */\n      tag_256\n      tag_74\n      jump\t// in\n    tag_256:\n        /* \"#utility.yul\":6276:6322   */\n    tag_255:\n        /* \"#utility.yul\":6210:6328   */\n      pop\n      jump\t// out\n        /* \"#utility.yul\":6334:6471   */\n    tag_164:\n        /* \"#utility.yul\":6384:6391   */\n      0x00\n        /* \"#utility.yul\":6413:6418   */\n      dup2\n        /* \"#utility.yul\":6402:6418   */\n      swap1\n      pop\n        /* \"#utility.yul\":6419:6465   */\n      tag_258\n        /* \"#utility.yul\":6459:6464   */\n      dup3\n        /* \"#utility.yul\":6419:6465   */\n      tag_163\n      jump\t// in\n    tag_258:\n        /* \"#utility.yul\":6334:6471   */\n      swap2\n      swap1\n      pop\n      jump\t// out\n        /* \"#utility.yul\":6477:6614   */\n    tag_165:\n        /* \"#utility.yul\":6538:6547   */\n      0x00\n        /* \"#utility.yul\":6571:6608   */\n      tag_260\n        /* \"#utility.yul\":6602:6607   */\n      dup3\n        /* \"#utility.yul\":6571:6608   */\n      tag_164\n      jump\t// in\n    tag_260:\n        /* \"#utility.yul\":6558:6608   */\n      swap1\n      pop\n        /* \"#utility.yul\":6477:6614   */\n      swap2\n      swap1\n      pop\n      jump\t// out\n        /* \"#utility.yul\":6620:6773   */\n    tag_166:\n        /* \"#utility.yul\":6718:6766   */\n      tag_262\n        /* \"#utility.yul\":6760:6765   */\n      dup2\n        /* \"#utility.yul\":6718:6766   */\n      tag_165\n      jump\t// in\n    tag_262:\n        /* \"#utility.yul\":6713:6716   */\n      dup3\n        /* \"#utility.yul\":6706:6767   */\n      mstore\n        /* \"#utility.yul\":6620:6773   */\n      pop\n      pop\n      jump\t// out\n        /* \"#utility.yul\":6779:7433   */\n    tag_29:\n        /* \"#utility.yul\":6981:6985   */\n      0x00\n        /* \"#utility.yul\":7019:7022   */\n      0x80\n        /* \"#utility.yul\":7008:7017   */\n      dup3\n        /* \"#utility.yul\":7004:7023   */\n      add\n        /* \"#utility.yul\":6996:7023   */\n      swap1\n      pop\n        /* \"#utility.yul\":7069:7078   */\n      dup2\n        /* \"#utility.yul\":7063:7067   */\n      dup2\n        /* \"#utility.yul\":7059:7079   */\n      sub\n        /* \"#utility.yul\":7055:7056   */\n      0x00\n        /* \"#utility.yul\":7044:7053   */\n      dup4\n        /* \"#utility.yul\":7040:7057   */\n      add\n        /* \"#utility.yul\":7033:7080   */\n      mstore\n        /* \"#utility.yul\":7097:7175   */\n      tag_264\n        /* \"#utility.yul\":7170:7174   */\n      dup2\n        /* \"#utility.yul\":7161:7167   */\n      dup8\n        /* \"#utility.yul\":7097:7175   */\n      tag_161\n      jump\t// in\n    tag_264:\n        /* \"#utility.yul\":7089:7175   */\n      swap1\n      pop\n        /* \"#utility.yul\":7185:7257   */\n      tag_265\n        /* \"#utility.yul\":7253:7255   */\n      0x20\n        /* \"#utility.yul\":7242:7251   */\n      dup4\n        /* \"#utility.yul\":7238:7256   */\n      add\n        /* \"#utility.yul\":7229:7235   */\n      dup7\n        /* \"#utility.yul\":7185:7257   */\n      tag_162\n      jump\t// in\n    tag_265:\n        /* \"#utility.yul\":7267:7350   */\n      tag_266\n        /* \"#utility.yul\":7346:7348   */\n      0x40\n        /* \"#utility.yul\":7335:7344   */\n      dup4\n        /* \"#utility.yul\":7331:7349   */\n      add\n        /* \"#utility.yul\":7322:7328   */\n      dup6\n        /* \"#utility.yul\":7267:7350   */\n      tag_166\n      jump\t// in\n    tag_266:\n        /* \"#utility.yul\":7360:7426   */\n      tag_267\n        /* \"#utility.yul\":7422:7424   */\n      0x60\n        /* \"#utility.yul\":7411:7420   */\n      dup4\n        /* \"#utility.yul\":7407:7425   */\n      add\n        /* \"#utility.yul\":7398:7404   */\n      dup5\n        /* \"#utility.yul\":7360:7426   */\n      tag_145\n      jump\t// in\n    tag_267:\n        /* \"#utility.yul\":6779:7433   */\n      swap6\n      swap5\n      pop\n      pop\n      pop\n      pop\n      pop\n      jump\t// out\n        /* \"#utility.yul\":7439:7683   */\n    tag_34:\n        /* \"#utility.yul\":7543:7547   */\n      0x00\n        /* \"#utility.yul\":7581:7583   */\n      0x20\n        /* \"#utility.yul\":7570:7579   */\n      dup3\n        /* \"#utility.yul\":7566:7584   */\n      add\n        /* \"#utility.yul\":7558:7584   */\n      swap1\n      pop\n        /* \"#utility.yul\":7594:7676   */\n      tag_269\n        /* \"#utility.yul\":7673:7674   */\n      0x00\n        /* \"#utility.yul\":7662:7671   */\n      dup4\n        /* \"#utility.yul\":7658:7675   */\n      add\n        /* \"#utility.yul\":7649:7655   */\n      dup5\n        /* \"#utility.yul\":7594:7676   */\n      tag_166\n      jump\t// in\n    tag_269:\n        /* \"#utility.yul\":7439:7683   */\n      swap3\n      swap2\n      pop\n      pop\n      jump\t// out\n        /* \"#utility.yul\":7689:7911   */\n    tag_38:\n        /* \"#utility.yul\":7782:7786   */\n      0x00\n        /* \"#utility.yul\":7820:7822   */\n      0x20\n        /* \"#utility.yul\":7809:7818   */\n      dup3\n        /* \"#utility.yul\":7805:7823   */\n      add\n        /* \"#utility.yul\":7797:7823   */\n      swap1\n      pop\n        /* \"#utility.yul\":7833:7904   */\n      tag_271\n        /* \"#utility.yul\":7901:7902   */\n      0x00\n        /* \"#utility.yul\":7890:7899   */\n      dup4\n        /* \"#utility.yul\":7886:7903   */\n      add\n        /* \"#utility.yul\":7877:7883   */\n      dup5\n        /* \"#utility.yul\":7833:7904   */\n      tag_162\n      jump\t// in\n    tag_271:\n        /* \"#utility.yul\":7689:7911   */\n      swap3\n      swap2\n      pop\n      pop\n      jump\t// out\n        /* \"#utility.yul\":7917:8152   */\n    tag_167:\n        /* \"#utility.yul\":8057:8091   */\n      0x5365756c206c27617070726f766572207065757420656e726567697374726572\n        /* \"#utility.yul\":8053:8054   */\n      0x00\n        /* \"#utility.yul\":8045:8051   */\n      dup3\n        /* \"#utility.yul\":8041:8055   */\n      add\n        /* \"#utility.yul\":8034:8092   */\n      mstore\n        /* \"#utility.yul\":8126:8144   */\n      0x20756e6520756e69766572736974652e00000000000000000000000000000000\n        /* \"#utility.yul\":8121:8123   */\n      0x20\n        /* \"#utility.yul\":8113:8119   */\n      dup3\n        /* \"#utility.yul\":8109:8124   */\n      add\n        /* \"#utility.yul\":8102:8145   */\n      mstore\n        /* \"#utility.yul\":7917:8152   */\n      pop\n      jump\t// out\n        /* \"#utility.yul\":8158:8524   */\n    tag_168:\n        /* \"#utility.yul\":8300:8303   */\n      0x00\n        /* \"#utility.yul\":8321:8388   */\n      tag_274\n        /* \"#utility.yul\":8385:8387   */\n      0x30\n        /* \"#utility.yul\":8380:8383   */\n      dup4\n        /* \"#utility.yul\":8321:8388   */\n      tag_159\n      jump\t// in\n    tag_274:\n        /* \"#utility.yul\":8314:8388   */\n      swap2\n      pop\n        /* \"#utility.yul\":8397:8490   */\n      tag_275\n        /* \"#utility.yul\":8486:8489   */\n      dup3\n        /* \"#utility.yul\":8397:8490   */\n      tag_167\n      jump\t// in\n    tag_275:\n        /* \"#utility.yul\":8515:8517   */\n      0x40\n        /* \"#utility.yul\":8510:8513   */\n      dup3\n        /* \"#utility.yul\":8506:8518   */\n      add\n        /* \"#utility.yul\":8499:8518   */\n      swap1\n      pop\n        /* \"#utility.yul\":8158:8524   */\n      swap2\n      swap1\n      pop\n      jump\t// out\n        /* \"#utility.yul\":8530:8949   */\n    tag_64:\n        /* \"#utility.yul\":8696:8700   */\n      0x00\n        /* \"#utility.yul\":8734:8736   */\n      0x20\n        /* \"#utility.yul\":8723:8732   */\n      dup3\n        /* \"#utility.yul\":8719:8737   */\n      add\n        /* \"#utility.yul\":8711:8737   */\n      swap1\n      pop\n        /* \"#utility.yul\":8783:8792   */\n      dup2\n        /* \"#utility.yul\":8777:8781   */\n      dup2\n        /* \"#utility.yul\":8773:8793   */\n      sub\n        /* \"#utility.yul\":8769:8770   */\n      0x00\n        /* \"#utility.yul\":8758:8767   */\n      dup4\n        /* \"#utility.yul\":8754:8771   */\n      add\n        /* \"#utility.yul\":8747:8794   */\n      mstore\n        /* \"#utility.yul\":8811:8942   */\n      tag_277\n        /* \"#utility.yul\":8937:8941   */\n      dup2\n        /* \"#utility.yul\":8811:8942   */\n      tag_168\n      jump\t// in\n    tag_277:\n        /* \"#utility.yul\":8803:8942   */\n      swap1\n      pop\n        /* \"#utility.yul\":8530:8949   */\n      swap2\n      swap1\n      pop\n      jump\t// out\n        /* \"#utility.yul\":8955:9122   */\n    tag_169:\n        /* \"#utility.yul\":9095:9114   */\n      0x4164726573736520696e76616c6964652e000000000000000000000000000000\n        /* \"#utility.yul\":9091:9092   */\n      0x00\n        /* \"#utility.yul\":9083:9089   */\n      dup3\n        /* \"#utility.yul\":9079:9093   */\n      add\n        /* \"#utility.yul\":9072:9115   */\n      mstore\n        /* \"#utility.yul\":8955:9122   */\n      pop\n      jump\t// out\n        /* \"#utility.yul\":9128:9494   */\n    tag_170:\n        /* \"#utility.yul\":9270:9273   */\n      0x00\n        /* \"#utility.yul\":9291:9358   */\n      tag_280\n        /* \"#utility.yul\":9355:9357   */\n      0x11\n        /* \"#utility.yul\":9350:9353   */\n      dup4\n        /* \"#utility.yul\":9291:9358   */\n      tag_159\n      jump\t// in\n    tag_280:\n        /* \"#utility.yul\":9284:9358   */\n      swap2\n      pop\n        /* \"#utility.yul\":9367:9460   */\n      tag_281\n        /* \"#utility.yul\":9456:9459   */\n      dup3\n        /* \"#utility.yul\":9367:9460   */\n      tag_169\n      jump\t// in\n    tag_281:\n        /* \"#utility.yul\":9485:9487   */\n      0x20\n        /* \"#utility.yul\":9480:9483   */\n      dup3\n        /* \"#utility.yul\":9476:9488   */\n      add\n        /* \"#utility.yul\":9469:9488   */\n      swap1\n      pop\n        /* \"#utility.yul\":9128:9494   */\n      swap2\n      swap1\n      pop\n      jump\t// out\n        /* \"#utility.yul\":9500:9919   */\n    tag_68:\n        /* \"#utility.yul\":9666:9670   */\n      0x00\n        /* \"#utility.yul\":9704:9706   */\n      0x20\n        /* \"#utility.yul\":9693:9702   */\n      dup3\n        /* \"#utility.yul\":9689:9707   */\n      add\n        /* \"#utility.yul\":9681:9707   */\n      swap1\n      pop\n        /* \"#utility.yul\":9753:9762   */\n      dup2\n        /* \"#utility.yul\":9747:9751   */\n      dup2\n        /* \"#utility.yul\":9743:9763   */\n      sub\n        /* \"#utility.yul\":9739:9740   */\n      0x00\n        /* \"#utility.yul\":9728:9737   */\n      dup4\n        /* \"#utility.yul\":9724:9741   */\n      add\n        /* \"#utility.yul\":9717:9764   */\n      mstore\n        /* \"#utility.yul\":9781:9912   */\n      tag_283\n        /* \"#utility.yul\":9907:9911   */\n      dup2\n        /* \"#utility.yul\":9781:9912   */\n      tag_170\n      jump\t// in\n    tag_283:\n        /* \"#utility.yul\":9773:9912   */\n      swap1\n      pop\n        /* \"#utility.yul\":9500:9919   */\n      swap2\n      swap1\n      pop\n      jump\t// out\n        /* \"#utility.yul\":9925:10107   */\n    tag_171:\n        /* \"#utility.yul\":10065:10099   */\n      0x4c27657461626c697373656d656e74206573742064656a612076616c6964652e\n        /* \"#utility.yul\":10061:10062   */\n      0x00\n        /* \"#utility.yul\":10053:10059   */\n      dup3\n        /* \"#utility.yul\":10049:10063   */\n      add\n        /* \"#utility.yul\":10042:10100   */\n      mstore\n        /* \"#utility.yul\":9925:10107   */\n      pop\n      jump\t// out\n        /* \"#utility.yul\":10113:10479   */\n    tag_172:\n        /* \"#utility.yul\":10255:10258   */\n      0x00\n        /* \"#utility.yul\":10276:10343   */\n      tag_286\n        /* \"#utility.yul\":10340:10342   */\n      0x20\n        /* \"#utility.yul\":10335:10338   */\n      dup4\n        /* \"#utility.yul\":10276:10343   */\n      tag_159\n      jump\t// in\n    tag_286:\n        /* \"#utility.yul\":10269:10343   */\n      swap2\n      pop\n        /* \"#utility.yul\":10352:10445   */\n      tag_287\n        /* \"#utility.yul\":10441:10444   */\n      dup3\n        /* \"#utility.yul\":10352:10445   */\n      tag_171\n      jump\t// in\n    tag_287:\n        /* \"#utility.yul\":10470:10472   */\n      0x20\n        /* \"#utility.yul\":10465:10468   */\n      dup3\n        /* \"#utility.yul\":10461:10473   */\n      add\n        /* \"#utility.yul\":10454:10473   */\n      swap1\n      pop\n        /* \"#utility.yul\":10113:10479   */\n      swap2\n      swap1\n      pop\n      jump\t// out\n        /* \"#utility.yul\":10485:10904   */\n    tag_71:\n        /* \"#utility.yul\":10651:10655   */\n      0x00\n        /* \"#utility.yul\":10689:10691   */\n      0x20\n        /* \"#utility.yul\":10678:10687   */\n      dup3\n        /* \"#utility.yul\":10674:10692   */\n      add\n        /* \"#utility.yul\":10666:10692   */\n      swap1\n      pop\n        /* \"#utility.yul\":10738:10747   */\n      dup2\n        /* \"#utility.yul\":10732:10736   */\n      dup2\n        /* \"#utility.yul\":10728:10748   */\n      sub\n        /* \"#utility.yul\":10724:10725   */\n      0x00\n        /* \"#utility.yul\":10713:10722   */\n      dup4\n        /* \"#utility.yul\":10709:10726   */\n      add\n        /* \"#utility.yul\":10702:10749   */\n      mstore\n        /* \"#utility.yul\":10766:10897   */\n      tag_289\n        /* \"#utility.yul\":10892:10896   */\n      dup2\n        /* \"#utility.yul\":10766:10897   */\n      tag_172\n      jump\t// in\n    tag_289:\n        /* \"#utility.yul\":10758:10897   */\n      swap1\n      pop\n        /* \"#utility.yul\":10485:10904   */\n      swap2\n      swap1\n      pop\n      jump\t// out\n        /* \"#utility.yul\":10910:11355   */\n    tag_80:\n        /* \"#utility.yul\":11062:11066   */\n      0x00\n        /* \"#utility.yul\":11100:11102   */\n      0x40\n        /* \"#utility.yul\":11089:11098   */\n      dup3\n        /* \"#utility.yul\":11085:11103   */\n      add\n        /* \"#utility.yul\":11077:11103   */\n      swap1\n      pop\n        /* \"#utility.yul\":11149:11158   */\n      dup2\n        /* \"#utility.yul\":11143:11147   */\n      dup2\n        /* \"#utility.yul\":11139:11159   */\n      sub\n        /* \"#utility.yul\":11135:11136   */\n      0x00\n        /* \"#utility.yul\":11124:11133   */\n      dup4\n        /* \"#utility.yul\":11120:11137   */\n      add\n        /* \"#utility.yul\":11113:11160   */\n      mstore\n        /* \"#utility.yul\":11177:11255   */\n      tag_291\n        /* \"#utility.yul\":11250:11254   */\n      dup2\n        /* \"#utility.yul\":11241:11247   */\n      dup6\n        /* \"#utility.yul\":11177:11255   */\n      tag_161\n      jump\t// in\n    tag_291:\n        /* \"#utility.yul\":11169:11255   */\n      swap1\n      pop\n        /* \"#utility.yul\":11265:11348   */\n      tag_292\n        /* \"#utility.yul\":11344:11346   */\n      0x20\n        /* \"#utility.yul\":11333:11342   */\n      dup4\n        /* \"#utility.yul\":11329:11347   */\n      add\n        /* \"#utility.yul\":11320:11326   */\n      dup5\n        /* \"#utility.yul\":11265:11348   */\n      tag_166\n      jump\t// in\n    tag_292:\n        /* \"#utility.yul\":10910:11355   */\n      swap4\n      swap3\n      pop\n      pop\n      pop\n      jump\t// out\n        /* \"#utility.yul\":11361:11541   */\n    tag_173:\n        /* \"#utility.yul\":11409:11486   */\n      0x4e487b7100000000000000000000000000000000000000000000000000000000\n        /* \"#utility.yul\":11406:11407   */\n      0x00\n        /* \"#utility.yul\":11399:11487   */\n      mstore\n        /* \"#utility.yul\":11506:11510   */\n      0x22\n        /* \"#utility.yul\":11503:11504   */\n      0x04\n        /* \"#utility.yul\":11496:11511   */\n      mstore\n        /* \"#utility.yul\":11530:11534   */\n      0x24\n        /* \"#utility.yul\":11527:11528   */\n      0x00\n        /* \"#utility.yul\":11520:11535   */\n      revert\n        /* \"#utility.yul\":11547:11867   */\n    tag_82:\n        /* \"#utility.yul\":11591:11597   */\n      0x00\n        /* \"#utility.yul\":11628:11629   */\n      0x02\n        /* \"#utility.yul\":11622:11626   */\n      dup3\n        /* \"#utility.yul\":11618:11630   */\n      div\n        /* \"#utility.yul\":11608:11630   */\n      swap1\n      pop\n        /* \"#utility.yul\":11675:11676   */\n      0x01\n        /* \"#utility.yul\":11669:11673   */\n      dup3\n        /* \"#utility.yul\":11665:11677   */\n      and\n        /* \"#utility.yul\":11696:11714   */\n      dup1\n        /* \"#utility.yul\":11686:11767   */\n      tag_295\n      jumpi\n        /* \"#utility.yul\":11752:11756   */\n      0x7f\n        /* \"#utility.yul\":11744:11750   */\n      dup3\n        /* \"#utility.yul\":11740:11757   */\n      and\n        /* \"#utility.yul\":11730:11757   */\n      swap2\n      pop\n        /* \"#utility.yul\":11686:11767   */\n    tag_295:\n        /* \"#utility.yul\":11814:11816   */\n      0x20\n        /* \"#utility.yul\":11806:11812   */\n      dup3\n        /* \"#utility.yul\":11803:11817   */\n      lt\n        /* \"#utility.yul\":11783:11801   */\n      dup2\n        /* \"#utility.yul\":11780:11818   */\n      eq\n        /* \"#utility.yul\":11777:11861   */\n      iszero\n      tag_296\n      jumpi\n        /* \"#utility.yul\":11833:11851   */\n      tag_297\n      tag_173\n      jump\t// in\n    tag_297:\n        /* \"#utility.yul\":11777:11861   */\n    tag_296:\n        /* \"#utility.yul\":11598:11867   */\n      pop\n        /* \"#utility.yul\":11547:11867   */\n      swap2\n      swap1\n      pop\n      jump\t// out\n        /* \"#utility.yul\":11873:12108   */\n    tag_174:\n        /* \"#utility.yul\":12013:12047   */\n      0x5365756c206c652076616c69646174657572207065757420656e726567697374\n        /* \"#utility.yul\":12009:12010   */\n      0x00\n        /* \"#utility.yul\":12001:12007   */\n      dup3\n        /* \"#utility.yul\":11997:12011   */\n      add\n        /* \"#utility.yul\":11990:12048   */\n      mstore\n        /* \"#utility.yul\":12082:12100   */\n      0x72657220756e20617070726f7665722e00000000000000000000000000000000\n        /* \"#utility.yul\":12077:12079   */\n      0x20\n        /* \"#utility.yul\":12069:12075   */\n      dup3\n        /* \"#utility.yul\":12065:12080   */\n      add\n        /* \"#utility.yul\":12058:12101   */\n      mstore\n        /* \"#utility.yul\":11873:12108   */\n      pop\n      jump\t// out\n        /* \"#utility.yul\":12114:12480   */\n    tag_175:\n        /* \"#utility.yul\":12256:12259   */\n      0x00\n        /* \"#utility.yul\":12277:12344   */\n      tag_300\n        /* \"#utility.yul\":12341:12343   */\n      0x30\n        /* \"#utility.yul\":12336:12339   */\n      dup4\n        /* \"#utility.yul\":12277:12344   */\n      tag_159\n      jump\t// in\n    tag_300:\n        /* \"#utility.yul\":12270:12344   */\n      swap2\n      pop\n        /* \"#utility.yul\":12353:12446   */\n      tag_301\n        /* \"#utility.yul\":12442:12445   */\n      dup3\n        /* \"#utility.yul\":12353:12446   */\n      tag_174\n      jump\t// in\n    tag_301:\n        /* \"#utility.yul\":12471:12473   */\n      0x40\n        /* \"#utility.yul\":12466:12469   */\n      dup3\n        /* \"#utility.yul\":12462:12474   */\n      add\n        /* \"#utility.yul\":12455:12474   */\n      swap1\n      pop\n        /* \"#utility.yul\":12114:12480   */\n      swap2\n      swap1\n      pop\n      jump\t// out\n        /* \"#utility.yul\":12486:12905   */\n    tag_92:\n        /* \"#utility.yul\":12652:12656   */\n      0x00\n        /* \"#utility.yul\":12690:12692   */\n      0x20\n        /* \"#utility.yul\":12679:12688   */\n      dup3\n        /* \"#utility.yul\":12675:12693   */\n      add\n        /* \"#utility.yul\":12667:12693   */\n      swap1\n      pop\n        /* \"#utility.yul\":12739:12748   */\n      dup2\n        /* \"#utility.yul\":12733:12737   */\n      dup2\n        /* \"#utility.yul\":12729:12749   */\n      sub\n        /* \"#utility.yul\":12725:12726   */\n      0x00\n        /* \"#utility.yul\":12714:12723   */\n      dup4\n        /* \"#utility.yul\":12710:12727   */\n      add\n        /* \"#utility.yul\":12703:12750   */\n      mstore\n        /* \"#utility.yul\":12767:12898   */\n      tag_303\n        /* \"#utility.yul\":12893:12897   */\n      dup2\n        /* \"#utility.yul\":12767:12898   */\n      tag_175\n      jump\t// in\n    tag_303:\n        /* \"#utility.yul\":12759:12898   */\n      swap1\n      pop\n        /* \"#utility.yul\":12486:12905   */\n      swap2\n      swap1\n      pop\n      jump\t// out\n        /* \"#utility.yul\":12911:13093   */\n    tag_176:\n        /* \"#utility.yul\":13051:13085   */\n      0x4c27617070726f7665722064656d616e6465206e27657869737465207061732e\n        /* \"#utility.yul\":13047:13048   */\n      0x00\n        /* \"#utility.yul\":13039:13045   */\n      dup3\n        /* \"#utility.yul\":13035:13049   */\n      add\n        /* \"#utility.yul\":13028:13086   */\n      mstore\n        /* \"#utility.yul\":12911:13093   */\n      pop\n      jump\t// out\n        /* \"#utility.yul\":13099:13465   */\n    tag_177:\n        /* \"#utility.yul\":13241:13244   */\n      0x00\n        /* \"#utility.yul\":13262:13329   */\n      tag_306\n        /* \"#utility.yul\":13326:13328   */\n      0x20\n        /* \"#utility.yul\":13321:13324   */\n      dup4\n        /* \"#utility.yul\":13262:13329   */\n      tag_159\n      jump\t// in\n    tag_306:\n        /* \"#utility.yul\":13255:13329   */\n      swap2\n      pop\n        /* \"#utility.yul\":13338:13431   */\n      tag_307\n        /* \"#utility.yul\":13427:13430   */\n      dup3\n        /* \"#utility.yul\":13338:13431   */\n      tag_176\n      jump\t// in\n    tag_307:\n        /* \"#utility.yul\":13456:13458   */\n      0x20\n        /* \"#utility.yul\":13451:13454   */\n      dup3\n        /* \"#utility.yul\":13447:13459   */\n      add\n        /* \"#utility.yul\":13440:13459   */\n      swap1\n      pop\n        /* \"#utility.yul\":13099:13465   */\n      swap2\n      swap1\n      pop\n      jump\t// out\n        /* \"#utility.yul\":13471:13890   */\n    tag_96:\n        /* \"#utility.yul\":13637:13641   */\n      0x00\n        /* \"#utility.yul\":13675:13677   */\n      0x20\n        /* \"#utility.yul\":13664:13673   */\n      dup3\n        /* \"#utility.yul\":13660:13678   */\n      add\n        /* \"#utility.yul\":13652:13678   */\n      swap1\n      pop\n        /* \"#utility.yul\":13724:13733   */\n      dup2\n        /* \"#utility.yul\":13718:13722   */\n      dup2\n        /* \"#utility.yul\":13714:13734   */\n      sub\n        /* \"#utility.yul\":13710:13711   */\n      0x00\n        /* \"#utility.yul\":13699:13708   */\n      dup4\n        /* \"#utility.yul\":13695:13712   */\n      add\n        /* \"#utility.yul\":13688:13735   */\n      mstore\n        /* \"#utility.yul\":13752:13883   */\n      tag_309\n        /* \"#utility.yul\":13878:13882   */\n      dup2\n        /* \"#utility.yul\":13752:13883   */\n      tag_177\n      jump\t// in\n    tag_309:\n        /* \"#utility.yul\":13744:13883   */\n      swap1\n      pop\n        /* \"#utility.yul\":13471:13890   */\n      swap2\n      swap1\n      pop\n      jump\t// out\n        /* \"#utility.yul\":13896:14137   */\n    tag_178:\n        /* \"#utility.yul\":14036:14070   */\n      0x4c27657461626c697373656d656e74206e276573742070617320656e72656769\n        /* \"#utility.yul\":14032:14033   */\n      0x00\n        /* \"#utility.yul\":14024:14030   */\n      dup3\n        /* \"#utility.yul\":14020:14034   */\n      add\n        /* \"#utility.yul\":14013:14071   */\n      mstore\n        /* \"#utility.yul\":14105:14129   */\n      0x73747265206f752064656a6120696e76616c6964652e00000000000000000000\n        /* \"#utility.yul\":14100:14102   */\n      0x20\n        /* \"#utility.yul\":14092:14098   */\n      dup3\n        /* \"#utility.yul\":14088:14103   */\n      add\n        /* \"#utility.yul\":14081:14130   */\n      mstore\n        /* \"#utility.yul\":13896:14137   */\n      pop\n      jump\t// out\n        /* \"#utility.yul\":14143:14509   */\n    tag_179:\n        /* \"#utility.yul\":14285:14288   */\n      0x00\n        /* \"#utility.yul\":14306:14373   */\n      tag_312\n        /* \"#utility.yul\":14370:14372   */\n      0x36\n        /* \"#utility.yul\":14365:14368   */\n      dup4\n        /* \"#utility.yul\":14306:14373   */\n      tag_159\n      jump\t// in\n    tag_312:\n        /* \"#utility.yul\":14299:14373   */\n      swap2\n      pop\n        /* \"#utility.yul\":14382:14475   */\n      tag_313\n        /* \"#utility.yul\":14471:14474   */\n      dup3\n        /* \"#utility.yul\":14382:14475   */\n      tag_178\n      jump\t// in\n    tag_313:\n        /* \"#utility.yul\":14500:14502   */\n      0x40\n        /* \"#utility.yul\":14495:14498   */\n      dup3\n        /* \"#utility.yul\":14491:14503   */\n      add\n        /* \"#utility.yul\":14484:14503   */\n      swap1\n      pop\n        /* \"#utility.yul\":14143:14509   */\n      swap2\n      swap1\n      pop\n      jump\t// out\n        /* \"#utility.yul\":14515:14934   */\n    tag_122:\n        /* \"#utility.yul\":14681:14685   */\n      0x00\n        /* \"#utility.yul\":14719:14721   */\n      0x20\n        /* \"#utility.yul\":14708:14717   */\n      dup3\n        /* \"#utility.yul\":14704:14722   */\n      add\n        /* \"#utility.yul\":14696:14722   */\n      swap1\n      pop\n        /* \"#utility.yul\":14768:14777   */\n      dup2\n        /* \"#utility.yul\":14762:14766   */\n      dup2\n        /* \"#utility.yul\":14758:14778   */\n      sub\n        /* \"#utility.yul\":14754:14755   */\n      0x00\n        /* \"#utility.yul\":14743:14752   */\n      dup4\n        /* \"#utility.yul\":14739:14756   */\n      add\n        /* \"#utility.yul\":14732:14779   */\n      mstore\n        /* \"#utility.yul\":14796:14927   */\n      tag_315\n        /* \"#utility.yul\":14922:14926   */\n      dup2\n        /* \"#utility.yul\":14796:14927   */\n      tag_179\n      jump\t// in\n    tag_315:\n        /* \"#utility.yul\":14788:14927   */\n      swap1\n      pop\n        /* \"#utility.yul\":14515:14934   */\n      swap2\n      swap1\n      pop\n      jump\t// out\n\n    auxdata: 0xa2646970667358221220416c902194debd11a7d256ede2e41e44f63ad6dcd2aae8d4289aa42256ffc5db64736f6c63430008090033\n}\n","bytecode":{"linkReferences":{},"object":"608060405234801561001057600080fd5b5033600160006101000a81548173ffffffffffffffffffffffffffffffffffffffff021916908373ffffffffffffffffffffffffffffffffffffffff1602179055506117b2806100616000396000f3fe608060405234801561001057600080fd5b50600436106100a85760003560e01c80633b305817116100715780633b3058171461017a5780636cf4c88f146101aa5780636de88b3c146101c6578063783ef0d0146101f6578063d9fa2a3e14610229578063e3dad51114610245576100a8565b80624c5e4b146100ad578063024cf6c7146100dd5780630a144391146100f95780632b4d34661461012c5780633a5381b51461015c575b600080fd5b6100c760048036038101906100c29190611024565b610261565b6040516100d4919061106c565b60405180910390f35b6100f760048036038101906100f291906111f2565b6102ba565b005b610113600480360381019061010e9190611024565b6105de565b604051610123949392919061136f565b60405180910390f35b61014660048036038101906101419190611024565b6106d0565b60405161015391906113bb565b60405180910390f35b610164610728565b60405161017191906113d6565b60405180910390f35b610194600480360381019061018f9190611024565b61074e565b6040516101a191906113bb565b60405180910390f35b6101c460048036038101906101bf9190611024565b6107a7565b005b6101e060048036038101906101db9190611024565b61096a565b6040516101ed919061106c565b60405180910390f35b610210600480360381019061020b9190611024565b6109c2565b604051610220949392919061136f565b60405180910390f35b610243600480360381019061023e91906111f2565b610ab4565b005b61025f600480360381019061025a9190611024565b610ca2565b005b6000600260008373ffffffffffffffffffffffffffffffffffffffff1673ffffffffffffffffffffffffffffffffffffffff16815260200190815260200160002060010160159054906101000a900460ff169050919050565b600260003373ffffffffffffffffffffffffffffffffffffffff1673ffffffffffffffffffffffffffffffffffffffff16815260200190815260200160002060010160159054906101000a900460ff16610349576040517f08c379a000000000000000000000000000000000000000000000000000000000815260040161034090611463565b60405180910390fd5b600073ffffffffffffffffffffffffffffffffffffffff168273ffffffffffffffffffffffffffffffffffffffff1614156103b9576040517f08c379a00000000000000000000000000000000000000000000000000000000081526004016103b0906114cf565b60405180910390fd5b6000808373ffffffffffffffffffffffffffffffffffffffff1673ffffffffffffffffffffffffffffffffffffffff16815260200190815260200160002060010160159054906101000a900460ff1615610448576040517f08c379a000000000000000000000000000000000000000000000000000000000815260040161043f9061153b565b60405180910390fd5b60405180608001604052808481526020018373ffffffffffffffffffffffffffffffffffffffff168152602001826002811115610488576104876112f8565b5b8152602001600115158152506000808473ffffffffffffffffffffffffffffffffffffffff1673ffffffffffffffffffffffffffffffffffffffff16815260200190815260200160002060008201518160000190805190602001906104ee929190610ecf565b5060208201518160010160006101000a81548173ffffffffffffffffffffffffffffffffffffffff021916908373ffffffffffffffffffffffffffffffffffffffff16021790555060408201518160010160146101000a81548160ff02191690836002811115610561576105606112f8565b5b021790555060608201518160010160156101000a81548160ff0219169083151502179055509050508173ffffffffffffffffffffffffffffffffffffffff167f590d575965892fb0b633fac46404d88e1d5a209230381ac9862a2cd0aabfa7be84836040516105d192919061155b565b60405180910390a2505050565b6002602052806000526040600020600091509050806000018054610601906115ba565b80601f016020809104026020016040519081016040528092919081815260200182805461062d906115ba565b801561067a5780601f1061064f5761010080835404028352916020019161067a565b820191906000526020600020905b81548152906001019060200180831161065d57829003601f168201915b5050505050908060010160009054906101000a900473ffffffffffffffffffffffffffffffffffffffff16908060010160149054906101000a900460ff16908060010160159054906101000a900460ff16905084565b60008060008373ffffffffffffffffffffffffffffffffffffffff1673ffffffffffffffffffffffffffffffffffffffff16815260200190815260200160002060010160149054906101000a900460ff169050919050565b600160009054906101000a900473ffffffffffffffffffffffffffffffffffffffff1681565b6000600260008373ffffffffffffffffffffffffffffffffffffffff1673ffffffffffffffffffffffffffffffffffffffff16815260200190815260200160002060010160149054906101000a900460ff169050919050565b600160009054906101000a900473ffffffffffffffffffffffffffffffffffffffff1673ffffffffffffffffffffffffffffffffffffffff163373ffffffffffffffffffffffffffffffffffffffff1614610837576040517f08c379a000000000000000000000000000000000000000000000000000000000815260040161082e9061165e565b60405180910390fd5b600260008273ffffffffffffffffffffffffffffffffffffffff1673ffffffffffffffffffffffffffffffffffffffff16815260200190815260200160002060010160159054906101000a900460ff166108c6576040517f08c379a00000000000000000000000000000000000000000000000000000000081526004016108bd906116ca565b60405180910390fd5b600260008273ffffffffffffffffffffffffffffffffffffffff1673ffffffffffffffffffffffffffffffffffffffff168152602001908152602001600020600080820160006109169190610f55565b6001820160006101000a81549073ffffffffffffffffffffffffffffffffffffffff02191690556001820160146101000a81549060ff02191690556001820160156101000a81549060ff0219169055505050565b60008060008373ffffffffffffffffffffffffffffffffffffffff1673ffffffffffffffffffffffffffffffffffffffff16815260200190815260200160002060010160159054906101000a900460ff169050919050565b60006020528060005260406000206000915090508060000180546109e5906115ba565b80601f0160208091040260200160405190810160405280929190818152602001828054610a11906115ba565b8015610a5e5780601f10610a3357610100808354040283529160200191610a5e565b820191906000526020600020905b815481529060010190602001808311610a4157829003601f168201915b5050505050908060010160009054906101000a900473ffffffffffffffffffffffffffffffffffffffff16908060010160149054906101000a900460ff16908060010160159054906101000a900460ff16905084565b600160009054906101000a900473ffffffffffffffffffffffffffffffffffffffff1673ffffffffffffffffffffffffffffffffffffffff163373ffffffffffffffffffffffffffffffffffffffff1614610b44576040517f08c379a0000000000000000000000000000000000000000000000000000000008152600401610b3b9061165e565b60405180910390fd5b600073ffffffffffffffffffffffffffffffffffffffff168273ffffffffffffffffffffffffffffffffffffffff161415610bb4576040517f08c379a0000000000000000000000000000000000000000000000000000000008152600401610bab906114cf565b60405180910390fd5b6000600260008473ffffffffffffffffffffffffffffffffffffffff1673ffffffffffffffffffffffffffffffffffffffff168152602001908152602001600020905083816000019080519060200190610c0f929190610ecf565b50828160010160006101000a81548173ffffffffffffffffffffffffffffffffffffffff021916908373ffffffffffffffffffffffffffffffffffffffff160217905550818160010160146101000a81548160ff02191690836002811115610c7a57610c796112f8565b5b021790555060018160010160156101000a81548160ff02191690831515021790555050505050565b600260003373ffffffffffffffffffffffffffffffffffffffff1673ffffffffffffffffffffffffffffffffffffffff16815260200190815260200160002060010160159054906101000a900460ff16610d31576040517f08c379a0000000000000000000000000000000000000000000000000000000008152600401610d2890611463565b60405180910390fd5b600073ffffffffffffffffffffffffffffffffffffffff168173ffffffffffffffffffffffffffffffffffffffff161415610da1576040517f08c379a0000000000000000000000000000000000000000000000000000000008152600401610d98906114cf565b60405180910390fd5b6000808273ffffffffffffffffffffffffffffffffffffffff1673ffffffffffffffffffffffffffffffffffffffff16815260200190815260200160002060010160159054906101000a900460ff16610e2f576040517f08c379a0000000000000000000000000000000000000000000000000000000008152600401610e269061175c565b60405180910390fd5b60008060008373ffffffffffffffffffffffffffffffffffffffff1673ffffffffffffffffffffffffffffffffffffffff16815260200190815260200160002060010160156101000a81548160ff0219169083151502179055508073ffffffffffffffffffffffffffffffffffffffff167f0ce6ffb7d34acdfa243a4fe4ee52fd2289d42f902f824194d6af9fda154bd4a360405160405180910390a250565b828054610edb906115ba565b90600052602060002090601f016020900481019282610efd5760008555610f44565b82601f10610f1657805160ff1916838001178555610f44565b82800160010185558215610f44579182015b82811115610f43578251825591602001919060010190610f28565b5b509050610f519190610f95565b5090565b508054610f61906115ba565b6000825580601f10610f735750610f92565b601f016020900490600052602060002090810190610f919190610f95565b5b50565b5b80821115610fae576000816000905550600101610f96565b5090565b6000604051905090565b600080fd5b600080fd5b600073ffffffffffffffffffffffffffffffffffffffff82169050919050565b6000610ff182610fc6565b9050919050565b61100181610fe6565b811461100c57600080fd5b50565b60008135905061101e81610ff8565b92915050565b60006020828403121561103a57611039610fbc565b5b60006110488482850161100f565b91505092915050565b60008115159050919050565b61106681611051565b82525050565b6000602082019050611081600083018461105d565b92915050565b600080fd5b600080fd5b6000601f19601f8301169050919050565b7f4e487b7100000000000000000000000000000000000000000000000000000000600052604160045260246000fd5b6110da82611091565b810181811067ffffffffffffffff821117156110f9576110f86110a2565b5b80604052505050565b600061110c610fb2565b905061111882826110d1565b919050565b600067ffffffffffffffff821115611138576111376110a2565b5b61114182611091565b9050602081019050919050565b82818337600083830152505050565b600061117061116b8461111d565b611102565b90508281526020810184848401111561118c5761118b61108c565b5b61119784828561114e565b509392505050565b600082601f8301126111b4576111b3611087565b5b81356111c484826020860161115d565b91505092915050565b600381106111da57600080fd5b50565b6000813590506111ec816111cd565b92915050565b60008060006060848603121561120b5761120a610fbc565b5b600084013567ffffffffffffffff81111561122957611228610fc1565b5b6112358682870161119f565b93505060206112468682870161100f565b9250506040611257868287016111dd565b9150509250925092565b600081519050919050565b600082825260208201905092915050565b60005b8381101561129b578082015181840152602081019050611280565b838111156112aa576000848401525b50505050565b60006112bb82611261565b6112c5818561126c565b93506112d581856020860161127d565b6112de81611091565b840191505092915050565b6112f281610fe6565b82525050565b7f4e487b7100000000000000000000000000000000000000000000000000000000600052602160045260246000fd5b60038110611338576113376112f8565b5b50565b600081905061134982611327565b919050565b60006113598261133b565b9050919050565b6113698161134e565b82525050565b6000608082019050818103600083015261138981876112b0565b905061139860208301866112e9565b6113a56040830185611360565b6113b2606083018461105d565b95945050505050565b60006020820190506113d06000830184611360565b92915050565b60006020820190506113eb60008301846112e9565b92915050565b7f5365756c206c27617070726f766572207065757420656e72656769737472657260008201527f20756e6520756e69766572736974652e00000000000000000000000000000000602082015250565b600061144d60308361126c565b9150611458826113f1565b604082019050919050565b6000602082019050818103600083015261147c81611440565b9050919050565b7f4164726573736520696e76616c6964652e000000000000000000000000000000600082015250565b60006114b960118361126c565b91506114c482611483565b602082019050919050565b600060208201905081810360008301526114e8816114ac565b9050919050565b7f4c27657461626c697373656d656e74206573742064656a612076616c6964652e600082015250565b600061152560208361126c565b9150611530826114ef565b602082019050919050565b6000602082019050818103600083015261155481611518565b9050919050565b6000604082019050818103600083015261157581856112b0565b90506115846020830184611360565b9392505050565b7f4e487b7100000000000000000000000000000000000000000000000000000000600052602260045260246000fd5b600060028204905060018216806115d257607f821691505b602082108114156115e6576115e561158b565b5b50919050565b7f5365756c206c652076616c69646174657572207065757420656e72656769737460008201527f72657220756e20617070726f7665722e00000000000000000000000000000000602082015250565b600061164860308361126c565b9150611653826115ec565b604082019050919050565b600060208201905081810360008301526116778161163b565b9050919050565b7f4c27617070726f7665722064656d616e6465206e27657869737465207061732e600082015250565b60006116b460208361126c565b91506116bf8261167e565b602082019050919050565b600060208201905081810360008301526116e3816116a7565b9050919050565b7f4c27657461626c697373656d656e74206e276573742070617320656e7265676960008201527f73747265206f752064656a6120696e76616c6964652e00000000000000000000602082015250565b600061174660368361126c565b9150611751826116ea565b604082019050919050565b6000602082019050818103600083015261177581611739565b905091905056fea2646970667358221220416c902194debd11a7d256ede2e41e44f63ad6dcd2aae8d4289aa42256ffc5db64736f6c63430008090033","opcodes":"PUSH1 0x80 PUSH1 0x40 MSTORE CALLVALUE DUP1 ISZERO PUSH2 0x10 JUMPI PUSH1 0x0 DUP1 REVERT JUMPDEST POP CALLER PUSH1 0x1 PUSH1 0x0 PUSH2 0x100 EXP DUP2 SLOAD DUP2 PUSH20 0xFFFFFFFFFFFFFFFFFFFFFFFFFFFFFFFFFFFFFFFF MUL NOT AND SWAP1 DUP4 PUSH20 0xFFFFFFFFFFFFFFFFFFFFFFFFFFFFFFFFFFFFFFFF AND MUL OR SWAP1 SSTORE POP PUSH2 0x17B2 DUP1 PUSH2 0x61 PUSH1 0x0 CODECOPY PUSH1 0x0 RETURN INVALID PUSH1 0x80 PUSH1 0x40 MSTORE CALLVALUE DUP1 ISZERO PUSH2 0x10 JUMPI PUSH1 0x0 DUP1 REVERT JUMPDEST POP PUSH1 0x4 CALLDATASIZE LT PUSH2 0xA8 JUMPI PUSH1 0x0 CALLDATALOAD PUSH1 0xE0 SHR DUP1 PUSH4 0x3B305817 GT PUSH2 0x71 JUMPI DUP1 PUSH4 0x3B305817 EQ PUSH2 0x17A JUMPI DUP1 PUSH4 0x6CF4C88F EQ PUSH2 0x1AA JUMPI DUP1 PUSH4 0x6DE88B3C EQ PUSH2 0x1C6 JUMPI DUP1 PUSH4 0x783EF0D0 EQ PUSH2 0x1F6 JUMPI DUP1 PUSH4 0xD9FA2A3E EQ PUSH2 0x229 JUMPI DUP1 PUSH4 0xE3DAD511 EQ PUSH2 0x245 JUMPI PUSH2 0xA8 JUMP JUMPDEST DUP1 PUSH3 0x4C5E4B EQ PUSH2 0xAD JUMPI DUP1 PUSH4 0x24CF6C7 EQ PUSH2 0xDD JUMPI DUP1 PUSH4 0xA144391 EQ PUSH2 0xF9 JUMPI DUP1 PUSH4 0x2B4D3466 EQ PUSH2 0x12C JUMPI DUP1 PUSH4 0x3A5381B5 EQ PUSH2 0x15C JUMPI JUMPDEST PUSH1 0x0 DUP1 REVERT JUMPDEST PUSH2 0xC7 PUSH1 0x4 DUP1 CALLDATASIZE SUB DUP2 ADD SWAP1 PUSH2 0xC2 SWAP2 SWAP1 PUSH2 0x1024 JUMP JUMPDEST PUSH2 0x261 JUMP JUMPDEST PUSH1 0x40 MLOAD PUSH2 0xD4 SWAP2 SWAP1 PUSH2 0x106C JUMP JUMPDEST PUSH1 0x40 MLOAD DUP1 SWAP2 SUB SWAP1 RETURN JUMPDEST PUSH2 0xF7 PUSH1 0x4 DUP1 CALLDATASIZE SUB DUP2 ADD SWAP1 PUSH2 0xF2 SWAP2 SWAP1 PUSH2 0x11F2 JUMP JUMPDEST PUSH2 0x2BA JUMP JUMPDEST STOP JUMPDEST PUSH2 0x113 PUSH1 0x4 DUP1 CALLDATASIZE SUB DUP2 ADD SWAP1 PUSH2 0x10E SWAP2 SWAP1 PUSH2 0x1024 JUMP JUMPDEST PUSH2 0x5DE JUMP JUMPDEST PUSH1 0x40 MLOAD PUSH2 0x123 SWAP5 SWAP4 SWAP3 SWAP2 SWAP1 PUSH2 0x136F JUMP JUMPDEST PUSH1 0x40 MLOAD DUP1 SWAP2 SUB SWAP1 RETURN JUMPDEST PUSH2 0x146 PUSH1 0x4 DUP1 CALLDATASIZE SUB DUP2 ADD SWAP1 PUSH2 0x141 SWAP2 SWAP1 PUSH2 0x1024 JUMP JUMPDEST PUSH2 0x6D0 JUMP JUMPDEST PUSH1 0x40 MLOAD PUSH2 0x153 SWAP2 SWAP1 PUSH2 0x13BB JUMP JUMPDEST PUSH1 0x40 MLOAD DUP1 SWAP2 SUB SWAP1 RETURN JUMPDEST PUSH2 0x164 PUSH2 0x728 JUMP JUMPDEST PUSH1 0x40 MLOAD PUSH2 0x171 SWAP2 SWAP1 PUSH2 0x13D6 JUMP JUMPDEST PUSH1 0x40 MLOAD DUP1 SWAP2 SUB SWAP1 RETURN JUMPDEST PUSH2 0x194 PUSH1 0x4 DUP1 CALLDATASIZE SUB DUP2 ADD SWAP1 PUSH2 0x18F SWAP2 SWAP1 PUSH2 0x1024 JUMP JUMPDEST PUSH2 0x74E JUMP JUMPDEST PUSH1 0x40 MLOAD PUSH2 0x1A1 SWAP2 SWAP1 PUSH2 0x13BB JUMP JUMPDEST PUSH1 0x40 MLOAD DUP1 SWAP2 SUB SWAP1 RETURN JUMPDEST PUSH2 0x1C4 PUSH1 0x4 DUP1 CALLDATASIZE SUB DUP2 ADD SWAP1 PUSH2 0x1BF SWAP2 SWAP1 PUSH2 0x1024 JUMP JUMPDEST PUSH2 0x7A7 JUMP JUMPDEST STOP JUMPDEST PUSH2 0x1E0 PUSH1 0x4 DUP1 CALLDATASIZE SUB DUP2 ADD SWAP1 PUSH2 0x1DB SWAP2 SWAP1 PUSH2 0x1024 JUMP JUMPDEST PUSH2 0x96A JUMP JUMPDEST PUSH1 0x40 MLOAD PUSH2 0x1ED SWAP2 SWAP1 PUSH2 0x106C JUMP JUMPDEST PUSH1 0x40 MLOAD DUP1 SWAP2 SUB SWAP1 RETURN JUMPDEST PUSH2 0x210 PUSH1 0x4 DUP1 CALLDATASIZE SUB DUP2 ADD SWAP1 PUSH2 0x20B SWAP2 SWAP1 PUSH2 0x1024 JUMP JUMPDEST PUSH2 0x9C2 JUMP JUMPDEST PUSH1 0x40 MLOAD PUSH2 0x220 SWAP5 SWAP4 SWAP3 SWAP2 SWAP1 PUSH2 0x136F JUMP JUMPDEST PUSH1 0x40 MLOAD DUP1 SWAP2 SUB SWAP1 RETURN JUMPDEST PUSH2 0x243 PUSH1 0x4 DUP1 CALLDATASIZE SUB DUP2 ADD SWAP1 PUSH2 0x23E SWAP2 SWAP1 PUSH2 0x11F2 JUMP JUMPDEST PUSH2 0xAB4 JUMP JUMPDEST STOP JUMPDEST PUSH2 0x25F PUSH1 0x4 DUP1 CALLDATASIZE SUB DUP2 ADD SWAP1 PUSH2 0x25A SWAP2 SWAP1 PUSH2 0x1024 JUMP JUMPDEST PUSH2 0xCA2 JUMP JUMPDEST STOP JUMPDEST PUSH1 0x0 PUSH1 0x2 PUSH1 0x0 DUP4 PUSH20 0xFFFFFFFFFFFFFFFFFFFFFFFFFFFFFFFFFFFFFFFF AND PUSH20 0xFFFFFFFFFFFFFFFFFFFFFFFFFFFFFFFFFFFFFFFF AND DUP2 MSTORE PUSH1 0x20 ADD SWAP1 DUP2 MSTORE PUSH1 0x20 ADD PUSH1 0x0 KECCAK256 PUSH1 0x1 ADD PUSH1 0x15 SWAP1 SLOAD SWAP1 PUSH2 0x100 EXP SWAP1 DIV PUSH1 0xFF AND SWAP1 POP SWAP2 SWAP1 POP JUMP JUMPDEST PUSH1 0x2 PUSH1 0x0 CALLER PUSH20 0xFFFFFFFFFFFFFFFFFFFFFFFFFFFFFFFFFFFFFFFF AND PUSH20 0xFFFFFFFFFFFFFFFFFFFFFFFFFFFFFFFFFFFFFFFF AND DUP2 MSTORE PUSH1 0x20 ADD SWAP1 DUP2 MSTORE PUSH1 0x20 ADD PUSH1 0x0 KECCAK256 PUSH1 0x1 ADD PUSH1 0x15 SWAP1 SLOAD SWAP1 PUSH2 0x100 EXP SWAP1 DIV PUSH1 0xFF AND PUSH2 0x349 JUMPI PUSH1 0x40 MLOAD PUSH32 0x8C379A000000000000000000000000000000000000000000000000000000000 DUP2 MSTORE PUSH1 0x4 ADD PUSH2 0x340 SWAP1 PUSH2 0x1463 JUMP JUMPDEST PUSH1 0x40 MLOAD DUP1 SWAP2 SUB SWAP1 REVERT JUMPDEST PUSH1 0x0 PUSH20 0xFFFFFFFFFFFFFFFFFFFFFFFFFFFFFFFFFFFFFFFF AND DUP3 PUSH20 0xFFFFFFFFFFFFFFFFFFFFFFFFFFFFFFFFFFFFFFFF AND EQ ISZERO PUSH2 0x3B9 JUMPI PUSH1 0x40 MLOAD PUSH32 0x8C379A000000000000000000000000000000000000000000000000000000000 DUP2 MSTORE PUSH1 0x4 ADD PUSH2 0x3B0 SWAP1 PUSH2 0x14CF JUMP JUMPDEST PUSH1 0x40 MLOAD DUP1 SWAP2 SUB SWAP1 REVERT JUMPDEST PUSH1 0x0 DUP1 DUP4 PUSH20 0xFFFFFFFFFFFFFFFFFFFFFFFFFFFFFFFFFFFFFFFF AND PUSH20 0xFFFFFFFFFFFFFFFFFFFFFFFFFFFFFFFFFFFFFFFF AND DUP2 MSTORE PUSH1 0x20 ADD SWAP1 DUP2 MSTORE PUSH1 0x20 ADD PUSH1 0x0 KECCAK256 PUSH1 0x1 ADD PUSH1 0x15 SWAP1 SLOAD SWAP1 PUSH2 0x100 EXP SWAP1 DIV PUSH1 0xFF AND ISZERO PUSH2 0x448 JUMPI PUSH1 0x40 MLOAD PUSH32 0x8C379A000000000000000000000000000000000000000000000000000000000 DUP2 MSTORE PUSH1 0x4 ADD PUSH2 0x43F SWAP1 PUSH2 0x153B JUMP JUMPDEST PUSH1 0x40 MLOAD DUP1 SWAP2 SUB SWAP1 REVERT JUMPDEST PUSH1 0x40 MLOAD DUP1 PUSH1 0x80 ADD PUSH1 0x40 MSTORE DUP1 DUP5 DUP2 MSTORE PUSH1 0x20 ADD DUP4 PUSH20 0xFFFFFFFFFFFFFFFFFFFFFFFFFFFFFFFFFFFFFFFF AND DUP2 MSTORE PUSH1 0x20 ADD DUP3 PUSH1 0x2 DUP2 GT ISZERO PUSH2 0x488 JUMPI PUSH2 0x487 PUSH2 0x12F8 JUMP JUMPDEST JUMPDEST DUP2 MSTORE PUSH1 0x20 ADD PUSH1 0x1 ISZERO ISZERO DUP2 MSTORE POP PUSH1 0x0 DUP1 DUP5 PUSH20 0xFFFFFFFFFFFFFFFFFFFFFFFFFFFFFFFFFFFFFFFF AND PUSH20 0xFFFFFFFFFFFFFFFFFFFFFFFFFFFFFFFFFFFFFFFF AND DUP2 MSTORE PUSH1 0x20 ADD SWAP1 DUP2 MSTORE PUSH1 0x20 ADD PUSH1 0x0 KECCAK256 PUSH1 0x0 DUP3 ADD MLOAD DUP2 PUSH1 0x0 ADD SWAP1 DUP1 MLOAD SWAP1 PUSH1 0x20 ADD SWAP1 PUSH2 0x4EE SWAP3 SWAP2 SWAP1 PUSH2 0xECF JUMP JUMPDEST POP PUSH1 0x20 DUP3 ADD MLOAD DUP2 PUSH1 0x1 ADD PUSH1 0x0 PUSH2 0x100 EXP DUP2 SLOAD DUP2 PUSH20 0xFFFFFFFFFFFFFFFFFFFFFFFFFFFFFFFFFFFFFFFF MUL NOT AND SWAP1 DUP4 PUSH20 0xFFFFFFFFFFFFFFFFFFFFFFFFFFFFFFFFFFFFFFFF AND MUL OR SWAP1 SSTORE POP PUSH1 0x40 DUP3 ADD MLOAD DUP2 PUSH1 0x1 ADD PUSH1 0x14 PUSH2 0x100 EXP DUP2 SLOAD DUP2 PUSH1 0xFF MUL NOT AND SWAP1 DUP4 PUSH1 0x2 DUP2 GT ISZERO PUSH2 0x561 JUMPI PUSH2 0x560 PUSH2 0x12F8 JUMP JUMPDEST JUMPDEST MUL OR SWAP1 SSTORE POP PUSH1 0x60 DUP3 ADD MLOAD DUP2 PUSH1 0x1 ADD PUSH1 0x15 PUSH2 0x100 EXP DUP2 SLOAD DUP2 PUSH1 0xFF MUL NOT AND SWAP1 DUP4 ISZERO ISZERO MUL OR SWAP1 SSTORE POP SWAP1 POP POP DUP2 PUSH20 0xFFFFFFFFFFFFFFFFFFFFFFFFFFFFFFFFFFFFFFFF AND PUSH32 0x590D575965892FB0B633FAC46404D88E1D5A209230381AC9862A2CD0AABFA7BE DUP5 DUP4 PUSH1 0x40 MLOAD PUSH2 0x5D1 SWAP3 SWAP2 SWAP1 PUSH2 0x155B JUMP JUMPDEST PUSH1 0x40 MLOAD DUP1 SWAP2 SUB SWAP1 LOG2 POP POP POP JUMP JUMPDEST PUSH1 0x2 PUSH1 0x20 MSTORE DUP1 PUSH1 0x0 MSTORE PUSH1 0x40 PUSH1 0x0 KECCAK256 PUSH1 0x0 SWAP2 POP SWAP1 POP DUP1 PUSH1 0x0 ADD DUP1 SLOAD PUSH2 0x601 SWAP1 PUSH2 0x15BA JUMP JUMPDEST DUP1 PUSH1 0x1F ADD PUSH1 0x20 DUP1 SWAP2 DIV MUL PUSH1 0x20 ADD PUSH1 0x40 MLOAD SWAP1 DUP2 ADD PUSH1 0x40 MSTORE DUP1 SWAP3 SWAP2 SWAP1 DUP2 DUP2 MSTORE PUSH1 0x20 ADD DUP3 DUP1 SLOAD PUSH2 0x62D SWAP1 PUSH2 0x15BA JUMP JUMPDEST DUP1 ISZERO PUSH2 0x67A JUMPI DUP1 PUSH1 0x1F LT PUSH2 0x64F JUMPI PUSH2 0x100 DUP1 DUP4 SLOAD DIV MUL DUP4 MSTORE SWAP2 PUSH1 0x20 ADD SWAP2 PUSH2 0x67A JUMP JUMPDEST DUP3 ADD SWAP2 SWAP1 PUSH1 0x0 MSTORE PUSH1 0x20 PUSH1 0x0 KECCAK256 SWAP1 JUMPDEST DUP2 SLOAD DUP2 MSTORE SWAP1 PUSH1 0x1 ADD SWAP1 PUSH1 0x20 ADD DUP1 DUP4 GT PUSH2 0x65D JUMPI DUP3 SWAP1 SUB PUSH1 0x1F AND DUP3 ADD SWAP2 JUMPDEST POP POP POP POP POP SWAP1 DUP1 PUSH1 0x1 ADD PUSH1 0x0 SWAP1 SLOAD SWAP1 PUSH2 0x100 EXP SWAP1 DIV PUSH20 0xFFFFFFFFFFFFFFFFFFFFFFFFFFFFFFFFFFFFFFFF AND SWAP1 DUP1 PUSH1 0x1 ADD PUSH1 0x14 SWAP1 SLOAD SWAP1 PUSH2 0x100 EXP SWAP1 DIV PUSH1 0xFF AND SWAP1 DUP1 PUSH1 0x1 ADD PUSH1 0x15 SWAP1 SLOAD SWAP1 PUSH2 0x100 EXP SWAP1 DIV PUSH1 0xFF AND SWAP1 POP DUP5 JUMP JUMPDEST PUSH1 0x0 DUP1 PUSH1 0x0 DUP4 PUSH20 0xFFFFFFFFFFFFFFFFFFFFFFFFFFFFFFFFFFFFFFFF AND PUSH20 0xFFFFFFFFFFFFFFFFFFFFFFFFFFFFFFFFFFFFFFFF AND DUP2 MSTORE PUSH1 0x20 ADD SWAP1 DUP2 MSTORE PUSH1 0x20 ADD PUSH1 0x0 KECCAK256 PUSH1 0x1 ADD PUSH1 0x14 SWAP1 SLOAD SWAP1 PUSH2 0x100 EXP SWAP1 DIV PUSH1 0xFF AND SWAP1 POP SWAP2 SWAP1 POP JUMP JUMPDEST PUSH1 0x1 PUSH1 0x0 SWAP1 SLOAD SWAP1 PUSH2 0x100 EXP SWAP1 DIV PUSH20 0xFFFFFFFFFFFFFFFFFFFFFFFFFFFFFFFFFFFFFFFF AND DUP2 JUMP JUMPDEST PUSH1 0x0 PUSH1 0x2 PUSH1 0x0 DUP4 PUSH20 0xFFFFFFFFFFFFFFFFFFFFFFFFFFFFFFFFFFFFFFFF AND PUSH20 0xFFFFFFFFFFFFFFFFFFFFFFFFFFFFFFFFFFFFFFFF AND DUP2 MSTORE PUSH1 0x20 ADD SWAP1 DUP2 MSTORE PUSH1 0x20 ADD PUSH1 0x0 KECCAK256 PUSH1 0x1 ADD PUSH1 0x14 SWAP1 SLOAD SWAP1 PUSH2 0x100 EXP SWAP1 DIV PUSH1 0xFF AND SWAP1 POP SWAP2 SWAP1 POP JUMP JUMPDEST PUSH1 0x1 PUSH1 0x0 SWAP1 SLOAD SWAP1 PUSH2 0x100 EXP SWAP1 DIV PUSH20 0xFFFFFFFFFFFFFFFFFFFFFFFFFFFFFFFFFFFFFFFF AND PUSH20 0xFFFFFFFFFFFFFFFFFFFFFFFFFFFFFFFFFFFFFFFF AND CALLER PUSH20 0xFFFFFFFFFFFFFFFFFFFFFFFFFFFFFFFFFFFFFFFF AND EQ PUSH2 0x837 JUMPI PUSH1 0x40 MLOAD PUSH32 0x8C379A000000000000000000000000000000000000000000000000000000000 DUP2 MSTORE PUSH1 0x4 ADD PUSH2 0x82E SWAP1 PUSH2 0x165E JUMP JUMPDEST PUSH1 0x40 MLOAD DUP1 SWAP2 SUB SWAP1 REVERT JUMPDEST PUSH1 0x2 PUSH1 0x0 DUP3 PUSH20 0xFFFFFFFFFFFFFFFFFFFFFFFFFFFFFFFFFFFFFFFF AND PUSH20 0xFFFFFFFFFFFFFFFFFFFFFFFFFFFFFFFFFFFFFFFF AND DUP2 MSTORE PUSH1 0x20 ADD SWAP1 DUP2 MSTORE PUSH1 0x20 ADD PUSH1 0x0 KECCAK256 PUSH1 0x1 ADD PUSH1 0x15 SWAP1 SLOAD SWAP1 PUSH2 0x100 EXP SWAP1 DIV PUSH1 0xFF AND PUSH2 0x8C6 JUMPI PUSH1 0x40 MLOAD PUSH32 0x8C379A000000000000000000000000000000000000000000000000000000000 DUP2 MSTORE PUSH1 0x4 ADD PUSH2 0x8BD SWAP1 PUSH2 0x16CA JUMP JUMPDEST PUSH1 0x40 MLOAD DUP1 SWAP2 SUB SWAP1 REVERT JUMPDEST PUSH1 0x2 PUSH1 0x0 DUP3 PUSH20 0xFFFFFFFFFFFFFFFFFFFFFFFFFFFFFFFFFFFFFFFF AND PUSH20 0xFFFFFFFFFFFFFFFFFFFFFFFFFFFFFFFFFFFFFFFF AND DUP2 MSTORE PUSH1 0x20 ADD SWAP1 DUP2 MSTORE PUSH1 0x20 ADD PUSH1 0x0 KECCAK256 PUSH1 0x0 DUP1 DUP3 ADD PUSH1 0x0 PUSH2 0x916 SWAP2 SWAP1 PUSH2 0xF55 JUMP JUMPDEST PUSH1 0x1 DUP3 ADD PUSH1 0x0 PUSH2 0x100 EXP DUP2 SLOAD SWAP1 PUSH20 0xFFFFFFFFFFFFFFFFFFFFFFFFFFFFFFFFFFFFFFFF MUL NOT AND SWAP1 SSTORE PUSH1 0x1 DUP3 ADD PUSH1 0x14 PUSH2 0x100 EXP DUP2 SLOAD SWAP1 PUSH1 0xFF MUL NOT AND SWAP1 SSTORE PUSH1 0x1 DUP3 ADD PUSH1 0x15 PUSH2 0x100 EXP DUP2 SLOAD SWAP1 PUSH1 0xFF MUL NOT AND SWAP1 SSTORE POP POP POP JUMP JUMPDEST PUSH1 0x0 DUP1 PUSH1 0x0 DUP4 PUSH20 0xFFFFFFFFFFFFFFFFFFFFFFFFFFFFFFFFFFFFFFFF AND PUSH20 0xFFFFFFFFFFFFFFFFFFFFFFFFFFFFFFFFFFFFFFFF AND DUP2 MSTORE PUSH1 0x20 ADD SWAP1 DUP2 MSTORE PUSH1 0x20 ADD PUSH1 0x0 KECCAK256 PUSH1 0x1 ADD PUSH1 0x15 SWAP1 SLOAD SWAP1 PUSH2 0x100 EXP SWAP1 DIV PUSH1 0xFF AND SWAP1 POP SWAP2 SWAP1 POP JUMP JUMPDEST PUSH1 0x0 PUSH1 0x20 MSTORE DUP1 PUSH1 0x0 MSTORE PUSH1 0x40 PUSH1 0x0 KECCAK256 PUSH1 0x0 SWAP2 POP SWAP1 POP DUP1 PUSH1 0x0 ADD DUP1 SLOAD PUSH2 0x9E5 SWAP1 PUSH2 0x15BA JUMP JUMPDEST DUP1 PUSH1 0x1F ADD PUSH1 0x20 DUP1 SWAP2 DIV MUL PUSH1 0x20 ADD PUSH1 0x40 MLOAD SWAP1 DUP2 ADD PUSH1 0x40 MSTORE DUP1 SWAP3 SWAP2 SWAP1 DUP2 DUP2 MSTORE PUSH1 0x20 ADD DUP3 DUP1 SLOAD PUSH2 0xA11 SWAP1 PUSH2 0x15BA JUMP JUMPDEST DUP1 ISZERO PUSH2 0xA5E JUMPI DUP1 PUSH1 0x1F LT PUSH2 0xA33 JUMPI PUSH2 0x100 DUP1 DUP4 SLOAD DIV MUL DUP4 MSTORE SWAP2 PUSH1 0x20 ADD SWAP2 PUSH2 0xA5E JUMP JUMPDEST DUP3 ADD SWAP2 SWAP1 PUSH1 0x0 MSTORE PUSH1 0x20 PUSH1 0x0 KECCAK256 SWAP1 JUMPDEST DUP2 SLOAD DUP2 MSTORE SWAP1 PUSH1 0x1 ADD SWAP1 PUSH1 0x20 ADD DUP1 DUP4 GT PUSH2 0xA41 JUMPI DUP3 SWAP1 SUB PUSH1 0x1F AND DUP3 ADD SWAP2 JUMPDEST POP POP POP POP POP SWAP1 DUP1 PUSH1 0x1 ADD PUSH1 0x0 SWAP1 SLOAD SWAP1 PUSH2 0x100 EXP SWAP1 DIV PUSH20 0xFFFFFFFFFFFFFFFFFFFFFFFFFFFFFFFFFFFFFFFF AND SWAP1 DUP1 PUSH1 0x1 ADD PUSH1 0x14 SWAP1 SLOAD SWAP1 PUSH2 0x100 EXP SWAP1 DIV PUSH1 0xFF AND SWAP1 DUP1 PUSH1 0x1 ADD PUSH1 0x15 SWAP1 SLOAD SWAP1 PUSH2 0x100 EXP SWAP1 DIV PUSH1 0xFF AND SWAP1 POP DUP5 JUMP JUMPDEST PUSH1 0x1 PUSH1 0x0 SWAP1 SLOAD SWAP1 PUSH2 0x100 EXP SWAP1 DIV PUSH20 0xFFFFFFFFFFFFFFFFFFFFFFFFFFFFFFFFFFFFFFFF AND PUSH20 0xFFFFFFFFFFFFFFFFFFFFFFFFFFFFFFFFFFFFFFFF AND CALLER PUSH20 0xFFFFFFFFFFFFFFFFFFFFFFFFFFFFFFFFFFFFFFFF AND EQ PUSH2 0xB44 JUMPI PUSH1 0x40 MLOAD PUSH32 0x8C379A000000000000000000000000000000000000000000000000000000000 DUP2 MSTORE PUSH1 0x4 ADD PUSH2 0xB3B SWAP1 PUSH2 0x165E JUMP JUMPDEST PUSH1 0x40 MLOAD DUP1 SWAP2 SUB SWAP1 REVERT JUMPDEST PUSH1 0x0 PUSH20 0xFFFFFFFFFFFFFFFFFFFFFFFFFFFFFFFFFFFFFFFF AND DUP3 PUSH20 0xFFFFFFFFFFFFFFFFFFFFFFFFFFFFFFFFFFFFFFFF AND EQ ISZERO PUSH2 0xBB4 JUMPI PUSH1 0x40 MLOAD PUSH32 0x8C379A000000000000000000000000000000000000000000000000000000000 DUP2 MSTORE PUSH1 0x4 ADD PUSH2 0xBAB SWAP1 PUSH2 0x14CF JUMP JUMPDEST PUSH1 0x40 MLOAD DUP1 SWAP2 SUB SWAP1 REVERT JUMPDEST PUSH1 0x0 PUSH1 0x2 PUSH1 0x0 DUP5 PUSH20 0xFFFFFFFFFFFFFFFFFFFFFFFFFFFFFFFFFFFFFFFF AND PUSH20 0xFFFFFFFFFFFFFFFFFFFFFFFFFFFFFFFFFFFFFFFF AND DUP2 MSTORE PUSH1 0x20 ADD SWAP1 DUP2 MSTORE PUSH1 0x20 ADD PUSH1 0x0 KECCAK256 SWAP1 POP DUP4 DUP2 PUSH1 0x0 ADD SWAP1 DUP1 MLOAD SWAP1 PUSH1 0x20 ADD SWAP1 PUSH2 0xC0F SWAP3 SWAP2 SWAP1 PUSH2 0xECF JUMP JUMPDEST POP DUP3 DUP2 PUSH1 0x1 ADD PUSH1 0x0 PUSH2 0x100 EXP DUP2 SLOAD DUP2 PUSH20 0xFFFFFFFFFFFFFFFFFFFFFFFFFFFFFFFFFFFFFFFF MUL NOT AND SWAP1 DUP4 PUSH20 0xFFFFFFFFFFFFFFFFFFFFFFFFFFFFFFFFFFFFFFFF AND MUL OR SWAP1 SSTORE POP DUP2 DUP2 PUSH1 0x1 ADD PUSH1 0x14 PUSH2 0x100 EXP DUP2 SLOAD DUP2 PUSH1 0xFF MUL NOT AND SWAP1 DUP4 PUSH1 0x2 DUP2 GT ISZERO PUSH2 0xC7A JUMPI PUSH2 0xC79 PUSH2 0x12F8 JUMP JUMPDEST JUMPDEST MUL OR SWAP1 SSTORE POP PUSH1 0x1 DUP2 PUSH1 0x1 ADD PUSH1 0x15 PUSH2 0x100 EXP DUP2 SLOAD DUP2 PUSH1 0xFF MUL NOT AND SWAP1 DUP4 ISZERO ISZERO MUL OR SWAP1 SSTORE POP POP POP POP POP JUMP JUMPDEST PUSH1 0x2 PUSH1 0x0 CALLER PUSH20 0xFFFFFFFFFFFFFFFFFFFFFFFFFFFFFFFFFFFFFFFF AND PUSH20 0xFFFFFFFFFFFFFFFFFFFFFFFFFFFFFFFFFFFFFFFF AND DUP2 MSTORE PUSH1 0x20 ADD SWAP1 DUP2 MSTORE PUSH1 0x20 ADD PUSH1 0x0 KECCAK256 PUSH1 0x1 ADD PUSH1 0x15 SWAP1 SLOAD SWAP1 PUSH2 0x100 EXP SWAP1 DIV PUSH1 0xFF AND PUSH2 0xD31 JUMPI PUSH1 0x40 MLOAD PUSH32 0x8C379A000000000000000000000000000000000000000000000000000000000 DUP2 MSTORE PUSH1 0x4 ADD PUSH2 0xD28 SWAP1 PUSH2 0x1463 JUMP JUMPDEST PUSH1 0x40 MLOAD DUP1 SWAP2 SUB SWAP1 REVERT JUMPDEST PUSH1 0x0 PUSH20 0xFFFFFFFFFFFFFFFFFFFFFFFFFFFFFFFFFFFFFFFF AND DUP2 PUSH20 0xFFFFFFFFFFFFFFFFFFFFFFFFFFFFFFFFFFFFFFFF AND EQ ISZERO PUSH2 0xDA1 JUMPI PUSH1 0x40 MLOAD PUSH32 0x8C379A000000000000000000000000000000000000000000000000000000000 DUP2 MSTORE PUSH1 0x4 ADD PUSH2 0xD98 SWAP1 PUSH2 0x14CF JUMP JUMPDEST PUSH1 0x40 MLOAD DUP1 SWAP2 SUB SWAP1 REVERT JUMPDEST PUSH1 0x0 DUP1 DUP3 PUSH20 0xFFFFFFFFFFFFFFFFFFFFFFFFFFFFFFFFFFFFFFFF AND PUSH20 0xFFFFFFFFFFFFFFFFFFFFFFFFFFFFFFFFFFFFFFFF AND DUP2 MSTORE PUSH1 0x20 ADD SWAP1 DUP2 MSTORE PUSH1 0x20 ADD PUSH1 0x0 KECCAK256 PUSH1 0x1 ADD PUSH1 0x15 SWAP1 SLOAD SWAP1 PUSH2 0x100 EXP SWAP1 DIV PUSH1 0xFF AND PUSH2 0xE2F JUMPI PUSH1 0x40 MLOAD PUSH32 0x8C379A000000000000000000000000000000000000000000000000000000000 DUP2 MSTORE PUSH1 0x4 ADD PUSH2 0xE26 SWAP1 PUSH2 0x175C JUMP JUMPDEST PUSH1 0x40 MLOAD DUP1 SWAP2 SUB SWAP1 REVERT JUMPDEST PUSH1 0x0 DUP1 PUSH1 0x0 DUP4 PUSH20 0xFFFFFFFFFFFFFFFFFFFFFFFFFFFFFFFFFFFFFFFF AND PUSH20 0xFFFFFFFFFFFFFFFFFFFFFFFFFFFFFFFFFFFFFFFF AND DUP2 MSTORE PUSH1 0x20 ADD SWAP1 DUP2 MSTORE PUSH1 0x20 ADD PUSH1 0x0 KECCAK256 PUSH1 0x1 ADD PUSH1 0x15 PUSH2 0x100 EXP DUP2 SLOAD DUP2 PUSH1 0xFF MUL NOT AND SWAP1 DUP4 ISZERO ISZERO MUL OR SWAP1 SSTORE POP DUP1 PUSH20 0xFFFFFFFFFFFFFFFFFFFFFFFFFFFFFFFFFFFFFFFF AND PUSH32 0xCE6FFB7D34ACDFA243A4FE4EE52FD2289D42F902F824194D6AF9FDA154BD4A3 PUSH1 0x40 MLOAD PUSH1 0x40 MLOAD DUP1 SWAP2 SUB SWAP1 LOG2 POP JUMP JUMPDEST DUP3 DUP1 SLOAD PUSH2 0xEDB SWAP1 PUSH2 0x15BA JUMP JUMPDEST SWAP1 PUSH1 0x0 MSTORE PUSH1 0x20 PUSH1 0x0 KECCAK256 SWAP1 PUSH1 0x1F ADD PUSH1 0x20 SWAP1 DIV DUP2 ADD SWAP3 DUP3 PUSH2 0xEFD JUMPI PUSH1 0x0 DUP6 SSTORE PUSH2 0xF44 JUMP JUMPDEST DUP3 PUSH1 0x1F LT PUSH2 0xF16 JUMPI DUP1 MLOAD PUSH1 0xFF NOT AND DUP4 DUP1 ADD OR DUP6 SSTORE PUSH2 0xF44 JUMP JUMPDEST DUP3 DUP1 ADD PUSH1 0x1 ADD DUP6 SSTORE DUP3 ISZERO PUSH2 0xF44 JUMPI SWAP2 DUP3 ADD JUMPDEST DUP3 DUP2 GT ISZERO PUSH2 0xF43 JUMPI DUP3 MLOAD DUP3 SSTORE SWAP2 PUSH1 0x20 ADD SWAP2 SWAP1 PUSH1 0x1 ADD SWAP1 PUSH2 0xF28 JUMP JUMPDEST JUMPDEST POP SWAP1 POP PUSH2 0xF51 SWAP2 SWAP1 PUSH2 0xF95 JUMP JUMPDEST POP SWAP1 JUMP JUMPDEST POP DUP1 SLOAD PUSH2 0xF61 SWAP1 PUSH2 0x15BA JUMP JUMPDEST PUSH1 0x0 DUP3 SSTORE DUP1 PUSH1 0x1F LT PUSH2 0xF73 JUMPI POP PUSH2 0xF92 JUMP JUMPDEST PUSH1 0x1F ADD PUSH1 0x20 SWAP1 DIV SWAP1 PUSH1 0x0 MSTORE PUSH1 0x20 PUSH1 0x0 KECCAK256 SWAP1 DUP2 ADD SWAP1 PUSH2 0xF91 SWAP2 SWAP1 PUSH2 0xF95 JUMP JUMPDEST JUMPDEST POP JUMP JUMPDEST JUMPDEST DUP1 DUP3 GT ISZERO PUSH2 0xFAE JUMPI PUSH1 0x0 DUP2 PUSH1 0x0 SWAP1 SSTORE POP PUSH1 0x1 ADD PUSH2 0xF96 JUMP JUMPDEST POP SWAP1 JUMP JUMPDEST PUSH1 0x0 PUSH1 0x40 MLOAD SWAP1 POP SWAP1 JUMP JUMPDEST PUSH1 0x0 DUP1 REVERT JUMPDEST PUSH1 0x0 DUP1 REVERT JUMPDEST PUSH1 0x0 PUSH20 0xFFFFFFFFFFFFFFFFFFFFFFFFFFFFFFFFFFFFFFFF DUP3 AND SWAP1 POP SWAP2 SWAP1 POP JUMP JUMPDEST PUSH1 0x0 PUSH2 0xFF1 DUP3 PUSH2 0xFC6 JUMP JUMPDEST SWAP1 POP SWAP2 SWAP1 POP JUMP JUMPDEST PUSH2 0x1001 DUP2 PUSH2 0xFE6 JUMP JUMPDEST DUP2 EQ PUSH2 0x100C JUMPI PUSH1 0x0 DUP1 REVERT JUMPDEST POP JUMP JUMPDEST PUSH1 0x0 DUP2 CALLDATALOAD SWAP1 POP PUSH2 0x101E DUP2 PUSH2 0xFF8 JUMP JUMPDEST SWAP3 SWAP2 POP POP JUMP JUMPDEST PUSH1 0x0 PUSH1 0x20 DUP3 DUP5 SUB SLT ISZERO PUSH2 0x103A JUMPI PUSH2 0x1039 PUSH2 0xFBC JUMP JUMPDEST JUMPDEST PUSH1 0x0 PUSH2 0x1048 DUP5 DUP3 DUP6 ADD PUSH2 0x100F JUMP JUMPDEST SWAP2 POP POP SWAP3 SWAP2 POP POP JUMP JUMPDEST PUSH1 0x0 DUP2 ISZERO ISZERO SWAP1 POP SWAP2 SWAP1 POP JUMP JUMPDEST PUSH2 0x1066 DUP2 PUSH2 0x1051 JUMP JUMPDEST DUP3 MSTORE POP POP JUMP JUMPDEST PUSH1 0x0 PUSH1 0x20 DUP3 ADD SWAP1 POP PUSH2 0x1081 PUSH1 0x0 DUP4 ADD DUP5 PUSH2 0x105D JUMP JUMPDEST SWAP3 SWAP2 POP POP JUMP JUMPDEST PUSH1 0x0 DUP1 REVERT JUMPDEST PUSH1 0x0 DUP1 REVERT JUMPDEST PUSH1 0x0 PUSH1 0x1F NOT PUSH1 0x1F DUP4 ADD AND SWAP1 POP SWAP2 SWAP1 POP JUMP JUMPDEST PUSH32 0x4E487B7100000000000000000000000000000000000000000000000000000000 PUSH1 0x0 MSTORE PUSH1 0x41 PUSH1 0x4 MSTORE PUSH1 0x24 PUSH1 0x0 REVERT JUMPDEST PUSH2 0x10DA DUP3 PUSH2 0x1091 JUMP JUMPDEST DUP2 ADD DUP2 DUP2 LT PUSH8 0xFFFFFFFFFFFFFFFF DUP3 GT OR ISZERO PUSH2 0x10F9 JUMPI PUSH2 0x10F8 PUSH2 0x10A2 JUMP JUMPDEST JUMPDEST DUP1 PUSH1 0x40 MSTORE POP POP POP JUMP JUMPDEST PUSH1 0x0 PUSH2 0x110C PUSH2 0xFB2 JUMP JUMPDEST SWAP1 POP PUSH2 0x1118 DUP3 DUP3 PUSH2 0x10D1 JUMP JUMPDEST SWAP2 SWAP1 POP JUMP JUMPDEST PUSH1 0x0 PUSH8 0xFFFFFFFFFFFFFFFF DUP3 GT ISZERO PUSH2 0x1138 JUMPI PUSH2 0x1137 PUSH2 0x10A2 JUMP JUMPDEST JUMPDEST PUSH2 0x1141 DUP3 PUSH2 0x1091 JUMP JUMPDEST SWAP1 POP PUSH1 0x20 DUP2 ADD SWAP1 POP SWAP2 SWAP1 POP JUMP JUMPDEST DUP3 DUP2 DUP4 CALLDATACOPY PUSH1 0x0 DUP4 DUP4 ADD MSTORE POP POP POP JUMP JUMPDEST PUSH1 0x0 PUSH2 0x1170 PUSH2 0x116B DUP5 PUSH2 0x111D JUMP JUMPDEST PUSH2 0x1102 JUMP JUMPDEST SWAP1 POP DUP3 DUP2 MSTORE PUSH1 0x20 DUP2 ADD DUP5 DUP5 DUP5 ADD GT ISZERO PUSH2 0x118C JUMPI PUSH2 0x118B PUSH2 0x108C JUMP JUMPDEST JUMPDEST PUSH2 0x1197 DUP5 DUP3 DUP6 PUSH2 0x114E JUMP JUMPDEST POP SWAP4 SWAP3 POP POP POP JUMP JUMPDEST PUSH1 0x0 DUP3 PUSH1 0x1F DUP4 ADD SLT PUSH2 0x11B4 JUMPI PUSH2 0x11B3 PUSH2 0x1087 JUMP JUMPDEST JUMPDEST DUP2 CALLDATALOAD PUSH2 0x11C4 DUP5 DUP3 PUSH1 0x20 DUP7 ADD PUSH2 0x115D JUMP JUMPDEST SWAP2 POP POP SWAP3 SWAP2 POP POP JUMP JUMPDEST PUSH1 0x3 DUP2 LT PUSH2 0x11DA JUMPI PUSH1 0x0 DUP1 REVERT JUMPDEST POP JUMP JUMPDEST PUSH1 0x0 DUP2 CALLDATALOAD SWAP1 POP PUSH2 0x11EC DUP2 PUSH2 0x11CD JUMP JUMPDEST SWAP3 SWAP2 POP POP JUMP JUMPDEST PUSH1 0x0 DUP1 PUSH1 0x0 PUSH1 0x60 DUP5 DUP7 SUB SLT ISZERO PUSH2 0x120B JUMPI PUSH2 0x120A PUSH2 0xFBC JUMP JUMPDEST JUMPDEST PUSH1 0x0 DUP5 ADD CALLDATALOAD PUSH8 0xFFFFFFFFFFFFFFFF DUP2 GT ISZERO PUSH2 0x1229 JUMPI PUSH2 0x1228 PUSH2 0xFC1 JUMP JUMPDEST JUMPDEST PUSH2 0x1235 DUP7 DUP3 DUP8 ADD PUSH2 0x119F JUMP JUMPDEST SWAP4 POP POP PUSH1 0x20 PUSH2 0x1246 DUP7 DUP3 DUP8 ADD PUSH2 0x100F JUMP JUMPDEST SWAP3 POP POP PUSH1 0x40 PUSH2 0x1257 DUP7 DUP3 DUP8 ADD PUSH2 0x11DD JUMP JUMPDEST SWAP2 POP POP SWAP3 POP SWAP3 POP SWAP3 JUMP JUMPDEST PUSH1 0x0 DUP2 MLOAD SWAP1 POP SWAP2 SWAP1 POP JUMP JUMPDEST PUSH1 0x0 DUP3 DUP3 MSTORE PUSH1 0x20 DUP3 ADD SWAP1 POP SWAP3 SWAP2 POP POP JUMP JUMPDEST PUSH1 0x0 JUMPDEST DUP4 DUP2 LT ISZERO PUSH2 0x129B JUMPI DUP1 DUP3 ADD MLOAD DUP2 DUP5 ADD MSTORE PUSH1 0x20 DUP2 ADD SWAP1 POP PUSH2 0x1280 JUMP JUMPDEST DUP4 DUP2 GT ISZERO PUSH2 0x12AA JUMPI PUSH1 0x0 DUP5 DUP5 ADD MSTORE JUMPDEST POP POP POP POP JUMP JUMPDEST PUSH1 0x0 PUSH2 0x12BB DUP3 PUSH2 0x1261 JUMP JUMPDEST PUSH2 0x12C5 DUP2 DUP6 PUSH2 0x126C JUMP JUMPDEST SWAP4 POP PUSH2 0x12D5 DUP2 DUP6 PUSH1 0x20 DUP7 ADD PUSH2 0x127D JUMP JUMPDEST PUSH2 0x12DE DUP2 PUSH2 0x1091 JUMP JUMPDEST DUP5 ADD SWAP2 POP POP SWAP3 SWAP2 POP POP JUMP JUMPDEST PUSH2 0x12F2 DUP2 PUSH2 0xFE6 JUMP JUMPDEST DUP3 MSTORE POP POP JUMP JUMPDEST PUSH32 0x4E487B7100000000000000000000000000000000000000000000000000000000 PUSH1 0x0 MSTORE PUSH1 0x21 PUSH1 0x4 MSTORE PUSH1 0x24 PUSH1 0x0 REVERT JUMPDEST PUSH1 0x3 DUP2 LT PUSH2 0x1338 JUMPI PUSH2 0x1337 PUSH2 0x12F8 JUMP JUMPDEST JUMPDEST POP JUMP JUMPDEST PUSH1 0x0 DUP2 SWAP1 POP PUSH2 0x1349 DUP3 PUSH2 0x1327 JUMP JUMPDEST SWAP2 SWAP1 POP JUMP JUMPDEST PUSH1 0x0 PUSH2 0x1359 DUP3 PUSH2 0x133B JUMP JUMPDEST SWAP1 POP SWAP2 SWAP1 POP JUMP JUMPDEST PUSH2 0x1369 DUP2 PUSH2 0x134E JUMP JUMPDEST DUP3 MSTORE POP POP JUMP JUMPDEST PUSH1 0x0 PUSH1 0x80 DUP3 ADD SWAP1 POP DUP2 DUP2 SUB PUSH1 0x0 DUP4 ADD MSTORE PUSH2 0x1389 DUP2 DUP8 PUSH2 0x12B0 JUMP JUMPDEST SWAP1 POP PUSH2 0x1398 PUSH1 0x20 DUP4 ADD DUP7 PUSH2 0x12E9 JUMP JUMPDEST PUSH2 0x13A5 PUSH1 0x40 DUP4 ADD DUP6 PUSH2 0x1360 JUMP JUMPDEST PUSH2 0x13B2 PUSH1 0x60 DUP4 ADD DUP5 PUSH2 0x105D JUMP JUMPDEST SWAP6 SWAP5 POP POP POP POP POP JUMP JUMPDEST PUSH1 0x0 PUSH1 0x20 DUP3 ADD SWAP1 POP PUSH2 0x13D0 PUSH1 0x0 DUP4 ADD DUP5 PUSH2 0x1360 JUMP JUMPDEST SWAP3 SWAP2 POP POP JUMP JUMPDEST PUSH1 0x0 PUSH1 0x20 DUP3 ADD SWAP1 POP PUSH2 0x13EB PUSH1 0x0 DUP4 ADD DUP5 PUSH2 0x12E9 JUMP JUMPDEST SWAP3 SWAP2 POP POP JUMP JUMPDEST PUSH32 0x5365756C206C27617070726F766572207065757420656E726567697374726572 PUSH1 0x0 DUP3 ADD MSTORE PUSH32 0x20756E6520756E69766572736974652E00000000000000000000000000000000 PUSH1 0x20 DUP3 ADD MSTORE POP JUMP JUMPDEST PUSH1 0x0 PUSH2 0x144D PUSH1 0x30 DUP4 PUSH2 0x126C JUMP JUMPDEST SWAP2 POP PUSH2 0x1458 DUP3 PUSH2 0x13F1 JUMP JUMPDEST PUSH1 0x40 DUP3 ADD SWAP1 POP SWAP2 SWAP1 POP JUMP JUMPDEST PUSH1 0x0 PUSH1 0x20 DUP3 ADD SWAP1 POP DUP2 DUP2 SUB PUSH1 0x0 DUP4 ADD MSTORE PUSH2 0x147C DUP2 PUSH2 0x1440 JUMP JUMPDEST SWAP1 POP SWAP2 SWAP1 POP JUMP JUMPDEST PUSH32 0x4164726573736520696E76616C6964652E000000000000000000000000000000 PUSH1 0x0 DUP3 ADD MSTORE POP JUMP JUMPDEST PUSH1 0x0 PUSH2 0x14B9 PUSH1 0x11 DUP4 PUSH2 0x126C JUMP JUMPDEST SWAP2 POP PUSH2 0x14C4 DUP3 PUSH2 0x1483 JUMP JUMPDEST PUSH1 0x20 DUP3 ADD SWAP1 POP SWAP2 SWAP1 POP JUMP JUMPDEST PUSH1 0x0 PUSH1 0x20 DUP3 ADD SWAP1 POP DUP2 DUP2 SUB PUSH1 0x0 DUP4 ADD MSTORE PUSH2 0x14E8 DUP2 PUSH2 0x14AC JUMP JUMPDEST SWAP1 POP SWAP2 SWAP1 POP JUMP JUMPDEST PUSH32 0x4C27657461626C697373656D656E74206573742064656A612076616C6964652E PUSH1 0x0 DUP3 ADD MSTORE POP JUMP JUMPDEST PUSH1 0x0 PUSH2 0x1525 PUSH1 0x20 DUP4 PUSH2 0x126C JUMP JUMPDEST SWAP2 POP PUSH2 0x1530 DUP3 PUSH2 0x14EF JUMP JUMPDEST PUSH1 0x20 DUP3 ADD SWAP1 POP SWAP2 SWAP1 POP JUMP JUMPDEST PUSH1 0x0 PUSH1 0x20 DUP3 ADD SWAP1 POP DUP2 DUP2 SUB PUSH1 0x0 DUP4 ADD MSTORE PUSH2 0x1554 DUP2 PUSH2 0x1518 JUMP JUMPDEST SWAP1 POP SWAP2 SWAP1 POP JUMP JUMPDEST PUSH1 0x0 PUSH1 0x40 DUP3 ADD SWAP1 POP DUP2 DUP2 SUB PUSH1 0x0 DUP4 ADD MSTORE PUSH2 0x1575 DUP2 DUP6 PUSH2 0x12B0 JUMP JUMPDEST SWAP1 POP PUSH2 0x1584 PUSH1 0x20 DUP4 ADD DUP5 PUSH2 0x1360 JUMP JUMPDEST SWAP4 SWAP3 POP POP POP JUMP JUMPDEST PUSH32 0x4E487B7100000000000000000000000000000000000000000000000000000000 PUSH1 0x0 MSTORE PUSH1 0x22 PUSH1 0x4 MSTORE PUSH1 0x24 PUSH1 0x0 REVERT JUMPDEST PUSH1 0x0 PUSH1 0x2 DUP3 DIV SWAP1 POP PUSH1 0x1 DUP3 AND DUP1 PUSH2 0x15D2 JUMPI PUSH1 0x7F DUP3 AND SWAP2 POP JUMPDEST PUSH1 0x20 DUP3 LT DUP2 EQ ISZERO PUSH2 0x15E6 JUMPI PUSH2 0x15E5 PUSH2 0x158B JUMP JUMPDEST JUMPDEST POP SWAP2 SWAP1 POP JUMP JUMPDEST PUSH32 0x5365756C206C652076616C69646174657572207065757420656E726567697374 PUSH1 0x0 DUP3 ADD MSTORE PUSH32 0x72657220756E20617070726F7665722E00000000000000000000000000000000 PUSH1 0x20 DUP3 ADD MSTORE POP JUMP JUMPDEST PUSH1 0x0 PUSH2 0x1648 PUSH1 0x30 DUP4 PUSH2 0x126C JUMP JUMPDEST SWAP2 POP PUSH2 0x1653 DUP3 PUSH2 0x15EC JUMP JUMPDEST PUSH1 0x40 DUP3 ADD SWAP1 POP SWAP2 SWAP1 POP JUMP JUMPDEST PUSH1 0x0 PUSH1 0x20 DUP3 ADD SWAP1 POP DUP2 DUP2 SUB PUSH1 0x0 DUP4 ADD MSTORE PUSH2 0x1677 DUP2 PUSH2 0x163B JUMP JUMPDEST SWAP1 POP SWAP2 SWAP1 POP JUMP JUMPDEST PUSH32 0x4C27617070726F7665722064656D616E6465206E27657869737465207061732E PUSH1 0x0 DUP3 ADD MSTORE POP JUMP JUMPDEST PUSH1 0x0 PUSH2 0x16B4 PUSH1 0x20 DUP4 PUSH2 0x126C JUMP JUMPDEST SWAP2 POP PUSH2 0x16BF DUP3 PUSH2 0x167E JUMP JUMPDEST PUSH1 0x20 DUP3 ADD SWAP1 POP SWAP2 SWAP1 POP JUMP JUMPDEST PUSH1 0x0 PUSH1 0x20 DUP3 ADD SWAP1 POP DUP2 DUP2 SUB PUSH1 0x0 DUP4 ADD MSTORE PUSH2 0x16E3 DUP2 PUSH2 0x16A7 JUMP JUMPDEST SWAP1 POP SWAP2 SWAP1 POP JUMP JUMPDEST PUSH32 0x4C27657461626C697373656D656E74206E276573742070617320656E72656769 PUSH1 0x0 DUP3 ADD MSTORE PUSH32 0x73747265206F752064656A6120696E76616C6964652E00000000000000000000 PUSH1 0x20 DUP3 ADD MSTORE POP JUMP JUMPDEST PUSH1 0x0 PUSH2 0x1746 PUSH1 0x36 DUP4 PUSH2 0x126C JUMP JUMPDEST SWAP2 POP PUSH2 0x1751 DUP3 PUSH2 0x16EA JUMP JUMPDEST PUSH1 0x40 DUP3 ADD SWAP1 POP SWAP2 SWAP1 POP JUMP JUMPDEST PUSH1 0x0 PUSH1 0x20 DUP3 ADD SWAP1 POP DUP2 DUP2 SUB PUSH1 0x0 DUP4 ADD MSTORE PUSH2 0x1775 DUP2 PUSH2 0x1739 JUMP JUMPDEST SWAP1 POP SWAP2 SWAP1 POP JUMP INVALID LOG2 PUSH5 0x6970667358 0x22 SLT KECCAK256 COINBASE PUSH13 0x902194DEBD11A7D256EDE2E41E DIFFICULTY 0xF6 GASPRICE 0xD6 0xDC 0xD2 0xAA 0xE8 0xD4 0x28 SWAP11 LOG4 0x22 JUMP SELFDESTRUCT 0xC5 0xDB PUSH5 0x736F6C6343 STOP ADDMOD MULMOD STOP CALLER "},"gasEstimates":{"creation":{"codeDepositCost":"1213200","executionCost":"25527","totalCost":"1238727"},"external":{"addApprover(string,address,uint8)":"infinite","addEtablissementValid(string,address,uint8)":"infinite","approvers(address)":"infinite","etablissementsValides(address)":"infinite","getApproverType(address)":"3028","getEtablissementType(address)":"3095","isApproverValid(address)":"2940","isEtablissementValid(address)":"2983","removeApprover(address)":"infinite","revokeEtablissement(address)":"30774","validator()":"2603"}},"methodIdentifiers":{"addApprover(string,address,uint8)":"d9fa2a3e","addEtablissementValid(string,address,uint8)":"024cf6c7","approvers(address)":"0a144391","etablissementsValides(address)":"783ef0d0","getApproverType(address)":"3b305817","getEtablissementType(address)":"2b4d3466","isApproverValid(address)":"004c5e4b","isEtablissementValid(address)":"6de88b3c","removeApprover(address)":"6cf4c88f","revokeEtablissement(address)":"e3dad511","validator()":"3a5381b5"}},"storageLayout":{"storage":[{"astId":20,"contract":"GestionActeur.sol:GestionActeur","label":"etablissementsValides","offset":0,"slot":"0","type":"t_mapping(t_address,t_struct(Etablissement)15_storage)"},{"astId":22,"contract":"GestionActeur.sol:GestionActeur","label":"validator","offset":0,"slot":"1","type":"t_address"},{"astId":37,"contract":"GestionActeur.sol:GestionActeur","label":"approvers","offset":0,"slot":"2","type":"t_mapping(t_address,t_struct(Approver)32_storage)"}],"types":{"t_address":{"encoding":"inplace","label":"address","numberOfBytes":"20"},"t_bool":{"encoding":"inplace","label":"bool","numberOfBytes":"1"},"t_enum(DiplomaType)5":{"encoding":"inplace","label":"enum GestionActeur.DiplomaType","numberOfBytes":"1"},"t_mapping(t_address,t_struct(Approver)32_storage)":{"encoding":"mapping","key":"t_address","label":"mapping(address => struct GestionActeur.Approver)","numberOfBytes":"32","value":"t_struct(Approver)32_storage"},"t_mapping(t_address,t_struct(Etablissement)15_storage)":{"encoding":"mapping","key":"t_address","label":"mapping(address => struct GestionActeur.Etablissement)","numberOfBytes":"32","value":"t_struct(Etablissement)15_storage"},"t_string_storage":{"encoding":"bytes","label":"string","numberOfBytes":"32"},"t_struct(Approver)32_storage":{"encoding":"inplace","label":"struct GestionActeur.Approver","members":[{"astId":24,"contract":"GestionActeur.sol:GestionActeur","label":"nameApp","offset":0,"slot":"0","type":"t_string_storage"},{"astId":26,"contract":"GestionActeur.sol:GestionActeur","label":"approverAddress","offset":0,"slot":"1","type":"t_address"},{"astId":29,"contract":"GestionActeur.sol:GestionActeur","label":"typeApp","offset":20,"slot":"1","type":"t_enum(DiplomaType)5"},{"astId":31,"contract":"GestionActeur.sol:GestionActeur","label":"isApprover","offset":21,"slot":"1","type":"t_bool"}],"numberOfBytes":"64"},"t_struct(Etablissement)15_storage":{"encoding":"inplace","label":"struct GestionActeur.Etablissement","members":[{"astId":7,"contract":"GestionActeur.sol:GestionActeur","label":"name","offset":0,"slot":"0","type":"t_string_storage"},{"astId":9,"contract":"GestionActeur.sol:GestionActeur","label":"ethAddress","offset":0,"slot":"1","type":"t_address"},{"astId":12,"contract":"GestionActeur.sol:GestionActeur","label":"etabType","offset":20,"slot":"1","type":"t_enum(DiplomaType)5"},{"astId":14,"contract":"GestionActeur.sol:GestionActeur","label":"isValid","offset":21,"slot":"1","type":"t_bool"}],"numberOfBytes":"64"}}},"userdoc":{"kind":"user","methods":{},"version":1}}